:020000040800F2
:10000000A0C600203103000875900008D9660008DA
:1000100071900008171B0008F9D9000800000000C3
:100020000000000000000000000000007102000855
:100030000527000800000000CD02000855A70008B1
:100040004B0300084B0300084B0300084B03000858
:100050004B0300084B0300084B0300084B03000848
:100060004B0300084B030008352700084B0300082A
:10007000912300084B0300084B0300084B030008C2
:100080004B0300084B0300084B0300084B03000818
:100090001D1B00084B0300084B0300083F27000806
:1000A0004B03000851A800084B0300084B0300084D
:1000B0004B0300084B0300084B0300084B030008E8
:1000C0004B0300084B0300084B0300084B030008D8
:1000D0004B0300084B0300084B030008F1AF000876
:1000E0004B0300084B0300084B0300084B030008B8
:1000F0004B0300084B0300084B0300084B030008A8
:100100004B0300084B0300084B0300084B03000897
:100110004B0300084B0300084B0300084B03000887
:10012000A1230008B12300084B030008C1230008E5
:100130004B0300084B0300084B0300084B03000867
:10014000691B00084B0300084B0300087990000866
:100150004B030008D12300084B03000805B000083A
:100160004B0300084B0300084B0300084B03000837
:100170004B0300084B0300084B030008000000007D
:100180004B0300084B03000800F002F800F060F891
:100190000AA090E8000C82448344AAF10107DA45E2
:1001A00001D100F055F8AFF2090EBAE80F0013F0D4
:1001B000010F18BFFB1A43F001031847842D0100FB
:1001C000A42D01000A444FF0000C10F8013B13F07D
:1001D000070408BF10F8014B1D1108BF10F8015BA0
:1001E000641E05D010F8016B641E01F8016BF9D193
:1001F00013F0080F1EBF10F8014BAD1C0C1B09D1EA
:100200006D1E58BF01F801CBFAD505E014F8016B5B
:1002100001F8016B6D1EF9D59142D6D370470000ED
:100220000023002400250026103A28BF78C1FBD8FF
:10023000520728BF30C148BF0B6070471FB511F08F
:10024000FDFF9DE8030000F0C9FF1FBD10B510BD04
:1002500001F0B8F81146FFF7F1FF0FF0E7FC01F0ED
:10026000D6F803B4FFF7F2FF03BC01F00DF900006C
:100270002C4B19680868B0E8F04F80F30988BFF389
:100280006F8F4FF0000080F311887047000000006E
:1002900008480068006880F308884FF0000080F389
:1002A000148862B661B6BFF34F8FBFF36F8F00DF64
:1002B00000BF00BF08ED00E0DFF80C00016841F46A
:1002C00070010160704700BF88ED00E0EFF3098026
:1002D000BFF36F8F134B1A681EF0100F08BF20ED8D
:1002E000108A20E9F04F106009B44FF0500080F3FD
:1002F0001188BFF34F8FBFF36F8F10F0F1FB4FF0FA
:10030000000080F3118809BC19680868B0E8F04F54
:100310001EF0100F08BFB0EC108A80F30988BFF3FD
:100320006F8F7047C4020020EFF305807047000014
:100330000948804709480047FEE7FEE7FEE7FEE779
:10034000FEE7FEE7FEE7FEE7FEE7FEE704480549B5
:10035000054A064B704700003DA8000889010008C7
:10036000A0860020A0C60020A0A60020A0A60020F5
:100370009FED1A1AF5EE000A40EE010ABDEEE00A02
:10038000F5EEC00A10EE100AF1EE10FA38BF401E6A
:1003900000EE100A1349F7EE001AB8EEC00A30EE6C
:1003A000C00ADFED0F0A20EE200AFCEEC00A10EEB4
:1003B000900AC0F3080000EE900A01EB8000F8EE0E
:1003C000600A90ED011A70EE600A90ED000A71EE7D
:1003D000E01A21EE800A00EE810A704783F9223E7E
:1003E0000000004494260108B5EEC00AF1EE10FAB0
:1003F00007D2DFED1E0AB4EEE00AF1EE10FAA8BF54
:100400007047DFED1B0AB5EEC00A60EE200ABDEEB4
:10041000E01A11EE100AF1EE10FA38BF401E00EE9D
:10042000100A1549F7EE001AB8EEC00A30EEC00AFD
:10043000DFED100A60EE200ABCEEE00A10EE100AB2
:10044000C0F3080000EE100A01EB8000B8EE400A8D
:1004500090ED011A70EEC00A90ED000A71EEE01AFC
:1004600021EE800A00EE810A70470000CD024CB4F4
:1004700083F9223E000000449426010870B40588E8
:100480000E884468D1F804C05368B54208D140884A
:100490004988884201BF11888D425188884203D023
:1004A00070BC6FF00200704705FB00F1880827D090
:1004B00094ED001ADCED000A94ED010ADCED011A5E
:1004C00031EE201AD4ED020A70EE211A9CED020AD8
:1004D00083ED001AC3ED011A94ED031ADCED031A43
:1004E00030EE800A401E71EE210A83ED020A04F10B
:1004F0001004C3ED030A03F110030CF1100CD7D163
:1005000011F0030030D0B0F1004F30D200282BDDC5
:10051000211F1B1FACF1040210F0010F0AD091ED56
:10052000010AD2ED010A091D121D30EE200A83EDE9
:10053000010A1B1D400817D091ED010AD2ED010AF6
:10054000401E30EE200A83ED010A91ED020AD2ED41
:10055000020A01F1080102F1080230EE200A83EDDF
:10056000020A03F10803E7D170BC00207047B4EC25
:10057000010A401EFCEC010A30EE200AA3EC010A3D
:10058000F5D1F1E701804280436070472DE9F34FD8
:1005900084B0049840680090486801900498B0F8CE
:1005A00000E04588DFEDFE0A00200290B0EE600A10
:1005B000AE4506D108884988884204BF7146864501
:1005C00004D06FF0020006B0BDE8F08F01985FEA3A
:1005D000010C18BFB7EE001A3DD000BFBEEB0C01F6
:1005E00017D0B1F1004F80F01F82002911DD021FEA
:1005F00011F0010F1CBFC2ED010A121D4B1006D0F5
:10060000C2ED010AC2ED020A08325B1EF8D100EB0E
:100610008100BCF10102A0EC011A19D0B2F1004F27
:1006200080F00882002A13DD031F12F0010F1CBFA7
:10063000C3ED010A1B1D511008D000BFC3ED010A14
:10064000C3ED020A491E03F10803F7D100EB820053
:10065000BCF1010CC2D14FF000080395002D14BF6E
:10066000B0EE602A002000F0BF8100BF009908FBB7
:1006700005F001EB800B0199DBED002A01EB800016
:100680000346F0EE421AC64552D9AEEB0802ABEB78
:10069000850112F0010F17D001EB850191ED000AE1
:1006A000B5EEC00AF1EE10FA07DDB4EEE10AF1EEA4
:1006B00010FA09DDF0EE401A06E0B1EE400AF4EE61
:1006C000C01AF1EE10FAF5D3521031D001EB850CBF
:1006D0009CED000AB5EEC00AF1EE10FA05DDB4EEAD
:1006E000E10AF1EE10FA09DD06E0B1EE400AF4EE9F
:1006F000C01AF1EE10FA01D2F0EE401A01EBC5017A
:1007000091ED000AB5EEC00AF1EE10FA05DDB4EE87
:10071000E10AF1EE10FA09DD06E0B1EE400AF4EE6E
:10072000C01AF1EE10FA01D2F0EE401A521ECDD1ED
:10073000F5EEC01AF1EE10FA00F07381F5EEC02A62
:100740000126F1EE10FA0099D4BFB1EE620AB0EEC4
:10075000620AB4EE610AF1EE10FA1CBFAEEB0802B9
:10076000B2F1010C47D005FB08F201EB820292EDD9
:10077000001A00BFB0EE410A05FB06F4B5EEC00A50
:1007800000EB8404F1EE10FACCBFF0EE400AF1EE7B
:10079000400AF4EE610AF1EE10FA28D1B5EB080C2C
:1007A00011D0BCF1004F7DD2BCF1000F0BDD00BFBA
:1007B00092ED000AD1ED000ABCF1010CE2EC010A55
:1007C000A1EC010AF4D129000ED0B1F1004F6AD298
:1007D000002909DD94ED000AD0ED000A491EE4EC81
:1007E000010AA0EC010AF5D1012002900BE0761C71
:1007F000BCF1010CBED10298012804D0F5EEC02A4C
:10080000F1EE10FA7ED09BED000AB5EB08009A4697
:100810005946064622D0B0F1004F74D200281DDDA3
:10082000091F10F0010F06D0F0EE400A80EEA01A6A
:1008300081ED011A091D401010D000BFD1ED010A51
:10084000401E80EE801A81ED011A91ED021AC1EE70
:10085000000AC1ED020A01F10801EFD1280026D0FB
:10086000B0F1004F7ED2002821DDAAF1040110F082
:10087000010F06D0D1ED010A80EE801A81ED011A38
:10088000091D401013D000BFD1ED010A401E80EEBB
:10089000801A81ED011AD1ED020A80EE801A81EDF5
:1008A000021A01E0CBE0D6E001F10801ECD1DDE96C
:1008B00000124FF000095FEA0E0773D0C14504BF74
:1008C00001EB860102EB850274D091ED000ADC4653
:1008D0005046331E35D01C46B6F1004F7ED2002C58
:1008E0002FDD0B1FABF1040C16F0010F0FD0F0EE53
:1008F000400ADCED011AB0EE601A00EEE11A83ED59
:10090000011A01E08DE0B1E01B1D0CF1040C741024
:1009100015D000BFD3ED010A9CED011A40EE410A4B
:10092000C3ED010AD3ED020A9CED021A0CF1080C8A
:1009300040EE410AC3ED020A0833641EEAD101EB1E
:1009400086012B0036D0B3F1004F72D2002B31DD7F
:10095000A2F1040CAAF1040013F0010F0CD0DCED9D
:10096000010A00E08BE090ED011A001D40EE410A03
:10097000CCED010A0CF1040C5C1019D0DCED010A7D
:1009800090ED011A40EE410ACCED010ADCED020ABD
:1009900090ED021A083040EE410ACCED020A03E065
:1009A000000000000DE005E0641E0CF1080CE5D12C
:1009B00002EB830201EB88017F1E09F101097FF43C
:1009C0007DAF009808F10108001D00900398401EBB
:1009D00003907FF44BAE0299012900E058E004BF78
:1009E00006B0BDE8F08F00BFB5EEC00AF1EE10FA18
:1009F0007FF4E9AD04990EFB05F3002B4A684FF034
:100A000000010BD902EB810C9CED000AB5EEC00A87
:100A1000F1EE10FA02D1491C8B42F3D88B427FF4DD
:100A2000D2AD6FF00400CEE5E0EC010A491EFBD127
:100A3000EFE538E0E0EC010A521EFBD108E692ED4A
:100A4000000AD1ED000ABCF1010CE2EC010AA1ECB4
:100A5000010AF4D1B7E694ED000AD0ED000A491E70
:100A6000E4EC010AA0EC010AF5D1BDE6D1ED000AE3
:100A7000401E80EE801AA1EC011AF7D1EEE6D3ED0C
:100A8000000A401E80EE801AA3EC011AF7D10EE78F
:100A9000BCEC011AD1ED000A5B1E40EE410AE1EC0C
:100AA000010AF5D14DE7B0EC011AD2ED000A5B1E48
:100AB00040EE410AE2EC010AF5D17BE72DE9F04F67
:100AC00082B0466853680193058847884B880020A8
:100AD00000900888874201BFB2F800C0654552887F
:100AE00093421EBF6FF0020002B0BDE8F08F9FED91
:100AF000412A4FEA970EC7F3400B00BFDDE9000221
:100B000002EB800A4A6898464FF00009B0EE420AAC
:100B1000B4465FEA0E0025D092ED001ADCED001A13
:100B200002EB8302DCED010A01EE810A92ED001A6C
:100B300002EB8302401ED2ED001A02EB830200EEAC
:100B4000810A9CED021ADCED030A00040CF1100C82
:100B5000000C01EE210A92ED001A02EB830200EE76
:100B6000810AD9D117F0030026D0ACF10404A2EB1E
:100B7000830210F0010F08D002EB8302D4ED010ACA
:100B800092ED001A241D00EE810A5FEA0B0013D0DB
:100B900002EB830CD4ED010A9CED001A02EBC302B8
:100BA000401E00EE810AD4ED020A92ED001A04F113
:100BB000080400EE810AEBD109F10100AAEC010A58
:100BC0001FFA80F9486800EB8902A8F101001FFABA
:100BD00080F8B8F1000F99D1009806EB8706184409
:100BE00080B20090681E05042D0C87D102B0002051
:100BF000BDE8F08F0000000070B405880E884468DE
:100C0000D1F804C05368B54208D140884988884269
:100C100001BF11888D425188884203D070BC6FF0AB
:100C20000200704705FB00F1880827D094ED001AF8
:100C3000DCED000A94ED010ADCED011A31EE601AD8
:100C4000D4ED020A70EE611A9CED020A83ED001ADF
:100C5000C3ED011A94ED031ADCED031A30EEC00A5D
:100C6000401E71EE610A83ED020A04F11004C3ED27
:100C7000030A03F110030CF1100CD7D111F003009B
:100C800030D0B0F1004F30D200282BDD211F1B1FC8
:100C9000ACF1040210F0010F0AD091ED010AD2ED7F
:100CA000010A091D121D30EE600A83ED010A1B1DA9
:100CB000400817D091ED010AD2ED010A401E30EE36
:100CC000600A83ED010A91ED020AD2ED020A01F1F8
:100CD000080102F1080230EE600A83ED020A03F116
:100CE0000803E7D170BC00207047B4EC010A401E35
:100CF000FCEC010A30EE600AA3EC010AF5D1F1E741
:100D00002DE9F04F02884768B0F802804888D1F892
:100D1000049082B04FF0000A1646824207BF09884D
:100D200088456FF0020002B018BFBDE8F08F4FEAAF
:100D3000980B02EB42000190C8F34000CDF8000090
:100D400009EB8A01BBF1000F33D0019801EB820C53
:100D500001EB80043B46E64601EBC2054FEA0B007F
:100D600093ED000A401E81ED000A93ED010A01EBAC
:100D700002118CED000A93ED020A0CEB021C85EDCA
:100D8000000A93ED030A05EB021584ED000A04EB5B
:100D9000021403F11003E3D10EEB820000EB82009A
:100DA00000EB8201ABF10100504307EB0B1701EBA5
:100DB000001118F0030C21D03B1FA1EB82011CF0A5
:100DC000010F06D093ED010A01EB82011B1D81ED9D
:100DD000000A009880B100BF93ED010A01EB820484
:100DE00001EBC20184ED000A93ED020A401E81ED81
:100DF000000A03F10803EFD107EB8C070AF10100A9
:100E00001FFA80FA701E0604360C99D102B0002039
:100E1000BDE8F08F70B50C46054600F0C3F90068D8
:100E200022462946BDE8704000F00EBA70B506466D
:100E300000F0B8F9056806F10B0020F00704B44291
:100E40009CBF002070BD2B466A68BAB11068A042F2
:100E500010D304F1080188423CBF5068586007D3A2
:100E60005168101941601168091B016058601460D5
:100E7000101D70BD13465268002AE7D1214628464E
:100E800000F098F90028DED170BD70B50446051F4A
:100E900000F088F90068002C14BF446870BD002C75
:100EA00018BFAC423CBF20466468F8D301680A18FA
:100EB000AA4218BF456003D12A6805461144016063
:100EC00028684119A1421CBF6C6070BD61686960EF
:100ED00021680844286070BD53EA020C00F0698064
:100EE0002DE9F04B4FF00006002B1FBFB3FA83F53E
:100EF00003FA05F424FA05F65E4012BF1643B2FA6F
:100F000082F502FA05F4C5F120051EBF22FA05FCA0
:100F100044EA0C04203556EA044C4FEA144418BF46
:100F2000641C4FF000084FF00009904271EB030C75
:100F300039D3002919BFB1FA81F701FA07F6B0FADF
:100F400080F700FA07F6C7F120071EBF20FA07FC5A
:100F500046EA0C062037B6FBF4FCA7EB0507103F6A
:100F600007F01F0BCBF120060CFA0BFB2CFA06F650
:100F700044BFB3460026202FA4BF5E464FF0000BAF
:100F80005BEA060C08BF4FF0010B19EB0B09ABFB3A
:100F9000027C48EB0608C01B06FB02CC0BFB03CC13
:100FA00071EB0C01C1E70B46024641464846BDE8DD
:100FB000F08B13B54FF000004FF00001AFF300804D
:100FC000BDE81C40704740EA010310B59B070FD1F4
:100FD000042A0DD310C808C9121F9C42F8D020BAA9
:100FE00019BA884201D9012010BD4FF0FF3010BD61
:100FF0001AB1D30703D0521C07E0002010BD10F82F
:10100000013B11F8014B1B1B07D110F8013B11F8F4
:10101000014B1B1B01D1921EF1D1184610BD032AB2
:1010200040F2308010F0030C00F0158011F8013B05
:10103000BCF1020F624498BF11F801CB00F8013BEC
:1010400038BF11F8013BA2F1040298BF00F801CBB0
:1010500038BF00F8013B11F0030300F02580083A87
:10106000C0F0088051F8043B083A51F804CBA0E8DE
:101070000810F5E7121D5CBF51F8043B40F8043B33
:10108000AFF30080D20724BF11F8013B11F801CB68
:1010900048BF11F8012B24BF00F8013B00F801CB39
:1010A00048BF00F8012B704710B5203AC0F00B8004
:1010B000B1E81850203AA0E81850B1E81850A0E85C
:1010C0001850BFF4F5AF5FEA027C24BFB1E81850B6
:1010D000A0E8185044BF18C918C0BDE810405FEA26
:1010E000827C24BF51F8043B40F8043B08BF7047A2
:1010F000D20728BF31F8023B48BF11F8012B28BFA7
:1011000020F8023B48BF00F8012B70474FF0000267
:101110000429C0F0128010F0030C00F01B80CCF109
:10112000040CBCF1020F18BF00F8012BA8BF20F877
:10113000022BA1EB0C0100F00DB85FEAC17C24BFCB
:1011400000F8012B00F8012B48BF00F8012B704775
:101150004FF0000200B5134694469646203922BF50
:10116000A0E80C50A0E80C50B1F12001BFF4F7AF9B
:10117000090728BFA0E80C5048BF0CC05DF804EB7D
:10118000890028BF40F8042B08BF704748BF20F8EB
:10119000022B11F0804F18BF00F8012B70477047E9
:1011A000704770470048704744860020704770477A
:1011B0007047704738B504460A4600206946AFF3C9
:1011C0000080002808BF38BD02460099204600F084
:1011D000BFF8012038BD012000F0ECB8F8B5AFF33E
:1011E0000080054600200C46102000BF0646A819C6
:1011F000A0420DD9324669460020AFF300800700B7
:1012000008BF00F0D7F80098A04218BF0546C419DF
:10121000FFF7C8FF05600746F01D20F007004619DC
:10122000284600F00AF8B44208BFF8BDA21B3146B8
:101230003868BDE8F84000F08BB800210160C0E9D3
:1012400001107047102070472DE9F04F92468846F4
:1012500081460026A1B0354634463046314601AFBE
:1012600047F82010401C2028FADB09F10C008346C7
:10127000AFF30080D9F8041011E0B14200D90E4656
:101280000A680020641C1544520802D0401C202823
:10129000FADB57F82020521C47F820204968002923
:1012A000EBD1DCB120460EA123462A46B5FBF0F077
:1012B00000905046C047002457F8242022B1631EF6
:1012C000504612A10094C047641C202CF4DB584601
:1012D000AFF3008021B03046BDE8F08F0120E2E797
:1012E000256420627974657320696E202564206608
:1012F00072656520626C6F636B7320286176676529
:101300002073697A65202564290A0000256420621B
:101310006C6F636B7320325E25642B3120746F20F9
:10132000325E25640A00000010B500F00DF8006878
:1013300010BD10B5044600F007F8046010BD0000B1
:10134000004870473C860020004870473C860020DB
:10135000034640688C46002818BF88423CBF0346BD
:101360004068F8D318681844884207D00CF103008D
:1013700020F00700001D411A521A0146081D0A609C
:10138000FFF783BD1FB584B000200A9C06AB04AAFA
:1013900002A90094AFF3008018B1DDE9020108B0A2
:1013A00010BD0348204000F040F800200146F6E759
:1013B0000000207C10B500F03FF8BDE8104000F0C0
:1013C0002FB870477546FFF7BBFFAE46050069466C
:1013D000534620F00700854618B020B5FEF7B6FF4B
:1013E000BDE820404FF000064FF000074FF0000826
:1013F0004FF0000B21F00701AC46ACE8C009ACE8A7
:10140000C009ACE8C009ACE8C0098D46704710B50A
:101410000446AFF300802046BDE81040FEF721BF30
:10142000002801D000F030B8704710B500F04CF83B
:10143000BDE81040FFF7F4BF10B5012805D000212A
:1014400003A000F027F8012010BD09A1F8E7000073
:1014500053494752544D454D3A204F7574206F669D
:101460002068656170206D656D6F72790000000005
:101470003A2048656170206D656D6F727920636FE9
:10148000727275707465640001491820ABBEFEE786
:101490002600020070B505460C460A2000E06D1CCF
:1014A00000F068F835B128780028F8D102E0641C13
:1014B00000F060F814B120780028F8D1BDE8704041
:1014C0000A2000F057B8000010B5022803D04101EF
:1014D00003D50DA112E0002010BD010101D50FA11F
:1014E0000CE0C10001D511A108E0810001D512A1D5
:1014F00004E0400001D513A100E0002115A0FFF792
:10150000C9FF012010BD0000496E76616C6964203E
:101510004F7065726174696F6E000000446976698E
:101520006465204279205A65726F00004F766572BB
:10153000666C6F7700000000556E646572666C6FB4
:1015400077000000496E6578616374205265737599
:101550006C7400005349474650453A204172697403
:10156000686D6574696320657863657074696F6E12
:101570003A20000008B569468DF800000320ABBE94
:1015800008BD000010B501221021024802F032FB14
:1015900010BD00000000024010B5002210210248DA
:1015A00002F028FB10BD00000000024010B501222F
:1015B0001146024802F01EFB10BD0000000402406C
:1015C00010B500220121024802F014FB10BD0000FA
:1015D000000402401CB50446002000900190FFF773
:1015E000DBFF922000F0A2F906226946122000F0EB
:1015F0007DF9FFF7C7FF9DF80100000200B29DF8DA
:10160000001008438E4908800846B0F9000000EE3B
:10161000100AB8EEC00A8B48D0ED000A20EE200A6E
:10162000D4ED080A20EE200A84ED000A9DF803009C
:10163000000200B29DF80210084381490880084664
:10164000B0F9000000EE100AB8EEC00A7D48D0EDF7
:10165000000A20EE200AD4ED080A20EE200A84EDCC
:10166000010A9DF80500000200B29DF8041008432D
:10167000734908800846B0F9000000EE100AB8EE81
:10168000C00A7048D0ED000A20EE200AD4ED080A06
:1016900020EE200A84ED020AFFF792FF0822694635
:1016A000002000F023F9FFF781FF9DF800000F28CC
:1016B0004FD165480078E8B39DF80300000200B2FE
:1016C0009DF8021008435E49088094ED090A084617
:1016D000B0F9000000EE900AF8EEE00A5B4890EDE9
:1016E000001A10EE810A84ED030A9DF8050000023D
:1016F00000B29DF8041008435149088094ED0A0A8D
:101700000846B0F9000000EE900AF8EEE00A4F48F3
:1017100090ED001A10EE810A84ED040A9DF807008E
:10172000000200B29DF8061008434549088094ED78
:101730000B0A00E00EE00846B0F9000000EE900A47
:10174000F8EEE00A414890ED001A10EE810A84EDAF
:10175000050A44E09DF80300000200B29DF8021063
:101760000843374908800846B0F9000000EE100A27
:10177000B8EEC00A3548D0ED000A20EE200A84ED0C
:10178000030A9DF80500000200B29DF8041008430A
:101790002B4908800846B0F9000000EE100AB8EEA8
:1017A000C00A2A48D0ED000A20EE200A84ED040A7F
:1017B0009DF80700000200B29DF80610084320497A
:1017C00008800846B0F9000000EE100AB8EEC00A22
:1017D0001E48D0ED000A20EE200A84ED050AFFF72E
:1017E000DBFEA22000F0A2F802226946222000F0CF
:1017F0007DF8FFF7C7FE9DF80000C0009DF80110BE
:1018000040EA61100E4908800846B0F90000B0F5C2
:10181000806F05DB08460088A0F5006000B20880F4
:101820000748B0F9000000EE100AF8EEC00AB4EE66
:10183000001AB3EE070A00EE810A84ED070A1CBD08
:101840001A010020DC000020EC000020E000002055
:1018500070B504460D461C48046000201B49087002
:101860000CF0ACFE194909780843184908700CF0CF
:101870005BFF164909780843144908701DB11448E4
:1018800000F07EFA1CE09FED130A114880ED090A72
:101890009FED110A80ED0A0A9FED100A80ED0B0AF8
:1018A0009FED0F0A80ED0C0A90ED0C0ADFED0D0A9A
:1018B00080EE801A80ED081A9FED0B0A80ED060A73
:1018C0000248007870BD00001C010020E6000020E6
:1018D000402000209A0AB03B53F92EBBB0ECA9BAC5
:1018E000B3D61B41C3F51C410000204270B506462B
:1018F0000C46154646F0800000F018F806E055202A
:1019000000F014F82070641C681EC5B2002DF6D1DA
:1019100070BD70B504460D4644F0800000F006F836
:10192000552000F003F8287070BD000001B582B0AA
:101930004FF47A70012301AA02A9009003480068BD
:1019400003F010FE9DF804000EBD00001C010020F5
:1019500070B505460C462846FFF7E8FF2046FFF71E
:10196000E5FF70BD024691F82500032802DA91F8E0
:10197000260008B900207047B1F92A00904205DA24
:10198000D1F82E00401CC1F82E000DE0B1F92A005C
:101990004042904205DDD1F82E00401CC1F82E00D7
:1019A00002E00020C1F82E00D1F82E00B1F92C3051
:1019B000984201DD0120DEE70020DCE7D2ED020ADB
:1019C00092ED021AB6EE000A00EEC10AD2ED030A49
:1019D00092ED031A00EEC10AD0ED000A20EE200AB3
:1019E000D2ED010A92ED021A60EE810A92ED001A20
:1019F000D2ED031A41EE610A90ED011A00EE810A60
:101A0000D2ED010A92ED031A60EE810A92ED001AFE
:101A1000D2ED021A41EE210A90ED021A00EE810A7F
:101A2000F0EE000A20EE200A81ED000A92ED010A94
:101A3000D2ED020A20EE200AD2ED000A92ED031A3E
:101A400000EE810AD0ED000A60EE200A92ED011A44
:101A5000D2ED011AB6EE000A01EE610AD2ED031AC8
:101A600092ED032AB0EE401A01EEC21AD0ED011A2F
:101A7000B0EE600A01EE210AD2ED020A92ED031ADD
:101A800060EE810A92ED001AD2ED011A41EE610A70
:101A900090ED021A00EE810AF0EE000A20EE200A14
:101AA00081ED010A92ED010AD2ED030A20EE200A2F
:101AB000D2ED000A92ED021A00EEC10AD0ED000A42
:101AC00020EE200AD2ED020A92ED031A60EE810A9E
:101AD00092ED001AD2ED011A41EE210A90ED011AA1
:101AE00000EE810A92ED011AD2ED011AF6EE000A1B
:101AF00041EE610A92ED021AD2ED021A41EE610A3C
:101B000090ED021A00EE810AF0EE000A20EE200AA3
:101B100081ED020A704700BFFEE7000010B50248E1
:101B200001F068FA10BD00002C06002000B58BB053
:101B300001200990002007900120089000200190CA
:101B40000290039004900690059001A9054801F0C9
:101B500001F9044801F0F9FC0221024801F03AF8C9
:101B60000BB000BD2C06002010B5024801F042FA6F
:101B700010BD00005406002000B58BB00020079077
:101B800001200890002001900290039004900E2004
:101B900006900A90002005900120099001A90648AE
:101BA00001F0D8F8044801F0D0FC0221024801F00D
:101BB00011F80BB000BD000054060020F8B5064631
:101BC0000F4615460A2D00DBF8BD681E00EBC0006D
:101BD00000EB40002F4901EB4004A4F81F6004F122
:101BE0001900A4F81B70B4F81B00B4F81910401ABF
:101BF00000B2A4F81D00B4F81B00A4F81900207E60
:101C000040B901202076B4F81F00A4F82100B4F9EF
:101C10001F006060B4F81F20B4F82130D21A10B24F
:101C2000B4F923100CF0B8FC009020680099084427
:101C300020606068009908446060B4F81F00A4F850
:101C400021006068B4F928104843B4F9231090FBD0
:101C5000F1F000EE100AB8EEC00A10EE100AA06013
:101C60002068B4F928104843B4F9231090FBF1F030
:101C700000EE100AB8EEC00A10EE100A60612146AC
:101C8000009800B2FFF76EFE84F827000020009055
:101C900000BF99E7740A00200346042B15D007DC27
:101CA0007BB1012B0ED0022B0DD0032B12D10BE0F8
:101CB000202B0BD0212B0AD0222B09D0232B09D18A
:101CC00007E008E007E006E005E004E003E002E0EA
:101CD00001E000E000BF00BF002070470020704717
:101CE00010B500220449054809F02FFC04490348B7
:101CF00009F01CFC002010BDBC2F0020E0220020B9
:101D0000BC27002070B504460D462146094809F05D
:101D10000DFC084809F0D6FB07480068006A30B19E
:101D200005492A680968086A21460DF046F900202D
:101D300070BD0000E0220020CC00002010B503465A
:101D40000C460021084610BD2DE9F04104460D4621
:101D500000260A48D0F8BC72D7F8140210B101204E
:101D6000BDE8F0812A462146044809F0EEFB03480D
:101D700009F09EFC06463046F2E70000E022002013
:101D800070B52DED048B88B00446002006900790B6
:101D900000F0F2FBFE4880ED000A00BF00F0ECFB13
:101DA000FB48D0ED000A30EE600AF2EE040AB4EE11
:101DB000E00AF1EE10FA14DD9FEDF60A84ED090A4F
:101DC0009FEDF50A84ED0A0A9FEDF40A84ED0B0AF3
:101DD0009FEDF30A84ED0C0A9FEDF20A84ED060AEA
:101DE00057E29FEDF10A00F083FB9FEDF00A84EDCE
:101DF0000C0A9FEDEE0A84ED090A9FEDEC0A84EDD2
:101E00000A0A9FEDEA0A84ED0B0A002673E1FFF748
:101E1000C3FB9220FFF78AFD062206A91220FFF7D6
:101E200065FDFFF7AFFB9DF81900000200B29DF8B9
:101E3000181040EA010500EE105AB8EEC00ADC485E
:101E4000D0ED000A20EE200A84ED000A9DF81B0068
:101E5000000200B29DF81A1040EA010500EE105A87
:101E6000B8EEC00AD248D0ED000A20EE200A84ED78
:101E7000010A9DF81D00000200B29DF81C1040EA06
:101E8000010500EE105AB8EEC00AC948D0ED000AAC
:101E900020EE200A84ED020AD4ED000A60EEA00ACA
:101EA00094ED011AD4ED011A41EE210A94ED021AC3
:101EB000D4ED021A41EE210AB0EE600A0CF0B0FA3D
:101EC000B0EE408A94ED0C0A30EE080A84ED0C0A5C
:101ED000FFF776FB082206A90020FFF707FDFFF7B2
:101EE00065FB9DF818000F2850D19DF81B000002DB
:101EF00000B29DF81A1040EA010500EE105AB8EE43
:101F0000C00AAC48D0ED000A20EE200A84ED030A96
:101F100094ED090AD4ED030A30EE200A84ED090A93
:101F20009DF81D00000200B29DF81C1040EA01055A
:101F300000EE105AB8EEC00A9E48D0ED000A20EE1E
:101F4000200A84ED040A94ED0A0AD4ED040A30EE66
:101F5000200A84ED0A0A9DF81F00000200B29DF8D5
:101F60001E1040EA010500EE105AB8EEC00A914872
:101F7000D0ED000A20EE200A84ED050A94ED0B0A4C
:101F8000D4ED050A30EE200A84ED0B0A06BBF0EE14
:101F9000488AB0EE489A002017E004F10C0101EBEA
:101FA000800191ED000A03A901EB800181ED000A97
:101FB00004F10C0101EB800191ED000A694601EB8F
:101FC000800181ED000A411CC8B20328E5DB49E02D
:101FD000B4EEE88AF1EE10FA01DDF0EE488AB4EED4
:101FE000C98AF1EE10FA01D2B0EE489A002037E02B
:101FF00004F10C0101EB800191ED000A03A901EB52
:102000008001D1ED000AB4EEE00AF1EE10FA0ADD2B
:1020100004F10C0101EB800191ED000A03A901EB31
:10202000800181ED000A04F10C0101EB800191EDCA
:10203000000A694601EB8001D1ED000AB4EEE00A26
:10204000F1EE10FA0AD204F10C0101EB800191EDDE
:10205000000A694601EB800181ED000A411CC8B20B
:102060000328C5DB38EEC90A534880ED000A00207A
:1020700012E003A901EB800191ED000A694601EB32
:102080008001D1ED000A30EE600A4C4901EB80017D
:1020900081ED000A411CC8B20328EADB464890EDF6
:1020A000000AF6EE000AB4EEE00AF1EE10FA1BDCCC
:1020B000424890ED000ADFED420AB4EEE00AF1EE8C
:1020C00010FA11DC90ED010ADFED3D0AB4EEE00AF2
:1020D000F1EE10FA08DC90ED020ADFED390AB4EEF9
:1020E000E00AF1EE10FA00DD0AE09FED360A00F09A
:1020F000FFF9701C86B2344800888642FFF687AE2E
:1021000000BFD4ED0C0A3048008800EE100AB8EE8B
:10211000400A80EE801A84ED0C1A002015E004F1CC
:10212000240101EB8001D1ED000A2749098800EE66
:10213000101AB8EE400A80EE801A04F1240101EB77
:10214000800181ED001A411CC8B20328E7DBFFF7CC
:1021500023FAA220FFF7EAFB022206A92220FFF7BA
:10216000C5FBFFF70FFA9DF81800C0009DF8191085
:1021700040EA6115B5F5806F02DBA5F5006005B298
:1021800000EE105AF8EEC00AB4EE001A1EE000008D
:10219000140100209A0AB03B53F92EBBB0ECA9BA47
:1021A000B3D61B41000020420AD7A33B0000000029
:1021B000DC000020E0000020E800002034200020A7
:1021C0009A99193E6F12033A18010020B3EE070ADC
:1021D00000EE810A84ED060A34480088401C00B2F3
:1021E00032490880324890ED000AF6EE000AB4EE5B
:1021F000E00AF1EE10FA3FF7D1AD94ED0C0ADFEDF5
:102200002D0A30EE600AB0EEC00AF6EE000AB4EE17
:10221000E00AF1EE10FAEEDC274890ED000A5FEDDF
:10222000180AB4EEE00AF1EE10FAE4DC90ED010ACF
:102230005FED1D0AB4EEE00AF1EE10FADBDC90ED82
:10224000020A5FED210AB4EEE00AF1EE10FAD2DCE8
:1022500094ED090AB0EEC00ADFED180AB4EEE00A08
:10226000F1EE10FAC7DC94ED0A0AB0EEC00ADFED19
:10227000130AB4EEE00AF1EE10FABCDC94ED0B0A9E
:10228000B0EEC00ADFED0D0AB4EEE00AF1EE10FA8E
:10229000B1DC00BF94ED0C0ADFED090A80EE801A74
:1022A00084ED081A08B0BDEC048B70BDEE00002070
:1022B000E8000020CDCC1C41342000200AD7233C6C
:1022C000C3F51C41C16B00EE101AB5EEC00AF1EE69
:1022D00010FA03DDC16B00EE101A04E0C16B00EED2
:1022E000101AB1EE400A016E00EE901AB4EEE00A48
:1022F000F1EE10FA00D87047C16B00EE101AB5EE7F
:10230000C00AF1EE10FA03DDC16B00EE101A04E012
:10231000C16B00EE101AB1EE400AC16D00EE901ACA
:10232000B4EEE00AF1EE10FA05DD9FED180A10EEAA
:10233000101AC16127E0C16D00EE901AC16B00EE6A
:10234000101AB5EEC00AF1EE10FA03DDC16B00EE13
:10235000101A04E0C16B00EE101AB1EE400A30EE24
:10236000C01AC16D00EE101A016E00EE901A30EE28
:10237000600AC1EE000AC16900EE101A20EE800A60
:1023800010EE101AC16100BFB5E7000000000000A8
:1023900010B5024801F07AF910BD0000AC08002029
:1023A00010B5024801F072F910BD0000D4060020FB
:1023B00010B5024801F06AF910BD00000C090020B8
:1023C00010B5024801F062F910BD0000340700208A
:1023D00010B5024801F05AF910BD00006C09002048
:1023E0000146087810381823B0FBF3F20848805CE7
:1023F000C865032A05D908686FF30900001D8865C0
:1024000003E008686FF309008865886D7047000075
:1024100040260108014600208A6A8B69CBB932B197
:10242000012A0DD0022A03D0032A10D10EE000BFEA
:10243000CB6A03F08073B3F1807F00D1012007E005
:10244000CB6AB3F1C07F00D1012001E000E000BF02
:1024500034E08B69B3F5005F1AD132B1012A07D09D
:10246000022A03D0032A11D10AE000BF01200EE0A6
:10247000CB6A03F08073B3F1807F00D1012006E0C6
:10248000CB6AB3F1C07F00D1012000E000BF15E0AE
:1024900032B1012A05D0022A04D0032A0CD103E06C
:1024A00000BF00BF012008E0CB6A03F08073B3F1E6
:1024B000807F00D1012000E000BF00BF7047000016
:1024C00008B50848406800900749009809688842A4
:1024D00004D206480068401C04490860024900987C
:1024E000086008BD001000E0380100203401002021
:1024F0000C494868F0EE400A00BF0A494968091AC9
:1025000001EE101AF8EE411A074991ED001AB8EEE3
:10251000411A20EE811AF4EEC11AF1EE10FAECD352
:1025200070470000001000E02801002010B52DEDDC
:10253000028B82B004460E484068019020680199E1
:10254000081A00EE100AF8EE400A0A4890ED000A58
:10255000B8EE400A80EE801AB0EE418A0198206001
:10256000FFF7AEFFB0EE480A02B0BDEC028B10BD23
:10257000001000E02801002010B52DED028B00F0C6
:1025800059F80F4890ED000AB8EE400A808800EE36
:10259000900AF8EE600A9FED0B1A00EE810A0848D7
:1025A000C08800EE900AF8EE600A9FED071A00EE70
:1025B000810AB0EE408AB0EE480ABDEC028B10BD35
:1025C000200100206F12833ABD3786351249096811
:1025D00041F08071104A11600021104A516011468B
:1025E000096841F0010111600D4941430D4A116034
:1025F000114609684FF47A72B1FBF2F10A4A116090
:1026000008490968064AB1FBF2F1084A1160002145
:10261000074A116070470000FCED00E0001000E088
:1026200040420F00280100202C0100203001002032
:102630003401002038B5294840680090FFF740FF7A
:10264000274800684FF0FF31A0FB013100981818AF
:1026500041F10001234A03C22348002321490268B3
:1026600003C9FEF739FC214A03C220480CC81E48A2
:1026700000680024A2FB001503FB005002FB0402CB
:102680001848D0E90030591A60EB0200184AC2E934
:1026900000101648006817490860174800231449BD
:1026A000026803C9FEF718FC124988800846808832
:1026B0001149096841430E48D0E90030591A60F1C8
:1026C00000000E4AC2E900100D4800230B490268C1
:1026D00003C9FEF701FC0749C88038BD001000E0BF
:1026E0003401002040010020280100204801002082
:1026F00050010020200100202C0100205801002062
:10270000300100207047000000B52423034AA2F1E5
:102710002401034806F0AEFF00BD0000500A00206F
:102720002408002010B5024806F0E8FF10BD0000A4
:102730002408002010B5102001F054F910BD10B588
:10274000202001F04FF910BDD2ED020A92ED021ADD
:10275000B6EE000A00EEC10AD2ED030A92ED031AAA
:1027600000EEC10AD0ED000A20EE200AD2ED010AE7
:1027700092ED021A60EE810A92ED001AD2ED031A70
:1027800041EE210A90ED011A00EE810AD2ED010A14
:1027900092ED031A60EE810A92ED001AD2ED021A50
:1027A00041EE610A90ED021A00EE810AF0EE000A95
:1027B00020EE200A81ED000A92ED010AD2ED020A14
:1027C00020EE200AD2ED000A92ED031A00EEC10AB3
:1027D000D0ED000A60EE200A92ED011AD2ED011A46
:1027E000B6EE000A01EE610AD2ED031A92ED032A59
:1027F000B0EE401A01EEC21AD0ED011AB0EE600A36
:1028000001EE210AD2ED020A92ED031A60EE810A6E
:1028100092ED001AD2ED011A41EE210A90ED021A52
:1028200000EE810AF0EE000A20EE200A81ED010A96
:1028300092ED010AD2ED030A20EE200AD2ED000A41
:1028400092ED021A00EE810AD0ED000A20EE200A75
:10285000D2ED020A92ED031A60EE810A92ED001A9F
:10286000D2ED011A41EE610A90ED011A00EE810AE3
:1028700092ED011AD2ED011AF6EE000A41EE610A5C
:1028800092ED021AD2ED021A41EE610A90ED021A9F
:1028900000EE810AF0EE000A20EE200A81ED020A25
:1028A000704700000021016041609FED070A10EEB3
:1028B000101A81609FED040A10EE101A4161002188
:1028C00080F82710017670470000000070B50546BB
:1028D0000E460A2E01DB002070BD701E00EBC0000A
:1028E00000EB4000174901EB4004204600F02CF8B3
:1028F00004F8255F0020A0706070253C25B1012DF3
:102900000ED0022D1AD112E04FF40050A4F823008B
:10291000132020850A2060854FF48070A0850EE08A
:102920004FF40050A4F823000120208507E04FF465
:102930000050A4F823002420208500E000BF00BF41
:102940002046C9E7740A002010B504463621204607
:10295000FEF7DCFB10BD72B600BFFEE770B50A489B
:102960000468001D0568001D0668344454B108223F
:102970000649204605F0B0FA0422044910312846E1
:1029800005F0AAFA70BD0000107AFF1F8602002031
:1029900000487047900F002010B504464FF4556171
:1029A0002046FEF7D5FB06F061FEC4F83C0D0CF0A6
:1029B00007FEA0600CF00CFEC4F818060CF0ECFD4D
:1029C000C4F8400D0CF0E4FDC4F8440D0CF0F0FD2B
:1029D000C4F8480DFFF7DCFFC4F84C0D0121084690
:1029E000FFF774FFA06102210120FFF76FFF4FF492
:1029F000C561085102219FED571ADFED570A9FED7F
:102A0000550A04F5C07006F04AFDDFED520A9FED4D
:102A1000530A022104F5C07006F060FD504B0122FC
:102A2000022104F5A87006F06CF806219FED491A02
:102A3000DFED480A9FED4B0A04F22C6006F02FFDF3
:102A40004FF48371B1EE041ADFED420AB2EE0E0AC2
:102A500004F2BC6006F023FDDFED3E0A9FED420A62
:102A6000042104F22C6006F039FDDFED3A0A9FEDF7
:102A70003F0A022104F22C6006F030FDDFED350A3A
:102A80009FED3B0A4FF4807104F2BC6006F026FD16
:102A9000DFED300A9FED370A022104F2BC6006F038
:102AA0001DFDDFED2C0A9FED300A042104F2BC600D
:102AB00006F014FD06219FED271ADFED260AB3EE7E
:102AC000040A04F24C7006F0EAFC06219FED2A1A73
:102AD000F7EE000A9FED290A04F2DC7006F0DFFC35
:102AE000DFED1C0A9FED200A042104F24C7006F071
:102AF000F5FCDFED180A9FED1D0A022104F24C706F
:102B000006F0ECFCDFED130AB1EE040A022104F238
:102B1000DC7006F0E3FCDFED0F0A9FED130A0421E1
:102B200004F2DC7006F0DAFC04F504700DF0EAFC47
:102B30009FED130A04F59E700CF078FC4FF4C5610C
:102B40000859FFF7AFFE9FED030A04F5406080EDE2
:102B50004E0A10BD000000009A99193E00007A4408
:102B600048000020000096420060EA4600401C46F3
:102B700000007042000096430000FA440000164333
:102B80008FC2F53C0C48FFF707FF13E00DF08CFDFA
:102B9000094800F013F80DF0B1FD0749B1F9140030
:102BA0000BF05AFE0449B1F924060BF0ABFE0120EC
:102BB0000DF064FEEAE70000B811002010B50446ED
:102BC00020460CF009FD20460CF03EFD20460CF09E
:102BD000F1FD10BD10B5024692F82030012B01D056
:102BE000022B06D110684069084314686061002018
:102BF00010BD506A40F4802050620120F8E7F0B523
:102C000004460D461E4694F8207020688368A86824
:102C100000B900E000BF012F01D0022F7CD103F0EA
:102C2000806030B903F0006018B903F080500028CC
:102C300073D0C3F30161022905D9606A40F4000032
:102C400060620120F0BD012088403060A86860B952
:102C5000B5F800C0E86840EA4C5C206800F5C07038
:102C600000EB0110C0F800C00FE0D5E901C040EA58
:102C7000CC00D5F80CC040EA0C00D4F800C00CF52C
:102C8000C07C0CEB011CCCF80000D5F810C020680B
:102C900000F5C07000EB0110C0F804C0287D0128C9
:102CA0000ED1206800F5C07000EB0110406840F4C0
:102CB000807C206800F5C07000EB0110C0F804C0F3
:102CC000D079000692F806C040EA0C4092F805C0A0
:102CD00040EA0C2C10794CEA000C206800F5C0701A
:102CE00000EB0110C0F80CC0D078000692F802C0CA
:102CF00040EA0C4092F801C040EA0C2092F800C073
:102D000040EA0C00D4F800C00CF5C07C0CEB011CB0
:102D1000CCF80800206801E016E00FE000F5C07074
:102D200000EB0110006840F0010C206800F5C07055
:102D300000EB0110C0F800C0002083E7606A40F497
:102D40000010606201207DE7606A40F480206062CC
:102D5000012077E7F0B504460A46216894F8205030
:102D6000012D01D0022D7ED1424901F50071086884
:102D700040F001000860086820F47C500860086892
:102D8000566A40EA06200860107D00F01F06012008
:102D900000FA06F3C8699843C861A1F50071D069CB
:102DA000C8B9D1F80C029843C1F80C02908880B2DF
:102DB000968940EA064601F51070576940F8376079
:102DC000108880B2168940EA064601F510705769EE
:102DD00000EBC7004660D069012819D1D1F80C0278
:102DE0001843C1F80C02908880B2168840EA064663
:102DF00001F51070576940F83760908980B21689E4
:102E000040EA064601F51070576900EBC7004660BE
:102E1000906928B9D1F804029843C1F8040204E08B
:102E2000D1F804021843C1F80402106928B9D1F896
:102E300014029843C1F8140204E0D1F814021843B4
:102E4000C1F81402106A012804D1D1F81C021843F9
:102E5000C1F81C02D1F8000220F00100C1F8000204
:102E60000020F0BDFFE7606A40F48020606201202E
:102E7000F7E7000000640040704770B5044694F81E
:102E80002050012D01D0022D7DD151B92068C0689C
:102E900000F0030080B9606A40F400106062012015
:102EA00070BD2068006900F0030028B9606A40F432
:102EB000001060620120F3E7206800F5D87000EB95
:102EC0000110006800F004009060906840B920682C
:102ED00000F5D87000EB01100068400D106007E0AD
:102EE000206800F5D87000EB01100068C008506041
:102EF000206800F5D87000EB0110006800F00200B7
:102F0000D060206800F5D87000EB0110406800F038
:102F10000F001061206800F5D87000EB01104068C8
:102F200000F47F40000A9061206800F5D87000EB43
:102F300001104068000C5061206800F5D87000EB6B
:102F4000011080681870206800F5D87000EB01103F
:102F5000806800F47F40000A5870206800F5D8703F
:102F600000EB0110806800F47F00000C987020686E
:102F700000F5D87000EB01108068000ED870206852
:102F800000F5D87000E02FE000EB0110C068187168
:102F9000206800F5D87000EB0110C06800F47F4095
:102FA000000A5871206800F5D87000EB0110C06865
:102FB00000F47F00000C9871206800F5D87000EBD9
:102FC0000110C068000ED87131B92068C06840F0A7
:102FD00020002668F06005E02068006940F02000CD
:102FE0002668306100205BE7606A40F48020606200
:102FF000012055E72DE9F05F044600252068466969
:103000002068D0F80490206887682068D0F80CA069
:103010002068D0F810B02068D0F8188006F00100C1
:10302000002855D007F00100C0B101202168886058
:1030300007F0020018B1204600F0B7FA0EE007F0E2
:10304000040010B145F4006508E007F0080010B175
:1030500045F4805502E0204600F0A6FA07F480709F
:10306000C8B14FF480702168886007F4007018B10F
:10307000204600F09CFA0EE007F4806010B145F4A1
:10308000005508E007F4006010B145F4804502E007
:10309000204600F08BFA07F48030C8B14FF480303E
:1030A0002168886007F4003018B1204600F081FAEA
:1030B0000EE007F4802010B145F4004508E007F465
:1030C000002010B145F4803502E0204600F070FA8F
:1030D00006F0080038B10AF0100020B145F4007580
:1030E00010202168C86006F0040040B10AF0080012
:1030F00028B108202168C860204600F00DFA06F0CB
:10310000020038B12068C06800F0030010B120460A
:1031100000F004FA06F0400038B10BF0100020B1C6
:1031200045F4806510202168086106F0200040B158
:103130000BF0080028B1082021680861204600F043
:1031400001FA06F0100038B12068006900F00300B1
:1031500010B1204600F0F7F906F4003040B109F054
:10316000100028B1102021684860204600F0ECF9DA
:1031700006F4803040B109F0080028B10820216829
:103180004860204600F016FA06F4004088B309F0C3
:10319000040078B306F4807020B108F0010008B193
:1031A00045F0010506F4007020B108F0020008B1F6
:1031B00045F0020506F4806020B108F0040008B173
:1031C00045F0040506F40060A0B108F0700088B175
:1031D00008F07000402817D006DC10280BD02028FB
:1031E0000CD0302819D10CE0502810D0602814D110
:1031F00010E01DE019E045F008050FE045F010056E
:103200000CE045F0200509E045F0400506E045F0FA
:10321000800503E045F4807500E000BF00BF206832
:10322000806920F07000216888610420216848606E
:103230002DB1606A284360622046FFF71DFEBDE89D
:10324000F09F70B504460CB9012070BD94F82000C1
:1032500010B9204600F0B0F82068006840F0010086
:103260002168086000F0CCFC05460DE000F0C8FCC9
:10327000401B0A2808D9606A40F4003060620520CB
:1032800084F820000120E0E72068406800F0010099
:103290000028EBD02068006820F002002168086058
:1032A00000F0AEFC05460DE000F0AAFC401B0A2829
:1032B00008D9606A40F400306062052084F820007C
:1032C0000120C2E72068406800F002000028EBD12E
:1032D000207E012806D12068006840F08000216827
:1032E000086005E02068006820F080002168086020
:1032F000607E012806D12068006840F04000216807
:10330000086005E02068006820F04000216808603F
:10331000A07E012806D12068006840F020002168C6
:10332000086005E02068006820F02000216808603F
:10333000E07E012806D12068006820F01000216896
:10334000086005E02068006840F01000216808600F
:10335000207F012806D12068006840F0080021681D
:10336000086005E02068006820F008002168086017
:10337000607F012806D12068006840F004002168C1
:10338000086005E02068006820F0040021680860FB
:10339000D4E902010843216908436169084361686F
:1033A000491E08432168C86100206062012084F83A
:1033B0002000002049E7000010B586B00446142123
:1033C00001A8FDF7C5FE4E492068884241D14D480D
:1033D0000068401C4B4908600846006801280FD16E
:1033E00000BF002000904848006840F00070464947
:1033F00008600846006800F00070009000BF00BF41
:1034000000BF0020009040481038006840F00800DD
:103410003D49103908600846006800F00800009037
:1034200000BF00BF03200190022002900020039003
:10343000032004900920059001A9344800F0E0FA27
:1034400000220521142000F095FC142000F082FCDD
:1034500054E02F492068884250D100BF00200090DE
:103460002948006840F080602749086008460068E5
:1034700000F08060009000BF00BF22480068401C40
:10348000204908600846006801280FD100BF0020CD
:1034900000901D48006840F000701B490860084615
:1034A000006800F00070009000BF00BF00BF002067
:1034B000009015481038006840F002001249103999
:1034C00008600846006800F00200009000BF00BFDE
:1034D00060200190022002900020039003200490BD
:1034E0000920059001A90B4800F08AFA0022052165
:1034F000402000F03FFC402000F02CFC06B010BD46
:10350000006400400800002040380240000C0240E7
:1035100000680040000402407047000010B50446F7
:103520000648844202D120460BF016FA0448844231
:1035300002D120460BF0A6FA10BD00002C06002098
:103540005406002070477047704770B5044694F8E1
:103550002000012822D1022084F820002068006881
:1035600020F001002168086000F04AFB05460DE0EC
:1035700000F046FB401B0A2808D9606A40F400307E
:103580006062052084F82000012070BD206840683A
:1035900000F001000028EBD16062F6E7606A40F4B9
:1035A000002060620120F0E7704770477047704765
:1035B00070477047704770B50446A56D00F020FB5A
:1035C000064694F83500022808D08020606500BFC8
:1035D000002084F8340000BF012070BD206800681E
:1035E00020F01600216808602068406920F0800003
:1035F00021684861206C08B9A06C28B12068006877
:1036000020F00800216808602068006820F00100B0
:103610002168086010E000F0F3FA801B05280BD940
:1036200020206065032084F8350000BF002084F866
:10363000340000BF0320D0E72068006800F00100DC
:103640000028E8D194F85C103F208840A860012051
:1036500084F8350000BF002084F8340000BF00BFAC
:10366000BBE7014691F83500022803D08020486569
:1036700001207047052081F835000868006820F0B7
:1036800001000A6810600020F3E70000F8B5044666
:10369000002000908C4800684FF41651B0FBF1F701
:1036A000A56D2E6894F85C1008208840304098B1D1
:1036B0002068006800F0040070B12068006820F005
:1036C00004002168086094F85C1008208840A86015
:1036D000606D40F00100606594F85C100120884046
:1036E000304068B12068406900F0800040B194F833
:1036F0005C1001208840A860606D40F002006065A9
:1037000094F85C1004208840304068B1206800685C
:1037100000F0020040B194F85C1004208840A860DA
:10372000606D40F00400606594F85C1010208840E3
:10373000304078B32068006800F0080050B394F877
:103740005C1010208840A8602068006800F4802089
:1037500080B12068006800F4002028B9206CC8B14E
:103760002046216C884715E0A06C98B12046A16CDA
:1037700088470FE02068006800F4807028B920684E
:10378000006820F0080021680860206C10B1204615
:10379000216C884794F85C10202088403040002835
:1037A00065D02068006800F0100000285FD094F811
:1037B0005C1020208840A86094F83500052828D1A6
:1037C0002068006820F016002168086020684069C1
:1037D00020F0800021684861206C08B9A06C28B1F5
:1037E0002068006820F008002168086094F85C10E8
:1037F0003F208840A860012084F8350000BF0020E9
:1038000084F8340000BF206D10B12046216D884738
:10381000F8BD2068006800F4802080B1206800684E
:1038200000F4002028B9606C10B12046616C884714
:103830001DE0E06BD8B12046E16B884717E02068B7
:10384000006800F4807068B92068006820F01000FB
:1038500021680860012084F8350000BF002084F84A
:10386000340000BFE06B10B12046E16B8847606D0B
:1038700038B3606D00F00100F0B1052084F8350028
:103880002068006820F001002168086000BF0098EF
:10389000401C0090B84200D905E02068006800F0A4
:1038A00001000028F3D100BF012084F8350000BFDB
:1038B000002084F8340000BFE06C10B12046E16CB9
:1038C000884700BFA4E70000C00200202DE9F041B6
:1038D0000446002500F094F9074614B90120BDE81C
:1038E000F081606A00B100BF022084F8350000BF9B
:1038F000002084F8340000BF2068006820F0010038
:10390000216808600AE000F07BF9C01B052805D992
:1039100020206065032084F83500E0E72068006817
:1039200000F001000028EED120680568214805401C
:10393000D4E901010843E16808432169084361694A
:103940000843A1690843E1690843216A0843054324
:10395000606A042803D1D4E90B01084305432068B9
:1039600005602068456925F00705606A0543606ABF
:1039700004280DD1A06A0543E06A48B12046FEF74D
:1039800049FD28B140206065012084F83500A6E794
:10399000206845612046FEF723FD064694F85C103A
:1039A0003F208840B06000206065012084F8350029
:1039B000002094E73F8010F070B5044600F020F935
:1039C00006462546681C10B104480078054400BF2F
:1039D00000F016F9801BA842FAD370BDBC0200208B
:1039E0007047000010B5044604480068204020B12C
:1039F000024804602046FFF7F3FF10BD143C01406D
:103A0000F8B502460B460025002400200021D6E030
:103A1000012606FA01F51E6806EA0504AC4274D1D7
:103A20001E7906F00306012E04D01E7906F0030667
:103A3000022E13D190684F000326BE40B0434F00C2
:103A4000DE68BE4030439060506801268E40B0432F
:103A50001E79C6F300168E40304350601E7906F082
:103A60000306032E09D0D0684F000326BE40B043A2
:103A70004F009E68BE403043D0601E7906F00306BA
:103A8000022E13D1CF0802F1200656F827004E0768
:103A9000F70E0F26BE40B0434F07FF0E1E69BE4013
:103AA0003043CF0802F1200646F8270010684F0087
:103AB0000326BE40B0431E7906F003064F00BE4009
:103AC000304310605E6806F44036002E76D000BFAA
:103AD000002600963C4E366846F480463A4F3E60DB
:103AE0003E46366806F48046009600BF00BF374E5B
:103AF0008F0856F827008E07370F0F26BE40B043B9
:103B0000334EB24202D1002624E057E0314EB24299
:103B100001D101261EE0304EB24201D1022619E049
:103B20002E4EB24201D1032614E02D4EB24201D1F5
:103B300004260FE02B4EB24201D105260AE02A4EA0
:103B4000B24201D1062605E0284EB24201D1072635
:103B500000E008268F073F0FBE4030431B4E8F0802
:103B600046F82700224E3068A0435E6806F48016AF
:103B700006B120431E4E3060361D3068A0435E689B
:103B800006F4001606B12043194E361D3060184E5B
:103B9000361F3068A0435E6806F4003606B1204345
:103BA000134E361F3060361F3068A0435E6806F43F
:103BB000803606B120430E4E083E3060491C102965
:103BC000FFF426AFF8BD0000443802400838014039
:103BD000000002400004024000080240000C0240C5
:103BE000001002400014024000180240001C024075
:103BF000083C01400AB1816101E00B048361704718
:103C00000148006870470000B402002003480068C3
:103C1000034909780844014908607047B40200204C
:103C2000BC02002010B50D48006840F400700B493C
:103C300008600846006840F4806008600846006834
:103C400040F480700860032000F0D2F8052000F0F6
:103C500007F800F055F8002010BD0000003C0240BD
:103C6000F0B587B004460026002700BF0020009072
:103C70001E48006840F001001C49086008460068C2
:103C800000F00100009000BF00BF01A902A801F0F0
:103C90006BF801F0A1F846001548B6FBF0F0471E9E
:103CA00014481549086040F2E7311348C160476085
:103CB000002101618160816101F0C6FD054695B971
:103CC0000D4801F07FFE05466DB9192000F042F85D
:103CD000102C07D200222146192000F04BF807488B
:103CE000046000E00125284607B0F0BD44380240DA
:103CF00040420F0000000140CC090020B802002023
:103D000008B500BF002000901148006840F48040D2
:103D10000F4908600846006800F48040009000BF2A
:103D200000BF00BF00200090081F006840F08050D6
:103D3000091F08600846006800F08050009000BF2E
:103D400000BF00220F21901E00F014F808BD0000F3
:103D50004438024001460846002809DB00F01F03F2
:103D600001229A4043099B0003F1E023C3F800219C
:103D700000BF70472DE9F05F80460D4616460027CC
:103D80000AF0BAF8074639462A46334601F00700DA
:103D9000C0F1070ABAF1040F02D94FF0040A01E09A
:103DA000C0F1070AD14600F1040ABAF1070F02D2A6
:103DB0004FF0000A01E0A0F1030AD4464FF0010AD7
:103DC0000AFA09FAAAF1010A0AEA020A0AFA0CFA3C
:103DD0004FF0010B0BFA0CFBABF1010B0BEA030BE1
:103DE0004AEA0B04214640460AF08EF8BDE8F09FEF
:103DF00000BF00F00702064B19684FF6FF03194099
:103E0000044B0B4343EA0221014B196000BF70478A
:103E10000CED00E00000FA057047024610684162B0
:103E200000207047F0B5034615461868446A21B96A
:103E300044EA05401E68B06219E01868806A04EB25
:103E40001044002208E0186800F5827050F8220043
:103E500004EB1044501CC2B2481E9042F3D844EA0E
:103E60000547186800F582704E1E40F82670002045
:103E7000F0BD10B50446D4F8080508F084F810BD6C
:103E800070B504460D4605EBC50304F13C0101EB9A
:103E900083010A692946D4F8080507F06FFF70BD51
:103EA00070B504460D4605EBC50304F51F7101EB23
:103EB00083010A692946D4F8080507F0E3FF70BDBD
:103EC00010B50446D4F8080508F060F810BD2DE9D7
:103ED000F04104460D4605F08000802808D105F029
:103EE0000F0000EBC00104F13C0000EB810607E08D
:103EF00005F00F0000EBC00104F51F7000EB810618
:103F00003146206809F034FB07463846BDE8F081A9
:103F100070B504460E4606F0800080280AD106F0EF
:103F20000F0000EBC00104F13C0000EB8105012013
:103F3000687009E006F00F0000EBC00104F51F7087
:103F400000EB81050020687006F00F00287000BFAC
:103F500094F8BC04012801D1022070BD012084F82E
:103F6000BC0400BF2946206808F0E2FD00BF002025
:103F700084F8BC0400BF00BFEFE770B504460E46EE
:103F800006F00F006168884201D9012070BD06F07B
:103F9000800080280AD106F00F0000EBC00104F178
:103FA0003C0000EB81050120687009E006F00F007D
:103FB00000EBC00104F51F7000EB81050020687064
:103FC0000020A87006F00F00287000BF94F8BC0411
:103FD000012801D10220D9E7012084F8BC0400BFE8
:103FE0002946206809F08CF800BF002084F8BC0442
:103FF00000BF00BFCAE7024601F00F0000EBC0039C
:1040000002F51F7000EB8300006A70472DE9F0474E
:1040100005460E4690461F464FF0000906F0800008
:1040200080280AD106F00F0000EBC00105F13C002A
:1040300000EB81040120607009E006F00F0000EB46
:10404000C00105F51F7000EB81040020607006F0D0
:104050000F002070C4F80C802771607808B12078B8
:104060002081022F01D10020607100BF95F8BC04AF
:10407000012802D10220BDE8F087012085F8BC04A8
:1040800000BF2146286808F069FC00BF002085F8C1
:10409000BC0400BF4846EEE72DE9F04104460E4659
:1040A0001746984606F00F0000EBC00104F51F709C
:1040B00000EB81052F61C5F8188000202862687028
:1040C00006F00F0028702069012800D16F6106F00A
:1040D0000F0028B9227C2946206808F0EBFE04E096
:1040E000227C2946206809F09FF80020BDE8F08175
:1040F00070B504460D4605F00F006168884201D98D
:10410000012070BD05F0800080280AD105F00F0065
:1041100000EBC00104F13C0000EB8106012070704F
:1041200007E005EBC50104F51F7000EB81060020D8
:1041300070700120B07005F00F00307000BF94F86F
:10414000BC04012801D10220DBE7012084F8BC0473
:1041500000BF3146206809F01AF805F00F0028B9B1
:10416000217C04F2C442206808F092FF00BF0020C6
:1041700084F8BC0400BF00BFC3E72DE9F04104464A
:104180000E461746984606F00F0000EBC00104F1FA
:104190003C0000EB81052F61C5F8188000202862E3
:1041A0000120687006F00F0028702069012800D1F6
:1041B0006F6106F00F0028B9227C2946206808F0BC
:1041C00079FE04E0227C2946206809F02DF80020C1
:1041D000BDE8F0812DE9FE4F0446D4F800B05E46FC
:1041E000206809F0ACFA002874D1206809F0E6FADA
:1041F00008B9BDE8FE8F40F608008059C0F30D20D5
:10420000C4F8FC04206809F0D9FA00F00200022882
:1042100005D12068406900F00200216848612068EB
:1042200009F0CCFA00F01000102845D12068806910
:1042300020F0100021688861DBF8209009F00F0061
:1042400000EBC00104F51F7000EB810AC9F3434085
:1042500002281AD147F6F07009EA000030B3C9F31A
:104260000A125846DAF8101009F0ADFAC9F30A112B
:10427000DAF810000844CAF81000C9F30A11DAF895
:1042800020000844CAF8200010E0C9F34340062883
:104290000CD1082204F2C441584609F094FAC9F33B
:1042A0000A11DAF820000844CAF820002068806962
:1042B00040F0100021688861206809F07FFA00F45E
:1042C0000020B0F5002F7BD10025206809F046FAC8
:1042D000029072E0E1E2029800F00100002868D04C
:1042E000E9B2206809F05DFA804608F0010048B1A3
:1042F000012106F5306000EB45108160294620461B
:1043000004F0F4FE08F00800082809D1082106F599
:10431000306000EB451081602946204604F0B4FE71
:1043200008F01000102805D1102106F5306000EBD0
:104330004510816008F00200022824D1DBF8140047
:1043400000F08000802807D140F60400805940F436
:10435000806140F60400815105EBC50104F51F7032
:1043600000EB810A9AF80300012806D100208AF8A0
:104370000300E9B2204600F09BFA022106F5306006
:1043800000EB4510816008F02000202805D1202195
:1043900006F5306000EB4510816008F40050B0F580
:1043A000005F06D14FF4005106F5306000EB451078
:1043B00081606D1C029840080290029800288AD102
:1043C000206809F0FBF900F48020B0F5802F7DD142
:1043D000206809F0B9F9029000259AE0029800F0EF
:1043E0000100002873D0E9B2206809F0C1F98046C5
:1043F00008F00100F0B305F00F01012088400190A2
:1044000040F634008159019821EA000040F6340159
:104410008851012106F5106000EB4510816020698C
:10442000012824D105EBC50104F13C0000EB81001B
:1044300005EBC502016904F13C0000EB8200C06895
:10444000014405EBC50204F13C0000EB8200016170
:104450006DB905EBC50104F13C0000EB81008069FA
:1044600028B904F2C4420121206808F011FEE9B223
:10447000204600E001E0FFF703FD08F008000828EF
:1044800005D1082106F5106000EB4510816008F0A9
:104490001000102805D1102106F5106000EB451022
:1044A000816008F04000402805D1402106F51060E9
:1044B00000EB4510816008F0020002281DD129465A
:1044C000584609F0FDF805EBC50101E025E01CE0C8
:1044D00004F13C0000EB810A9AF80300012806D1A0
:1044E00000208AF80300E9B2204600F0D8F9022142
:1044F00006F5106000EB4510816008F08000802810
:1045000003D12946204604F093FE6D1C0298400812
:104510000290029800287FF461AF206809F04EF9FC
:1045200000F00040B0F1004F1CD140F6040080596B
:1045300020F0010140F60400815194F8F4040128B0
:1045400007D1002084F8F40400212046FFF764FC22
:1045500002E0204600F0D4FA2068406900F00040F4
:1045600021684861206809F029F900F40060B0F57D
:10457000006F0ED140F60800805900F0010010B124
:10458000204600F015FB2068406900F400602168B7
:104590004861206809F012F900F48050B0F5805F9E
:1045A0007ED140F60400805920F0010140F604005D
:1045B00081511021206809F083F8002732E04FF67E
:1045C0007F3106F5106000EB4710816006F5106042
:1045D00000EB4710006820F4001106F5106000EBB6
:1045E000471001604FF67F3106F5306000EB471051
:1045F000816006F5306000EB4710006820F4001180
:1046000006F5306000EB4710016006F5306000EB06
:104610004710006840F0006106F5306000EB47107D
:1046200001607F1C6068B842C9D840F61C00805900
:1046300040F0011140F61C008151206B70B1D6F89A
:10464000840840F00B01C6F8841840F644008059F5
:1046500040F00B0140F6440081510FE040F6140099
:10466000805942F22B01084340F614018851081F7B
:10467000805940F00B014FF401608151D6F80008D9
:1046800020F4FE60C6F80008217C04F2C4422068D1
:1046900008F0FEFC2068406900F48050216800E0CA
:1046A00000E04861206809F089F800F40050B0F596
:1046B000005F17D1206808F0B9F9206809F02CF8DC
:1046C000E06000F073FB0090227B2068009909F005
:1046D000FDF8204600F0FCF92068406900F4005025
:1046E00021684861206809F069F800F0080008288E
:1046F00008D1204600F00BFA2068406900F008005D
:1047000021684861206809F059F800F0800080288D
:1047100018D1DBF8180020F08000CBF81800012534
:104720000DE005EBC50104F51F7000EB8100C078BA
:10473000012803D1E9B22046FFF7C9FB6D1C606870
:10474000A842EED8206809F039F800F48010B0F5DE
:10475000801F2DD1012522E006F5106000EB4510E9
:10476000D0F8009005EBC50104F13C0000EB81009E
:104770000079012812D109F00040B0F1004F0DD1AD
:10478000012105EBC50204F13C0000EB8200C17081
:10479000E8B240F080012046FFF799FB6D1C60688D
:1047A000A842D9D82068406900F480102168486187
:1047B000206809F003F800F40010B0F5001F44D1A0
:1047C000012538E006F5306000EB4510D0F8009088
:1047D00005EBC50104F51F7000EB8100007901288D
:1047E00028D109F00040B0F1004F23D109F4803006
:1047F00094F8FC1401F0010188421BD1012105EB62
:10480000C50204F51F7000EB8200C170DBF81800D0
:1048100040F08000CBF81800DBF8140000F08000B6
:1048200040B940F60400805940F4007140F604009D
:10483000815103E06D1C6068A842C3D800BF2068A6
:10484000406900F4001021684861206808F0B6FF54
:1048500000F08040B0F1804F08D12046FFF709FBFF
:104860002068406900F0804021684861206808F0B5
:10487000A5FF00F0040004280FD12068D0F80490B0
:1048800009F00400042802D12046FFF719FB206834
:10489000406840EA09002168486000BFA9E470B59B
:1048A00004460D462946D4F8080507F0DBFB70BD29
:1048B00070B504460D462946D4F8080507F0F6FB06
:1048C00070BD70B58AB0044614B901200AB070BD3D
:1048D000266894F8BD0428B9002084F8BC0420465A
:1048E00000F0A2F8032084F8BD04F06B00F480709F
:1048F00008B900212161206808F0D4FA282204F1C7
:1049000010016846FCF7D0FB94E80F0008F0A2F80D
:1049100020B1022084F8BD040120D7E700212068DF
:1049200008F081FF002531E0012105EBC50204F10B
:104930003C0000EB8200417005EBC50104F13C0036
:1049400000F8215005EBC50100EB81000581002135
:1049500005EBC50204F13C0000EB8200017105EBA0
:10496000C50204F13C0000EB8200C16005EBC5020A
:1049700004F13C0000EB8200016105EBC50204F18B
:104980003C0000EB82008161681CC5B26068A842EF
:10499000CAD800252AE0002105EBC50204F51F70E6
:1049A00000EB8200417005EBC50104F51F7000F8B3
:1049B0002150002105EBC50200EB8200017105EBDF
:1049C000C50204F51F7000EB8200C16005EBC50253
:1049D00004F51F7000EB8200016105EBC50204F5D0
:1049E0001F7000EB82008161681CC5B26068A8423C
:1049F000D1D8282204F110016846FCF755FB94E851
:104A00000F0008F05FF920B1022084F8BD040120F6
:104A10005CE7002084F83800012084F8BD04206899
:104A200008F03EF9002051E710B586B00446142185
:104A300001A8FCF78DFB2068B0F1A04F42D100BF68
:104A4000002000902048006840F001001E490860E6
:104A50000846006800F00100009000BF00BF4FF45E
:104A6000E050019002200290002003900320049067
:104A70000A20059001A91548FEF7C2FF00BF1248A1
:104A8000001D006840F080000F49091D086000BF4C
:104A9000002000900C481430006840F480400A491F
:104AA000143108600846006800F48040009000BFA0
:104AB00000BF00BF002205214320FFF75BF9432020
:104AC000FFF748F906B010BD303802400000024040
:104AD00070B504460125E06808B9002506E0E068E5
:104AE000022801D1012501E0FDF735FF2946D4F860
:104AF000080507F084FBD4F8080507F02BFB70BD10
:104B000010B50446D4F8080507F05AFB10BD10B5DF
:104B10000446D4F8080507F05EFB10BD70B50446E6
:104B20000D4600BF94F8BC04012801D1022070BDDD
:104B3000012084F8BC0400BF84F83850294620685E
:104B400008F0A5FE00BF002084F8BC0400BF00BF31
:104B5000EDE710B5044604F2C441D4F8080507F0A7
:104B600065FB10BD70B50446256800BF94F8BC0411
:104B7000012801D1022070BD012084F8BC0400BFCF
:104B8000A06A012806D1A069012803D0A86B40F4CF
:104B90008030A863206808F061FD206808F06EF896
:104BA00000BF002084F8BC0400BF00BFE3E70000A2
:104BB00010B50446D4F8080507F095FB2068D0F836
:104BC000000E40F001002168C1F8000E206A28B1F3
:104BD0000348006840F006000149086010BD00006D
:104BE00010ED00E070B504460D460CB9012070BD13
:104BF0005848006800F00700A84209D255490D70D6
:104C00000846006800F00700A84201D00120EEE746
:104C1000207800F0020002281DD1207800F0040066
:104C2000042805D14C48006840F4E0504A49086027
:104C3000207800F00800082805D14748006840F4B3
:104C40006040454908604448006820F0F000A168D1
:104C5000084341490860207800F00100A8B360686B
:104C6000012807D13C4808380068C0F34040B8B973
:104C70000120BCE76068022802D06068032807D1E1
:104C8000354808380068C0F3406048B90120AEE7F5
:104C9000314808380068C0F3400008B90120A6E791
:104CA0002D48006820F00300616808432A49086025
:104CB000FEF7A6FF064609E0FEF7A2FF801B41F2C1
:104CC0008831884202D9032091E707E02248006832
:104CD00000F00C006168B0EB810FEDD11D48006859
:104CE00000F00700A84209D91A490D70084600686B
:104CF00000F00700A84201D0012078E7207800F0FA
:104D00000400042807D11448006820F4E050E1684A
:104D1000084311490860207800F00800082808D1ED
:104D20000D48006820F46040216940EAC1000A494A
:104D3000086000F061F808490968C1F30311074AE7
:104D4000515CC8400649086006480068FEF788FFC5
:104D500000204CE7003C0240083802404826010889
:104D6000C0020020B80200200F2202600D4A126823
:104D700002F0030242600B4A126802F0F002826005
:104D8000084A126802F4E052C260064A126802F44D
:104D90006042D2080261044A126802F007020A6007
:104DA0007047000008380240003C0240014800689B
:104DB00070470000C002002000B5FFF7F7FF04496C
:104DC0000968C1F38221034A515CC84000BD00005C
:104DD000083802405826010800B5FFF7E7FF0449EC
:104DE0000968C1F34231034A515CC84000BD00006C
:104DF00008380240582601082DE9F0470024002514
:104E00000026A1462548006800F00C0020B10428C7
:104E100005D008283AD105E0DFF8849039E0DFF8C2
:104E2000849036E01D48001F006800F03F041B48D6
:104E3000001F006800F4800078B11A481749091F64
:104E40000968C1F38811A0FB0170014622460023C6
:104E50003846FCF741F805460EE011480F49091F96
:104E60000968C1F38811A0FB0170014622460023A6
:104E70003846FCF731F805460848001F0068C0F3C3
:104E80000140401C4600B5FBF6F902E0DFF8109047
:104E900000BF00BF4846BDE8F08700000838024068
:104EA0000024F400001BB700F8B504460CB901203B
:104EB000F8BD207800F00100002874D0F94800689F
:104EC00000F00C0004280DD0F648006800F00C003B
:104ED000082813D1F348001F006800F48000B0F5E3
:104EE000800F0BD1EF4808380068C0F3404000281D
:104EF00059D06068002856D10120D9E700BF60680A
:104F0000B0F5803F08D1E7480838006840F48030A9
:104F1000E449083908601EE06068B0F5A02F0DD1A3
:104F2000E0480838006840F48020DE49083908600D
:104F30000846006840F4803008600CE0D948083822
:104F4000006820F48030D7490839086008460068B6
:104F500020F48020086000BF606890B1FEF750FE2A
:104F6000054606E0FEF74CFE401B642801D90320ED
:104F70009EE7CC4808380068C0F340400028F1D0D4
:104F800011E0FEF73DFE054606E0FEF739FE401B48
:104F9000642801D903208BE7C24808380068C0F3B1
:104FA00040400028F1D1207800F0020002285FD1B3
:104FB000BC48006800F00C0058B1BA48006800F026
:104FC0000C0008281CD1B748001F006800F48000BE
:104FD000B0B9B44808380068C0F3400020B1E068B8
:104FE000012801D0012063E7AE480838006820F0AE
:104FF000F800216940EAC100AA490839086037E091
:10500000E06800B30120A8490860FEF7F9FD0546F5
:1050100006E0FEF7F5FD401B022801D9032047E713
:10502000A04808380068C0F340000028F1D09D482F
:105030000838006820F0F800216940EAC100994969
:105040000839086014E0002097490860FEF7D8FD91
:10505000054606E0FEF7D4FD401B022801D90320D7
:1050600026E7904808380068C0F340000028F1D1D6
:10507000207800F0080008282CD16069A8B1012030
:105080008A490860FEF7BCFD054606E0FEF7B8FD5C
:10509000401B022801D903200AE782486C300068CF
:1050A000C0F340000028F1D014E000207F490860E0
:1050B000FEF7A6FD054606E0FEF7A2FD401B02280E
:1050C00001D90320F4E677486C300068C0F3400053
:1050D0000028F1D1207800F00400042870D10027C6
:1050E00070483830006800F0805090B900BF002050
:1050F00000906C483830006840F080506949383181
:1051000008600846006800F08050009000BF00BFB3
:1051100001276748006800F48070B0B964480068EF
:1051200040F4807062490860FEF76AFD054606E0BB
:10513000FEF766FD401B022801D90320B8E65C4853
:10514000006800F480700028F2D000BFA068012839
:1051500008D154486830006840F001005149683176
:1051600008601DE0A06805280DD14E486830006831
:1051700040F004004B49683108600846006840F080
:10518000010008600CE047486830006820F001002A
:105190004449683108600846006820F0040008604F
:1051A00000BFA068A8B1FEF72BFD054609E0FEF799
:1051B00027FD401B41F28831884202D9032077E65F
:1051C00026E0384868300068C0F340000028EED080
:1051D00013E0FEF715FD054608E0FEF711FD401B44
:1051E00041F28831884201D9032061E62D486830B8
:1051F0000068C0F340000028EFD1012F07D12948F3
:105200003830006820F0805026493831086000BFEF
:10521000A069002845D02348006800F00C00082849
:105220005DD0A069022845D100201F490866FEF71D
:10523000E7FC054606E0FEF7E3FC401B022801D927
:10524000032035E6174808380068C0F3406000289E
:10525000F1D1D4E907010843616A40EA81110122D2
:10526000A06AC2EB500041EA00412C20005D41EAF7
:1052700000600C49091F086001200B490866FEF711
:10528000BFFC054606E0FEF7BBFC401B022801D927
:1052900003200DE6034808380068C0F3406000288A
:1052A000F1D049E00838024000004742800E4742F2
:1052B00000700040002021490866FEF7A1FC054669
:1052C00006E0FEF79DFC401B022801D90320EFE514
:1052D0001B480068C0F340600028F2D12CE0A069B0
:1052E000012800D1E4E51648001D0668A0690128E0
:1052F00020D006F48001E06981421BD106F03F0115
:10530000206A814216D147F6C0703040616AB0EB26
:10531000811F0FD106F440310122A06AC2EB500078
:10532000B1EB004F06D106F070612C20005DB1EBAF
:10533000006F01D00120BBE50020B9E50000474225
:105340000038024010B504460CB9012010BD606A57
:1053500038B96068B0F5827F00D105E00021E161D5
:1053600002E00021216161610021A16294F85100F5
:1053700028B9002084F85000204600F047F80220A9
:1053800084F851002068006820F04000216808601F
:10539000A08800F48270218901F404410843A189A6
:1053A00001F400610843217C01F002010843217DE2
:1053B00001F001010843218B01F400710843217FB2
:1053C00001F0380108432021095D01F08001084304
:1053D000218D01F400510843216808600421A0696F
:1053E00001EA104094F8241001F0100108432168EC
:1053F00048602068C06920F400602168C86100200E
:105400006065012084F8510000209FE710B586B048
:105410000446142101A8FBF79BFE4B4920688842F3
:105420007ED100BF002000904848006840F48050C2
:10543000464908600846006800F48050009000BFAC
:1054400000BF00BF0020009040481438006840F0C2
:1054500002003E49143908600846006800F0020066
:10546000009000BF00BF00BF002000900846006809
:1054700040F0010008600846006800F0010000905C
:1054800000BF00BF1820019002200290012003906D
:10549000032004900520059001A92D48FEF7B0FADD
:1054A00080200190022002900120039003200490AC
:1054B0000520059001A92748FEF7A2FA26482749AA
:1054C00008604FF0C0604860002124488160C160DE
:1054D0004FF480610161002141618161C1614FF43C
:1054E0000031016200214162FEF7F0F908B1FDF7D9
:1054F00032FA00BF1948E064846300BF16484830A0
:10550000174908604FF0C06048604021144881602E
:105510000021C1604FF4806101610021416100E020
:1055200010E08161C1614FF40031016200214162EC
:10553000FEF7CCF908B1FDF70EFA00BF0848A064E9
:10554000846300BF06B010BD003001404438024003
:10555000000402400000024010640240D406002013
:10556000340700202DE9FF5F0446884691461D461A
:105570000E9E012002900020019000BF94F8500080
:10558000012803D1022004B0BDE8F09F012084F877
:10559000500000BFFEF734FB074694F851B0606836
:1055A0000390AA46BBF1010F0BD00398B0F5827FA0
:1055B00004D1A06810B9BBF1040F02D00220019001
:1055C000DBE0B8F1000F03D0B9F1000F00D015B93E
:1055D00001200190D1E094F85100042802D0052068
:1055E00084F8510000206065C4F83890E587A587ED
:1055F000C4F83080E586A586206460642068006871
:1056000000F04000402805D02068006840F04000CD
:1056100021680860E068B0F5006F4AD1606810B199
:10562000BAF1010F09D1206B00882168C860206B96
:10563000801C2063E08E401EE08633E02068806896
:1056400000F00200022810D1E08E70B1029801280B
:105650000BD1206B00882168C860206B801C206300
:10566000E08E401EE086002002902068806800F0F6
:10567000010068B1E08F58B12068C068A16B088054
:10568000A06B801CA063E08F401EE0870120029089
:10569000FEF7B6FAC01BB04204D3701C10B1032051
:1056A00001906AE0E08E0028C8D1E08F0028C5D1C3
:1056B0004AE0606810B1BAF1010F09D1206B00789F
:1056C00021680873206B401C2063E08E401EE0863A
:1056D00034E02068806800F00200022810D1E08EDB
:1056E00070B1029801280BD1206B007821680873F3
:1056F000206B401C2063E08E401EE086002002905C
:105700002068806800F0010068B1E08F58B120681F
:10571000C068A16B0870A06B401CA063E08F401EA6
:10572000E08701200290FEF76BFAC01BB04201D364
:10573000701C00B916B9032001901EE0E08E00280D
:10574000C7D1E08F0028C4D13A463146204604F044
:105750001DFE20B101200190202060650DE0A068B1
:1057600050B900BF002000902068C06800902068F9
:105770008068009000BF00BF00BF012084F8510086
:1057800000BF002084F8500000BF0198FBE670477E
:105790007047000030B502460B4600BF92F83C004F
:1057A000012801D1022030BD012082F83C0000BF59
:1057B000022082F83D00106844681068816824F077
:1057C00070041868044310684460184D1068A842BB
:1057D0001BD01068B0F1804F17D0154D1068A8424B
:1057E00013D0144D1068A8420FD0134D1068A84272
:1057F0000BD0124D1068A84207D0114D1068A84276
:1058000003D0104D1068A84205D121F080015868DE
:10581000014310688160012082F83D0000BF002034
:1058200082F83C0000BF00BFBDE70000000001405F
:105830000004004000080040000C0040000401404B
:10584000004001400018004010B504460CB901208A
:1058500010BD94F83D0028B9002084F83C00204693
:1058600000F026F8022084F83D00211D206804F095
:10587000FBFF012084F8460000BF84F83E000121B0
:105880003F200155402001554120015500BF00BF78
:10589000012084F842004320015544200155452051
:1058A000015500BF012084F83D000020D0E7000032
:1058B00038B504461949206888420FD100BF00203E
:1058C00000901748006840F0040015490860084639
:1058D000006800F00400009000BF1DE0114920683E
:1058E000884219D100BF002000900D48001D0068BB
:1058F00040F400300A49091D08600846006800F4B9
:105900000030009000BF00BF002205211920FEF7E3
:1059100031FA1920FEF71EFA38BD000000080040D9
:105920004038024000440140014691F83D00012802
:1059300001D001207047022081F83D001A4B086811
:1059400098421BD00868B0F1804F17D0174B0868F9
:10595000984213D0164B086898420FD0154B086830
:1059600098420BD0144B0868984207D0134B086834
:10597000984203D0124B086898420CD1086880689E
:1059800000F00702062A0CD00868006840F0010009
:105990000B68186005E00868006840F001000B68BB
:1059A00018600020C6E7000000000140000400402D
:1059B00000080040000C004000040140004001408D
:1059C00000180040014691F83D00012801D0012057
:1059D0007047022081F83D000868C06840F001006F
:1059E0000B68D8601A4B086898421BD00868B0F161
:1059F000804F17D0174B0868984213D0164B086891
:105A000098420FD0154B086898420BD0144B086889
:105A1000984207D0134B0868984203D0124B08688D
:105A200098420CD10868806800F00702062A0CD062
:105A30000868006840F001000B68186005E008681D
:105A4000006840F001000B6818600020C0E700000B
:105A5000000001400004004000080040000C00402D
:105A60000004014000400140001800402DE9F041D1
:105A700004460D46002700BF94F83C00012802D1DF
:105A80000220BDE8F081012084F83C0000BF022024
:105A900084F83D002068866826F0770626F47F4665
:105AA000206886602868502833D00CDC202850D02D
:105AB00004DC00284BD0102851D149E0302849D0CF
:105AC00040284CD139E060282DD0702807D0B0F59F
:105AD000805F03D0B0F5005F41D10DE041E0D5E932
