:020000040800F2
:10000000F0A20020310300081D820008015B0008F7
:10001000198200080F16000889BA000800000000C5
:100020000000000000000000000000007102000855
:100030001521000800000000CD020008F997000813
:100040004B0300084B0300084B0300084B03000858
:100050004B0300084B0300084B0300084B03000848
:100060004B0300084B030008452100084B03000820
:10007000A11D00084B0300084B0300084B030008B8
:100080004B0300084B0300084B0300084B03000818
:10009000151600084B0300084B0300084F21000809
:1000A0004B030008F59800084B0300084B030008B9
:1000B0004B0300084B0300084B0300084B030008E8
:1000C0004B0300084B0300084B0300084B030008D8
:1000D0004B0300084B0300084B03000821A0000855
:1000E0004B0300084B0300084B0300084B030008B8
:1000F0004B0300084B0300084B0300084B030008A8
:100100004B0300084B0300084B0300084B03000897
:100110004B0300084B0300084B0300084B03000887
:10012000B11D0008C11D00084B030008D11D0008C7
:100130004B0300084B0300084B0300084B03000867
:10014000611600084B0300084B03000821820008D9
:100150004B030008E11D00084B03000835A0000810
:100160004B0300084B0300084B0300084B03000837
:100170004B0300084B0300084B030008000000007D
:100180004B0300084B03000800F002F800F060F891
:100190000AA090E8000C82448344AAF10107DA45E2
:1001A00001D100F055F8AFF2090EBAE80F0013F0D4
:1001B000010F18BFFB1A43F00103184744EF00007A
:1001C00064EF00000A444FF0000C10F8013B13F0FC
:1001D000070408BF10F8014B1D1108BF10F8015BA0
:1001E000641E05D010F8016B641E01F8016BF9D193
:1001F00013F0080F1EBF10F8014BAD1C0C1B09D1EA
:100200006D1E58BF01F801CBFAD505E014F8016B5B
:1002100001F8016B6D1EF9D59142D6D370470000ED
:100220000023002400250026103A28BF78C1FBD8FF
:10023000520728BF30C148BF0B6070471FB50EF092
:1002400038FA9DE8030000F06BFA1FBD10B510BD31
:1002500000F0D2FA1146FFF7F1FF0CF065FF00F055
:10026000F0FA03B4FFF7F2FF03BC00F021FB00003B
:100270002C4B19680868B0E8F04F80F30988BFF389
:100280006F8F4FF0000080F311887047000000006E
:1002900008480068006880F308884FF0000080F389
:1002A000148862B661B6BFF34F8FBFF36F8F00DF64
:1002B00000BF00BF08ED00E0DFF80C00016841F46A
:1002C00070010160704700BF88ED00E0EFF3098026
:1002D000BFF36F8F134B1A681EF0100F08BF20ED8D
:1002E000108A20E9F04F106009B44FF0500080F3FD
:1002F0001188BFF34F8FBFF36F8F0DF009FE4FF0E2
:10030000000080F3118809BC19680868B0E8F04F54
:100310001EF0100F08BFB0EC108A80F30988BFF3FD
:100320006F8F704730020020EFF3058070470000A8
:100330000948804709480047FEE7FEE7FEE7FEE779
:10034000FEE7FEE7FEE7FEE7FEE7FEE704480549B5
:10035000054A064B70470000E19800088901000833
:10036000F0620020F0A20020F0820020F082002045
:1003700070B5064600F0B8F9056806F10B0020F0EC
:100380000704B4429CBF002070BD2B466A68BAB116
:100390001068A04210D304F1080188423CBF5068A5
:1003A000586007D35168101941601168091B01603A
:1003B00058601460101D70BD13465268002AE7D1C2
:1003C0002146284600F098F90028DED170BD70B5AE
:1003D0000446051F00F088F90068002C14BF44682B
:1003E00070BD002C18BFAC423CBF20466468F8D3F7
:1003F00001680A18AA4218BF456003D12A68054659
:100400001144016028684119A1421CBF6C6070BD95
:100410006168696021680844286070BD53EA020C75
:1004200000F069802DE9F04B4FF00006002B1FBF54
:10043000B3FA83F503FA05F424FA05F65E4012BF19
:100440001643B2FA82F502FA05F4C5F120051EBF83
:1004500022FA05FC44EA0C04203556EA044C4FEA23
:10046000144418BF641C4FF000084FF0000990427C
:1004700071EB030C39D3002919BFB1FA81F701FAE6
:1004800007F6B0FA80F700FA07F6C7F120071EBF9B
:1004900020FA07FC46EA0C062037B6FBF4FCA7EB73
:1004A0000507103F07F01F0BCBF120060CFA0BFBE2
:1004B0002CFA06F644BFB3460026202FA4BF5E46A2
:1004C0004FF0000B5BEA060C08BF4FF0010B19EB75
:1004D0000B09ABFB027C48EB0608C01B06FB02CCF9
:1004E0000BFB03CC71EB0C01C1E70B460246414606
:1004F0004846BDE8F08B13B54FF000004FF0000107
:10050000AFF30080BDE81C40704740EA010310B51E
:100510009B070FD1042A0DD310C808C9121F9C4293
:10052000F8D020BA19BA884201D9012010BD4FF085
:10053000FF3010BD1AB1D30703D0521C07E00020D2
:1005400010BD10F8013B11F8014B1B1B07D110F82F
:10055000013B11F8014B1B1B01D1921EF1D1184632
:1005600010BD032A40F2308010F0030C00F015801B
:1005700011F8013BBCF1020F624498BF11F801CBA6
:1005800000F8013B38BF11F8013BA2F1040298BF0B
:1005900000F801CB38BF00F8013B11F0030300F075
:1005A0002580083AC0F0088051F8043B083A51F819
:1005B00004CBA0E80810F5E7121D5CBF51F8043B1E
:1005C00040F8043BAFF30080D20724BF11F8013B91
:1005D00011F801CB48BF11F8012B24BF00F8013BF3
:1005E00000F801CB48BF00F8012B704710B5203A46
:1005F000C0F00B80B1E81850203AA0E81850B1E8DC
:100600001850A0E81850BFF4F5AF5FEA027C24BF91
:10061000B1E81850A0E8185044BF18C918C0BDE888
:1006200010405FEA827C24BF51F8043B40F8043B51
:1006300008BF7047D20728BF31F8023B48BF11F806
:10064000012B28BF20F8023B48BF00F8012B704760
:100650004FF000020429C0F0128010F0030C00F0EB
:100660001B80CCF1040CBCF1020F18BF00F8012B69
:10067000A8BF20F8022BA1EB0C0100F00DB85FEA37
:10068000C17C24BF00F8012B00F8012B48BF00F803
:10069000012B70474FF0000200B513469446964672
:1006A000203922BFA0E80C50A0E80C50B1F1200185
:1006B000BFF4F7AF090728BFA0E80C5048BF0CC033
:1006C0005DF804EB890028BF40F8042B08BF704791
:1006D00048BF20F8022B11F0804F18BF00F8012B03
:1006E0007047704770477047004870479862002015
:1006F000704770477047704738B504460A46002077
:100700006946AFF30080002808BF38BD0246009953
:10071000204600F04FF8012038BD012000F064B8F9
:10072000F8B5AFF30080054600200C46102000BF4E
:100730000646A819A0420DD9324669460020AFF3FB
:100740000080070008BF00F04FF80098A04218BFD3
:100750000546C419FFF7C8FF05600746F01D20F0E5
:1007600007004619284600F00AF8B44208BFF8BD51
:10077000A21B31463868BDE8F84000F01BB80021E4
:100780000160C0E9011070471020704710B500F0FB
:100790000DF8006810BD10B5044600F007F80460BD
:1007A00010BD00000048704790620020004870476C
:1007B00090620020034640688C46002818BF88429B
:1007C0003CBF03464068F8D318681844884207D0F5
:1007D0000CF1030020F00700001D411A521A0146D7
:1007E000081D0A60FFF7F3BD10B500F039F8BDE849
:1007F000104000F02FB870477546FFF7D3FFAE46A4
:1008000005006946534620F00700854618B020B51C
:10081000FFF79CFDBDE820404FF000064FF00007B9
:100820004FF000084FF0000B21F00701AC46ACE898
:10083000C009ACE8C009ACE8C009ACE8C0098D4605
:10084000704710B50446AFF300802046BDE8104065
:10085000FFF707BD002801D000F02AB8704700005C
:1008600010B5012805D0002103A000F027F80120D1
:1008700010BD09A1F8E7000053494752544D454DBA
:100880003A204F7574206F662068656170206D6531
:100890006D6F7279000000003A2048656170206D2C
:1008A000656D6F727920636F727275707465640024
:1008B00001491820ABBEFEE72600020070B50546D0
:1008C0000C460A2000E06D1C00F011F835B12878C4
:1008D0000028F8D102E0641C00F009F814B1207877
:1008E0000028F8D1BDE870400A20AFF3008008B5B9
:1008F00069468DF800000320ABBE08BDF0B581B09D
:100900004FF68311C3F622610DF084FE4FF07A5149
:100910000DF0D4FD04460DF031FE054620460021C1
:1009200000270DF0F7FD002818BF013D28460DF007
:1009300033FE014620460DF0C1FE4FF088410DF018
:1009400069FE05460DF021FE044628464FF044415D
:100950000DF0B4FD0646B7EB542F0CBF2E46002415
:1009600020460DF020FE014630460DF0A7FE05465C
:100970004FF07E5029460DF0A1FE4EF6FC07C0F662
:10098000000757F824100DF045FE064607EB8400DB
:10099000416828460DF03EFE014630460DF08EFDC2
:1009A00001B0F0BD2DE9F04103880F88BB423FD173
:1009B00047884E88B7423BD11688B34238D1568813
:1009C000B74235D1466854684D6807FB03F80020EC
:1009D000B0EB980F1BD04FEA980047423068296867
:1009E0000DF06CFD2060706869680DF067FD606057
:1009F000B068A9680DF062FDA060F068E9680DF0CC
:100A00005DFDE0601034103510360137E6D118F086
:100A100003000BD0474200BF56F8040B55F8041BE7
:100A20000DF04CFD44F8040B0137F5D1002000E037
:100A3000FD2040B2BDE8F0814360428001807047F4
:100A40002DE9F04F93B0B0F802A0B0F800B0D34554
:100A500040F05D810A88FD25934540F059814B881F
:100A60009A4240F055814768BBF1000F00F0398190
:100A70004C686FF00300019700274FF07E585E46E8
:100A8000CDF820A000EB8B0920460494BBEB0600B8
:100A900008D0B9002046FFF7FDFD002001300434E6
:100AA0008742FBD104F1040A751EC4F800800FD000
:100AB000A9EB87015046FFF7EDFD0120544600BF2A
:100AC000013004348642FBD10137002D2E46DDD1A2
:100AD000019FDDF820A0BBF1000F00F0028104208F
:100AE00007EB8A023C1DABF101080021CDF824A0E0
:100AF000CDF81CB000EB8A000290CAF100000B9008
:100B00004FEA8A00129000BF594580F0058101FB31
:100B10000AF0109104990597002593460392CDF8A9
:100B2000188057F8209001EB800107EB80004F46BA
:100B30000E910D9008E000BF1298DBF80070A8F14C
:100B40000108354658448346384600210DF0DBFC49
:100B500040B9384629460DF0C8FC00283E4608D06A
:100B600008E000BF87F00046284631460DF0D2FC71
:100B700000B92E46B8F1000FDED1304600210DF04D
:100B8000A6FC002840F0C88029F0004031460DF056
:100B90009EFCDDE9062140B91098C043401804D0FE
:100BA000002000BF01308242FCD1484600210DF0F8
:100BB0008EFC099E002840F0AF800D994FF07E50CA
:100BC0000F9408601098AAEB0001012908460C91C7
:100BD0000BD00F9D012400BF286849460DF0ADFCE5
:100BE000013445F8040BA642F6D10B9C0E9D00BFC4
:100BF000286849460DF0A1FC45F8040B0134F7D1F3
:100C00000C98DDF81C804FF0000B01380A90DDE9EC
:100C10000465DDE90F4100BF8B4505D10C9806EB5B
:100C20008A0605EB80053CE00D98D5F80090016838
:100C300048460DF0EFFC014648460DF03FFD45F8F3
:100C4000040B0A98E0B1CDF84480DDF82480012738
:100C50004FF0000A54F80A1048460DF0DBFC01463C
:100C600055F80A000DF02AFD013745F80A000AF18F
:100C7000040AB845EED15544DDF820A0DDF84480E3
:100C80000B9F0E9C54F8041B48460DF0C3FC014614
:100C900030680DF013FD46F8040B0137F2D1DDE9A1
:100CA0000F4105EB81050BF1010BB8F10108B3D140
:100CB0000298039ADDF81880059FDDF81CB0013119
:100CC000044402440998A8F1010804370138099046
:100CD0007FF41AAF4846002100250DF0F8FB019F74
:100CE000B0B10AFB0BF50024002645B1386800219D
:100CF0000DF0EDFB18B101360437AE42F6D3AE422B
:100D000008BF6FF00404204613B0BDE8F08FFD2546
:100D100068B213B0BDE8F08FFB25F9E72DE9F04F7D
:100D200091B047880B889F4240F0AF8006881388B7
:100D30009E4240F0AA804D8853889D4240F0A58095
:100D400052684FF0000949684FEA850805960497F4
:100D5000039502924268A9EB97000191079027F052
:100D6000030002EB80000C920990B8080B906843D6
:100D700001EB00102946009007F003000A90404262
:100D8000069000BF029800EB890ADDE9000BCDF860
:100D9000209010900B980F91002847D0CDF838A0E4
:100DA000CDF834B0D946DDF81CA0DDF830B0002411
:100DB0009BE8C100D9F80010DBF80C500DF02AFCBC
:100DC000014620460DF07AFB59F8081004463046DB
:100DD0000DF020FC014620460DF070FB09EB0806E3
:100DE0000446384656F808100DF014FC014620461B
:100DF0000DF064FB46440446284656F808100DF0F2
:100E000009FC014620460DF059FB044606EB08009C
:100E10000BF1100B1AF1010A00EB0809C8D1109D63
:100E2000DDE90896DDE90DBA03E000BF0C9E002461
:100E30005D460A9868B1069F56F8040B29680DF0C4
:100E4000E9FB014620460DF039FB044645440137D5
:100E5000F2D110980F994AF8044B0BF1040B0430AF
:100E60000139109096D10498099901EB80010991FC
:100E70000C9901EB800105980C9103990138894484
:100E800005907FF47FAF002000E0FD2040B211B05C
:100E9000BDE8F08F2DE9F04103880F88BB423FD1B8
:100EA00047884E88B7423BD11688B34238D156881E
:100EB000B74235D1466854684D6807FB03F80020F7
:100EC000B0EB980F1BD04FEA980047423068296872
:100ED0000DF0F4FB2060706869680DF0EFFB606056
:100EE000B068A9680DF0EAFBA060F068E9680DF051
:100EF000E5FBE0601034103510360137E6D118F00C
:100F000003000BD0474200BF56F8040B55F8041BF2
:100F10000DF0D4FB44F8040B0137F5D1002000E0BC
:100F2000FD2040B2BDE8F0812DE9F04F82B0B0F86D
:100F300000E04B889E454BD144880B889C4247D1AA
:100F400000234E6804F0030B40684FEA0E184FEA86
:100F5000940AA3EB9401CBF1000901914FEA8E01B1
:100F600032460096BAF1000F1CD0019F344600BFF4
:100F70002546046801372C6044686C5005EB010479
:100F8000D0F808C044F801C00C44C26800F1100059
:100F9000625004EB010202EB0104E9D105EB080702
:100FA00003E000BF009A02EB8307BBF1000F07D0FC
:100FB0004D4600BF50F8042B01353A600F44F9D17B
:100FC0000436BEF1010E03F10103CBD1002000E095
:100FD000FD2040B202B0BDE8F08FF0B581B04FF611
:100FE0008311C3F622610DF015FB04460DF0C6FA1D
:100FF00005462046002100270DF08CFA002818BF76
:10100000013D28460DF0C8FA014620460DF056FB7A
:101010004FF088410DF0FEFA05460DF0B6FA044691
:1010200028464FF044410DF049FA0646B7EB542FDD
:101030000CBF2E46002420460DF0B5FA014630467E
:101040000DF03CFB05464FF07E5029460DF036FB77
:101050004EF6FC07C0F6000757F824100DF0DAFA38
:10106000064607EB8400416828460DF0D3FA014696
:1010700030460DF023FA01B0F0BD000010B501229A
:101080001021024802F0D0FA10BD0000000002401A
:1010900010B500221021024802F0C6FA10BD00006F
:1010A0000000024010B501221146024802F0BCFACD
:1010B00010BD00000004024010B5002201210248CA
:1010C00002F0B2FA10BD0000000402401CB5044654
:1010D000002000900190FFF7DBFF922000F0A2F9C2
:1010E00006226946122000F07DF9FFF7C7FF9DF840
:1010F0000100000200B29DF8001008438E490880EC
:101100000846B0F9000000EE100AB8EEC00A8B489D
:10111000D0ED000A20EE200AD4ED080A20EE200AC5
:1011200084ED000A9DF80300000200B29DF8021051
:101130000843814908800846B0F9000000EE100A13
:10114000B8EEC00A7D48D0ED000A20EE200AD4EDAA
:10115000080A20EE200A84ED010A9DF8050000022D
:1011600000B29DF804100843734908800846B0F99E
:10117000000000EE100AB8EEC00A7048D0ED000A78
:1011800020EE200AD4ED080A20EE200A84ED020A9F
:10119000FFF792FF08226946002000F023F9FFF7CD
:1011A00081FF9DF800000F284FD165480078E8B313
:1011B0009DF80300000200B29DF8021008435E494A
:1011C000088094ED090A0846B0F9000000EE900A84
:1011D000F8EEE00A5B4890ED001A10EE810A84ED0B
:1011E000030A9DF80500000200B29DF804100843B0
:1011F0005149088094ED0A0A0846B0F9000000EE53
:10120000900AF8EEE00A4F4890ED001A10EE810ABD
:1012100084ED040A9DF80700000200B29DF8061054
:1012200008434549088094ED0B0A00E00EE00846AB
:10123000B0F9000000EE900AF8EEE00A414890EDA7
:10124000001A10EE810A84ED050A44E09DF80300BF
:10125000000200B29DF80210084337490880084692
:10126000B0F9000000EE100AB8EEC00A3548D0ED23
:10127000000A20EE200A84ED030A9DF80500000212
:1012800000B29DF8041008432B4908800846B0F9C5
:10129000000000EE100AB8EEC00A2A48D0ED000A9D
:1012A00020EE200A84ED040A9DF80700000200B237
:1012B0009DF806100843204908800846B0F9000050
:1012C00000EE100AB8EEC00A1E48D0ED000A20EE6B
:1012D000200A84ED050AFFF7DBFEA22000F0A2F849
:1012E00002226946222000F07DF8FFF7C7FE9DF834
:1012F0000000C0009DF8011040EA61100E4908800E
:101300000846B0F90000B0F5806F05DB084600889C
:10131000A0F5006000B208800748B0F9000000EEB8
:10132000100AF8EEC00AB4EE001AB3EE070A00EE97
:10133000810A84ED070A1CBDEA000020AC000020F1
:10134000BC000020B000002070B504460D461C48CB
:10135000046000201B4908700BF0E2F81949097875
:101360000843184908700BF091F9164909780843A9
:10137000144908701DB1144800F00AFA1CE09FEDF2
:10138000130A114880ED090A9FED110A80ED0A0A3F
:101390009FED100A80ED0B0A9FED0F0A80ED0C0AFD
:1013A00090ED0C0ADFED0D0A80EE801A80ED081A30
:1013B0009FED0B0A80ED060A0248007870BD000020
:1013C000EC000020B6000020701100209A0AB03B0B
:1013D00053F92EBBB0ECA9BAB3D61B41C3F51C41DF
:1013E0000000204270B506460C46154646F08000C7
:1013F00000F018F806E0552000F014F82070641C86
:10140000681EC5B2002DF6D170BD70B504460D46FC
:1014100044F0800000F006F8552000F003F8287032
:1014200070BD000001B582B04FF47A70012301AAAB
:1014300002A900900348006803F016FC9DF8040020
:101440000EBD0000EC00002070B505460C46284695
:10145000FFF7E8FF2046FFF7E5FF70BD024691F871
:101460002500022802DA91F8260008B9002070470A
:10147000B1F92A00904205DAD1F82E00401CC1F8DB
:101480002E000DE0B1F92A004042904205DDD1F86E
:101490002E00401CC1F82E0002E00020C1F82E00F2
:1014A000D1F82E00B1F92C30984201DD0120DEE7A1
:1014B0000020DCE7D2ED020A92ED021AB6EE000A35
:1014C00000EEC10AD2ED030A92ED031A00EEC10A42
:1014D000D0ED000A20EE200AD2ED010A92ED021AA8
:1014E00060EE810A92ED001AD2ED031A41EE610A14
:1014F00090ED011A00EE810AD2ED010A92ED031A75
:1015000060EE810A92ED001AD2ED021A41EE210A34
:1015100090ED021A00EE810AF0EE000A20EE200A99
:1015200081ED000A92ED010AD2ED020A20EE200AB6
:10153000D2ED000A92ED031A00EE810AD0ED000A06
:1015400060EE200A92ED011AD2ED011AB6EE000A01
:1015500001EE610AD2ED031A92ED032AB0EE401AB1
:1015600001EEC21AD0ED011AB0EE600A01EE210AB6
:10157000D2ED020A92ED031A60EE810A92ED001A92
:10158000D2ED011A41EE610A90ED021A00EE810AD5
:10159000F0EE000A20EE200A81ED010A92ED010A28
:1015A000D2ED030A20EE200AD2ED000A92ED021AD3
:1015B00000EEC10AD0ED000A20EE200AD2ED020AA8
:1015C00092ED031A60EE810A92ED001AD2ED011A33
:1015D00041EE210A90ED011A00EE810A92ED011A06
:1015E000D2ED011AF6EE000A41EE610A92ED021AFE
:1015F000D2ED021A41EE610A90ED021A00EE810A64
:10160000F0EE000A20EE200A81ED020A704700BFCA
:10161000FEE7000010B5024801F006FA10BD000018
:101620000C05002000B58BB0012009900020079028
:1016300001200890002001900290039004900690F1
:10164000059001A9054801F09FF8044801F097FCB6
:101650000221024800F0D8FF0BB000BD0C050020AD
:1016600010B5024801F0E0F910BD0000340500207B
:1016700000B58BB000200790012008900020019059
:101680000290039004900E2006900A90002005908E
:101690000120099001A9064801F076F8044801F0FC
:1016A0006EFC0221024800F0AFFF0BB000BD00004D
:1016B00034050020F8B506460F4615460A2D00DB16
:1016C000F8BD681E00EBC00000EB40002F4901EBA5
:1016D0004004A4F81F6004F11900A4F81B70B4F8CA
:1016E0001B00B4F81910401A00B2A4F81D00B4F899
:1016F0001B00A4F81900207E40B901202076B4F820
:101700001F00A4F82100B4F91F006060B4F81F2086
:10171000B4F82130D21A10B2B4F923100AF0EEFE58
:10172000009020680099084420606068009908448F
:101730006060B4F81F00A4F821006068B4F92810B4
:101740004843B4F9231090FBF1F000EE100AB8EE14
:10175000C00A10EE100AA0602068B4F928104843AF
:10176000B4F9231090FBF1F000EE100AB8EEC00AB5
:1017700010EE100A60612146009800B2FFF76EFE7D
:1017800084F827000020009000BF99E70C09002092
:1017900070B52DED048B88B00446002006900790AC
:1017A00000F0F2FBFE4880ED000A00BF00F0ECFB09
:1017B000FB48D0ED000A30EE600AF2EE040AB4EE07
:1017C000E00AF1EE10FA14DD9FEDF60A84ED090A45
:1017D0009FEDF50A84ED0A0A9FEDF40A84ED0B0AE9
:1017E0009FEDF30A84ED0C0A9FEDF20A84ED060AE0
:1017F00057E29FEDF10A00F083FB9FEDF00A84EDC4
:101800000C0A9FEDEE0A84ED090A9FEDEC0A84EDC7
:101810000A0A9FEDEA0A84ED0B0A002673E1FFF73E
:1018200037FC9220FFF7FEFD062206A91220FFF7E3
:10183000D9FDFFF723FC9DF81900000200B29DF8C6
:10184000181040EA010500EE105AB8EEC00ADC4854
:10185000D0ED000A20EE200A84ED000A9DF81B005E
:10186000000200B29DF81A1040EA010500EE105A7D
:10187000B8EEC00AD248D0ED000A20EE200A84ED6E
:10188000010A9DF81D00000200B29DF81C1040EAFC
:10189000010500EE105AB8EEC00AC948D0ED000AA2
:1018A00020EE200A84ED020AD4ED000A60EEA00AC0
:1018B00094ED011AD4ED011A41EE210A94ED021AB9
:1018C000D4ED021A41EE210AB0EE600A0AF06EFD74
:1018D000B0EE408A94ED0C0A30EE080A84ED0C0A52
:1018E000FFF7EAFB082206A90020FFF77BFDFFF7C0
:1018F000D9FB9DF818000F2850D19DF81B0000025D
:1019000000B29DF81A1040EA010500EE105AB8EE38
:10191000C00AAC48D0ED000A20EE200A84ED030A8C
:1019200094ED090AD4ED030A30EE200A84ED090A89
:101930009DF81D00000200B29DF81C1040EA010550
:1019400000EE105AB8EEC00A9E48D0ED000A20EE14
:10195000200A84ED040A94ED0A0AD4ED040A30EE5C
:10196000200A84ED0A0A9DF81F00000200B29DF8CB
:101970001E1040EA010500EE105AB8EEC00A914868
:10198000D0ED000A20EE200A84ED050A94ED0B0A42
:10199000D4ED050A30EE200A84ED0B0A06BBF0EE0A
:1019A000488AB0EE489A002017E004F10C0101EBE0
:1019B000800191ED000A03A901EB800181ED000A8D
:1019C00004F10C0101EB800191ED000A694601EB85
:1019D000800181ED000A411CC8B20328E5DB49E023
:1019E000B4EEE88AF1EE10FA01DDF0EE488AB4EECA
:1019F000C98AF1EE10FA01D2B0EE489A002037E021
:101A000004F10C0101EB800191ED000A03A901EB47
:101A10008001D1ED000AB4EEE00AF1EE10FA0ADD21
:101A200004F10C0101EB800191ED000A03A901EB27
:101A3000800181ED000A04F10C0101EB800191EDC0
:101A4000000A694601EB8001D1ED000AB4EEE00A1C
:101A5000F1EE10FA0AD204F10C0101EB800191EDD4
:101A6000000A694601EB800181ED000A411CC8B201
:101A70000328C5DB38EEC90A534880ED000A002070
:101A800012E003A901EB800191ED000A694601EB28
:101A90008001D1ED000A30EE600A4C4901EB800173
:101AA00081ED000A411CC8B20328EADB464890EDEC
:101AB000000AF6EE000AB4EEE00AF1EE10FA1BDCC2
:101AC000424890ED000ADFED420AB4EEE00AF1EE82
:101AD00010FA11DC90ED010ADFED3D0AB4EEE00AE8
:101AE000F1EE10FA08DC90ED020ADFED390AB4EEEF
:101AF000E00AF1EE10FA00DD0AE09FED360A00F090
:101B0000FFF9701C86B2344800888642FFF687AE23
:101B100000BFD4ED0C0A3048008800EE100AB8EE81
:101B2000400A80EE801A84ED0C1A002015E004F1C2
:101B3000240101EB8001D1ED000A2749098800EE5C
:101B4000101AB8EE400A80EE801A04F1240101EB6D
:101B5000800181ED001A411CC8B20328E7DBFFF7C2
:101B600097FAA220FFF75EFC022206A92220FFF7C7
:101B700039FCFFF783FA9DF81800C0009DF8191092
:101B800040EA6115B5F5806F02DBA5F5006005B28E
:101B900000EE105AF8EEC00AB4EE001A1EE0000083
:101BA000E40000209A0AB03B53F92EBBB0ECA9BA6E
:101BB000B3D61B41000020420AD7A33B000000001F
:101BC000AC000020B0000020B8000020641100200C
:101BD0009A99193E6F12033AE8000020B3EE070A03
:101BE00000EE810A84ED060A34480088401C00B2E9
:101BF00032490880324890ED000AF6EE000AB4EE51
:101C0000E00AF1EE10FA3FF7D1AD94ED0C0ADFEDEA
:101C10002D0A30EE600AB0EEC00AF6EE000AB4EE0D
:101C2000E00AF1EE10FAEEDC274890ED000A5FEDD5
:101C3000180AB4EEE00AF1EE10FAE4DC90ED010AC5
:101C40005FED1D0AB4EEE00AF1EE10FADBDC90ED78
:101C5000020A5FED210AB4EEE00AF1EE10FAD2DCDE
:101C600094ED090AB0EEC00ADFED180AB4EEE00AFE
:101C7000F1EE10FAC7DC94ED0A0AB0EEC00ADFED0F
:101C8000130AB4EEE00AF1EE10FABCDC94ED0B0A94
:101C9000B0EEC00ADFED0D0AB4EEE00AF1EE10FA84
:101CA000B1DC00BF94ED0C0ADFED090A80EE801A6A
:101CB00084ED081A08B0BDEC048B70BDBE00002096
:101CC000B8000020CDCC1C41641100200AD7233C71
:101CD000C3F51C41C16B00EE101AB5EEC00AF1EE5F
:101CE00010FA03DDC16B00EE101A04E0C16B00EEC8
:101CF000101AB1EE400A016E00EE901AB4EEE00A3E
:101D0000F1EE10FA00D87047C16B00EE101AB5EE74
:101D1000C00AF1EE10FA03DDC16B00EE101A04E008
:101D2000C16B00EE101AB1EE400AC16D00EE901AC0
:101D3000B4EEE00AF1EE10FA05DD9FED180A10EEA0
:101D4000101AC16127E0C16D00EE901AC16B00EE60
:101D5000101AB5EEC00AF1EE10FA03DDC16B00EE09
:101D6000101A04E0C16B00EE101AB1EE400A30EE1A
:101D7000C01AC16D00EE101A016E00EE901A30EE1E
:101D8000600AC1EE000AC16900EE101A20EE800A56
:101D900010EE101AC16100BFB5E70000000000009E
:101DA00010B5024801F08CF910BD00004407002076
:101DB00010B5024801F084F910BD0000B405002000
:101DC00010B5024801F07CF910BD0000A407002006
:101DD00010B5024801F074F910BD0000140600208F
:101DE00010B5024801F06CF910BD00000408002095
:101DF0000146087810381823B0FBF3F20848805CDD
:101E0000C865032A05D908686FF30900001D8865B5
:101E100003E008686FF309008865886D704700006B
:101E20001CE80008014600208A6A8B69CBB932B1F0
:101E3000012A0DD0022A03D0032A10D10EE000BFE0
:101E4000CB6A03F08073B3F1807F00D1012007E0FB
:101E5000CB6AB3F1C07F00D1012001E000E000BFF8
:101E600034E08B69B3F5005F1AD132B1012A07D093
:101E7000022A03D0032A11D10AE000BF01200EE09C
:101E8000CB6A03F08073B3F1807F00D1012006E0BC
:101E9000CB6AB3F1C07F00D1012000E000BF15E0A4
:101EA00032B1012A05D0022A04D0032A0CD103E062
:101EB00000BF00BF012008E0CB6A03F08073B3F1DC
:101EC000807F00D1012000E000BF00BF704700000C
:101ED00008B508484068009007490098096888429A
:101EE00004D206480068401C044908600249009872
:101EF000086008BD001000E0080100200401002077
:101F00000C494868F0EE400A00BF0A494968091ABE
:101F100001EE101AF8EE411A074991ED001AB8EED9
:101F2000411A20EE811AF4EEC11AF1EE10FAECD348
:101F300070470000001000E0F800002010B52DED03
:101F4000028B82B004460E484068019020680199D7
:101F5000081A00EE100AF8EE400A0A4890ED000A4E
:101F6000B8EE400A80EE801AB0EE418A01982060F7
:101F7000FFF7AEFFB0EE480A02B0BDEC028B10BD19
:101F8000001000E0F800002010B52DED028B00F0ED
:101F900059F80F4890ED000AB8EE400A808800EE2C
:101FA000900AF8EE600A9FED0B1A00EE810A0848CD
:101FB000C08800EE900AF8EE600A9FED071A00EE66
:101FC000810AB0EE408AB0EE480ABDEC028B10BD2B
:101FD000F00000206F12833ABD3786351249096838
:101FE00041F08071104A11600021104A5160114681
:101FF000096841F0010111600D4941430D4A11602A
:10200000114609684FF47A72B1FBF2F10A4A116085
:1020100008490968064AB1FBF2F1084A116000213B
:10202000074A116070470000FCED00E0001000E07E
:1020300040420F00F8000020FC00002000010020BA
:102040000401002038B5294840680090FFF740FFA0
:10205000274800684FF0FF31A0FB013100981818A5
:1020600041F10001234A03C22348002321490268A9
:1020700003C9FEF7D3F9214A03C220480CC81E4801
:1020800000680024A2FB001503FB005002FB0402C1
:102090001848D0E90030591A60EB0200184AC2E92A
:1020A00000101648006817490860174800231449B3
:1020B000026803C9FEF7B2F9124988800846808891
:1020C0001149096841430E48D0E90030591A60F1BE
:1020D00000000E4AC2E900100D4800230B490268B7
:1020E00003C9FEF79BF90749C88038BD001000E01E
:1020F0000401002010010020F80000201801002039
:1021000020010020F0000020FC0000202801002019
:10211000000100207047000000B52423034AA2F10B
:102120002401034806F07AFB00BD0000E808002007
:10213000BC06002010B5024806F0B4FB10BD00003C
:10214000BC06002010B5102001F066F910BD10B5D6
:10215000202001F061F910BDD2ED020A92ED021AC1
:10216000B6EE000A00EEC10AD2ED030A92ED031AA0
:1021700000EEC10AD0ED000A20EE200AD2ED010ADD
:1021800092ED021A60EE810A92ED001AD2ED031A66
:1021900041EE210A90ED011A00EE810AD2ED010A0A
:1021A00092ED031A60EE810A92ED001AD2ED021A46
:1021B00041EE610A90ED021A00EE810AF0EE000A8B
:1021C00020EE200A81ED000A92ED010AD2ED020A0A
:1021D00020EE200AD2ED000A92ED031A00EEC10AA9
:1021E000D0ED000A60EE200A92ED011AD2ED011A3C
:1021F000B6EE000A01EE610AD2ED031A92ED032A4F
:10220000B0EE401A01EEC21AD0ED011AB0EE600A2B
:1022100001EE210AD2ED020A92ED031A60EE810A64
:1022200092ED001AD2ED011A41EE210A90ED021A48
:1022300000EE810AF0EE000A20EE200A81ED010A8C
:1022400092ED010AD2ED030A20EE200AD2ED000A37
:1022500092ED021A00EE810AD0ED000A20EE200A6B
:10226000D2ED020A92ED031A60EE810A92ED001A95
:10227000D2ED011A41EE610A90ED011A00EE810AD9
:1022800092ED011AD2ED011AF6EE000A41EE610A52
:1022900092ED021AD2ED021A41EE610A90ED021A95
:1022A00000EE810AF0EE000A20EE200A81ED020A1B
:1022B000704700000021016041609FED050A10EEAB
:1022C000101A81609FED020A10EE101A41617047EA
:1022D0000000000070B505460E460A2E01DB002006
:1022E00070BD701E00EBC00000EB4000134901EB15
:1022F0004004204600F024F804F8255F0020A07078
:102300006070253C15B1012D13D10BE04FF4005046
:10231000A4F82300132020850A2060854FF48070E4
:10232000A08507E04FF40050A4F823000120208589
:1023300000E000BF00BF2046D2E700000C090020EB
:1023400010B5044636212046FEF782F910BD72B65C
:1023500000BFFEE710B504464FF49C612046FEF72F
:1023600099F906F057FA60600AF0D4FCA0600AF010
:10237000D9FCC4F83C010AF0D1FCC4F870020AF0A0
:10238000C5FC4FF41F7108510AF0B8FC4FF42271DC
:1023900008510AF0B7FCC4F8D80401210846FFF739
:1023A00099FFA06102210120FFF794FF4FF4A6716D
:1023B000085106219FED691ADFED680A9FED680A52
:1023C00004F11C0006F03FF94FF492719FED651A7D
:1023D000DFED620AB0EE080A04F1AC0006F033F952
:1023E000DFED5E0A9FED600A042104F11C0006F097
:1023F00049F9DFED5A0A9FED5D0A022104F11C0044
:1024000006F040F9F6EE000AB3EE040A202104F1CA
:10241000AC0006F037F9DFED510A9FED540A0421B4
:1024200004F1AC0006F02EF9DFED4C0AB3EE0E0A13
:102430004FF4807104F1AC0006F024F906219FED01
:10244000471ADFED460A9FED470A04F5A87006F02B
:10245000FAF84FF48371B1EE041ADFED400AB3EEDF
:102460000E0A04F5F07006F0EEF8DFED3C0A9FED81
:102470003E0A042104F5A87006F004F9DFED370ADE
:102480009FED3A0A022104F5A87006F0FBF8DFED93
:10249000330A9FED370A4FF4807104F5F07006F0AF
:1024A000F1F8DFED2E0A9FED330A022104F5F070FA
:1024B00006F0E8F8DFED290A9FED2C0A042104F567
:1024C000F07006F0DFF804219FED241ADFED230AF7
:1024D000B2EE040A04F5497006F0B5F804219FED48
:1024E0001F1ADFED1E0AB2EE040A04F5257006F08D
:1024F000AAF804219FED191ADFED180AB2EE040ABA
:1025000004F56D7006F09FF8DFED140A9FED1A0ACE
:10251000042104F5497006F0B5F8DFED100A9FEDCF
:10252000160A042104F5257006F0ACF8DFED0B0A5D
:102530009FED110A042104F56D7006F0A3F8012146
:1025400084F8D4144FF4A6710859FFF7B3FE9FED39
:10255000030A04F5806080ED370A10BD000000001A
:102560000000A042000048420060EA4600401C46CD
:10257000000070420000964300007A4608B51B48F0
:10258000FFF7E8FE0BF05CFE00902DE00BF038FA50
:10259000164800F02DF8154AB2F94811B2F91400A6
:1025A0000AF00CF9114B93EDA40ABDEEC00A10EE2F
:1025B000103A1AB20D4B93ED9E0ABDEEC00A10EE12
:1025C000103A19B2094B93EDA10ABDEEC00A10EE04
:1025D000103A18B20AF01EF90AF04AF90BF03AFA6A
:1025E000012168460BF028FBD0E70000580B0020C3
:1025F00010B5044620460AF099FB20460AF0D8FBA5
:1026000020460AF06BFC10BD10B5024692F820304F
:10261000012B01D0022B06D11068406908431468D1
:102620006061002010BD506A40F48020506201209B
:10263000F8E7F0B504460D461E4694F82070206871
:102640008368A86800B900E000BF012F01D0022F05
:102650007CD103F0806030B903F0006018B903F05A
:102660008050002873D0C3F30161022905D9606A44
:1026700040F4000060620120F0BD0120884030601D
:10268000A86860B9B5F800C0E86840EA4C5C20680A
:1026900000F5C07000EB0110C0F800C00FE0D5E9F4
:1026A00001C040EACC00D5F80CC040EA0C00D4F8D8
:1026B00000C00CF5C07C0CEB011CCCF80000D5F878
:1026C00010C0206800F5C07000EB0110C0F804C015
:1026D000287D01280ED1206800F5C07000EB0110A4
:1026E000406840F4807C206800F5C07000EB011069
:1026F000C0F804C0D079000692F806C040EA0C4049
:1027000092F805C040EA0C2C10794CEA000C2068C5
:1027100000F5C07000EB0110C0F80CC0D0780006C6
:1027200092F802C040EA0C4092F801C040EA0C2046
:1027300092F800C040EA0C00D4F800C00CF5C07C50
:102740000CEB011CCCF80800206801E016E00FE05B
:1027500000F5C07000EB0110006840F0010C20682B
:1027600000F5C07000EB0110C0F800C0002083E746
:10277000606A40F40010606201207DE7606A40F406
:1027800080206062012077E7F0B504460A462168A0
:1027900094F82050012D01D0022D7ED1424901F53F
:1027A0000071086840F001000860086820F47C505F
:1027B00008600868566A40EA06200860107D00F04C
:1027C0001F06012000FA06F3C8699843C861A1F505
:1027D0000071D069C8B9D1F80C029843C1F80C0255
:1027E000908880B2968940EA064601F510705769D4
:1027F00040F83760108880B2168940EA064601F535
:102800001070576900EBC7004660D069012819D1E4
:10281000D1F80C021843C1F80C02908880B21688D7
:1028200040EA064601F51070576940F83760908914
:1028300080B2168940EA064601F51070576900EB30
:10284000C7004660906928B9D1F804029843C1F8DE
:10285000040204E0D1F804021843C1F8040210692C
:1028600028B9D1F814029843C1F8140204E0D1F851
:1028700014021843C1F81402106A012804D1D1F8D7
:102880001C021843C1F81C02D1F8000220F001001C
:10289000C1F800020020F0BDFFE7606A40F480202C
:1028A00060620120F7E7000000640040704770B5E7
:1028B000044694F82050012D01D0022D7DD151B94C
:1028C0002068C06800F0030080B9606A40F400101E
:1028D0006062012070BD2068006900F0030028B923
:1028E000606A40F4001060620120F3E7206800F5A0
:1028F000D87000EB0110006800F004009060906850
:1029000040B9206800F5D87000EB01100068400D58
:10291000106007E0206800F5D87000EB0110006837
:10292000C0085060206800F5D87000EB0110006806
:1029300000F00200D060206800F5D87000EB0110B4
:10294000406800F00F001061206800F5D87000EBBF
:102950000110406800F47F40000A9061206800F593
:10296000D87000EB01104068000C5061206800F541
:10297000D87000EB011080681870206800F5D870DE
:1029800000EB0110806800F47F40000A5870206856
:1029900000F5D87000EB0110806800F47F00000C97
:1029A0009870206800F5D87000EB01108068000E68
:1029B000D870206800F5D87000E02FE000EB01101F
:1029C000C0681871206800F5D87000EB0110C0686D
:1029D00000F47F40000A5871206800F5D87000EBC1
:1029E0000110C06800F47F00000C9871206800F5A9
:1029F000D87000EB0110C068000ED87131B92068A2
:102A0000C06840F020002668F06005E0206800699A
:102A100040F020002668306100205BE7606A40F4E7
:102A200080206062012055E72DE9F05F0446002513
:102A3000206846692068D0F804902068876820687C
:102A4000D0F80CA02068D0F810B02068D0F818801A
:102A500006F00100002855D007F00100C0B10120A8
:102A60002168886007F0020018B1204600F0B7FA2C
:102A70000EE007F0040010B145F4006508E007F02F
:102A8000080010B145F4805502E0204600F0A6FA97
:102A900007F48070C8B14FF480702168886007F433
:102AA000007018B1204600F09CFA0EE007F4806038
:102AB00010B145F4005508E007F4006010B145F48A
:102AC000804502E0204600F08BFA07F48030C8B160
:102AD0004FF480302168886007F4003018B1204638
:102AE00000F081FA0EE007F4802010B145F40045B3
:102AF00008E007F4002010B145F4803502E02046DC
:102B000000F070FA06F0080038B10AF0100020B1A9
:102B100045F4007510202168C86006F0040040B13B
:102B20000AF0080028B108202168C860204600F09B
:102B30000DFA06F0020038B12068C06800F003000A
:102B400010B1204600F004FA06F0400038B10BF056
:102B5000100020B145F4806510202168086106F05E
:102B6000200040B10BF0080028B10820216808615E
:102B7000204600F001FA06F0100038B12068006924
:102B800000F0030010B1204600F0F7F906F4003021
:102B900040B109F0100028B110202168486020469B
:102BA00000F0ECF906F4803040B109F0080028B1DB
:102BB000082021684860204600F016FA06F400401C
:102BC00088B309F0040078B306F4807020B108F0EF
:102BD000010008B145F0010506F4007020B108F0CD
:102BE000020008B145F0020506F4806020B108F04B
:102BF000040008B145F0040506F40060A0B108F037
:102C0000700088B108F07000402817D006DC10284A
:102C10000BD020280CD0302819D10CE0502810D02F
:102C2000602814D110E01DE019E045F008050FE020
:102C300045F010050CE045F0200509E045F04005A1
:102C400006E045F0800503E045F4807500E000BF34
:102C500000BF2068806920F070002168886104202E
:102C6000216848602DB1606A284360622046FFF702
:102C70001DFEBDE8F09F70B504460CB9012070BD83
:102C800094F8200010B9204600F0B0F820680068E1
:102C900040F001002168086000F0CCFC05460DE022
:102CA00000F0C8FC401B0A2808D9606A40F40030D4
:102CB0006062052084F820000120E0E72068406879
:102CC00000F001000028EBD02068006820F002002E
:102CD0002168086000F0AEFC05460DE000F0AAFC9B
:102CE000401B0A2808D9606A40F400306062052061
:102CF00084F820000120C2E72068406800F002004C
:102D00000028EBD1207E012806D12068006840F021
:102D100080002168086005E02068006820F08000DD
:102D200021680860607E012806D12068006840F0B4
:102D300040002168086005E02068006820F040003D
:102D400021680860A07E012806D12068006840F054
:102D500020002168086005E02068006820F020005D
:102D600021680860E07E012806D12068006820F014
:102D700010002168086005E02068006840F010003D
:102D800021680860207F012806D12068006840F093
:102D900008002168086005E02068006820F008004D
:102DA00021680860607F012806D12068006840F033
:102DB00004002168086005E02068006820F0040035
:102DC00021680860D4E90201084321690843616968
:102DD00008436168491E08432168C8610020606299
:102DE000012084F82000002049E7000010B586B0DB
:102DF0000446142101A8FDF74DFC4E492068884285
:102E000041D14D480068401C4B49086008460068A5
:102E100001280FD100BF002000904848006840F012
:102E20000070464908600846006800F00070009095
:102E300000BF00BF00BF002000904048103800686D
:102E400040F008003D49103908600846006800F06D
:102E50000800009000BF00BF0320019002200290F4
:102E600000200390032004900920059001A9344814
:102E700000F0E0FA00220521142000F095FC142057
:102E800000F082FC54E02F492068884250D100BFF6
:102E9000002000902948006840F0806027490860C1
:102EA0000846006800F08060009000BF00BF224824
:102EB0000068401C204908600846006801280FD1BE
:102EC00000BF002000901D48006840F000701B49C2
:102ED00008600846006800F00070009000BF00BF66
:102EE00000BF0020009015481038006840F0020034
:102EF0001249103908600846006800F0020000908E
:102F000000BF00BF602001900220029000200390CB
:102F1000032004900920059001A90B4800F08AFACB
:102F200000220521402000F03FFC402000F02CFC56
:102F300006B010BD00640040080000204038024088
:102F4000000C02400068004000040240704700008E
:102F500010B504460648844202D1204609F0A2FC7E
:102F60000448844202D1204609F046FD10BD00000D
:102F70000C0500203405002070477047704770B57D
:102F8000044694F82000012822D1022084F8200071
:102F90002068006820F001002168086000F04AFB0A
:102FA00005460DE000F046FB401B0A2808D9606A80
:102FB00040F400306062052084F82000012070BDDC
:102FC0002068406800F001000028EBD16062F6E75D
:102FD000606A40F4002060620120F0E770477047AB
:102FE0007047704770477047704770B50446A56DCD
:102FF00000F020FB064694F83500022808D0802017
:10300000606500BF002084F8340000BF012070BD5F
:103010002068006820F01600216808602068406978
:1030200020F0800021684861206C08B9A06C28B1AC
:103030002068006820F008002168086020680068A7
:1030400020F001002168086010E000F0F3FA801B16
:1030500005280BD920206065032084F8350000BFC7
:10306000002084F8340000BF0320D0E72068006807
:1030700000F001000028E8D194F85C103F2088405F
:10308000A860012084F8350000BF002084F83400D7
:1030900000BF00BFBBE7014691F83500022803D00E
:1030A0008020486501207047052081F835000868B8
:1030B000006820F001000A6810600020F3E70000BB
:1030C000F8B50446002000908C4800684FF4165173
:1030D000B0FBF1F7A56D2E6894F85C1008208840CD
:1030E000304098B12068006800F0040070B120689A
:1030F000006820F004002168086094F85C10082043
:103100008840A860606D40F00100606594F85C1034
:1031100001208840304068B12068406900F080009C
:1031200040B194F85C1001208840A860606D40F0C8
:103130000200606594F85C1004208840304068B15B
:103140002068006800F0020040B194F85C10042090
:103150008840A860606D40F00400606594F85C10E1
:1031600010208840304078B32068006800F00800E4
:1031700050B394F85C1010208840A8602068006864
:1031800000F4802080B12068006800F4002028B995
:10319000206CC8B12046216C884715E0A06C98B11E
:1031A0002046A16C88470FE02068006800F480701A
:1031B00028B92068006820F0080021680860206CA9
:1031C00010B12046216C884794F85C10202088407C
:1031D0003040002865D02068006800F0100000280A
:1031E0005FD094F85C1020208840A86094F83500E7
:1031F000052828D12068006820F0160021680860A2
:103200002068406920F0800021684861206C08B97E
:10321000A06C28B12068006820F0080021680860D0
:1032200094F85C103F208840A860012084F83500A5
:1032300000BF002084F8340000BF206D10B120468C
:10324000216D8847F8BD2068006800F4802080B1B7
:103250002068006800F4002028B9606C10B1204696
:10326000616C88471DE0E06BD8B12046E16B884770
:1032700017E02068006800F4807068B92068006872
:1032800020F0100021680860012084F8350000BF9C
:10329000002084F8340000BFE06B10B12046E16BE1
:1032A0008847606D38B3606D00F00100F0B1052013
:1032B00084F835002068006820F00100216808606B
:1032C00000BF0098401C0090B84200D905E020687B
:1032D000006800F001000028F3D100BF012084F84D
:1032E000350000BF002084F8340000BFE06C10B14E
:1032F0002046E16C884700BFA4E700002C020020B4
:103300002DE9F0410446002500F094F9074614B970
:103310000120BDE8F081606A00B100BF022084F89E
:10332000350000BF002084F8340000BF206800682A
:1033300020F00100216808600AE000F07BF9C01B62
:10334000052805D920206065032084F83500E0E7D2
:103350002068006800F001000028EED120680568B0
:1033600021480540D4E901010843E1680843216987
:10337000084361690843A1690843E1690843216A78
:1033800008430543606A042803D1D4E90B010843CC
:103390000543206805602068456925F00705606AD7
:1033A0000543606A04280DD1A06A0543E06A48B16C
:1033B0002046FEF737FD28B140206065012084F8E3
:1033C0003500A6E7206845612046FEF711FD064658
:1033D00094F85C103F208840B060002060650120B8
:1033E00084F83500002094E73F8010F070B5044663
:1033F00000F020F906462546681C10B10448007804
:10340000054400BF00F016F9801BA842FAD370BD36
:10341000280200207047000010B5044604480068E8
:10342000204020B1024804602046FFF7F3FF10BDA2
:10343000143C0140F8B502460B460025002400204C
:103440000021D6E0012606FA01F51E6806EA050409
:10345000AC4274D11E7906F00306012E04D01E7909
:1034600006F00306022E13D190684F000326BE40DB
:10347000B0434F00DE68BE40304390605068012684
:103480008E40B0431E79C6F300168E403043506024
:103490001E7906F00306032E09D0D0684F000326DC
:1034A000BE40B0434F009E68BE403043D0601E799E
:1034B00006F00306022E13D1CF0802F1200656F8BB
:1034C00027004E07F70E0F26BE40B0434F07FF0EF2
:1034D0001E69BE403043CF0802F1200646F827009F
:1034E00010684F000326BE40B0431E7906F0030665
:1034F0004F00BE40304310605E6806F44036002E38
:1035000076D000BF002600963C4E366846F48046D2
:103510003A4F3E603E46366806F48046009600BF4D
:1035200000BF374E8F0856F827008E07370F0F263B
:10353000BE40B043334EB24202D1002624E057E0F1
:10354000314EB24201D101261EE0304EB24201D1CD
:10355000022619E02E4EB24201D1032614E02D4E70
:10356000B24201D104260FE02B4EB24201D1052612
:103570000AE02A4EB24201D1062605E0284EB242A8
:1035800001D1072600E008268F073F0FBE403043D9
:103590001B4E8F0846F82700224E3068A0435E6815
:1035A00006F4801606B120431E4E3060361D30688A
:1035B000A0435E6806F4001606B12043194E361D7E
:1035C0003060184E361F3068A0435E6806F400363F
:1035D00006B12043134E361F3060361F3068A043BB
:1035E0005E6806F4803606B120430E4E083E306019
:1035F000491C1029FFF426AFF8BD000044380240F2
:103600000838014000000240000402400008024067
:10361000000C02400010024000140240001802405A
:10362000001C0240083C01400AB1816101E00B042A
:103630008361704701480068704700002002002045
:103640000348006803490978084401490860704745
:10365000200200202802002010B50D48006840F428
:1036600000700B4908600846006840F480600860FC
:103670000846006840F480700860032000F0D2F82B
:10368000052000F007F800F055F8002010BD0000FC
:10369000003C0240F0B587B004460026002700BF7A
:1036A000002000901E48006840F001001C4908609E
:1036B0000846006800F00100009000BF00BF01A9AB
:1036C00002A800F0D3FE00F009FF46001548B6FB43
:1036D000F0F0471E14481549086040F2E7311348DE
:1036E000C1604760002101618160816101F0D3FB0D
:1036F000054695B90D4801F025FC05466DB9192020
:1037000000F042F8102C07D200222146192000F0C8
:103710004BF80748046000E00125284607B0F0BDDB
:103720004438024040420F0000000140640800207D
:103730002402002008B500BF002000901148006856
:1037400040F480400F4908600846006800F480405B
:10375000009000BF00BF00BF00200090081F00685D
:1037600040F08050091F08600846006800F0805053
:10377000009000BF00BF00220F21901E00F014F83F
:1037800008BD00004438024001460846002809DB15
:1037900000F01F0301229A4043099B0003F1E0233C
:1037A000C3F8002100BF70472DE9F05F80460D4649
:1037B0001646002708F066FB074639462A46334678
:1037C00001F00700C0F1070ABAF1040F02D94FF067
:1037D000040A01E0C0F1070AD14600F1040ABAF177
:1037E000070F02D24FF0000A01E0A0F1030AD4460D
:1037F0004FF0010A0AFA09FAAAF1010A0AEA020AD2
:103800000AFA0CFA4FF0010B0BFA0CFBABF1010BAF
:103810000BEA030B4AEA0B042146404608F03AFB48
:10382000BDE8F09F00BF00F00702064B19684FF695
:10383000FF031940044B0B4343EA0221014B19607B
:1038400000BF70470CED00E00000FA05704710B5AE
:103850000446D4F8080506F0FBFE10BD70B504461A
:103860000D4605EBC50304F13C0101EB83010A6938
:103870002946D4F8080506F0E6FD70BD70B504468B
:103880000D4605EBC50304F51F7101EB83010A69C1
:103890002946D4F8080506F05AFE70BD10B5044656
:1038A000D4F8080506F0D7FE10BD2DE9F041044616
:1038B0000D4605F08000802808D105F00F0000EBD0
:1038C000C00104F13C0000EB810607E005F00F00A9
:1038D00000EBC00104F51F7000EB81063146206843
:1038E00007F0FEFE07463846BDE8F08170B5044695
:1038F0000E4606F00F006168884201D9012070BDB4
:1039000006F0800080280AD106F00F0000EBC0010D
:1039100004F13C0000EB81050120687009E006F02D
:103920000F0000EBC00104F51F7000EB81050020C3
:1039300068700020A87006F00F00287000BF94F88F
:10394000BC04012801D10220D9E7012084F8BC047D
:1039500000BF2946206807F08BFC00BF002084F8D8
:10396000BC0400BF00BFCAE72DE9F04705460E467C
:1039700090461F464FF0000906F0800080280AD1CB
:1039800006F00F0000EBC00105F13C0000EB8104E4
:103990000120607009E006F00F0000EBC00105F5A2
:1039A0001F7000EB81040020607006F00F00207093
:1039B000C4F80C802771607808B120782081022F2C
:1039C00001D10020607100BF95F8BC04012802D12C
:1039D0000220BDE8F087012085F8BC0400BF214625
:1039E000286807F0A3FA00BF002085F8BC0400BFD8
:1039F0004846EEE72DE9F04104460E461746984644
:103A000006F00F0000EBC00104F51F7000EB81050C
:103A10002F61C5F8188000202862687006F00F003A
:103A200028702069012800D16F6106F00F0028B9C5
:103A3000227C2946206807F0F5FA04E0227C29461A
:103A4000206807F0A9FC0020BDE8F08170B50446AD
:103A50000D4605F00F006168884201D9012070BD54
:103A600005F0800080280AD105F00F0000EBC001AE
:103A700004F13C0000EB81060120707007E005EBCB
:103A8000C50104F51F7000EB810600207070012055
:103A9000B07005F00F00307000BF94F8BC0401282E
:103AA00001D10220DBE7012084F8BC0400BF3146CD
:103AB000206807F024FC05F00F0028B9217C04F2EF
:103AC000C442206807F09CFB00BF002084F8BC04BF
:103AD00000BF00BFC3E72DE9F04104460E4617467C
:103AE000984606F00F0000EBC00104F13C0000EB2B
:103AF00081052F61C5F818800020286201206870B8
:103B000006F00F0028702069012800D16F6106F0CF
:103B10000F0028B9227C2946206807F083FA04E0C8
:103B2000227C2946206807F037FC0020BDE8F081A0
:103B30002DE9FE4F0446D4F800B05E46206807F039
:103B400084FE002874D1206807F0BEFE08B9BDE8E5
:103B5000FE8F40F608008059C0F30D20C4F8FC0425
:103B6000206807F0B1FE00F00200022805D12068AD
:103B7000406900F0020021684861206807F0A4FE57
:103B800000F01000102845D12068806920F0100056
:103B900021688861DBF8209009F00F0000EBC0017C
:103BA00004F51F7000EB810AC9F3434002281AD1C3
:103BB00047F6F07009EA000030B3C9F30A1258461C
:103BC000DAF8101007F085FEC9F30A11DAF81000D0
:103BD0000844CAF81000C9F30A11DAF820000844B2
:103BE000CAF8200010E0C9F3434006280CD108228F
:103BF00004F2C441584607F06CFEC9F30A11DAF822
:103C000020000844CAF820002068806940F01000B5
:103C100021688861206807F057FE00F40020B0F5A5
:103C2000002F7BD10025206807F01EFE029072E075
:103C3000E1E2029800F00100002868D0E9B22068B3
:103C400007F035FE804608F0010048B1012106F575
:103C5000306000EB451081602946204604F01AFBD5
:103C600008F00800082809D1082106F5306000EBAB
:103C7000451081602946204604F0DAFA08F0100069
:103C8000102805D1102106F5306000EB4510816049
:103C900008F00200022824D1DBF8140000F08000B4
:103CA000802807D140F60400805940F4806140F636
:103CB0000400815105EBC50104F51F7000EB810A7A
:103CC0009AF80300012806D100208AF80300E9B21F
:103CD000204600F09BFA022106F5306000EB45100B
:103CE000816008F02000202805D1202106F53060F1
:103CF00000EB4510816008F40050B0F5005F06D17C
:103D00004FF4005106F5306000EB451081606D1CEA
:103D1000029840080290029800288AD1206807F093
:103D2000D3FD00F48020B0F5802F7DD1206807F00E
:103D300091FD029000259AE0029800F00100002811
:103D400073D0E9B2206807F099FD804608F00100C1
:103D5000F0B305F00F0101208840019040F63400D7
:103D60008159019821EA000040F63401885101216F
:103D700006F5106000EB451081602069012824D110
:103D800005EBC50104F13C0000EB810005EBC50229
:103D9000016904F13C0000EB8200C068014405EBBE
:103DA000C50204F13C0000EB820001616DB905EB36
:103DB000C50104F13C0000EB8100806928B904F2E0
:103DC000C4420121206807F01BFAE9B2204600E056
:103DD00001E0FFF743FD08F00800082805D108219D
:103DE00006F5106000EB4510816008F01000102807
:103DF00005D1102106F5106000EB4510816008F038
:103E00004000402805D1402106F5106000EB451028
:103E1000816008F0020002281DD12946584607F0AB
:103E2000D5FC05EBC50101E025E01CE004F13C00F8
:103E300000EB810A9AF80300012806D100208AF8D5
:103E40000300E9B2204600F0D8F9022106F510601F
:103E500000EB4510816008F08000802803D12946DE
:103E6000204604F0B9FA6D1C0298400802900298AE
:103E700000287FF461AF206807F026FD00F00040C5
:103E8000B0F1004F1CD140F60400805920F0010130
:103E900040F60400815194F8F404012807D1002071
:103EA00084F8F40400212046FFF7D0FC02E020460D
:103EB00000F0CDF92068406900F0004021684861B9
:103EC000206807F001FD00F40060B0F5006F0ED12E
:103ED00040F60800805900F0010010B1204600F0C3
:103EE000E9F92068406900F40060216848612068B1
:103EF00007F0EAFC00F48050B0F5805F7ED140F618
:103F00000400805920F0010140F604008151102185
:103F1000206807F05BFC002732E04FF67F3106F5A2
:103F2000106000EB4710816006F5106000EB471051
:103F3000006820F4001106F5106000EB47100160E6
:103F40004FF67F3106F5306000EB4710816006F5D3
:103F5000306000EB4710006820F4001106F5306077
:103F600000EB4710016006F5306000EB4710006879
:103F700040F0006106F5306000EB471001607F1CE7
:103F80006068B842C9D840F61C00805940F0011161
:103F900040F61C008151206B70B1D6F8840840F0C7
:103FA0000B01C6F8841840F64400805940F00B011C
:103FB00040F6440081510FE040F61400805942F26F
:103FC0002B01084340F614018851081F805940F026
:103FD0000B014FF401608151D6F8000820F4FE6017
:103FE000C6F80008217C04F2C442206807F008F9F2
:103FF0002068406900F48050216800E000E04861DA
:10400000206807F061FC00F40050B0F5005F17D1A4
:10401000206806F0F3FF206807F004FCE06000F081
:1040200047FA0090227B2068009907F097FC204611
:1040300000F0F5F82068406900F4005021684861FC
:10404000206807F041FC00F00800082808D120464D
:1040500000F004F92068406900F008002168486118
:10406000206807F031FC00F08000802818D1DBF8D0
:10407000180020F08000CBF8180001250DE005EBBA
:10408000C50104F51F7000EB8100C078012803D141
:10409000E9B22046FFF709FC6D1C6068A842EED823
:1040A000206807F011FC00F48010B0F5801F2DD1BE
:1040B000012522E006F5106000EB4510D0F80090D5
:1040C00005EBC50104F13C0000EB810000790128FB
:1040D00012D109F00040B0F1004F0DD1012105EBE4
:1040E000C50204F13C0000EB8200C170E8B240F070
:1040F00080012046FFF7D9FB6D1C6068A842D9D823
:104100002068406900F4801021684861206807F049
:10411000DBFB00F40010B0F5001F44D1012538E0AE
:1041200006F5306000EB4510D0F8009005EBC501B6
:1041300004F51F7000EB81000079012828D109F0F7
:104140000040B0F1004F23D109F4803094F8FC1402
:1041500001F0010188421BD1012105EBC50204F5E4
:104160001F7000EB8200C170DBF8180040F0800087
:10417000CBF81800DBF8140000F0800040B940F6DE
:104180000400805940F4007140F60400815103E0BE
:104190006D1C6068A842C3D800BF2068406900F465
:1041A000001021684861206807F08EFB00F0804015
:1041B000B0F1804F08D12046FFF749FB20684069E5
:1041C00000F0804021684861206807F07DFB00F026
:1041D000040004280FD12068D0F8049009F00400EE
:1041E000042802D12046FFF759FB2068406840EAC6
:1041F00009002168486000BFA9E470B504460D4677
:104200002946D4F8080506F055FA70BD70B5044685
:104210000D462946D4F8080506F070FA70BD70B551
:1042200004460125E06808B9002506E0E068022898
:1042300001D1012501E0FEF78AF82946D4F80805E6
:1042400006F005FBD4F8080506F0ACFA70BD10B511
:104250000446D4F8080506F0DBFA10BD10B5044694
:10426000D4F8080506F0DFFA10BD70B504460D4617
:1042700000BF94F8BC04012801D1022070BD0120C8
:1042800084F8BC0400BF84F838502946206807F041
:1042900050FB00BF002084F8BC0400BF00BFEDE766
:1042A00010B5044604F2C441D4F8080506F0E6FA55
:1042B00010BD000010B50446D4F8080506F02CFB2C
:1042C0002068D0F8000E40F001002168C1F8000E0F
:1042D000206A28B10348006840F0060001490860E0
:1042E00010BD000010ED00E070B504460D460CB99D
:1042F000012070BD5848006800F00700A84209D2AC
:1043000055490D700846006800F00700A84201D02A
:104310000120EEE7207800F0020002281DD120786D
:1043200000F00400042805D14C48006840F4E05037
:104330004A490860207800F00800082805D147485D
:10434000006840F46040454908604448006820F037
:10435000F000A168084341490860207800F001009E
:10436000A8B36068012807D13C4808380068C0F34A
:104370004040B8B90120BCE76068022802D06068FC
:10438000032807D1354808380068C0F3406048B9B1
:104390000120AEE7314808380068C0F3400008B992
:1043A0000120A6E72D48006820F00300616808435B
:1043B0002A490860FFF73EF9064609E0FFF73AF997
:1043C000801B41F28831884202D9032091E707E03F
:1043D0002248006800F00C006168B0EB810FEDD15D
:1043E0001D48006800F00700A84209D91A490D705D
:1043F0000846006800F00700A84201D0012078E7D5
:10440000207800F00400042807D11448006820F444
:10441000E050E168084311490860207800F0080086
:10442000082808D10D48006820F46040216940EA5E
:10443000C1000A49086000F061F808490968C1F341
:104440000311074A515CC8400649086006480068E5
:10445000FFF720F900204CE7003C024008380240FA
:1044600024E800082C020020240200200F22026011
:104470000D4A126802F0030242600B4A126802F011
:10448000F0028260084A126802F4E052C260064AF2
:10449000126802F46042D2080261044A126802F013
:1044A00007020A607047000008380240003C0240E2
:1044B00001480068704700002C02002000B5FFF79B
:1044C000F7FF04490968C1F38221034A515CC840DF
:1044D00000BD00000838024034E8000800B5FFF7CE
:1044E000E7FF04490968C1F34231034A515CC840FF
:1044F00000BD00000838024034E800082DE9F0470C
:10450000002400250026A1462548006800F00C0084
:1045100020B1042805D008283AD105E0DFF88490BE
:1045200039E0DFF8849036E01D48001F006800F095
:104530003F041B48001F006800F4800078B11A484F
:104540001749091F0968C1F38811A0FB01700146D2
:10455000224600233846FBF761FF05460EE011486E
:104560000F49091F0968C1F38811A0FB01700146BA
:10457000224600233846FBF751FF05460848001F36
:104580000068C0F30140401C4600B5FBF6F902E0AC
:10459000DFF8109000BF00BF4846BDE8F08700007C
:1045A000083802400024F400001BB700F8B50446A8
:1045B0000CB90120F8BD207800F00100002874D06B
:1045C000F948006800F00C0004280DD0F648006897
:1045D00000F00C00082813D1F348001F006800F415
:1045E0008000B0F5800F0BD1EF4808380068C0F3A9
:1045F0004040002859D06068002856D10120D9E7F2
:1046000000BF6068B0F5803F08D1E748083800680F
:1046100040F48030E449083908601EE06068B0F575
:10462000A02F0DD1E0480838006840F48020DE4912
:10463000083908600846006840F4803008600CE0E3
:10464000D9480838006820F48030D7490839086014
:104650000846006820F48020086000BF606890B1C0
:10466000FEF7E8FF054606E0FEF7E4FF401B64287E
:1046700001D903209EE7CC4808380068C0F34040C9
:104680000028F1D011E0FEF7D5FF054606E0FEF761
:10469000D1FF401B642801D903208BE7C2480838AA
:1046A0000068C0F340400028F1D1207800F00200FB
:1046B00002285FD1BC48006800F00C0058B1BA482D
:1046C000006800F00C0008281CD1B748001F0068E3
:1046D00000F48000B0B9B44808380068C0F3400066
:1046E00020B1E068012801D0012063E7AE48083816
:1046F000006820F0F800216940EAC100AA490839A1
:10470000086037E0E06800B30120A8490860FEF7C0
:1047100091FF054606E0FEF78DFF401B022801D9F8
:10472000032047E7A04808380068C0F3400000288D
:10473000F1D09D480838006820F0F800216940EA6F
:10474000C10099490839086014E0002097490860C1
:10475000FEF770FF054606E0FEF76CFF401B0228DF
:1047600001D9032026E7904808380068C0F34000CC
:104770000028F1D1207800F0080008282CD16069C9
:10478000A8B101208A490860FEF754FF054606E0FB
:10479000FEF750FF401B022801D903200AE7824898
:1047A0006C300068C0F340000028F1D014E0002015
:1047B0007F490860FEF73EFF054606E0FEF73AFF38
:1047C000401B022801D90320F4E677486C300068CA
:1047D000C0F340000028F1D1207800F00400042844
:1047E00070D1002770483830006800F0805090B9D0
:1047F00000BF002000906C483830006840F08050C6
:104800006949383108600846006800F0805000901F
:1048100000BF00BF01276748006800F48070B0B98E
:104820006448006840F4807062490860FEF702FF47
:10483000054606E0FEF7FEFE401B022801D90320D4
:10484000B8E65C48006800F480700028F2D000BF31
:10485000A068012808D154486830006840F0010081
:104860005149683108601DE0A06805280DD14E4807
:104870006830006840F004004B4968310860084621
:10488000006840F0010008600CE0474868300068AC
:1048900020F001004449683108600846006820F0B3
:1048A0000400086000BFA068A8B1FEF7C3FE05467B
:1048B00009E0FEF7BFFE401B41F28831884202D971
:1048C000032077E626E0384868300068C0F34000EF
:1048D0000028EED013E0FEF7ADFE054608E0FEF737
:1048E000A9FE401B41F28831884201D9032061E6CC
:1048F0002D4868300068C0F340000028EFD1012F38
:1049000007D129483830006820F0805026493831D6
:10491000086000BFA069002845D02348006800F067
:104920000C0008285DD0A069022845D100201F494D
:104930000866FEF77FFE054606E0FEF77BFE401B9D
:10494000022801D9032035E6174808380068C0F36B
:1049500040600028F1D1D4E907010843616A40EAC8
:1049600081110122A06AC2EB500041EA00412C20D3
:10497000005D41EA00600C49091F086001200B49F5
:104980000866FEF757FE054606E0FEF753FE401B9D
:10499000022801D903200DE6034808380068C0F357
:1049A00040600028F1D049E008380240000047424A
:1049B000800E474200700040002021490866FEF743
:1049C00039FE054606E0FEF735FE401B022801D9F8
:1049D0000320EFE51B480068C0F340600028F2D1D7
:1049E0002CE0A069012800D1E4E51648001D066806
:1049F000A069012820D006F48001E06981421BD122
:104A000006F03F01206A814216D147F6C07030405F
:104A1000616AB0EB811F0FD106F440310122A06A18
:104A2000C2EB5000B1EB004F06D106F070612C20B4
:104A3000005DB1EB006F01D00120BBE50020B9E5BE
:104A4000000047420038024010B504460CB901206E
:104A500010BD606A38B96068B0F5827F00D105E0AA
:104A60000021E16102E00021216161610021A16278
:104A700094F8510028B9002084F85000204600F036
:104A800047F8022084F851002068006820F04000B8
:104A900021680860A08800F48270218901F4044133
:104AA0000843A18901F400610843217C01F002015F
:104AB0000843217D01F001010843218B01F40071BD
:104AC0000843217F01F0380108432021095D01F0EE
:104AD00080010843218D01F40051084321680860DA
:104AE0000421A06901EA104094F8241001F010019B
:104AF0000843216848602068C06920F4006021688C
:104B0000C86100206065012084F8510000209FE703
:104B100010B586B00446142101A8FBF7BBFD4B4934
:104B2000206888427ED100BF00200090484800687D
:104B300040F48050464908600846006800F4805000
:104B4000009000BF00BF00BF002000904048143814
:104B5000006840F002003E491439086008460068C9
:104B600000F00200009000BF00BF00BF00200090D6
:104B70000846006840F0010008600846006800F040
:104B80000100009000BF00BF182001900220029099
:104B900001200390032004900520059001A92D48D1
:104BA000FEF748FC80200190022002900120039033
:104BB000032004900520059001A92748FEF73AFC40
:104BC0002648274908604FF0C0604860002124480B
:104BD0008160C1604FF480610161002141618161A8
:104BE000C1614FF40031016200214162FEF788FB90
:104BF00008B1FDF7ACFB00BF1948E064846300BF57
:104C000016484830174908604FF0C060486040219E
:104C1000144881600021C1604FF48061016100216E
:104C2000416100E010E08161C1614FF40031016237
:104C300000214162FEF764FB08B1FDF788FB00BF6D
:104C40000848A064846300BF06B010BD0030014076
:104C50004438024000040240000002401064024058
:104C6000B4050020140600202DE9FF5F04468846A5
:104C700091461D460E9E012002900020019000BF2B
:104C800094F85000012803D1022004B0BDE8F09F41
:104C9000012084F8500000BFFEF7CCFC074694F8D2
:104CA00051B060680390AA46BBF1010F0BD0039886
:104CB000B0F5827F04D1A06810B9BBF1040F02D017
:104CC00002200190DBE0B8F1000F03D0B9F1000F32
:104CD00000D015B901200190D1E094F851000428CA
:104CE00002D0052084F8510000206065C4F8389097
:104CF000E587A587C4F83080E586A58620646064D2
:104D00002068006800F04000402805D02068006856
:104D100040F0400021680860E068B0F5006F4AD1BB
:104D2000606810B1BAF1010F09D1206B00882168C9
:104D3000C860206B801C2063E08E401EE08633E05C
:104D40002068806800F00200022810D1E08E70B167
:104D5000029801280BD1206B00882168C860206B65
:104D6000801C2063E08E401EE086002002902068B8
:104D7000806800F0010068B1E08F58B12068C06819
:104D8000A16B0880A06B801CA063E08F401EE087B1
:104D900001200290FEF74EFCC01BB04204D3701CF1
:104DA00010B1032001906AE0E08E0028C8D1E08FA6
:104DB0000028C5D14AE0606810B1BAF1010F09D1ED
:104DC000206B007821680873206B401C2063E08E04
:104DD000401EE08634E02068806800F0020002286F
:104DE00010D1E08E70B1029801280BD1206B0078B1
:104DF00021680873206B401C2063E08E401EE08613
:104E0000002002902068806800F0010068B1E08F07
:104E100058B12068C068A16B0870A06B401CA063EB
:104E2000E08F401EE08701200290FEF703FCC01BCC
:104E3000B04201D3701C00B916B9032001901EE0E6
:104E4000E08E0028C7D1E08F0028C4D13A46314611
:104E5000204604F023FB20B1012001902020606552
:104E60000DE0A06850B900BF002000902068C06825
:104E7000009020688068009000BF00BF00BF012044
:104E800084F8510000BF002084F8500000BF019852
:104E9000FBE67047704710B504460CB9012010BD01
:104EA00094F83D0028B9002084F83C00204600F02A
:104EB00025F8022084F83D00211D206804F026FD1D
:104EC000012084F8460000BF84F83E0001213F2005
:104ED0000155402001554120015500BF00BF012070
:104EE00084F84200432001554420015545200155D6
:104EF00000BF012084F83D000020D0E738B504460B
:104F00000E492068884217D100BF002000900C484D
:104F1000006840F400300A4908600846006800F460
:104F20000030009000BF00BF002205211920FEF7CD
:104F30003BFC1920FEF728FC38BD0000004401406E
:104F400044380240014691F83D00012801D001207B
:104F50007047022081F83D000868C06840F00100F9
:104F60000B68D8601A4B086898421BD00868B0F1EB
:104F7000804F17D0174B0868984213D0164B08681B
:104F800098420FD0154B086898420BD0144B086814
:104F9000984207D0134B0868984203D0124B086818
:104FA00098420CD10868806800F00702062A0CD0ED
:104FB0000868006840F001000B68186005E00868A8
:104FC000006840F001000B6818600020C0E7000096
:104FD000000001400004004000080040000C0040B8
:104FE000000401400040014000180040704710B527
:104FF000044620680069C0F34000D8B12068C0684A
:10500000C0F34000B0B16FF00200216808610120D8
:1050100020772068806900F0030018B12046FFF770
:10502000E5FF05E0204600F0DFF8204600F093F9A8
:105030000020207720680069C0F38000D8B1206884
:10504000C068C0F38000B0B16FF00400216808614F
:10505000022020772068806900F4407018B1204653
:10506000FFF7C4FF05E0204600F0BEF8204600F040
:1050700072F90020207720680069C0F3C000D8B121
:105080002068C068C0F3C000B0B16FF008002168AC
:105090000861042020772068C06900F0030018B17F
:1050A0002046FFF7A3FF05E0204600F09DF82046CC
:1050B00000F051F90020207720680069C0F300104B
:1050C000D8B12068C068C0F30010B0B16FF0100014
:1050D00021680861082020772068C06900F44070CA
:1050E00018B12046FFF782FF05E0204600F07CF86B
:1050F000204600F030F9002020772068006900F099
:10510000010058B12068C06800F0010030B16FF0B4
:10511000010021680861204600F0A4F920680069B8
:10512000C0F3C01058B12068C068C0F3C01030B1DF
:105130006FF08000216808612046FFF7AAFE206812
:105140000069C0F3801058B12068C068C0F38010B7
:1051500030B16FF0400021680861204600F08EF900
:1051600020680069C0F3401058B12068C068C0F3DF
:10517000401030B16FF02000216808612046FFF731
:1051800089FE10BD10B586B00446142101A8FBF7B6
:1051900081FA1249206888421DD100BF002000908A
:1051A0000F48006840F020000D490860084600687C
:1051B00000F02000009000BF00BF402001900220BE
:1051C000029001200390022004900320059001A981
:1051D0000448FEF72FF906B010BD0000004401405E
:1051E000303802400014024070472DE9F041044677
:1051F0000D461646002700BF94F83C00012802D156
:105200000220BDE8F081012084F83C0000BF36B1E7
:10521000042E1BD0082E31D00C2E5ED145E029463D
:10522000206804F0F1FB2068806940F008002168E4
:1052300088612068806920F0040021688861206806
:105240008069296908432168886148E02946206807
:1052500004F012FC2068806940F4006021688861D5
:105260002068806920F480602168886120688069F6
:10527000296940EA01202168886130E029462068D8
:1052800004F038FC2068C06940F008002168C8615B
:105290002068C06920F004002168C8612068C069E6
:1052A000296908432168C86119E02946206804F08B
:1052B0005DFC2068C06940F400602168C861206816
:1052C000C06920F480602168C8612068C0692969CC
:1052D00040EA01202168C86101E0012700BF00BF4A
:1052E00000BF002084F83C0000BF384689E710B5B5
:1052F00004460CB9012010BD94F83D0028B90020E7
:1053000084F83C00204600F025F8022084F83D0097
:10531000211D206804F0FAFA012084F8460000BF3D
:1053200084F83E0001213F200155402001554120D5
:10533000015500BF00BF012084F842004320015501
:10534000442001554520015500BF012084F83D004F
:105350000020D0E77047704770B504460D4615B978
:1053600094F83E000BE0042D02D13F20005D06E0E2
:10537000082D02D14020005D01E04120005D0128A0
:1053800001D0012070BD1DB9022084F83E000EE05E
:10539000042D03D102213F20015508E0082D03D13F
:1053A00002214020015502E0022141200155012245
:1053B0002946206804F016FB23492068884203D060
:1053C00022492068884201D1012000E0002028B154
:1053D0002068406C40F40040216848641A49206805
:1053E00088421BD02068B0F1804F17D01849206840
:1053F000884213D01749206888420FD01649206888
:1054000088420BD011492068884207D01349206890
:10541000884203D01249206888420CD120688068F5
:1054200000F00706062E0CD02068006840F001004E
:105430002168086005E02068006840F001002168EC
:10544000086000209EE700000000014000040140C9
:105450000004004000080040000C004000400140F3
:105460000018004010B5044603492068884201D165
:10547000FEF7E6F810BD00000000014070477047DD
:10548000704700002DE9F84F044620680568206841
:10549000C668206847694FF00009CA4605F00F0941
:1054A000B9F1000F0AD105F0200038B106F0200054
:1054B00020B1204604F0F1FBBDE8F88FB9F1000FF0
:1054C0007CD007F0010018B906F49070002875D060
:1054D00005F0010030B106F4807018B1206C40F086
:1054E0000100206405F0040030B107F0010018B19C
:1054F000206C40F00200206405F0020030B107F09B
:10550000010018B1206C40F00400206405F0080090
:1055100048B106F0200010B907F0010018B1206C66
:1055200040F008002064206C002846D005F02000E0
:1055300028B106F0200010B1204604F0AEFB206830
:105540004069C0F3801A206C00F0080010B9BAF16D
:10555000000F2DD0204604F05AFB2068406900F06F
:105560004000402820D100BF00BF2168143151E81D
:10557000001F21F040002168143141E80002002A98
:10558000F3D100BFA06B50B17548A16B0865A06B4B
:10559000FDF781FD88B1A06B016D88470DE02046C5
:1055A000FFF76EFF09E009E02046FFF769FF04E01E
:1055B0002046FFF765FF002020647DE7206B01286F
:1055C00076D105F01000002872D006F010000028F7
:1055D000FAD000BF0020009020680068009020688A
:1055E0004068009000BF00BF2068406900F04000A4
:1055F00040285ED1A06B006840681FFA80F8B8F1BF
:10560000000F54D0A08D404551DDA4F82E80A06B32
:10561000C069B0F5807F43D000BF00BF21680C3166
:1056200051E8001F21F4807021680C3141E800022C
:10563000002AF3D100BF00BF00BF2168143151E838
:10564000001F21F001002168143141E80002002A06
:10565000F3D100BF00BF00BF2168143151E8001F23
:1056600021F040002168143141E80002002AF3D102
:1056700000BF202084F83E000020206300BF00BF50
:1056800021680C3151E8001F21F0100021680C3115
:1056900041E80002002AF3D100BFA06BFDF7A5FC92
:1056A000A08DE28D801A81B22046FFF7E8FE03E765
:1056B00040E0A08DE18D401A1FFA80F8E08DC0B364
:1056C000B8F1000F35D000BF00BF21680C3151E8A0
:1056D000001F21F4907021680C3141E80002002A7B
:1056E000F3D100BF00BF00BF2168143151E8001F93
:1056F00021F001002168143141E80002002AF3D1B1
:1057000000BF202084F83E000020206300BF00BFBF
:1057100021680C3151E8001F21F0100021680C3184
:1057200041E80002002AF3D100BF41462046FFF7BE
:10573000A6FEC1E605F0800030B106F0800018B189
:10574000204604F03DFCB7E605F0400030B106F01D
:10575000400018B1204604F090FAADE600BFABE679
:10576000FB9B000810B504460CB9012010BDA069D0
:1057700000B100E000BF94F83D0028B9002084F893
:105780003C00204600F028F8242084F83D002068E2
:10579000C06820F400502168C860204604F0FAFA7E
:1057A0002068006920F49040216808612068406901
:1057B00020F02A00216848612068C06840F4005049
:1057C0002168C86000202064202084F83D0084F80F
:1057D0003E000020CAE7000010B586B00446142140
:1057E00001A8FAF757FF6F49206888425BD100BFD4
:1057F000002000906C48006840F480206A490860EE
:105800000846006800F48020009000BF00BF00BF81
:105810000020009064481038006840F0040062499D
:10582000103908600846006800F00400009000BFCE
:1058300000BF4FF4406001900220029000200390CE
:10584000032004900720059001A95848FDF7F2FDB8
:105850005748584908604FF000604860002155489B
:105860008160C1604FF4806101610021416181610B
:105870004FF48071C1614FF44031016200214162F7
:10588000FDF73EFD08B1FCF762FD00BF4948A0638B
:10589000846300BF002205212720FDF785FF272014
:1058A000FDF772FF7CE044492068884278D100BF50
:1058B000002000903C48001D006840F020003A495C
:1058C000091D08600846006800F02000009000BF35
:1058D00000BF00BF0020009033481038006840F03F
:1058E00040003149103908600846006800F0400067
:1058F000009000BF00BF4FF484400190022002904E
:1059000000200390032004900820059001A92B4853
:10591000FDF790FD2A482B4908608005486000216A
:1059200028488160C1604FF48061016100214161BC
:1059300081614FF48071C161002101624162FDF714
:10594000DFFC08B1FCF703FD00BF1E48A0638463C1
:1059500000BF1B4878301C4908604FF02060486049
:105960004021194881600021C1604FF480610161CC
:10597000002141618161C16101624162FDF7C0FCAA
:1059800008B1FCF7E4FC00BF0F486063846300BF0C
:10599000002205214720FDF707FF4720FDF7F4FE11
:1059A00006B010BD004800404038024000080240E8
:1059B0002860024044070020001401400018024003
:1059C00028640240A40700200408002070477047A4
:1059D00070B5044600202074A37B484D2D8803FB3E
:1059E00005F26168D4F8F400FAF700FEA27B434B9D
:1059F0001B8802FB03F16068FAF74CFEA27B3F4B69
:105A00001B885A43A37B02FB03F1D4F81801FAF771
:105A100041FE227B394B1B885A43A37B02FB03F1D7
:105A2000D4F80C01FAF736FE002031E0D4F8F41077
:105A300001EB800191ED000AB5EEC00AF1EE10FA1B
:105A400024D0D4F8F41001EB800191ED000A227CFF
:105A5000D4F8F41001EB820181ED000A227C616A26
:105A60008854A16901EB800191ED000A6169095C2C
:105A7000227B237C12FB0311491ED4F80C2102EB7C
:105A8000810181ED000A217C491C2174411CC8B2AE
:105A9000A17B8142CADC002011E0626A125CE169EC
:105AA00001EB820191ED000A227C00FB0202D4F896
:105AB000181101EB820181ED000A411CC8B2217C62
:105AC0008142EADC207CA4F87800217B7A20015313
:105AD000207BA4F88000217C82200153207CA4F844
