:020000040800F2
:10000000508D0020E9020008493700089D320008A1
:1000100045370008DF050008CD4400080000000057
:10002000000000000000000000000000290200089D
:10003000DB0B00080000000085020008993C000866
:100040000303000803030008030300080303000878
:100050000303000803030008030300080303000868
:100060000303000803030008090C00080303000849
:10007000AD0A000803030008030300080303000897
:100080000303000803030008030300080303000838
:10009000E50500080303000803030008130C00082B
:1000A00003030008953D000803030008030300084C
:1000B0000303000803030008030300080303000808
:1000C00003030008030300080303000803030008F8
:1000D000030300080303000803030008A944000801
:1000E00003030008030300080303000803030008D8
:1000F00003030008030300080303000803030008C8
:1001000003030008030300080303000803030008B7
:1001100003030008030300080303000803030008A7
:10012000BD0A0008CD0A000803030008DD0A000824
:100130000303000803030008030300080303000887
:100140003106000803030008030300080303000846
:1001500003030008ED0A000803030008BD4400087B
:100160000303000803030008030300080303000857
:100170000303000803030008030300080000000055
:10018000030300080303000800F002F800F03CF845
:100190000AA090E8000C82448344AAF10107DA45E2
:1001A00001D100F031F8AFF2090EBAE80F0013F0F8
:1001B000010F18BFFB1A43F001031847087600002F
:1001C00028760000103A24BF78C878C1FAD85207C0
:1001D00024BF30C830C144BF04680C6070470000C1
:1001E0000023002400250026103A28BF78C1FBD840
:1001F000520728BF30C148BF0B6070471FB506F0DB
:100200006FFB1FBD10B510BD00F083F91146FFF75D
:10021000F5FF05F097F800F0A1F903B4FFF7F2FF3E
:1002200003BC00F0A9F900002C4B19680868B0E87D
:10023000F04F80F30988BFF36F8F4FF0000080F319
:10024000118870470000000008480068006880F3CB
:1002500008884FF0000080F3148862B661B6BFF3DF
:100260004F8FBFF36F8F00DF00BF00BF08ED00E0CE
:10027000DFF80C00016841F470010160704700BFB5
:1002800088ED00E0EFF30980BFF36F8F134B1A681E
:100290001EF0100F08BF20ED108A20E9F04F10600B
:1002A00009B44FF0500080F31188BFF34F8FBFF3B4
:1002B0006F8F06F05FF84FF0000080F3118809BCE3
:1002C00019680868B0E8F04F1EF0100F08BFB0ECD6
:1002D000108A80F30988BFF36F8F704758000020A1
:1002E000EFF3058070470000094880470948004740
:1002F000FEE7FEE7FEE7FEE7FEE7FEE7FEE7FEE7D6
:10030000FEE7FEE704480549054A064B7047000032
:10031000813D000889010008504D0020508D0020CB
:10032000506D0020506D002053EA020C00F06980EF
:100330002DE9F04B4FF00006002B1FBFB3FA83F5F9
:1003400003FA05F424FA05F65E4012BF1643B2FA2A
:1003500082F502FA05F4C5F120051EBF22FA05FC5C
:1003600044EA0C04203556EA044C4FEA144418BF02
:10037000641C4FF000084FF00009904271EB030C31
:1003800039D3002919BFB1FA81F701FA07F6B0FA9B
:1003900080F700FA07F6C7F120071EBF20FA07FC16
:1003A00046EA0C062037B6FBF4FCA7EB0507103F26
:1003B00007F01F0BCBF120060CFA0BFB2CFA06F60C
:1003C00044BFB3460026202FA4BF5E464FF0000B6B
:1003D0005BEA060C08BF4FF0010B19EB0B09ABFBF6
:1003E000027C48EB0608C01B06FB02CC0BFB03CCCF
:1003F00071EB0C01C1E70B46024641464846BDE899
:10040000F08B13B54FF000004FF00001AFF3008008
:10041000BDE81C40704710B5203AC0F00B80B1E831
:100420001850203AA0E81850B1E81850A0E8185029
:10043000BFF4F5AF5FEA027C24BFB1E81850A0E832
:10044000185044BF18C918C0BDE810405FEA827C4C
:1004500024BF51F8043B40F8043B08BF7047D20763
:1004600028BF31F8023B48BF11F8012B28BF20F804
:10047000023B48BF00F8012B70474FF000020429EF
:10048000C0F0128010F0030C00F01B80CCF1040CC3
:10049000BCF1020F18BF00F8012BA8BF20F8022BF7
:1004A000A1EB0C0100F00DB85FEAC17C24BF00F89D
:1004B000012B00F8012B48BF00F8012B70474FF0CB
:1004C000000200B5134694469646203922BFA0E8A4
:1004D0000C50A0E80C50B1F12001BFF4F7AF0907B0
:1004E00028BFA0E80C5048BF0CC05DF804EB8900A1
:1004F00028BF40F8042B08BF704748BF20F8022BE4
:1005000011F0804F18BF00F8012B704770477047FB
:100510007047754600F02CF8AE4605006946534614
:1005200020F00700854618B020B5FFF7EBFEBDE8C8
:1005300020404FF000064FF000074FF000084FF04A
:10054000000B21F00701AC46ACE8C009ACE8C009DB
:10055000ACE8C009ACE8C0098D46704710B5044648
:10056000AFF300802046BDE81040FFF756BE000004
:1005700000487047F04C002001491820ABBEFEE750
:10058000260002007047024691F82500022802DA90
:1005900091F8260008B900207047B1F92A0090426E
:1005A00005DAD1F82E00401CC1F82E000DE0B1F99B
:1005B0002A004042904205DDD1F82E00401CC1F8CF
:1005C0002E0002E00020C1F82E00D1F82E00B1F973
:1005D0002C30984201DD0120DEE70020DCE700BF7F
:1005E000FEE7000010B5024800F080FD10BD0000DD
:1005F0001403002000B58BB0012009900020079063
:100600000120089000200190029003900490069031
:10061000059001A9054800F019FC044801F011F803
:100620000221024800F052FB0BB000BD1403002071
:1006300010B5024800F05AFD10BD00003C03002038
:1006400000B58BB000200790012008900020019099
:100650000290039004900E2006900A9000200590CE
:100660000120099001A9064800F0F0FB044800F0C1
:10067000E8FF0221024800F029FB0BB000BD00009A
:100680003C030020F8B506460F4615460A2D00DB50
:10069000F8BD681E00EBC00000EB40002F4901EBE5
:1006A0004004A4F81F6004F11900A4F81B70B4F80A
:1006B0001B00B4F81910401A00B2A4F81D00B4F8D9
:1006C0001B00A4F81900207E40B901202076B4F860
:1006D0001F00A4F82100B4F91F006060B4F81F20C7
:1006E000B4F82130D21A10B2B4F9231003F00CFF81
:1006F00000902068009908442060606800990844D0
:100700006060B4F81F00A4F821006068B4F92810F4
:100710004843B4F9231090FBF1F000EE100AB8EE54
:10072000C00A10EE100AA0602068B4F928104843EF
:10073000B4F9231090FBF1F000EE100AB8EEC00AF5
:1007400010EE100A60612146009800B2FFF71BFF0F
:1007500084F827000020009000BF99E7840D002056
:10076000C16B00EE101AB5EEC00AF1EE10FA03DD0F
:10077000C16B00EE101A04E0C16B00EE101AB1EE6E
:10078000400A016E00EE901AB4EEE00AF1EE10FAA3
:1007900000D87047C16B00EE101AB5EEC00AF1EE3A
:1007A00010FA03DDC16B00EE101A04E0C16B00EE1D
:1007B000101AB1EE400AC16D00EE901AB4EEE00AD4
:1007C000F1EE10FA05DD9FED180A10EE101AC16166
:1007D00027E0C16D00EE901AC16B00EE101AB5EE65
:1007E000C00AF1EE10FA03DDC16B00EE101A04E04E
:1007F000C16B00EE101AB1EE400A30EEC01AC16DA6
:1008000000EE101A016E00EE901A30EE600AC1EE92
:10081000000AC16900EE101A20EE800A10EE101ACC
:10082000C16100BFB5E700000000000010B504463C
:100830004FF4D3612046FFF742FE03F04BF92060EE
:10084000002004F071FDE060012004F06DFDE06126
:10085000022004F069FDE062032004F065FDE0631E
:1008600004F06CFDC4F8900604F05AFD60600121AC
:10087000002000F0E3F9E0640221002000F0DEF93E
:1008800020650321002000F0D9F9606504210020D3
:1008900000F0D4F9A0650421B6EE001ADFED710A6C
:1008A000B2EE020A04F15C0003F02CF80421B6EE6B
:1008B000001ADFED6C0AB2EE020A04F1EC0003F05C
:1008C00021F80421B6EE001ADFED660AB2EE020A44
:1008D00004F5BE7003F016F80421B6EE001ADFED41
:1008E000610AB2EE020A04F5037003F00BF8DFEDC3
:1008F0005D0A9FED5D0A042104F15C0003F021F81C
:10090000DFED580A9FED580A042104F1EC0003F0D2
:1009100018F8DFED540A9FED540A042104F5BE7067
:1009200003F00FF8DFED4F0A9FED4F0A042104F5A5
:10093000037003F006F800219FED4A1ADFED490A23
:100940009FED4A0A04F5277002F0DCFF00219FEDBD
:10095000451ADFED440A9FED450A04F54B7002F09D
:10096000D1FF00219FED3F1ADFED3E0A9FED3F0AC8
:1009700004F56F7002F0C6FF00219FED3A1ADFED1B
:10098000390A9FED3A0A04F24C4002F0BBFF4FF4E3
:10099000A0719FED371ADFED330AB2EE000A04F2C0
:1009A000DC4002F0AFFF4FF4A0719FED311ADFED94
:1009B0002D0AB2EE000A04F26C5002F0A3FFDFED44
:1009C000290AB0EE080A4FF4807104F2DC4002F00C
:1009D000B8FFDFED240AB0EE080A4FF4807104F28C
:1009E0006C5002F0AEFFDFED1F0A9FED220A40219E
:1009F00004F2DC4002F0A5FFDFED1A0A9FED1D0AAC
:100A0000402104F26C5002F09CFF2321B7EE001A43
:100A1000DFED140AB3EE040A04F2FC5002F072FF98
:100A2000DFED100A9FED0F0A012104F2FC5002F0E5
:100A300088FFF6EE000A9FED100A202104F2FC5018
:100A400002F07FFFDFED070A9FED0C0A022104F29E
:100A5000FC5002F076FFB7EE000A04F5806080EDEE
:100A6000A50A10BD0000000000606A46CDCC4C3DD8
:100A7000CDCC2C419EEF273D0000344300007A444A
:100A800010B50446204603F081FD204603F0CEFD5C
:100A9000204604F0DFF8204604F014F9204604F064
:100AA00098F9204603F0AEFF10BD000010B50248D3
:100AB00000F068FE10BD00004C05002010B5024893
:100AC00000F060FE10BD0000BC03002010B502481D
:100AD00000F058FE10BD0000AC05002010B5024823
:100AE00000F050FE10BD00001C04002010B50248AC
:100AF00000F048FE10BD00000C06002001460878FA
:100B000010381823B0FBF3F20848805CC865032A4C
:100B100005D908686FF30900001D886503E00868BF
:100B20006FF309008865886D7047000070770008D2
:100B3000014600208A6A8B69CBB932B1012A0DD0F7
:100B4000022A03D0032A10D10EE000BFCB6A03F0C3
:100B50008073B3F1807F00D1012007E0CB6AB3F14D
:100B6000C07F00D1012001E000E000BF34E08B69CC
:100B7000B3F5005F1AD132B1012A07D0022A03D09F
:100B8000032A11D10AE000BF01200EE0CB6A03F076
:100B90008073B3F1807F00D1012006E0CB6AB3F10E
:100BA000C07F00D1012000E000BF15E032B1012A72
:100BB00005D0022A04D0032A0CD103E000BF00BFF5
:100BC000012008E0CB6A03F08073B3F1807F00D18D
:100BD000012000E000BF00BF7047704700B524232C
:100BE000034AA2F12401034802F078FF00BD00008F
:100BF000DC0F0020C404002010B5024802F0B2FF50
:100C000010BD0000C404002010B5102000F052FFF9
:100C100010BD10B5202000F04DFF10BD0021016077
:100C200041609FED050A10EE101A81609FED020AE7
:100C300010EE101A416170470000000070B50546C3
:100C40000E460A2E01DB002070BD701E00EBC000B6
:100C500000EB4000174901EB4004204600F02CF85F
:100C600004F8255F0020A0706070253C25B1012D9F
:100C70000ED0022D1AD112E04FF40050A4F8230038
:100C8000132020850A2060854FF48070A0850DE038
:100C90004FF40050A4F823000120208506E04FF413
:100CA0000050A4F823000120208500BF00BF20468B
:100CB000CAE70000840D002010B504463621204606
:100CC000FFF7DBFB10BD72B600BFFEE710B50246B2
:100CD00092F82030012B01D0022B06D11068406918
:100CE000084314686061002010BD506A40F4802001
:100CF00050620120F8E7F0B504460D461E4694F810
:100D0000207020688368A86800B900E000BF012F48
:100D100001D0022F7CD103F0806030B903F0006075
:100D200018B903F08050002873D0C3F30161022981
:100D300005D9606A40F4000060620120F0BD012026
:100D400088403060A86860B9B5F800C0E86840EA3B
:100D50004C5C206800F5C07000EB0110C0F800C0CA
:100D60000FE0D5E901C040EACC00D5F80CC040EA5C
:100D70000C00D4F800C00CF5C07C0CEB011CCCF8C6
:100D80000000D5F810C0206800F5C07000EB01101D
:100D9000C0F804C0287D01280ED1206800F5C0707D
:100DA00000EB0110406840F4807C206800F5C070C2
:100DB00000EB0110C0F804C0D079000692F806C01C
:100DC00040EA0C4092F805C040EA0C2C10794CEA3D
:100DD000000C206800F5C07000EB0110C0F80CC0DA
:100DE000D078000692F802C040EA0C4092F801C0A8
:100DF00040EA0C2092F800C040EA0C00D4F800C091
:100E00000CF5C07C0CEB011CCCF80800206801E05C
:100E100016E00FE000F5C07000EB0110006840F034
:100E2000010C206800F5C07000EB0110C0F800C094
:100E3000002083E7606A40F40010606201207DE7D3
:100E4000606A40F480206062012077E7F0B50446D4
:100E50000A46216894F82050012D01D0022D7ED140
:100E6000424901F50071086840F001000860086817
:100E700020F47C5008600868566A40EA0620086042
:100E8000107D00F01F06012000FA06F3C8699843A0
:100E9000C861A1F50071D069C8B9D1F80C029843B6
:100EA000C1F80C02908880B2968940EA064601F5A6
:100EB0001070576940F83760108880B2168940EA90
:100EC000064601F51070576900EBC7004660D0690F
:100ED000012819D1D1F80C021843C1F80C029088EE
:100EE00080B2168840EA064601F51070576940F84E
:100EF0003760908980B2168940EA064601F5107085
:100F0000576900EBC7004660906928B9D1F8040220
:100F10009843C1F8040204E0D1F804021843C1F870
:100F20000402106928B9D1F814029843C1F81402D8
:100F300004E0D1F814021843C1F81402106A012821
:100F400004D1D1F81C021843C1F81C02D1F80002E8
:100F500020F00100C1F800020020F0BDFFE7606A48
:100F600040F4802060620120F7E700000064004048
:100F7000704770B5044694F82050012D01D0022D21
:100F80007DD151B92068C06800F0030080B9606A63
:100F900040F400106062012070BD2068006900F01C
:100FA000030028B9606A40F4001060620120F3E792
:100FB000206800F5D87000EB0110006800F0040014
:100FC0009060906840B9206800F5D87000EB01107F
:100FD0000068400D106007E0206800F5D87000EB55
:100FE00001100068C0085060206800F5D87000EB60
:100FF0000110006800F00200D060206800F5D87091
:1010000000EB0110406800F00F001061206800F54F
:10101000D87000EB0110406800F47F40000A906136
:10102000206800F5D87000EB01104068000C50619A
:10103000206800F5D87000EB0110806818702068F7
:1010400000F5D87000EB0110806800F47F40000AC2
:101050005870206800F5D87000EB0110806800F42B
:101060007F00000C9870206800F5D87000EB01102C
:101070008068000ED870206800F5D87000E02FE07E
:1010800000EB0110C0681871206800F5D87000EB03
:101090000110C06800F47F40000A5871206800F514
:1010A000D87000EB0110C06800F47F00000C98714C
:1010B000206800F5D87000EB0110C068000ED871F0
:1010C00031B92068C06840F020002668F06005E073
:1010D0002068006940F020002668306100205BE74E
:1010E000606A40F480206062012055E72DE9F05FDE
:1010F00004460025206846692068D0F804902068DE
:1011000087682068D0F80CA02068D0F810B020685C
:10111000D0F8188006F00100002855D007F0010033
:10112000C0B101202168886007F0020018B1204694
:1011300000F0B7FA0EE007F0040010B145F40065C6
:1011400008E007F0080010B145F4805502E02046A1
:1011500000F0A6FA07F48070C8B14FF480702168DF
:10116000886007F4007018B1204600F09CFA0EE089
:1011700007F4806010B145F4005508E007F4006002
:1011800010B145F4804502E0204600F08BFA07F4E8
:101190008030C8B14FF480302168886007F4003097
:1011A00018B1204600F081FA0EE007F4802010B15B
:1011B00045F4004508E007F4002010B145F48035FF
:1011C00002E0204600F070FA06F0080038B10AF09C
:1011D000100020B145F4007510202168C86006F0A9
:1011E000040040B10AF0080028B108202168C86056
:1011F000204600F00DFA06F0020038B12068C06801
:1012000000F0030010B1204600F004FA06F04000A0
:1012100038B10BF0100020B145F480651020216832
:10122000086106F0200040B10BF0080028B108204A
:1012300021680861204600F001FA06F0100038B17C
:101240002068006900F0030010B1204600F0F7F9B3
:1012500006F4003040B109F0100028B110202168D8
:101260004860204600F0ECF906F4803040B109F007
:10127000080028B1082021684860204600F016FACE
:1012800006F4004088B309F0040078B306F48070D7
:1012900020B108F0010008B145F0010506F4007026
:1012A00020B108F0020008B145F0020506F48060A4
:1012B00020B108F0040008B145F0040506F4006010
:1012C000A0B108F0700088B108F07000402817D075
:1012D00006DC10280BD020280CD0302819D10CE0C7
:1012E000502810D0602814D110E01DE019E045F01E
:1012F00008050FE045F010050CE045F0200509E079
:1013000045F0400506E045F0800503E045F48075B2
:1013100000E000BF00BF2068806920F070002168F5
:1013200088610420216848602DB1606A28436062AA
:101330002046FFF71DFEBDE8F09F70B504460CB9CE
:10134000012070BD94F8200010B9204600F0B0F8DC
:101350002068006840F001002168086000F0B8FCD7
:1013600005460DE000F0B4FC401B0A2808D9606A6D
:1013700040F400306062052084F820000120E0E79E
:101380002068406800F001000028EBD02068006869
:1013900020F002002168086000F09AFC05460DE08C
:1013A00000F096FC401B0A2808D9606A40F400301F
:1013B0006062052084F820000120C2E720684068B0
:1013C00000F002000028EBD1207E012806D1206821
:1013D000006840F080002168086005E0206800682F
:1013E00020F0800021680860607E012806D1206816
:1013F000006840F040002168086005E0206800684F
:1014000020F0400021680860A07E012806D12068F5
:10141000006840F020002168086005E0206800684E
:1014200020F0200021680860E07E012806D12068B5
:10143000006820F010002168086005E0206800685E
:1014400040F0100021680860207F012806D1206844
:10145000006840F008002168086005E02068006826
:1014600020F0080021680860607F012806D120680C
:10147000006840F004002168086005E0206800680A
:1014800020F0040021680860D4E9020108432169C2
:101490000843616908436168491E08432168C861BF
:1014A00000206062012084F82000002049E700004D
:1014B00010B586B00446142101A8FFF700F84E4984
:1014C0002068884241D14D480068401C4B49086063
:1014D0000846006801280FD100BF0020009048484E
:1014E000006840F00070464908600846006800F057
:1014F0000070009000BF00BF00BF00200090404877
:101500001038006840F008003D491039086008466E
:10151000006800F00800009000BF00BF03200190A9
:1015200002200290002003900320049009200590DF
:1015300001A9344800F0CCFA00220521142000F063
:1015400081FC142000F06EFC54E02F492068884292
:1015500050D100BF002000902948006840F0806012
:10156000274908600846006800F08060009000BFCE
:1015700000BF22480068401C2049086008460068F7
:1015800001280FD100BF002000901D48006840F0E6
:1015900000701B4908600846006800F00070009069
:1015A00000BF00BF00BF0020009015481038006841
:1015B00040F002001249103908600846006800F047
:1015C0000200009000BF00BF602001900220029046
:1015D00000200390032004900920059001A90B48E6
:1015E00000F076FA00220521402000F02BFC40207C
:1015F00000F018FC06B010BD006400400800002098
:1016000040380240000C02400068004000040240E4
:101610007047000010B504460648844202D12046B7
:1016200003F0B8F80448844202D1204603F07AF966
:1016300010BD0000140300203C03002070477047D9
:10164000704770B5044694F82000012822D102208A
:1016500084F820002068006820F0010021680860FC
:1016600000F036FB05460DE000F032FB401B0A2877
:1016700008D9606A40F400306062052084F82000D8
:10168000012070BD2068406800F001000028EBD107
:101690006062F6E7606A40F4002060620120F0E7D3
:1016A000704770477047704770477047704770B514
:1016B0000446A56D00F00CFB064694F835000228A0
:1016C00008D08020606500BF002084F8340000BF8F
:1016D000012070BD2068006820F0160021680860B5
:1016E0002068406920F0800021684861206C08B9BA
:1016F000A06C28B12068006820F00800216808600C
:101700002068006820F001002168086010E000F007
:10171000DFFA801B05280BD920206065032084F8A0
:10172000350000BF002084F8340000BF0320D0E75C
:101730002068006800F001000028E8D194F85C10EF
:101740003F208840A860012084F8350000BF0020B9
:1017500084F8340000BF00BFBBE7014691F83500B4
:10176000022803D08020486501207047052081F8B9
:1017700035000868006820F001000A681060002049
:10178000F3E70000F8B50446002000908C4800689C
:101790004FF41651B0FBF1F7A56D2E6894F85C106C
:1017A00008208840304098B12068006800F00400AC
:1017B00070B12068006820F004002168086094F887
:1017C0005C1008208840A860606D40F001006065F2
:1017D00094F85C1001208840304068B1206840696E
:1017E00000F0800040B194F85C1001208840A860AF
:1017F000606D40F00200606594F85C100420884041
:10180000304068B12068006800F0020040B194F8F0
:101810005C1004208840A860606D40F004006065A2
:1018200094F85C1010208840304078B3206800683D
:1018300000F0080050B394F85C1010208840A860B5
:101840002068006800F4802080B12068006800F4FF
:10185000002028B9206CC8B12046216C884715E0CB
:10186000A06C98B12046A16C88470FE02068006802
:1018700000F4807028B92068006820F00800216812
:101880000860206C10B12046216C884794F85C10E9
:10189000202088403040002865D02068006800F093
:1018A000100000285FD094F85C1020208840A860C9
:1018B00094F83500052828D12068006820F016002B
:1018C000216808602068406920F080002168486134
:1018D000206C08B9A06C28B12068006820F00800CE
:1018E0002168086094F85C103F208840A8600120BF
:1018F00084F8350000BF002084F8340000BF206D5C
:1019000010B12046216D8847F8BD2068006800F4BA
:10191000802080B12068006800F4002028B9606C45
:1019200010B12046616C88471DE0E06BD8B12046BD
:10193000E16B884717E02068006800F4807068B9A0
:101940002068006820F0100021680860012084F8F9
:10195000350000BF002084F8340000BFE06B10B1F8
:101960002046E16B8847606D38B3606D00F0010080
:10197000F0B1052084F835002068006820F00100EF
:101980002168086000BF0098401C0090B84200D950
:1019900005E02068006800F001000028F3D100BFD6
:1019A000012084F8350000BF002084F8340000BF17
:1019B000E06C10B12046E16C884700BFA4E700004E
:1019C000540000202DE9F0410446002500F080F984
:1019D000074614B90120BDE8F081606A00B100BF7C
:1019E000022084F8350000BF002084F8340000BFD6
:1019F0002068006820F00100216808600AE000F01B
:101A000067F9C01B052805D920206065032084F8EC
:101A10003500E0E72068006800F001000028EED102
:101A20002068056821480540D4E901010843E168C0
:101A300008432169084361690843A1690843E169D2
:101A40000843216A08430543606A042803D1D4E9A6
:101A50000B0108430543206805602068456925F0AF
:101A60000705606A0543606A04280DD1A06A054332
:101A7000E06A48B12046FFF75BF828B14020606576
:101A8000012084F83500A6E7206845612046FFF76D
:101A900035F8064694F85C103F208840B06000207E
:101AA0006065012084F83500002094E73F8010F045
:101AB0007047000010B5044604480068204020B17B
:101AC000024804602046FFF7F3FF10BD143C0140BC
:101AD000F8B502460B460025002400200021D6E080
:101AE000012606FA01F51E6806EA0504AC4274D127
:101AF0001E7906F00306012E04D01E7906F00306B7
:101B0000022E13D190684F000326BE40B0434F0011
:101B1000DE68BE4030439060506801268E40B0437E
:101B20001E79C6F300168E40304350601E7906F0D1
:101B30000306032E09D0D0684F000326BE40B043F1
:101B40004F009E68BE403043D0601E7906F0030609
:101B5000022E13D1CF0802F1200656F827004E07B7
:101B6000F70E0F26BE40B0434F07FF0E1E69BE4062
:101B70003043CF0802F1200646F8270010684F00D6
:101B80000326BE40B0431E7906F003064F00BE4058
:101B9000304310605E6806F44036002E76D000BFF9
:101BA000002600963C4E366846F480463A4F3E602A
:101BB0003E46366806F48046009600BF00BF374EAA
:101BC0008F0856F827008E07370F0F26BE40B04308
:101BD000334EB24202D1002624E057E0314EB242E9
:101BE00001D101261EE0304EB24201D1022619E099
:101BF0002E4EB24201D1032614E02D4EB24201D145
:101C000004260FE02B4EB24201D105260AE02A4EEF
:101C1000B24201D1062605E0284EB24201D1072684
:101C200000E008268F073F0FBE4030431B4E8F0851
:101C300046F82700224E3068A0435E6806F48016FE
:101C400006B120431E4E3060361D3068A0435E68EA
:101C500006F4001606B12043194E361D3060184EAA
:101C6000361F3068A0435E6806F4003606B1204394
:101C7000134E361F3060361F3068A0435E6806F48E
:101C8000803606B120430E4E083E3060491C1029B4
:101C9000FFF426AFF8BD0000443802400838014088
:101CA000000002400004024000080240000C024014
:101CB000001002400014024000180240001C0240C4
:101CC000083C01400AB1816101E00B048361704767
:101CD0000148006870470000480000200348006881
:101CE000034909780844014908607047480000200A
:101CF0005000002010B50D48006840F400700B49FA
:101D000008600846006840F4806008600846006883
:101D100040F480700860032000F0D2F8052000F045
:101D200007F800F055F8002010BD0000003C02400C
:101D3000F0B587B004460026002700BF00200090C1
:101D40001E48006840F001001C4908600846006811
:101D500000F00100009000BF00BF01A902A800F040
:101D600085F900F0BBF946001548B6FBF0F0471EB8
:101D700014481549086040F2E7311348C1604760D4
:101D8000002101618160816100F070FD054695B917
:101D90000D4800F0C3FD05466DB9192000F042F86A
:101DA000102C07D200222146192000F04BF80748DA
:101DB000046000E00125284607B0F0BD4438024029
:101DC00040420F00000001406C0600204C00002043
:101DD00008B500BF002000901148006840F4804022
:101DE0000F4908600846006800F48040009000BF7A
:101DF00000BF00BF00200090081F006840F0805026
:101E0000091F08600846006800F08050009000BF7D
:101E100000BF00220F21901E00F014F808BD000042
:101E20004438024001460846002809DB00F01F0341
:101E300001229A4043099B0003F1E023C3F80021EB
:101E400000BF70472DE9F05F80460D46164600271B
:101E500002F03EFB074639462A46334601F00700AA
:101E6000C0F1070ABAF1040F02D94FF0040A01E0E9
:101E7000C0F1070AD14600F1040ABAF1070F02D2F5
:101E80004FF0000A01E0A0F1030AD4464FF0010A26
:101E90000AFA09FAAAF1010A0AEA020A0AFA0CFA8B
:101EA0004FF0010B0BFA0CFBABF1010B0BEA030B30
:101EB0004AEA0B042146404602F012FBBDE8F09FBF
:101EC00000BF00F00702064B19684FF6FF031940E8
:101ED000044B0B4343EA0221014B196000BF7047DA
:101EE0000CED00E00000FA0570B504460D460CB993
:101EF000012070BD5848006800F00700A84209D2D0
:101F000055490D700846006800F00700A84201D04E
:101F10000120EEE7207800F0020002281DD1207891
:101F200000F00400042805D14C48006840F4E0505B
:101F30004A490860207800F00800082805D1474881
:101F4000006840F46040454908604448006820F05B
:101F5000F000A168084341490860207800F00100C2
:101F6000A8B36068012807D13C4808380068C0F36E
:101F70004040B8B90120BCE76068022802D0606820
:101F8000032807D1354808380068C0F3406048B9D5
:101F90000120AEE7314808380068C0F3400008B9B6
:101FA0000120A6E72D48006820F00300616808437F
:101FB0002A490860FFF78CFE064609E0FFF788FE15
:101FC000801B41F28831884202D9032091E707E063
:101FD0002248006800F00C006168B0EB810FEDD181
:101FE0001D48006800F00700A84209D91A490D7081
:101FF0000846006800F00700A84201D0012078E7F9
:10200000207800F00400042807D11448006820F468
:10201000E050E168084311490860207800F00800AA
:10202000082808D10D48006820F46040216940EA82
:10203000C1000A49086000F061F808490968C1F365
:102040000311074A515CC840064908600648006809
:10205000FFF76EFE00204CE7003C024008380240CB
:1020600078770008540000204C0000200F22026006
:102070000D4A126802F0030242600B4A126802F035
:10208000F0028260084A126802F4E052C260064A16
:10209000126802F46042D2080261044A126802F037
:1020A00007020A607047000008380240003C024006
:1020B00001480068704700005400002000B5FFF799
:1020C000F7FF04490968C1F38221034A515CC84003
:1020D00000BD0000083802408877000800B5FFF70F
:1020E000E7FF04490968C1F34231034A515CC84023
:1020F00000BD000008380240887700082DE9F0474D
:10210000002400250026A1462548006800F00C00A8
:1021100020B1042805D008283AD105E0DFF88490E2
:1021200039E0DFF8849036E01D48001F006800F0B9
:102130003F041B48001F006800F4800078B11A4873
:102140001749091F0968C1F38811A0FB01700146F6
:10215000224600233846FEF7E7F805460EE0114810
:102160000F49091F0968C1F38811A0FB01700146DE
:10217000224600233846FEF7D7F805460848001FD8
:102180000068C0F30140401C4600B5FBF6F902E0D0
:10219000DFF8109000BF00BF4846BDE8F0870000A0
:1021A000083802400024F400001BB700F8B50446CC
:1021B0000CB90120F8BD207800F00100002874D08F
:1021C000F948006800F00C0004280DD0F6480068BB
:1021D00000F00C00082813D1F348001F006800F439
:1021E0008000B0F5800F0BD1EF4808380068C0F3CD
:1021F0004040002859D06068002856D10120D9E716
:1022000000BF6068B0F5803F08D1E7480838006833
:1022100040F48030E449083908601EE06068B0F599
:10222000A02F0DD1E0480838006840F48020DE4936
:10223000083908600846006840F4803008600CE007
:10224000D9480838006820F48030D7490839086038
:102250000846006820F48020086000BF606890B1E4
:10226000FFF736FD054606E0FFF732FD401B642808
:1022700001D903209EE7CC4808380068C0F34040ED
:102280000028F1D011E0FFF723FD054606E0FFF737
:102290001FFD401B642801D903208BE7C248083882
:1022A0000068C0F340400028F1D1207800F002001F
:1022B00002285FD1BC48006800F00C0058B1BA4851
:1022C000006800F00C0008281CD1B748001F006807
:1022D00000F48000B0B9B44808380068C0F340008A
:1022E00020B1E068012801D0012063E7AE4808383A
:1022F000006820F0F800216940EAC100AA490839C5
:10230000086037E0E06800B30120A8490860FFF7E3
:10231000DFFC054606E0FFF7DBFC401B022801D985
:10232000032047E7A04808380068C0F340000028B1
:10233000F1D09D480838006820F0F800216940EA93
:10234000C10099490839086014E0002097490860E5
:10235000FFF7BEFC054606E0FFF7BAFC401B02286B
:1023600001D9032026E7904808380068C0F34000F0
:102370000028F1D1207800F0080008282CD16069ED
:10238000A8B101208A490860FFF7A2FC054606E0D3
:10239000FFF79EFC401B022801D903200AE7824870
:1023A0006C300068C0F340000028F1D014E0002039
:1023B0007F490860FFF78CFC054606E0FFF788FCC4
:1023C000401B022801D90320F4E677486C300068EE
:1023D000C0F340000028F1D1207800F00400042868
:1023E00070D1002770483830006800F0805090B9F4
:1023F00000BF002000906C483830006840F08050EA
:102400006949383108600846006800F08050009043
:1024100000BF00BF01276748006800F48070B0B9B2
:102420006448006840F4807062490860FFF750FC1F
:10243000054606E0FFF74CFC401B022801D90320AB
:10244000B8E65C48006800F480700028F2D000BF55
:10245000A068012808D154486830006840F00100A5
:102460005149683108601DE0A06805280DD14E482B
:102470006830006840F004004B4968310860084645
:10248000006840F0010008600CE0474868300068D0
:1024900020F001004449683108600846006820F0D7
:1024A0000400086000BFA068A8B1FFF711FC054652
:1024B00009E0FFF70DFC401B41F28831884202D948
:1024C000032077E626E0384868300068C0F3400013
:1024D0000028EED013E0FFF7FBFB054608E0FFF70E
:1024E000F7FB401B41F28831884201D9032061E6A5
:1024F0002D4868300068C0F340000028EFD1012F5C
:1025000007D129483830006820F0805026493831FA
:10251000086000BFA069002845D02348006800F08B
:102520000C0008285DD0A069022845D100201F4971
:102530000866FFF7CDFB054606E0FFF7C9FB401B29
:10254000022801D9032035E6174808380068C0F38F
:1025500040600028F1D1D4E907010843616A40EAEC
:1025600081110122A06AC2EB500041EA00412C20F7
:10257000005D41EA00600C49091F086001200B4919
:102580000866FFF7A5FB054606E0FFF7A1FB401B29
:10259000022801D903200DE6034808380068C0F37B
:1025A00040600028F1D049E008380240000047426E
:1025B000800E474200700040002021490866FFF766
:1025C00087FB054606E0FFF783FB401B022801D985
:1025D0000320EFE51B480068C0F340600028F2D1FB
:1025E0002CE0A069012800D1E4E51648001D06682A
:1025F000A069012820D006F48001E06981421BD146
:1026000006F03F01206A814216D147F6C070304083
:10261000616AB0EB811F0FD106F440310122A06A3C
:10262000C2EB5000B1EB004F06D106F070612C20D8
:10263000005DB1EB006F01D00120BBE50020B9E5E2
:10264000000047420038024010B504460CB9012092
:1026500010BD606A38B96068B0F5827F00D105E0CE
:102660000021E16102E00021216161610021A1629C
:1026700094F8510028B9002084F85000204600F05A
:1026800047F8022084F851002068006820F04000DC
:1026900021680860A08800F48270218901F4044157
:1026A0000843A18901F400610843217C01F0020183
:1026B0000843217D01F001010843218B01F40071E1
:1026C0000843217F01F0380108432021095D01F012
:1026D00080010843218D01F40051084321680860FE
:1026E0000421A06901EA104094F8241001F01001BF
:1026F0000843216848602068C06920F400602168B0
:10270000C86100206065012084F8510000209FE727
:1027100010B586B00446142101A8FDF7D0FE4B4940
:10272000206888427ED100BF0020009048480068A1
:1027300040F48050464908600846006800F4805024
:10274000009000BF00BF00BF002000904048143838
:10275000006840F002003E491439086008460068ED
:1027600000F00200009000BF00BF00BF00200090FA
:102770000846006840F0010008600846006800F064
:102780000100009000BF00BF1820019002200290BD
:1027900001200390032004900520059001A92D48F5
:1027A000FFF796F98020019002200290012003900B
:1027B000032004900520059001A92748FFF788F918
:1027C0002648274908604FF0C0604860002124482F
:1027D0008160C1604FF480610161002141618161CC
:1027E000C1614FF40031016200214162FFF7EAF854
:1027F00008B1FEF768FA00BF1948E064846300BFBF
:1028000016484830174908604FF0C06048604021C2
:10281000144881600021C1604FF480610161002192
:10282000416100E010E08161C1614FF4003101625B
:1028300000214162FFF7C6F808B1FEF744FA00BF75
:102840000848A064846300BF06B010BD003001409A
:10285000443802400004024000000240106402407C
:10286000BC0300201C0400207047704710B50446CC
:102870000CB9012010BD94F83D0028B9002084F85F
:102880003C00204600F026F8022084F83D00211D7F
:10289000206801F08BFA012084F8460000BF84F81C
:1028A0003E0001213F2001554020015541200155A6
:1028B00000BF00BF012084F842004320015544209E
:1028C00001554520015500BF012084F83D0000203E
:1028D000D0E7000038B504460E492068884217D179
:1028E00000BF002000900C48006840F400300A4906
:1028F00008600846006800F40030009000BF00BF88
:10290000002205211920FFF79DFA1920FFF78AFA06
:1029100038BD00000044014044380240014691F8AF
:102920003D00012801D001207047022081F83D00C0
:102930000868C06840F001000B68D8601A4B08684E
:1029400098421BD00868B0F1804F17D0174B086829
:10295000984213D0164B086898420FD0154B086860
:1029600098420BD0144B0868984207D0134B086864
:10297000984203D0124B086898420CD108688068CE
:1029800000F00702062A0CD00868006840F0010039
:102990000B68186005E00868006840F001000B68EB
:1029A00018600020C0E70000000001400004004063
:1029B00000080040000C00400004014000400140BD
:1029C00000180040704710B5044620680069C0F345
:1029D0004000D8B12068C068C0F34000B0B16FF0CB
:1029E000020021680861012020772068806900F0DA
:1029F000030018B12046FFF7E5FF05E0204600F090
:102A0000DFF8204600F093F9002020772068006965
:102A1000C0F38000D8B12068C068C0F38000B0B1B6
:102A20006FF0040021680861022020772068806927
:102A300000F4407018B12046FFF7C4FF05E02046BF
:102A400000F0BEF8204600F072F9002020772068E0
:102A50000069C0F3C000D8B12068C068C0F3C000EE
:102A6000B0B16FF008002168086104202077206869
:102A7000C06900F0030018B12046FFF7A3FF05E08E
:102A8000204600F09DF8204600F051F90020207704
:102A900020680069C0F30010D8B12068C068C0F396
:102AA0000010B0B16FF01000216808610820207795
:102AB0002068C06900F4407018B12046FFF782FF1B
:102AC00005E0204600F07CF8204600F030F90020B8
:102AD00020772068006900F0010058B12068C068C4
:102AE00000F0010030B16FF001002168086120465C
:102AF00000F01EF920680069C0F3C01058B12068CA
:102B0000C068C0F3C01030B16FF080002168086168
:102B10002046FFF7A9FE20680069C0F3801058B175
:102B20002068C068C0F3801030B16FF040002168A9
:102B30000861204600F008F920680069C0F34010E1
:102B400058B12068C068C0F3401030B16FF0200069
:102B5000216808612046FFF788FE10BD10B586B0D9
:102B60000446142101A8FDF7AAFC124920688842F6
:102B70001DD100BF002000900F48006840F02000E9
:102B80000D4908600846006800F02000009000BF72
:102B900000BF4020019002200290012003900220FB
:102BA00004900320059001A90448FEF791FF06B0A8
:102BB00010BD0000004401403038024000140240C3
:102BC00070472DE9F04104460D461646002700BF28
:102BD00094F83C00012802D10220BDE8F0810120D8
:102BE00084F83C0000BF36B1042E1BD0082E31D033
:102BF0000C2E5ED145E02946206801F043F920689B
:102C0000806940F00800216888612068806920F0B0
:102C10000400216888612068806929690843216867
:102C2000886148E02946206801F064F920688069DD
:102C300040F40060216888612068806920F4806029
:102C40002168886120688069296940EA012021683B
:102C5000886130E02946206801F08AF92068C0695F
:102C600040F008002168C8612068C06920F00400B5
:102C70002168C8612068C069296908432168C86162
:102C800019E02946206801F0AFF92068C06940F4D6
:102C900000602168C8612068C06920F480602168F4
:102CA000C8612068C069296940EA01202168C861BB
:102CB00001E0012700BF00BF00BF002084F83C00F6
:102CC00000BF384689E710B504460CB9012010BD95
:102CD00094F83D0028B9002084F83C00204600F01C
:102CE00025F8022084F83D00211D206801F05EF8DF
:102CF000012084F8460000BF84F83E0001213F20F7
:102D00000155402001554120015500BF00BF012061
:102D100084F84200432001554420015545200155C7
:102D200000BF012084F83D000020D0E770477047C5
:102D300010B5044603492068884201D1FEF7CEFF52
:102D400010BD000000000140704770477047000050
:102D50002DE9F84F0446206805682068C668206899
:102D600047694FF00009CA4605F00F09B9F1000F95
:102D70000AD105F0200038B106F0200020B120462D
:102D800001F0D0F9BDE8F88FB9F1000F7CD007F061
:102D9000010018B906F49070002875D005F0010004
:102DA00030B106F4807018B1206C40F0010020644E
:102DB00005F0040030B107F0010018B1206C40F0BC
:102DC0000200206405F0020030B107F0010018B1E4
:102DD000206C40F00400206405F0080048B106F0C3
:102DE000200010B907F0010018B1206C40F0080075
:102DF0002064206C002846D005F0200028B106F0A1
:102E0000200010B1204601F08DF920684069C0F320
:102E1000801A206C00F0080010B9BAF1000F2DD014
:102E2000204601F039F92068406900F04000402850
:102E300020D100BF00BF2168143151E8001F21F0EC
:102E400040002168143141E80002002AF3D100BF9C
:102E5000A06B50B17548A16B0865A06BFEF77DFCB7
:102E600088B1A06B016D88470DE02046FFF76EFF2B
:102E700009E009E02046FFF769FF04E02046FFF77C
:102E800065FF002020647DE7206B012876D105F0E6
:102E90001000002872D006F010000028FAD000BF01
:102EA0000020009020680068009020684068009032
:102EB00000BF00BF2068406900F0400040285ED19C
:102EC000A06B006840681FFA80F8B8F1000F54D07A
:102ED000A08D404551DDA4F82E80A06BC069B0F5EF
:102EE000807F43D000BF00BF21680C3151E8001F34
:102EF00021F4807021680C3141E80002002AF3D1EE
:102F000000BF00BF00BF2168143151E8001F21F04D
:102F100001002168143141E80002002AF3D100BF0A
:102F200000BF00BF2168143151E8001F21F04000AC
:102F30002168143141E80002002AF3D100BF2020AB
:102F400084F83E000020206300BF00BF21680C31E0
:102F500051E8001F21F0100021680C3141E8000207
:102F6000002AF3D100BFA06BFEF7A1FBA08DE28D7C
:102F7000801A81B22046FFF7E8FE03E740E0A08D0B
:102F8000E18D401A1FFA80F8E08DC0B3B8F1000F50
:102F900035D000BF00BF21680C3151E8001F21F47B
:102FA000907021680C3141E80002002AF3D100BF83
:102FB00000BF00BF2168143151E8001F21F001005B
:102FC0002168143141E80002002AF3D100BF20201B
:102FD00084F83E000020206300BF00BF21680C3150
:102FE00051E8001F21F0100021680C3141E8000277
:102FF000002AF3D100BF41462046FFF7A6FEC1E6F6
:1030000005F0800030B106F0800018B1204601F0D4
:103010001BFAB7E605F0400030B106F0400018B1E9
:10302000204601F06FF8ADE600BFABE68540000832
:1030300010B504460CB9012010BDA06900B100E034
:1030400000BF94F83D0028B9002084F83C002046D9
:1030500000F028F8242084F83D002068C06820F49F
:1030600000502168C860204601F0D8F82068006947
:1030700020F49040216808612068406920F02A000F
:10308000216848612068C06840F400502168C86029
:1030900000202064202084F83D0084F83E000020B9
:1030A000CAE7000010B586B00446142101A8FDF758
:1030B00006FA6F49206888425BD100BF002000906B
:1030C0006C48006840F480206A490860084600683F
:1030D00000F48020009000BF00BF00BF00200090DF
:1030E00064481038006840F00400624910390860F4
:1030F0000846006800F00400009000BF00BF4FF4D5
:103100004060019002200290002003900320049070
:103110000720059001A95848FEF7DAFC574858499E
:1031200008604FF000604860002155488160C16030
:103130004FF4806101610021416181614FF4807130
:10314000C1614FF44031016200214162FEF73AFC57
:1031500008B1FDF7B8FD00BF4948A063846300BF14
:10316000002205212720FEF76DFE2720FEF75AFEDC
:103170007CE044492068884278D100BF002000905C
:103180003C48001D006840F020003A49091D0860D5
:103190000846006800F02000009000BF00BF00BF9C
:1031A0000020009033481038006840F0400031495A
:1031B000103908600846006800F04000009000BF29
:1031C00000BF4FF484400190022002900020039041
:1031D000032004900820059001A92B48FEF778FCF5
:1031E0002A482B49086080054860002128488160F2
:1031F000C1604FF4806101610021416181614FF440
:103200008071C161002101624162FEF7DBFB08B100
:10321000FDF759FD00BF1E48A063846300BF1B4833
:1032200078301C4908604FF0206048604021194800
:1032300081600021C1604FF4806101610021416122
:103240008161C16101624162FEF7BCFB08B1FDF71B
:103250003AFD00BF0F486063846300BF0022052170
:103260004720FEF7EFFD4720FEF7DCFD06B010BD5E
:1032700000480040403802400008024028600240F8
:103280004C05002000140140001802402864024050
:10329000AC0500200C0600207047704700BFFEE719
:1032A00010B58EB0044602F045FEFDF7A3F9FDF718
:1032B000C7F9FDF793FC1C220E4907A8FDF7ABF8F0
:1032C000002107A802F08DF90B4908601C2209496A
:1032D0001C316846FDF79FF80021684602F081F92D
:1032E000064908600648006802F06AFF02F04CFEDA
:1032F0000EB010BD246900080C000020140000204E
:103300000400002010B50F480F49086003204860F2
:1033100000210D488160C1604FF4102101614FF41C
:103320000011416100210176012141768176002161
:10333000C17601774177FEF700F808B1FDF7C3FCCD
:1033400010BD0000006400401403002010B50F48B9
:103350000F4908600320486000210D488160C1606A
:103360004FF4102101614FF40011416100210176F9
:103370000121417681760021C17601774177FDF701
:10338000DCFF08B1FDF79FFC10BD000000680040A5
:103390003C03002008B500BF0020009022480068D0
:1033A00040F48000204908600846006800F480006E
:1033B000009000BF00BF00BF0020009008460068DA
:1033C00040F4001008600846006800F40010009007
:1033D00000BF00BF002205210C20FEF733FD0C20AA
:1033E000FEF720FD002205213820FEF72BFD3820B6
:1033F000FEF718FD002205213920FEF723FD3920B4
:10340000FEF710FD002205213B20FEF71BFD3B20AF
:10341000FEF708FD002205214520FEF713FD45209B
:10342000FEF700FD08BD00003038024000B58FB047
:103430001C220C4908A8FCF7EEFF002108A802F0A6
:10344000D0F8094908601C2206491C3101A8FCF784
:10345000E2FF002101A802F0C4F8044908600FB09F
:1034600000BD0000EC6800080000002004000020FF
:1034700000B587B0142102A8FDF721F800BF002095
:1034800001906148006840F002005F49086008460A
:10349000006800F00200019000BF00BF00BF0020E4
:1034A00001900846006840F0400008600846006847
:1034B00000F04000019000BF00BF00BF002001905D
:1034C0000846006840F0010008600846006800F007
:1034D0000100019000BF00BF00BF0020019008461E
:1034E000006840F0080008600846006800F0080026
:1034F000019000BF00BF00BF002001900846006897
:1035000040F0040008600846006800F004000190E4
:1035100000BF00BF00BF002001900846006840F0D7
:10352000800008600846006800F08000019000BF3D
:1035300000BF00BF002001900846006840F0200056
:1035400008600846006800F02000019000BF00BF3E
:10355000012289152D48FEF7B5FB012210212C48C8
:10356000FEF7B0FB012211462A48FEF7ABFB4FF4F1
:10357000E050029002200390002004900320059068
:103580000A20069002A92248FEF7A2FA4FF48070A2
:1035900002900120039000200490059002A91B488E
:1035A000FEF796FA1020029001200390049002206A
:1035B000059002A91648FEF78BFA302002904FF4CE
:1035C000041003900120049002A91048FEF780FA2D
:1035D00001200290039004900220059002A90D485A
:1035E000FEF776FA002205210A20FEF72BFC0A20BE
:1035F000FEF718FC002205211720FEF723FC1720F8
:10360000FEF710FC07B000BD303802400008024051
:10361000000002400004024010B50F480F49086046
:103620004FF48270486000210C488160C160022123
:10363000016101214161490281611021C1610021C3
:103640000162416281620A21C162FEF7FDFF08B199
:10365000FDF739FB10BD000000300140640300207D
:1036600000B587B01C216846FCF729FF16481749AA
:10367000086040F24730486000211448816040F201
:10368000CF71C160002101618161FFF7EFF808B1DE
:10369000FDF719FB0D48FFF716FB08B1FDF713FB0B
:1036A0006020009000200190029004900022694662
:1036B0000648FFF786FA08B1FDF705FB0348FFF758
:1036C0004DFA07B000BD0000004401407C0400201A
:1036D00010B50B480B4908600B48486000210948A9
:1036E0008160C1604FF4806101610C214161002162
:1036F0008161C161FFF79CFC08B1FDF7E4FA10BDE0
:1037000000480040C4040020A086010010B50B480A
:103710000B4908604FF4E13048600021084881609F
:10372000C16001610C21416100218161C161FFF72C
:103730007FFC08B1FDF7C7FA10BD0000001401407E
:103740000805002000BFFEE700BFFEE710B52DED25
:10375000028B0446B0EE408AF0EE608A18EE100A42
:10376000E060B4F8480000F4807010B1204601F029
:103770004FFD18EE900AA061E06800EE100AA06903
:1037800000EE900A30EE600A10EE100AE063E06B83
:1037900000EE100A206C00EE900A30EE600A10EE87
:1037A000100A2063E06B00EE100AB5EEC00AF1EEDD
:1037B00010FA03DDE06B00EE100A04E0E06B00EEAF
:1037C000100AB1EE400A206D00EE900AB4EEE00A55
:1037D000F1EE10FA7DDDE06B00EE100A206800EEDD
:1037E000900A20EE200A10EE100A2062E06900EE36
:1037F000100AE06B00EE900A30EE200A10EE100A7C
:10380000E06194F8480000F0080018B1204601F08B
:1038100061FC0AE0A06800EE100A206B00EE900A3E
:1038200020EE200A10EE100AA06294F8480000F082
:10383000200010B12046FCF793FF94F8480000F0F8
:10384000020010B1204601F07FFC606800EE100A13
:10385000E06900EE900A20EE200A10EE100A606285
:1038600094F8480000F0100010B1204601F0B2FCBE
:1038700094F8480000F0800048B1A06A00EE100AF9
:1038800004F1680001F02AFD10EE100AA062206A1F
:1038900000EE100A606A00EE900A70EE200AA06A3C
:1038A00000EE100A30EE800A10EE100AE06294F882
:1038B000480000F0400048B1E06A00EE100A04F150
:1038C000780001F00BFD10EE100AE06294F8480059
:1038D00000E006E000F0040030B1204601F057FCA3
:1038E00002E0204601F0ACFEA0696061E068206162
:1038F000206B6063E06B2064E06A00EE100ABDECB0
:10390000028B10BD70B52DED048B0446B0EE408ADD
:10391000F0EE608AB0EE419A0D4690212046FCF709
:10392000ACFD0020C4F88C0018EE100A206018EEE0
:10393000900A606019EE100AA060A564BDEC048BCB
:1039400070BD10291CD008DC09293DD2DFE801F048
:103950000F33103C1F3C3C3C1400202920D0402950
:1039600019D0802923D0B1F5807F2DD127E0704771
:1039700010EE102AC264FAE710EE102A4266F6E74B
:1039800010EE102A426510EE902A8265EFE710EEE5
:10399000102A4264EBE710EE102AC0F88420E6E714
:1039A00010EE102AC26510EE902A0266DFE710EED4
:1039B000102A4267DBE710EE102A0265D7E710EE07
:1039C000102AC0F88820D2E700BFD0E770B50546BE
:1039D0000C4602F063F92878697840EA0120C0F3C8
:1039E0000A0020806878C010A97840EA4110C0F32E
:1039F0000A006080A8788011E97840EA810029797E
:103A000040EA8120C0F30A00A0802879401069793B
:103A100040EAC110C0F30A00E08068790011800814
:103A2000A0726879C0F30110E072A879E97940EAE0
:103A3000012000B2A081287A697A40EA012001B20F
:103A4000E181A87AE97A40EA012001B22182297B4A
:103A5000A174697BE174A87BE97B40EA0120A08224
:103A6000287C697C40EA012000B220812088A0F5F2
:103A7000806000B220806088A0F5806000B2608025
:103A8000A088A0F5806000B2A080E088A0F58060EA
:103A900000B2E0802089A0F5806000B22081B4F9F6
:103AA0000000052102F0F0F82080B4F902000521A1
:103AB00002F0EAF86080B4F90400052102F0E4F8AD
:103AC000A080B4F90600052102F0DEF8E0800020B5
:103AD00070BD000000487047A00F002030B504689A
:103AE000646944F0400405686C610468E46844F06B
:103AF00010040568EC60846B2468246824F00104D9
:103B0000856B2D682C6007E0846B2468246824F0A2
:103B10000104856B2D682C60846B2468246804F094
:103B20000104002CF0D10468241D856B2D68AC6065
:103B3000846B2468E160846B24682261846B246850
:103B40006360846B2468246844F48024856B2D684A
:103B50002C60846B2468246844F00104856B2D6814
:103B60002C6030BD38B504462068006800F02000A5
:103B700050B100BF002000902068006800902068CD
:103B80004068009000BF6EE02068006800F0100000
:103B9000002868D000BF00200090206800680090D6
:103BA00020684068009000BF00BFA06B00680068FC
:103BB00000F4002058BBA06B0068006820F00100F2
:103BC000A16B09680860A06B00684068C0F1240020
:103BD000254908802420A16B09684860A06B006813
:103BE000006840F40020A16B09680860A06B0068C1
:103BF000006840F00100A16B096808601A4800885D
:103C0000122830D119491A48FFF7E0FE2BE0A06BCB
:103C10000068006820F00100A16B09680860A06BD3
:103C200000684068C0F124000F4908802420A16B7F
:103C300009684860A06B0068006820F40020A16B50
:103C400009680860A06B0068006840F00100A16B83
:103C50000968086004480088122804D10349044810
:103C60002430FFF7B3FE38BD44000020A00F002031
:103C7000B80F002002F008FD0349086003E00121AD
:103C8000014802F033FAFAE71C00002000BF0120CF
:103C900001F096FCFBE7000010B500BF502080F358
:103CA0001188BFF34F8FBFF36F8F00BF02F0F2FC9C
:103CB00018B14FF080500449086000BF002080F325
:103CC000118800BF10BD000004ED00E000B593B006
:103CD000302107A8FCF7F3FB142102A8FCF7EFFB47
:103CE00000BF002001902448006840F08050224925
:103CF00008600846006800F08050019000BF00BFD7
:103D000000BF002001901D48006840F480401B491E
:103D100008600846006800F48040019000BF00BFC2
:103D2000012007900004089002200D9041050E919B
:103D300006210F91A82110910221119107211291C2
:103D400007A8FEF733FA08B1FCF7BDFF0F20029079
:103D500002200390002004904FF4A05005904FF4EF
:103D600080500690052102A8FEF7BEF808B1FCF7C6
:103D7000AAFF13B000BD00004038024000700040B0
:103D80000348006840F47000014908607047000073
:103D900088ED00E010B50348FEF715FE0248FEF777
:103DA00012FE10BD6C0600207C04002010B50268D5
:103DB000294B98420ED0B0F1804F0BD0274B984240
:103DC00008D0274B984205D0264B984202D0264B6C
:103DD000984203D122F070024B681A431E4B98425E
:103DE00020D0B0F1804F1DD01C4B98421AD01C4BF4
:103DF000984217D01B4B984214D01B4B984211D0BD
:103E00001A4B98420ED01A4B98420BD0194B98423D
:103E100008D0194B984205D0184B984202D0184B45
:103E2000984203D122F44072CB681A4322F08003F7
:103E30004C6943EA040202608B68C3620B688362C8
:103E4000054B984202D0084B984201D10B6903639D
:103E50000123436110BD0000000001400004004048
:103E600000080040000C00400004014000400140F8
:103E7000004401400048014000180040001C004080
:103E80000020004030B5056A25F001050562026A90
:103E90004368846924F0700424F003040D682C4303
:103EA00022F002028D682A43104DA84200D103E09F
:103EB0000F4DA84206D100BF22F00802CD682A4368
:103EC00022F00402094DA84202D0094DA84207D1B0
:103ED00023F4807323F400734D692B438D692B43C6
:103EE000436084614D684563026230BD000001405B
:103EF0000004014030B5056A25F010050562026A2C
:103F00004368846924F4E04424F440740D6844EA6E
:103F1000052422F020028D6842EA0512124DA842C3
:103F200000D103E0114DA84207D100BF22F080026A
:103F3000CD6842EA051222F040020B4DA84202D0A1
:103F40000A4DA84209D123F4806323F400634D692C
:103F500043EA85038D6943EA8503436084614D68C4
:103F60008563026230BD0000000001400004014092
:103F700030B5056A25F480750562026A4368C46934
:103F800024F0700424F003040D682C4322F4007222
:103F90008D6842EA0522124DA84200D103E0114D7E
:103FA000A84207D100BF22F40062CD6842EA052290
:103FB00022F480620A4DA84202D00A4DA84209D1DB
:103FC00023F4805323F400534D6943EA05138D69AC
:103FD00043EA05134360C4614D68C563026230BDA6
:103FE000000001400004014030B5056A25F4805509
:103FF0000562036A4468C26922F4E04222F4407216
:104000000D6842EA052223F400538D6843EA053324
:10401000084DA84202D0084DA84204D124F480449F
:104020004D6944EA85144460C2614D6805640362C9
:1040300030BD0000000001400004014008B51048F8
:10404000FCF7F4FB052002F023F818E002F01CFB5B
:10405000009001F06FFF0A48FCF712FD084CB4F91C
:104060004830B4F93820B4F92810B4F9180000F039
:104070005DFA01F089FF0221684602F037F8E5E7B2
:10408000EC06002070B50546AC6B0020E085E084AE
:104090002046FEF75BFE70BD00BF00BF02680C3219
:1040A00052E8002F22F4907102680C3242E80013AB
:1040B000002BF3D100BF00BF00BF0268143252E8EA
:1040C000002F22F001010268143242E80013002B95
:1040D000F3D100BF016B01290ED100BF00BF026800
:1040E0000C3252E8002F22F0100102680C3242E834
:1040F0000013002BF3D100BF202180F83E100021D7
:104100000163704710B504462068C06820F0400085
:104110002168C860202084F83D002046FFF7BDF8E4
:10412000002010BDF8B5044694F83E00222873D153
:10413000A068B0F5805F0CD1206950B90025A66A4F
:1041400020684068C0F308003080A06A801CA0622C
:1041500015E0A56A0026A068B0F5805F03D0A068CE
:1041600028B9206918B920684068287004E02068E0
:10417000406800F07F002870A06A401CA062E08DBB
:10418000401E80B2E085002844D12068C06820F03D
:1041900020002168C8602068C06820F48070216811
:1041A000C8602068406920F0010021684861202033
:1041B00084F83E00206B012826D10020206300BF38
:1041C00000BF21680C3151E8001F21F01000216868
:1041D0000C3141E80002002AF3D100BF20680068DA
:1041E00000F0100010280AD100BF002000902068C5
:1041F0000068009020684068009000BF00BFA18D5B
:104200002046FEF7A2FD02E02046FFF745F8002019
:10421000F8BD01E00020FBE70220F9E72DE9F84FA7
:1042200004462068006920F44050E1680843216892
:1042300008612169A068084361690843E16908438E
:1042400000902068C06849F20C61884300990843D7
:104250002168C8602068406920F44070A169084363
:104260002168486176492068884203D075492068F2
:10427000884203D1FDF732FF814602E0FDF71EFFC1
:104280008146E069B0F5004F6CD102206168A0FB67
:10429000015003461920A9FB007001462A46384602
:1042A000FCF742F86421B0FBF1F04FEA001A02205B
:1042B0006168A0FB01510B461920A9FB00712A4639
:1042C0003846FCF731F8834602206168A0FB0150B4
:1042D00003461920A9FB00712A463846FCF724F84A
:1042E0006421B0FBF1F000EBC00101EB0010ABEB7F
:1042F0008000322101EBC0006421B0FBF1F000F03E
:10430000F8000AEB400A02206168A0FB0150034656
:104310001920A9FB007001462A463846FCF704F82C
:10432000834602206168A0FB015003461920A9FBC7
:1043300000712A463846FBF7F7FF6421B0FBF1F025
:1043400000EBC00101EB0010ABEB8000322101EB70
:10435000C0006421B0FBF1F000F007005044216878
:1043600088606AE004206168A0FB015003461920C0
:10437000A9FB007001462A463846FBF7D5FF824666
:1043800004206168A0FB015003461920A9FB0070BE
:1043900001462A463846FBF7C7FF6421B0FBF1F01F
:1043A00000EBC00101EB0010AAEB8000322101EB11
:1043B00000106421B0FBF1F000F0F00A0420616805
:1043C000A0FB017003461920A9FB00513A4628467C
:1043D000FBF7AAFF6421B0FBF1F00AEB001A0420FE
:1043E0006168A0FB01510B461920A9FB00712A4608
:1043F0003846FBF799FF834604206168A0FB015013
:1044000003461920A9FB007001462A463846FBF7EF
:104410008BFF6421B0FBF1F000EBC00101EB001059
:10442000ABEB8000322101EB00106421B0FBF1F016
:1044300000F00F00504421688860BDE8F88F00004C
:104440000010014000140140014691F83D00212870
:1044500028D18868B0F5805F0BD1086948B90A6A2D
:104460001088C0F308000B685860086A801C086256
:1044700005E00B6A581C086218780B685860C88CF5
:10448000401E80B2C88458B90868C06820F0800017
:104490000B68D8600868C06840F040000B68D860BE
:1044A000002070470220FCE710B5FCF7A5FB02488E
:1044B000FEF74EFC10BD0000C404002010B50248F9
:1044C000FEF746FC10BD00000805002000BFFEE717
:1044D00002480068C0F30220704700000CED00E0C5
:1044E00010B5002804DB0A07130E054A135406E032
:1044F0000A07140E034A00F00F031B1FD45410BD0B
:1045000000E400E018ED00E001EBD1735B105B42CA
:10451000834202DD4A1E024410B201EBD173B0EBBC
:10452000630F02DD4A1E821A10B27047FEB50746BD
:104530000C4615461E464FF40070124908600020D4
:104540008860C86008200861380A8DF80000F8B259
:104550008DF80100200A8DF80200E0B28DF803000A
:10456000280A8DF80400E8B28DF80500300A8DF8AD
:104570000600F0B28DF8070002AB6A460248FCF76D
:10458000BAFBFEBDD406002014030020254A117892
:104590000268927A012A04D0022A0AD0032A0CD196
:1045A00003E002221F4B1A7008E000221D4B1A7014
:1045B00004E001221B4B1A7000E000BF00BF194A43
:1045C0001278914203D0174A127843681A70164A3B
:1045D00011780268127DC2F3801212B10022124BD0
:1045E0001A700268127DC2F3C01212B102220E4B81
:1045F0001A700268928AC2F3402212B100220A4B5A
:104600001A700268928AC2F3802212B10122064B0C
:104610001A70054A1278914203D0034A127843680F
:104620001A7070473C0000203D00002010B5044681
:104630002068007DC0F3800040422168097DC1F3FD
:10464000C001084400EB401000EB80002168B1F984
:10465000001001EB800000EE100AB8EEC00A4848D6
:1046600080ED000A90ED000ADFED460AB4EEE00AA4
:10467000F1EE10FA02D29FED430A02E0404890EDBD
:10468000000A3F4880ED000A90ED000ADFED3E0A87
:10469000B4EEE00AF1EE10FA02DD9FED3B0A02E013
:1046A000374890ED000A364880ED000A2068007D0A
:1046B000C0F3400040422168097D01F00101084437
:1046C00000EB401000EB80002168B1F9021001EB13
:1046D000800000EE100AB8EEC00A2C4880ED000AF7
:1046E00090ED000ADFED270AB4EEE00AF1EE10FAD1
:1046F00002D29FED240A02E0244890ED000A2348EC
:1047000080ED000A90ED000ADFED1F0AB4EEE00A2A
:10471000F1EE10FA02DD9FED1C0A02E01B4890ED5D
:10472000000A1A4880ED000A6068007830B101285C
:1047300008D002280AD0032810D10BE0204600F050
:1047400017FC0CE0204600F01DFC08E0204600F0BD
:104750006DFC04E0204600F0F3FB00E000BF00BF6A
:104760002068B0F9040000EE100AB8EEC00A08484C
:10477000D0ED000A30EE200A80ED000A10BD0000E6
:1047800024000020000025C400002544280000204B
:104790002C00002010B58AB0044601AB03AA00210A
:1047A0005C48FCF7E6FB002879D140F2032203982D
:1047B000811A90423FD005DCA0F2012038B10128D7
:1047C0006ED11EE0012950D00E29F9D169E09DF883
:1047D00005009DF8041040EA01204F4908809DF82B
:1047E00007009DF8061040EA012000B24A494880BF
:1047F0000A46B2F90210128810B20122FBF742FFFA
:1048000085E09DF805009DF8041040EA012042492A
:1048100088809DF807009DF8061040EA012001B24B
:104820003D48C1800246B2F90610928810B20222B9
:10483000FBF728FF6BE09DF805009DF8041040EAA7
:104840000120354908819DF807009DF8061040EACF
:10485000012001B2304841810246B2F90A101289A2
:1048600010B20322FBF70EFF51E09DF805009DF802
:10487000041040EA0120284988819DF807009DF82E
:10488000061040EA012001B22348C1810246B2F974
:104890000E10928910B20422FBF7F4FE37E037E0E5
:1048A00034E09DF8040000EE100AB8EE400ADFED97
:1048B0001B0A80EE201A1A4880ED001A9DF80500A8
:1048C00000EE100AB8EE400ADFED140A80EE201A5E
:1048D000134880ED011A9DF8060000EE100AB8EEAC
:1048E000400ADFED0E0A80EE201A0D4880ED021A14
:1048F0009DF8070000EE100AB8EE400ADFED070A47
:1049000080EE201A064880ED031A00E000BF00BFC9
:104910000AB010BD14030020B40600200000C842F5
:10492000C406002010B58AB0044601AB03AA0021DA
:104930000348FCF71EFB08B900BF00BF0AB010BD5A
:104940003C0300202C4991ED000AB1EE400A2B49AE
:10495000D1ED000A30EE600A2949D1ED000A30EEAF
:10496000200A00F58061D1EDA50A20EE200A80ED35
:10497000040A214991ED000A2049D1ED000A30EEE8
:10498000600A1F49D1ED000A30EE200A00F580616F
:10499000D1EDA50A20EE200A80ED080A164991ED16
:1049A000000AB1EE400A1549D1ED000A30EE200AA6
:1049B0001349D1ED000A30EE200A00F58061D1EDF7
:1049C000A50A20EE200A80ED0C0A0B4991ED000AA1
:1049D0000A49D1ED000A30EE200A0949D1ED000A5A
:1049E00030EE200A00F58061D1EDA50A20EE200A04
:1049F00080ED100A704700003400002030000020D5
:104A000038000020F7EE000AB0EE600AD0ED050A8B
:104A10009FED8F1AF4EEC10AF1EE10FA1ADCD0ED18
:104A2000090A9FED8B1AF4EEC10AF1EE10FA11DCBF
:104A3000D0ED0D0A9FED861AF4EEC10AF1EE10FAE0
:104A400008DCD0ED110A9FED821AF4EEC10AF1EEF6
:104A500010FA73DDD0ED050A90ED091AF4EEC10AE3
:104A6000F1EE10FA02DDD0ED050A01E0D0ED090A01
:104A700090ED0D1AD0ED111AB4EEE11AF1EE10FA24
:104A800002DD90ED0D1A01E090ED111AF4EEC10A6D
:104A9000F1EE10FA0EDDD0ED050A90ED091AF4EEF4
:104AA000C10AF1EE10FA02DDD0ED050A10E0D0EDFA
:104AB000090A0DE0D0ED0D0A90ED111AF4EEC10ACD
:104AC000F1EE10FA02DDD0ED0D0A01E0D0ED110A91
:104AD0009FED5F1AC1EE201AF5EEC01AF1EE10FA42
:104AE00045DDD0ED050A90ED091AF4EEC10AF1EEAC
:104AF00010FA02DDD0ED050A01E0D0ED090A90EDD3
:104B00000D1AD0ED111AB4EEE11AF1EE10FA02DD31
:104B100090ED0D1A01E090ED111AF4EEC10AF1EEDC
:104B200010FA0FDDD0ED050A90ED091AF4EEC10A76
:104B3000F1EE10FA03DDD0ED050A11E05DE0D0EDF5
:104B4000090A0DE0D0ED0D0A90ED111AF4EEC10A3C
:104B5000F1EE10FA02DDD0ED0D0A01E0D0ED110A00
:104B6000DFED3B1A81EEA01AF0EE410A43E0D0EDF2
:104B7000050A90ED091AF4EEC10AF1EE10FA02DD11
:104B8000D0ED050A01E0D0ED090A90ED0D1AD0ED47
:104B9000111AB4EEE11AF1EE10FA02DD90ED0D1AE1
:104BA00001E090ED111AF4EEC10AF1EE10FA0EDDFB
:104BB000D0ED050A90ED091AF4EEC10AF1EE10FAF3
:104BC00002DDD0ED050A10E0D0ED090A0DE0D0EDD0
:104BD0000D0A90ED111AF4EEC10AF1EE10FA02DDA1
:104BE000D0ED0D0A01E0D0ED110A9FED191AC1EECA
:104BF000201AF1EE610AB0EE600AD0ED050A60EE0F
:104C0000800AFDEEE00A10EE901A0AB20283D0ED9F
:104C1000090A60EE800AFDEEE00A10EE901A0AB270
:104C20000285D0ED0D0A60EE800AFDEEE00A10EE7E
:104C3000901A0AB20287D0ED110A60EE800AFDEEEA
:104C4000E00A10EE901A0AB248210A52704700009A
:104C500000606A4610B50446DFED130A134890ED74
:104C6000000A04F2DC40FEF771FDB1EE400A104884
:104C700080ED000ADFED0C0A0E4890ED000A04F208
:104C80006C50FEF763FD0C4880ED000ADFED060A6C
:104C90000A4890ED000A04F2FC50FEF757FD084860
:104CA00080ED000A10BD000000000000240000207C
:104CB0003000002028000020340000202C000020BC
:104CC0003800002070B50446257A04F2DC4090EDEF
:104CD000030AB5EEC00AF1EE10FA02DD90ED030A08
:104CE00005E004F2DC4090ED030AB1EE400A04F264
:104CF000DC40D0ED220AB4EEE00AF1EE10FA34D234
:104D0000903090ED030AB5EEC00AF1EE10FA02DD24
:104D100090ED030A05E004F26C5090ED030AB1EE49
:104D2000400A04F26C50D0ED220AB4EEE00AF1EE33
:104D300010FA1AD2903090ED030AB5EEC00AF1EEE7
:104D400010FA02DD90ED030A05E004F2FC5090ED4C
:104D5000030AB1EE400AF1EE040AB4EEE00AF1EE05
:104D600010FA02D20120207201E002202072207A83
:104D7000A84227D0E06CFBF751FF206DFBF74EFFF8
:104D8000606DFBF74BFFA06DFBF748FF04F5277044
:104D900000F056FC04F54B7000F052FC04F56F7007
:104DA00000F04EFC04F24C4000F04AFC04F2DC40FF
:104DB00000F046FC04F26C5000F042FC04F2FC509F
:104DC00000F03EFC2068C07A022801D10020207249
:104DD00070BD10B50446207A78B1012802D00228AF
:104DE0000FD103E0204600F0F3FA0BE02046FFF776
:104DF000A9FD204600F085FB04E0204600F004F801
:104E000000E000BF00BF10BD9FED080A80ED050A5D
:104E10009FED060A80ED090A9FED040A80ED0D0A58
:104E20009FED020A80ED110A7047000000000000AB
:104E3000F0EE400AF5EEC00AF1EE10FA02DDB0EE37
:104E4000601A01E0B1EE601AF0EE410AF5EEC00A18
:104E5000F1EE10FA2CDB9FED361AF4EEC10AF1EEFA
:104E600010FA25D29FED321A31EE601AB5EEC01A53
:104E7000F1EE10FA04DD9FED2E1A31EE601A05E016
:104E80009FED2B1A31EE601AB1EE411AF2EE041AC0
:104E900021EE211ABDEEC11A11EE100A254901EBCF
:104EA000800090ED001ADFED241A81EE210A3EE029
:104EB0009FED1F1AF4EEC10AF1EE10FA2EDB9FED02
:104EC0001F1AF4EEC10AF1EE10FA27D29FED181A5C
:104ED00030EEC11AB5EEC01AF1EE10FA04DD9FED06
:104EE000141A30EEC11A05E09FED111A30EEC11A06
:104EF000B1EE411AF2EE041A21EE211ABDEEC11AEA
:104F000011EE100A0B4901EB800090ED001ADFED65
:104F10000A1A81EE212AB1EE420A08E09FED071A33
:104F2000F4EE410AF1EE10FA01D1BFEE000A70472B
:104F30000000B4425C6900080000C842000034432D
:104F40009FED070A074981ED000A9FED050A064912
:104F500081ED000A9FED020A044981ED000A7047C5
:104F60000000000024000020280000202C00002069
:104F700000F5806191EDA30A014981ED000A7047B7
:104F80002C00002010B52DED048B0446234890ED35
:104F9000000AB0EE408A224890ED000AF0EE408A06
:104FA00004F58060D0EDA30AB0EE600A00F080FE48
:104FB00020EE289A04F58060D0EDA30AB0EE600AD6
:104FC000FFF736FF08EE409A144880ED009A04F58A
:104FD0008060D0EDA30AB0EE600AFFF729FF20EE53
:104FE000289A04F58060D0EDA30AB0EE600A00F0C4
:104FF0005FFE08EE009A0A4880ED009A074890ED9F
:10500000000AB1EE400A80ED000A9FED060A06484C
:1050100080ED000ABDEC048B10BD000024000020D0
:1050200028000020000000002C00002010B52DED0D
:10503000048B04469FED230A234880ED000A234891
:1050400090ED000AB0EE408A214890ED000AF0EEA3
:10505000408A04F58060D0EDA30AB0EE600A00F04B
:1050600027FE20EE289A04F58060D0EDA30AB0EE6A
:10507000600AFFF7DDFE08EE409A144880ED009AC2
:1050800004F58060D0EDA30AB0EE600AFFF7D0FE11
:1050900020EE289A04F58060D0EDA30AB0EE600AF5
:1050A00000F006FE08EE009A094880ED009A0748D5
:1050B00090ED000AB1EE400A80ED000ABDEC048BD1
:1050C00010BD00000000C8422C0000202400002079
:1050D00028000020016802EE101A416E02EE901ABC
:1050E000816803EE101A02EE832AF0EE420A81680C
:1050F00002EE101AC2EE202AB0EE620A816802EEB9
:10510000101A016802EE901A32EE222AC2EE202A0C
:10511000F0EE621A416E02EE101A22EE002AB0EE94
:10512000421A816A02EE101A22EE012A816902EE09
:10513000901A01EEA22A416902EE901A00EE222A8C
:1051400012EE101A81627047C16900EE101AC16C2C
:1051500000EE901AB4EEE00AF1EE10FA01DDC16C37
:10516000C161C16900EE101AC16C00EE901AF1EE37
:10517000600AB4EEE00AF1EE10FA07D2C16C00EE5C
:10518000101AB1EE400A10EE101AC1617047C16AE0
:1051900000EE101A416C00EE901AB4EEE00AF1EE47
:1051A00010FA01DD416CC162C16A00EE101A416C57
:1051B00000EE901AF1EE600AB4EEE00AF1EE10FA99
:1051C00007D2416C00EE101AB1EE400A10EE101A30
:1051D000C1627047816D00EE101AC16B00EE901A2B
:1051E000B4EEE00AF1EE10FA0FDDC16B00EE101A1A
:1051F000416D00EE901AB4EEE00AF1EE10FA04D21E
:105200009FED020A10EE101A416270470000000084
:10521000DFED310AB0EE600A016900EE901AC16854
:1052200001EE101A70EEC10AF5EEC00AF1EE10FAA6
:1052300008DD016900EE901AC16801EE101A70EEE7
:10524000C10A09E0016900EE901AC16801EE101A66
:1052500070EEC10AF1EE600AD0F8881001EE101A63
:10526000F4EEC10AF1EE10FA00D87047016900EEC1
:10527000901AC16801EE101A70EEC10AF5EEC00A6C
:10528000F1EE10FA04DDFFEE000AB0EE600A15E060
:10529000016900EE901AC16801EE101A70EEC10AA1
:1052A000F5EEC00AF1EE10FA04D2F7EE000AB0EE05
:1052B000600A03E0DFED080AB0EE600A016900EE63
:1052C000901AD0F8881001EE101A40EE010A10EE84
:1052D000901AC16000BFC8E700000000F0EE400A6D
:1052E00010EE901A0160016800EE101AC16801EE1C
:1052F000101A20EE010A01EE101AF7EE001A71EEF4
:10530000C11A416801EE101A01EE810A10EE101A5E
:10531000816081684160816800EE101A704700006A
:105320000048704720000020014601F00300024AB7
:1053300002EB800070470000B40600200048704770
:10534000C4060020FCF7D6FCFEF7C0FCFEF790F880
:10535000FEF720F8FDF7D6FFFDF7F8FFFEF75CF942
:10536000FEF7B6F9FEF7D2F9FEF77AF9FEF75EF826
:1053700000F032F900BFFEE701460020842901D089
:10538000CA1C1044704770B52DED048B04460D46C1
:10539000F0EE408AB0EE609AB0EE418AF0EE490A33
:1053A000B0EE680A2846FEF7D1F910EE100AE06068
:1053B000E06800EE100AF0EE480A2046FEF7C6F953
:1053C000BDEEC00A10EE100A00B2BDEC048B70BD39
:1053D00010B50446E068B0F9020000EE100AB8EE1D
:1053E000C00AB0EE401AE06C006800EE100AB8EE99
:1053F000C00AF0EE400A9FED360A04F5277104F169
:105400005C00FFF7C0FF00EE100AB8EEC00A84EDA2
:10541000050AE069B0F9020000EE100AB8EEC00A11
:10542000B0EE401A206D006800EE100AB8EEC00A17
:10543000F0EE400A9FED260A04F54B7104F1EC00F2
:10544000FFF7A1FF00EE100AB8EEC00A84ED090ACA
:10545000E06AB0F9020000EE100AB8EEC00AB0EE41
:10546000401A606D006800EE100AB8EEC00AF0EE57
:10547000400A9FED170A04F56F7104F5BE70FFF73F
:1054800082FF00EE100AB8EEC00A84ED0D0AE06B50
:10549000B0F9020000EE100AB8EEC00AB0EE401AF1
:1054A000A06D006800EE100AB8EEC00AF0EE400AE7
:1054B0009FED070A04F24C4104F50370FFF763FF08
:1054C00000EE100AB8EEC00A84ED110A10BD00000B
:1054D0000000000010B52DED028B0446B0EE408AAE
:1054E000F0EE608AF0EE680AB0EE480A2046FEF759
:1054F0002DF9BDEEC00A10EE100A00B2BDEC028B11
:1055000010BD10B50446E068B0F9020001EE100AC3
:10551000B8EEC11AF0EE410A94ED041AB0EE410A59
:1055200004F15C00FFF7D6FF00EE100AB8EEC00AE7
:1055300084ED050AE069B0F9020001EE100AB8EE48
:10554000C11AF0EE410A94ED081AB0EE410A04F1D6
:10555000EC00FFF7BFFF00EE100AB8EEC00A84EDC2
:10556000090AE06AB0F9020001EE100AB8EEC11AA9
:10557000F0EE410A94ED0C1AB0EE410A04F5BE704B
:10558000FFF7A8FF00EE100AB8EEC00A84ED0D0A7E
:10559000E06BB0F9020001EE100AB8EEC11AF0EEAD
:1055A000410A94ED101AB0EE410A04F50370FFF7BA
:1055B00091FF00EE100AB8EEC00A84ED110A10BD8A
:1055C00070B5044625460DB1294600E00121084684
:1055D00000F05EFD002070BD10B500F06BFE0020F5
:1055E00010BD7FB504460D46606998B1A06988B1C9
:1055F000B4F90800FFF7C0FE0646D4E90510CDE96E
:10560000006102902B462269D4E9001000F0DEFF11
:10561000039013E0B4F90800FFF7AEFE064603A8B6
:10562000CDE90060238A9AB22B46D4E9001000F03D
:105630009BFF012802D0002004B070BD0398FBE757
:105640009FED120A10EE101A0164C1639FED0F0A5C
:1056500010EE101A8163416301639FED0C0A10EE96
:10566000101AC161816241620162C1629FED070A45
:1056700010EE101A01614161C16081619FED030A62
:1056800010EE101AC167C1667047000000000000EC
:105690002DE9F04105460E461C4807681C48006885
:1056A000001D00F0F1FB50B91948006890F82C106B
:1056B0000120884017490968814316480160681C29
:1056C00038B936B112480168091D134800F026FCAC
:1056D0001AE07C190E4800684460BC4207D20C48AE
:1056E0000168091D0D48006800F0FEFB0CE0084849
:1056F0000168091D0A48006800F0F6FB09480068C7
:10570000844201D207480460BDE8F0816C000020AB
:105710005800002070000020DC10002060000020F5
:105720005C0000208800002010B5044600F002FC58
:1057300023480068401C224908602248006840B99C
:10574000204804600846006801280DD100F03EF9A9
:105750000AE01D48006838B91A480068C06AE16A62
:10576000884201D81748046018480068401C17494F
:10577000086094F82C1001208840154909680843F6
:1057800013490860E16A01EB8101124A02EB8100D2
:10579000211D00F0C3FB00F0F7FB0B48006868B167
:1057A00008480068C06AE16A884207D24FF080501A
:1057B00009490860BFF34F8FBFF36F8F10BD000022
:1057C00068000020580000207400002084000020A1
:1057D000700000200010002004ED00E010B516E07D
:1057E00000F0A8FB0C48C068C468201D00F04CFB0A
:1057F0000A480068401E0949086009480068401EC0
:105800000749086000F0C0FB204600F00BF8044890
:1058100000680028E4D110BDC810002068000020F6
:105820006400002010B5044694F8510030B9206B94
:1058300000F0C8FB204600F0C5FB1AE094F85100C8
:10584000012803D1204600F0BDFB12E094F851007E
:10585000022801D1012000E0002050B900BF5020F3
:1058600080F31188BFF34F8FBFF36F8F00BF00BF6E
:10587000FEE710BD30B54FF47053174800F0070431
:105880002CB1C01D20F00700134C041B1B1B02464B
:10589000124C22600024114D6C60D018083820F0A2
:1058A00007000F4C206000240D4D2D686C600C4DDE
:1058B0002D682C601146441A4C60094C24680C6019
:1058C000084D4C682C60084D4C682C604FF000442B
:1058D000064D2C6030BD0000F01000209400002028
:1058E0009C000020A4000020A0000020B0000020A8
:1058F00000BFFFF773FF064800680128F9D94FF091
:10590000805004490860BFF34F8FBFF36F8FF0E7FB
:105910000010002004ED00E02DE9FF5F81460E46F7
:105920009246DDE90E7B109CAAF10100216B01EB90
:10593000800828F0070808F0070008B9012000E0F7
:10594000002050B900BF502080F31188BFF34F8F63
:10595000BFF36F8F00BF00BFFEE786B1002507E0F1
:10596000715D04F134004155705D00B902E06D1CB9
:10597000102DF5D300BF00214320015502E0002087
:1059800084F83400072F00D30627E76267640020FD
:10599000A064201D00F0A5FA04F1180000F0A1FA9F
:1059A0002461C7F10700A06164620020E06484F80C
:1059B000500049464046039A00F050F92060BBF180
:1059C000000F01D0CBF80040BDE8FF9F10B50024C8
:1059D00007E004EB84010F4A02EB810000F074FA47
:1059E000641C072CF5D30C4800F06EFA0B4800F04D
:1059F0006BFA0B4800F068FA0A4800F065FA0A48AA
:105A000000F062FA0448094908600448084908603F
:105A100010BD0000001000208C100020A0100020FD
:105A2000B4100020C8100020DC1000205C00002012
:105A30006000002010B50146164800E000680368C9
:105A40008B42FBD30246436813448B4204D1436824
:105A50004C682344436001460A464B68134404687B
:105A6000A34211D10C4C03682468A34208D04B68B0
:105A70000468646823444B6003681B680B6005E09E
:105A8000054B1B680B6001E003680B60884200D087
:105A9000016010BD940000209C0000200A490968A4
:105AA000096809B9012100E0002121B14FF0FF315F
:105AB000064A116006E004490968C968C868034AD3
:105AC00041681160704700005C00002088000020E1
:105AD0000E480068401C08B9012000E0002050B9C1
