:020000040800F2
:1000000098AA002029030008694600084D4100080D
:10001000654600081F0600080D7F0008000000006C
:10002000000000000000000000000000690200085D
:10003000AB0C000800000000C5020008354C0008A9
:100040004303000843030008430300084303000878
:100050004303000843030008430300084303000868
:100060004303000843030008AD0C000843030008E5
:100070007D0B000843030008430300084303000806
:100080004303000843030008430300084303000838
:10009000250600084303000843030008B70C0008C6
:1000A00043030008314D00084303000843030008E0
:1000B0004303000843030008430300084303000808
:1000C00043030008430300084303000843030008F8
:1000D0004303000843030008430300084154000899
:1000E00043030008430300084303000843030008D8
:1000F00043030008430300084303000843030008C8
:1001000043030008430300084303000843030008B7
:1001100043030008430300084303000843030008A7
:100120008D0B00089D0B000843030008AD0B000871
:100130004303000843030008430300084303000887
:100140007106000843030008430300086D460008D9
:1001500043030008BD0B0008430300085554000882
:100160004303000843030008430300084303000857
:100170004303000843030008430300080000000095
:10018000430300084303000800F002F800F05CF8A5
:100190000AA090E8000C82448344AAF10107DA45E2
:1001A00001D100F051F8AFF2090EBAE80F0013F0D8
:1001B000010F18BFFB1A43F001031847F0B000000D
:1001C00010B100000A444FF0000C10F8013B13F08E
:1001D000070408BF10F8014B1D1108BF10F8015BA0
:1001E000641E05D010F8016B641E01F8016BF9D193
:1001F00013F0080F1EBF10F8014BAD1C0C1B09D1EA
:100200006D1E58BF01F801CBFAD505E014F8016B5B
:1002100001F8016B6D1EF9D59142D6D370470000ED
:100220000023002400250026103A28BF78C1FBD8FF
:10023000520728BF30C148BF0B6070471FB50AF096
:10024000C3F81FBD10B510BD00F083F91146FFF7CC
:10025000F5FF08F06BFD00F0A1F903B4FFF7F2FF22
:1002600003BC00F0A9F900002C4B19680868B0E83D
:10027000F04F80F30988BFF36F8F4FF0000080F3D9
:10028000118870470000000008480068006880F38B
:1002900008884FF0000080F3148862B661B6BFF39F
:1002A0004F8FBFF36F8F00DF00BF00BF08ED00E08E
:1002B000DFF80C00016841F470010160704700BF75
:1002C00088ED00E0EFF30980BFF36F8F134B1A68DE
:1002D0001EF0100F08BF20ED108A20E9F04F1060CB
:1002E00009B44FF0500080F31188BFF34F8FBFF374
:1002F0006F8F09F0B3FD4FF0000080F3118809BC47
:1003000019680868B0E8F04F1EF0100F08BFB0EC95
:10031000108A80F30988BFF36F8F7047BC000020FC
:10032000EFF30580704700000948804709480047FF
:10033000FEE7FEE7FEE7FEE7FEE7FEE7FEE7FEE795
:10034000FEE7FEE704480549054A064B70470000F2
:100350001D4D000889010008986A002098AA002015
:10036000988A0020988A002053EA020C00F06980E5
:100370002DE9F04B4FF00006002B1FBFB3FA83F5B9
:1003800003FA05F424FA05F65E4012BF1643B2FAEA
:1003900082F502FA05F4C5F120051EBF22FA05FC1C
:1003A00044EA0C04203556EA044C4FEA144418BFC2
:1003B000641C4FF000084FF00009904271EB030CF1
:1003C00039D3002919BFB1FA81F701FA07F6B0FA5B
:1003D00080F700FA07F6C7F120071EBF20FA07FCD6
:1003E00046EA0C062037B6FBF4FCA7EB0507103FE6
:1003F00007F01F0BCBF120060CFA0BFB2CFA06F6CC
:1004000044BFB3460026202FA4BF5E464FF0000B2A
:100410005BEA060C08BF4FF0010B19EB0B09ABFBB5
:10042000027C48EB0608C01B06FB02CC0BFB03CC8E
:1004300071EB0C01C1E70B46024641464846BDE858
:10044000F08B13B54FF000004FF00001AFF30080C8
:10045000BDE81C40704710B5203AC0F00B80B1E8F1
:100460001850203AA0E81850B1E81850A0E81850E9
:10047000BFF4F5AF5FEA027C24BFB1E81850A0E8F2
:10048000185044BF18C918C0BDE810405FEA827C0C
:1004900024BF51F8043B40F8043B08BF7047D20723
:1004A00028BF31F8023B48BF11F8012B28BF20F8C4
:1004B000023B48BF00F8012B70474FF000020429AF
:1004C000C0F0128010F0030C00F01B80CCF1040C83
:1004D000BCF1020F18BF00F8012BA8BF20F8022BB7
:1004E000A1EB0C0100F00DB85FEAC17C24BF00F85D
:1004F000012B00F8012B48BF00F8012B70474FF08B
:10050000000200B5134694469646203922BFA0E863
:100510000C50A0E80C50B1F12001BFF4F7AF09076F
:1005200028BFA0E80C5048BF0CC05DF804EB890060
:1005300028BF40F8042B08BF704748BF20F8022BA3
:1005400011F0804F18BF00F8012B704770477047BB
:100550007047754600F02CF8AE46050069465346D4
:1005600020F00700854618B020B5FFF7EBFEBDE888
:1005700020404FF000064FF000074FF000084FF00A
:10058000000B21F00701AC46ACE8C009ACE8C0099B
:10059000ACE8C009ACE8C0098D46704710B5044608
:1005A000AFF300802046BDE81040FFF756BE0000C4
:1005B00000487047386A002001491820ABBEFEE7AA
:1005C000260002007047024691F82D00022802DA48
:1005D00091F82E0008B900207047B1F9320090421E
:1005E00005DAD1F83600401CC1F836000DE0B1F94B
:1005F00032004042904205DDD1F83600401CC1F87F
:10060000360002E00020C1F83600D1F83600B1F91A
:100610003430984201DD0120DEE70020DCE700BF36
:10062000FEE7000010B5024800F0BEFD10BD00005E
:100630000804002000B58BB001200990002007902D
:1006400001200890002001900290039004900690F1
:10065000059001A9054800F057FC044801F04FF847
:100660000221024800F090FB0BB000BD08040020FE
:1006700010B5024800F098FD10BD000030040020C5
:1006800000B58BB000200790012008900020019059
:100690000290039004900E2006900A90002005908E
:1006A0000120099001A9064800F02EFC044801F041
:1006B00026F80221024800F067FB0BB000BD0000E5
:1006C00030040020F0B505460E461746781E00EBB4
:1006D0004001C1EB4010294901EB4004A4F8275028
:1006E00004F12100A4F82360B4F82300B4F8211029
:1006F000401A00B2A4F82500B4F82300A4F82100A1
:1007000094F8200048B901200D34E074608BA08378
:10071000B4F91A0044F8010C0D3CB4F82720B4F8E1
:100720002930D21A10B2B4F92B1007F00DFCA168D1
:100730000844A060A068B4F930104843B4F92B1005
:1007400090FBF1F000EE100AB8EEC00A10EE100AAD
:10075000E061E068A1680844E060B4F82700A4F80C
:100760002900B4F82710B4F82920891A08B22146C4
:10077000FFF729FF84F82F00F0BD0000FA0E0020DB
:100780000346042B15D007DC7BB1012B0ED0022BC6
:100790000DD0032B12D10BE0202B0BD0212B0AD034
:1007A000222B09D0232B09D107E008E007E006E05F
:1007B00005E004E003E002E001E000E000BF00BF6C
:1007C000002070470020704710B5002204490548FA
:1007D00005F0E3F80449034805F0D0F8002010BD07
:1007E0001C1E0020401100201C16002070B504467D
:1007F0000D462146034805F0C1F8024805F08AF885
:10080000002070BD4011002010B503460C460021A9
:10081000084610BDC16B00EE101AB5EEC00AF1EE2D
:1008200010FA03DDC16B00EE101A04E0C16B00EE9C
:10083000101AB1EE400A016E00EE901AB4EEE00A12
:10084000F1EE10FA00D87047C16B00EE101AB5EE49
:10085000C00AF1EE10FA03DDC16B00EE101A04E0DD
:10086000C16B00EE101AB1EE400AC16D00EE901A95
:10087000B4EEE00AF1EE10FA05DD9FED180A10EE75
:10088000101AC16127E0C16D00EE901AC16B00EE35
:10089000101AB5EEC00AF1EE10FA03DDC16B00EEDE
:1008A000101A04E0C16B00EE101AB1EE400A30EEEF
:1008B000C01AC16D00EE101A016E00EE901A30EEF3
:1008C000600AC1EE000AC16900EE101A20EE800A2B
:1008D00010EE101AC16100BFB5E700000000000073
:1008E00010B5044640F2BC612046FFF708FE08F050
:1008F00015FA2060002008F007FAE060012008F0F7
:1009000003FAE061022008F0FFF9E062032008F03A
:10091000FBF9E06308F006FAC4F8B00608F0F0F955
:1009200060609FED7A0A04F28C6008F0D1F99FEDC7
:10093000770A04F29C6008F0CBF90121002000F056
:10094000C7F9E0640221002000F0C2F9206503210C
:10095000002000F0BDF960650421002000F0B8F926
:10096000A0650421B6EE001ADFED690AB2EE020AB4
:1009700004F15C0004F08DF80421B6EE001ADFEDFE
:10098000640AB2EE020A04F1EC0004F082F80421D9
:10099000B6EE001ADFED5E0AB2EE020A04F5BE7092
:1009A00004F077F80421B6EE001ADFED590AB2EE32
:1009B000020A04F5037004F06CF8DFED550A9FEDB0
:1009C000550A042104F15C0004F082F8DFED500ABE
:1009D0009FED500A042104F1EC0004F079F8DFEDFA
:1009E0004C0A9FED4C0A042104F5BE7004F070F827
:1009F000DFED470A9FED470A042104F5037004F078
:100A000067F800219FED421ADFED410A9FED420A8F
:100A100004F5277004F03DF800219FED3D1ADFED4D
:100A20003C0A9FED3D0A04F54B7004F032F80021BA
:100A30009FED371ADFED360A9FED370A04F56F7028
:100A400004F027F800219FED321ADFED310A9FED07
:100A5000320A04F24C4004F01CF84FF480719FED10
:100A60002F1ADFED2B0AB2EE000A04F2DC4004F08C
:100A700010F8DFED270AB1EE040A4FF4807104F29A
:100A8000DC4004F025F84FF480719FED241ADFED6F
:100A9000200AB2EE000A04F26C5003F0FAFFDFED18
:100AA0001C0AB1EE040A4FF4807104F26C5004F099
:100AB0000FF82321B7EE001ADFED150AB3EE040A92
:100AC00004F2FC5003F0E5FFDFED110A9FED100A80
:100AD000012104F2FC5003F0FBFFF6EE000A9FED4B
:100AE000100A202104F2FC5003F0F2FFDFED080AA7
:100AF0009FED0C0A022104F2FC5003F0E9FFB7EE6F
:100B0000000A04F5806080EDAD0A10BD9EEF273D20
:100B10000000000000606A46CDCCCC3DCDCC2C411D
:100B20000000344300007A4410B50446204607F024
:100B30004DFA204607F09AFA204607F0E5FD207AA4
:100B400090B1012802D0022812D103E0204608F01B
:100B500033F90EE0204607F09FFD204607F012FC17
:100B6000204608F0C2F904E0204607F02BFE00E022
:100B700000BF00BF204607F065FC10BD10B502485D
:100B800000F05EFE10BD00004006002010B50248D7
:100B900000F056FE10BD0000B004002010B5024861
:100BA00000F04EFE10BD0000A006002010B5024867
:100BB00000F046FE10BD00001005002010B50248F0
:100BC00000F03EFE10BD000000070020014608783E
:100BD00010381823B0FBF3F20848805CC865032A7C
:100BE00005D908686FF30900001D886503E00868EF
:100BF0006FF309008865886D7047000058B20008DF
:100C0000014600208A6A8B69CBB932B1012A0DD026
:100C1000022A03D0032A10D10EE000BFCB6A03F0F2
:100C20008073B3F1807F00D1012007E0CB6AB3F17C
:100C3000C07F00D1012001E000E000BF34E08B69FB
:100C4000B3F5005F1AD132B1012A07D0022A03D0CE
:100C5000032A11D10AE000BF01200EE0CB6A03F0A5
:100C60008073B3F1807F00D1012006E0CB6AB3F13D
:100C7000C07F00D1012000E000BF15E032B1012AA1
:100C800005D0022A04D0032A0CD103E000BF00BF24
:100C9000012008E0CB6A03F08073B3F1807F00D1BC
:100CA000012000E000BF00BF7047704710B5102062
:100CB00000F072FF10BD10B5202000F06DFF10BDD8
:100CC00010B504463A212046FFF7F7FB10BD00009F
:100CD00070B505460E460A2E01DB002070BD701E61
:100CE00000EB4001C1EB4010174901EB40042046E6
:100CF000FFF7E6FF04F82D5F0020A07060702D3C28
:100D000025B1012D0ED0022D1AD112E04FF4005062
:100D1000A4F82B00132020860A2060864FF48070F0
:100D2000A0860DE04FF40050A4F82B00012020868F
:100D300006E04FF40050A4F82B000120208600BFED
:100D400000BF2046CAE70000FA0E002072B600BFBE
:100D5000FEE7000070B50A480468001D0568001D24
:100D60000668344454B108220649204603F022FAAA
:100D7000042204491031284603F01CFA70BD00001B
:100D8000107AFF1F7E00002010B5024692F8203036
:100D9000012B01D0022B06D110684069084314686A
:100DA0006061002010BD506A40F480205062012034
:100DB000F8E7F0B504460D461E4694F8207020680A
:100DC0008368A86800B900E000BF012F01D0022F9E
:100DD0007CD103F0806030B903F0006018B903F0F3
:100DE0008050002873D0C3F30161022905D9606ADD
:100DF00040F4000060620120F0BD012088403060B6
:100E0000A86860B9B5F800C0E86840EA4C5C2068A2
:100E100000F5C07000EB0110C0F800C00FE0D5E98C
:100E200001C040EACC00D5F80CC040EA0C00D4F870
:100E300000C00CF5C07C0CEB011CCCF80000D5F810
:100E400010C0206800F5C07000EB0110C0F804C0AD
:100E5000287D01280ED1206800F5C07000EB01103C
:100E6000406840F4807C206800F5C07000EB011001
:100E7000C0F804C0D079000692F806C040EA0C40E1
:100E800092F805C040EA0C2C10794CEA000C20685E
:100E900000F5C07000EB0110C0F80CC0D07800065F
:100EA00092F802C040EA0C4092F801C040EA0C20DF
:100EB00092F800C040EA0C00D4F800C00CF5C07CE9
:100EC0000CEB011CCCF80800206801E016E00FE0F4
:100ED00000F5C07000EB0110006840F0010C2068C4
:100EE00000F5C07000EB0110C0F800C0002083E7DF
:100EF000606A40F40010606201207DE7606A40F49F
:100F000080206062012077E7F0B504460A46216838
:100F100094F82050012D01D0022D7ED1424901F5D7
:100F20000071086840F001000860086820F47C50F7
:100F300008600868566A40EA06200860107D00F0E4
:100F40001F06012000FA06F3C8699843C861A1F59D
:100F50000071D069C8B9D1F80C029843C1F80C02ED
:100F6000908880B2968940EA064601F5107057696C
:100F700040F83760108880B2168940EA064601F5CD
:100F80001070576900EBC7004660D069012819D17D
:100F9000D1F80C021843C1F80C02908880B2168870
:100FA00040EA064601F51070576940F837609089AD
:100FB00080B2168940EA064601F51070576900EBC9
:100FC000C7004660906928B9D1F804029843C1F877
:100FD000040204E0D1F804021843C1F804021069C5
:100FE00028B9D1F814029843C1F8140204E0D1F8EA
:100FF00014021843C1F81402106A012804D1D1F870
:101000001C021843C1F81C02D1F8000220F00100B4
:10101000C1F800020020F0BDFFE7606A40F48020C4
:1010200060620120F7E7000000640040704770B57F
:10103000044694F82050012D01D0022D7DD151B9E4
:101040002068C06800F0030080B9606A40F40010B6
:101050006062012070BD2068006900F0030028B9BB
:10106000606A40F4001060620120F3E7206800F538
:10107000D87000EB0110006800F0040090609068E8
:1010800040B9206800F5D87000EB01100068400DF1
:10109000106007E0206800F5D87000EB01100068D0
:1010A000C0085060206800F5D87000EB011000689F
:1010B00000F00200D060206800F5D87000EB01104D
:1010C000406800F00F001061206800F5D87000EB58
:1010D0000110406800F47F40000A9061206800F52C
:1010E000D87000EB01104068000C5061206800F5DA
:1010F000D87000EB011080681870206800F5D87077
:1011000000EB0110806800F47F40000A58702068EE
:1011100000F5D87000EB0110806800F47F00000C2F
:101120009870206800F5D87000EB01108068000E00
:10113000D870206800F5D87000E02FE000EB0110B7
:10114000C0681871206800F5D87000EB0110C06805
:1011500000F47F40000A5871206800F5D87000EB59
:101160000110C06800F47F00000C9871206800F541
:10117000D87000EB0110C068000ED87131B920683A
:10118000C06840F020002668F06005E02068006933
:1011900040F020002668306100205BE7606A40F480
:1011A00080206062012055E72DE9F05F04460025AC
:1011B000206846692068D0F8049020688768206815
:1011C000D0F80CA02068D0F810B02068D0F81880B3
:1011D00006F00100002855D007F00100C0B1012041
:1011E0002168886007F0020018B1204600F0B7FAC5
:1011F0000EE007F0040010B145F4006508E007F0C8
:10120000080010B145F4805502E0204600F0A6FA2F
:1012100007F48070C8B14FF480702168886007F4CB
:10122000007018B1204600F09CFA0EE007F48060D0
:1012300010B145F4005508E007F4006010B145F422
:10124000804502E0204600F08BFA07F48030C8B1F8
:101250004FF480302168886007F4003018B12046D0
:1012600000F081FA0EE007F4802010B145F400454B
:1012700008E007F4002010B145F4803502E0204674
:1012800000F070FA06F0080038B10AF0100020B142
:1012900045F4007510202168C86006F0040040B1D4
:1012A0000AF0080028B108202168C860204600F034
:1012B0000DFA06F0020038B12068C06800F00300A3
:1012C00010B1204600F004FA06F0400038B10BF0EF
:1012D000100020B145F4806510202168086106F0F7
:1012E000200040B10BF0080028B1082021680861F7
:1012F000204600F001FA06F0100038B120680069BD
:1013000000F0030010B1204600F0F7F906F40030B9
:1013100040B109F0100028B1102021684860204633
:1013200000F0ECF906F4803040B109F0080028B173
:10133000082021684860204600F016FA06F40040B4
:1013400088B309F0040078B306F4807020B108F087
:10135000010008B145F0010506F4007020B108F065
:10136000020008B145F0020506F4806020B108F0E3
:10137000040008B145F0040506F40060A0B108F0CF
:10138000700088B108F07000402817D006DC1028E3
:101390000BD020280CD0302819D10CE0502810D0C8
:1013A000602814D110E01DE019E045F008050FE0B9
:1013B00045F010050CE045F0200509E045F040053A
:1013C00006E045F0800503E045F4807500E000BFCD
:1013D00000BF2068806920F07000216888610420C7
:1013E000216848602DB1606A284360622046FFF79B
:1013F0001DFEBDE8F09F70B504460CB9012070BD1C
:1014000094F8200010B9204600F0B0F82068006879
:1014100040F001002168086000F0CCFC05460DE0BA
:1014200000F0C8FC401B0A2808D9606A40F400306C
:101430006062052084F820000120E0E72068406811
:1014400000F001000028EBD02068006820F00200C6
:101450002168086000F0AEFC05460DE000F0AAFC33
:10146000401B0A2808D9606A40F4003060620520F9
:1014700084F820000120C2E72068406800F00200E4
:101480000028EBD1207E012806D12068006840F0BA
:1014900080002168086005E02068006820F0800076
:1014A00021680860607E012806D12068006840F04D
:1014B00040002168086005E02068006820F04000D6
:1014C00021680860A07E012806D12068006840F0ED
:1014D00020002168086005E02068006820F02000F6
:1014E00021680860E07E012806D12068006820F0AD
:1014F00010002168086005E02068006840F01000D6
:1015000021680860207F012806D12068006840F02B
:1015100008002168086005E02068006820F00800E5
:1015200021680860607F012806D12068006840F0CB
:1015300004002168086005E02068006820F00400CD
:1015400021680860D4E90201084321690843616900
:1015500008436168491E08432168C8610020606231
:10156000012084F82000002049E7000010B586B073
:101570000446142101A8FEF7C2FF4E4920688842A4
:1015800041D14D480068401C4B490860084600683E
:1015900001280FD100BF002000904848006840F0AB
:1015A0000070464908600846006800F0007000902E
:1015B00000BF00BF00BF0020009040481038006806
:1015C00040F008003D49103908600846006800F006
:1015D0000800009000BF00BF03200190022002908D
:1015E00000200390032004900920059001A93448AD
:1015F00000F0E0FA00220521142000F095FC1420F0
:1016000000F082FC54E02F492068884250D100BF8E
:10161000002000902948006840F080602749086059
:101620000846006800F08060009000BF00BF2248BC
:101630000068401C204908600846006801280FD156
:1016400000BF002000901D48006840F000701B495A
:1016500008600846006800F00070009000BF00BFFE
:1016600000BF0020009015481038006840F00200CC
:101670001249103908600846006800F00200009026
:1016800000BF00BF60200190022002900020039064
:10169000032004900920059001A90B4800F08AFA64
:1016A00000220521402000F03FFC402000F02CFCEF
:1016B00006B010BD00640040080000204038024021
:1016C000000C024000680040000402407047000027
:1016D00010B504460648844202D1204606F07AFD41
:1016E0000448844202D1204606F03CFE10BD0000B2
:1016F000080400203004002070477047704770B520
:10170000044694F82000012822D1022084F8200009
:101710002068006820F001002168086000F04AFBA2
:1017200005460DE000F046FB401B0A2808D9606A18
:1017300040F400306062052084F82000012070BD74
:101740002068406800F001000028EBD16062F6E7F5
:10175000606A40F4002060620120F0E77047704743
:101760007047704770477047704770B50446A56D65
:1017700000F020FB064694F83500022808D08020AF
:10178000606500BF002084F8340000BF012070BDF8
:101790002068006820F01600216808602068406911
:1017A00020F0800021684861206C08B9A06C28B145
:1017B0002068006820F00800216808602068006840
:1017C00020F001002168086010E000F0F3FA801BAF
:1017D00005280BD920206065032084F8350000BF60
:1017E000002084F8340000BF0320D0E720680068A0
:1017F00000F001000028E8D194F85C103F208840F8
:10180000A860012084F8350000BF002084F834006F
:1018100000BF00BFBBE7014691F83500022803D0A6
:101820008020486501207047052081F83500086850
:10183000006820F001000A6810600020F3E7000053
:10184000F8B50446002000908C4800684FF416510B
:10185000B0FBF1F7A56D2E6894F85C100820884065
:10186000304098B12068006800F0040070B1206832
:10187000006820F004002168086094F85C100820DB
:101880008840A860606D40F00100606594F85C10CD
:1018900001208840304068B12068406900F0800035
:1018A00040B194F85C1001208840A860606D40F061
:1018B0000200606594F85C1004208840304068B1F4
:1018C0002068006800F0020040B194F85C10042029
:1018D0008840A860606D40F00400606594F85C107A
:1018E00010208840304078B32068006800F008007D
:1018F00050B394F85C1010208840A86020680068FD
:1019000000F4802080B12068006800F4002028B92D
:10191000206CC8B12046216C884715E0A06C98B1B6
:101920002046A16C88470FE02068006800F48070B2
:1019300028B92068006820F0080021680860206C41
:1019400010B12046216C884794F85C102020884014
:101950003040002865D02068006800F010000028A2
:101960005FD094F85C1020208840A86094F835007F
:10197000052828D12068006820F01600216808603A
:101980002068406920F0800021684861206C08B917
:10199000A06C28B12068006820F008002168086069
:1019A00094F85C103F208840A860012084F835003E
:1019B00000BF002084F8340000BF206D10B1204625
:1019C000216D8847F8BD2068006800F4802080B150
:1019D0002068006800F4002028B9606C10B120462F
:1019E000616C88471DE0E06BD8B12046E16B884709
:1019F00017E02068006800F4807068B9206800680B
:101A000020F0100021680860012084F8350000BF34
:101A1000002084F8340000BFE06B10B12046E16B79
:101A20008847606D38B3606D00F00100F0B10520AB
:101A300084F835002068006820F001002168086003
:101A400000BF0098401C0090B84200D905E0206813
:101A5000006800F001000028F3D100BF012084F8E5
:101A6000350000BF002084F8340000BFE06C10B1E6
:101A70002046E16C884700BFA4E70000B8000020C2
:101A80002DE9F0410446002500F094F9074614B909
:101A90000120BDE8F081606A00B100BF022084F837
:101AA000350000BF002084F8340000BF20680068C3
:101AB00020F00100216808600AE000F07BF9C01BFB
:101AC000052805D920206065032084F83500E0E76B
:101AD0002068006800F001000028EED12068056849
:101AE00021480540D4E901010843E1680843216920
:101AF000084361690843A1690843E1690843216A11
:101B000008430543606A042803D1D4E90B01084364
:101B10000543206805602068456925F00705606A6F
:101B20000543606A04280DD1A06A0543E06A48B104
:101B30002046FFF765F828B140206065012084F851
:101B40003500A6E7206845612046FFF73FF80646C6
:101B500094F85C103F208840B06000206065012050
:101B600084F83500002094E73F8010F070B50446FB
:101B700000F020F906462546681C10B1044800789C
:101B8000054400BF00F016F9801BA842FAD370BDCF
:101B9000B40000207047000010B5044604480068F7
:101BA000204020B1024804602046FFF7F3FF10BD3B
:101BB000143C0140F8B502460B46002500240020E5
:101BC0000021D6E0012606FA01F51E6806EA0504A2
:101BD000AC4274D11E7906F00306012E04D01E79A2
:101BE00006F00306022E13D190684F000326BE4074
:101BF000B0434F00DE68BE4030439060506801261D
:101C00008E40B0431E79C6F300168E4030435060BC
:101C10001E7906F00306032E09D0D0684F00032674
:101C2000BE40B0434F009E68BE403043D0601E7936
:101C300006F00306022E13D1CF0802F1200656F853
:101C400027004E07F70E0F26BE40B0434F07FF0E8A
:101C50001E69BE403043CF0802F1200646F8270037
:101C600010684F000326BE40B0431E7906F00306FD
:101C70004F00BE40304310605E6806F44036002ED0
:101C800076D000BF002600963C4E366846F480466B
:101C90003A4F3E603E46366806F48046009600BFE6
:101CA00000BF374E8F0856F827008E07370F0F26D4
:101CB000BE40B043334EB24202D1002624E057E08A
:101CC000314EB24201D101261EE0304EB24201D166
:101CD000022619E02E4EB24201D1032614E02D4E09
:101CE000B24201D104260FE02B4EB24201D10526AB
:101CF0000AE02A4EB24201D1062605E0284EB24241
:101D000001D1072600E008268F073F0FBE40304371
:101D10001B4E8F0846F82700224E3068A0435E68AD
:101D200006F4801606B120431E4E3060361D306822
:101D3000A0435E6806F4001606B12043194E361D16
:101D40003060184E361F3068A0435E6806F40036D7
:101D500006B12043134E361F3060361F3068A04353
:101D60005E6806F4803606B120430E4E083E3060B1
:101D7000491C1029FFF426AFF8BD0000443802408A
:101D80000838014000000240000402400008024000
:101D9000000C0240001002400014024000180240F3
:101DA000001C0240083C01400AB1816101E00B04C3
:101DB000836170470148006870470000AC00002054
:101DC00003480068034909780844014908607047DE
:101DD000AC000020B400002010B50D48006840F4AD
:101DE00000700B4908600846006840F48060086095
:101DF0000846006840F480700860032000F0D2F8C4
:101E0000052000F007F800F055F8002010BD000094
:101E1000003C0240F0B587B004460026002700BF12
:101E2000002000901E48006840F001001C49086036
:101E30000846006800F00100009000BF00BF01A943
:101E400002A801F06BF801F0A1F846001548B6FBB6
:101E5000F0F0471E14481549086040F2E731134876
:101E6000C1604760002101618160816101F056FC21
:101E7000054695B90D4801F0A9FC05466DB9192034
:101E800000F042F8102C07D200222146192000F061
:101E90004BF80748046000E00125284607B0F0BD74
:101EA0004438024040420F0000000140600700201B
:101EB000B000002008B500BF002000901148006865
:101EC00040F480400F4908600846006800F48040F4
:101ED000009000BF00BF00BF00200090081F0068F6
:101EE00040F08050091F08600846006800F08050EC
:101EF000009000BF00BF00220F21901E00F014F8D8
:101F000008BD00004438024001460846002809DBAD
:101F100000F01F0301229A4043099B0003F1E023D4
:101F2000C3F8002100BF70472DE9F05F80460D46E1
:101F30001646002705F0ECFF074639462A46334689
:101F400001F00700C0F1070ABAF1040F02D94FF0FF
:101F5000040A01E0C0F1070AD14600F1040ABAF10F
:101F6000070F02D24FF0000A01E0A0F1030AD446A5
:101F70004FF0010A0AFA09FAAAF1010A0AEA020A6A
:101F80000AFA0CFA4FF0010B0BFA0CFBABF1010B48
:101F90000BEA030B4AEA0B042146404605F0C0FF5A
:101FA000BDE8F09F00BF00F00702064B19684FF62E
:101FB000FF031940044B0B4343EA0221014B196014
:101FC00000BF70470CED00E00000FA0570470246C4
:101FD0001068416200207047F0B503461546186846
:101FE000446A21B944EA05401E68B06219E01868E5
:101FF000806A04EB1044002208E0186800F5827043
:1020000050F8220004EB1044501CC2B2481E90420B
:10201000F3D844EA0547186800F582704E1E40F870
:1020200026700020F0BD10B50446D4F8080504F071
:10203000A0F910BD70B504460D4605EBC50304F1CB
:102040003C0101EB83010A692946D4F8080504F034
:102050008BF870BD70B504460D4605EBC50304F55D
:102060001F7101EB83010A692946D4F8080504F0C1
:10207000FFF870BD10B50446D4F8080504F07CF9EB
:1020800010BD2DE9F04104460D4605F08000802882
:1020900008D105F00F0000EBC00104F13C0000EB9B
:1020A000810607E005F00F0000EBC00104F51F708A
:1020B00000EB81063146206805F050FC07463846A3
:1020C000BDE8F08170B504460E4606F08000802819
:1020D0000AD106F00F0000EBC00104F13C0000EB58
:1020E00081050120687009E006F00F0000EBC001D7
:1020F00004F51F7000EB81050020687006F00F00EA
:10210000287000BF94F8BC04012801D1022070BDE2
:10211000012084F8BC0400BF2946206804F0FEFEBC
:1021200000BF002084F8BC0400BF00BFEFE770B51B
:1021300004460E4606F00F006168884201D901206E
:1021400070BD06F0800080280AD106F00F0000EB79
:10215000C00104F13C0000EB81050120687009E03A
:1021600006F00F0000EBC00104F51F7000EB8105C5
:10217000002068700020A87006F00F00287000BFD3
:1021800094F8BC04012801D10220D9E7012084F889
:10219000BC0400BF2946206805F0A8F900BF002054
:1021A00084F8BC0400BF00BFCAE7024601F00F007C
:1021B00000EBC00302F51F7000EB8300006A70475C
:1021C0002DE9F04705460E4690461F464FF00009A0
:1021D00006F0800080280AD106F00F0000EBC00155
:1021E00005F13C0000EB81040120607009E006F07D
:1021F0000F0000EBC00105F51F7000EB810400200B
:10220000607006F00F002070C4F80C8027716078B1
:1022100008B120782081022F01D10020607100BF19
:1022200095F8BC04012802D10220BDE8F087012006
:1022300085F8BC0400BF2146286804F085FD00BF76
:10224000002085F8BC0400BF4846EEE72DE9F041C8
:1022500004460E461746984606F00F0000EBC001F4
:1022600004F51F7000EB81052F61C5F81880002070
:102270002862687006F00F0028702069012800D1DC
:102280006F6106F00F0028B9227C2946206805F00E
:1022900007F804E0227C2946206805F0BBF90020FD
:1022A000BDE8F08170B504460D4605F00F00616889
:1022B000884201D9012070BD05F0800080280AD134
:1022C00005F00F0000EBC00104F13C0000EB8106BB
:1022D0000120707007E005EBC50104F51F7000EBED
:1022E0008106002070700120B07005F00F00307082
:1022F00000BF94F8BC04012801D10220DBE70120D3
:1023000084F8BC0400BF3146206805F036F905F0BA
:102310000F0028B9217C04F2C442206805F0AEF811
:1023200000BF002084F8BC0400BF00BFC3E72DE954
:10233000F04104460E461746984606F00F0000EBA3
:10234000C00104F13C0000EB81052F61C5F8188045
:10235000002028620120687006F00F0028702069B4
:10236000012800D16F6106F00F0028B9227C2946B0
:10237000206804F095FF04E0227C2946206805F0DF
:1023800049F90020BDE8F0812DE9FE4F0446D4F85C
:1023900000B05E46206805F0C8FB002874D12068B4
:1023A00005F002FC08B9BDE8FE8F40F60800805930
:1023B000C0F30D20C4F8FC04206805F0F5FB00F024
:1023C0000200022805D12068406900F0020021685F
:1023D0004861206805F0E8FB00F01000102845D1A6
:1023E0002068806920F0100021688861DBF8209067
:1023F00009F00F0000EBC00104F51F7000EB810A2B
:10240000C9F3434002281AD147F6F07009EA0000E8
:1024100030B3C9F30A125846DAF8101005F0C9FBB8
:10242000C9F30A11DAF810000844CAF81000C9F319
:102430000A11DAF820000844CAF8200010E0C9F3B5
:10244000434006280CD1082204F2C441584605F046
:10245000B0FBC9F30A11DAF820000844CAF82000DA
:102460002068806940F0100021688861206805F0CC
:102470009BFB00F40020B0F5002F7BD100252068E5
:1024800005F062FB029072E0E1E2029800F00100C8
:10249000002868D0E9B2206805F079FB804608F092
:1024A000010048B1012106F5306000EB4510816064
:1024B0002946204602F014F908F00800082809D13E
:1024C000082106F5306000EB451081602946204662
:1024D00002F0D4F808F01000102805D1102106F5FC
:1024E000306000EB4510816008F00200022824D122
:1024F000DBF8140000F08000802807D140F60400CB
:10250000805940F4806140F60400815105EBC5011B
:1025100004F51F7000EB810A9AF80300012806D128
:1025200000208AF80300E9B2204600F09BFA02215D
:1025300006F5306000EB4510816008F0200020288F
:1025400005D1202106F5306000EB4510816008F4CC
:102550000050B0F5005F06D14FF4005106F5306031
:1025600000EB451081606D1C0298400802900298B3
:1025700000288AD1206805F017FB00F48020B0F510
:10258000802F7DD1206805F0D5FA029000259AE0D1
:10259000029800F00100002873D0E9B2206805F02D
:1025A000DDFA804608F00100F0B305F00F010120CC
:1025B0008840019040F634008159019821EA0000DA
:1025C00040F634018851012106F5106000EB4510FA
:1025D00081602069012824D105EBC50104F13C008C
:1025E00000EB810005EBC502016904F13C0000EB42
:1025F0008200C068014405EBC50204F13C0000EB19
:10260000820001616DB905EBC50104F13C0000EBEE
:102610008100806928B904F2C4420121206804F0D5
:102620002DFFE9B2204600E001E0FFF703FD08F0CE
:102630000800082805D1082106F5106000EB4510B8
:10264000816008F01000102805D1102106F51060F7
:1026500000EB4510816008F04000402805D1402182
:1026600006F5106000EB4510816008F002000228BA
:102670001DD12946584605F019FA05EBC50101E0C0
:1026800025E01CE004F13C0000EB810A9AF803000D
:10269000012806D100208AF80300E9B2204600F0A4
:1026A000D8F9022106F5106000EB4510816008F0B2
:1026B0008000802803D12946204602F0B3F86D1C23
:1026C000029840080290029800287FF461AF2068C9
:1026D00005F06AFA00F00040B0F1004F1CD140F65E
:1026E0000400805920F0010140F60400815194F863
:1026F000F404012807D1002084F8F40400212046C6
:10270000FFF764FC02E0204600F0D4FA206840693C
:1027100000F0004021684861206805F045FA00F4A7
:102720000060B0F5006F0ED140F60800805900F04F
:10273000010010B1204600F015FB2068406900F44C
:10274000006021684861206805F02EFA00F480508E
:10275000B0F5805F7ED140F60400805920F0010181
:1027600040F6040081511021206805F09FF90027F0
:1027700032E04FF67F3106F5106000EB47108160C4
:1027800006F5106000EB4710006820F4001106F514
:10279000106000EB471001604FF67F3106F53060A6
:1027A00000EB4710816006F5306000EB47100068D1
:1027B00020F4001106F5306000EB4710016006F5CB
:1027C000306000EB4710006840F0006106F53060B3
:1027D00000EB471001607F1C6068B842C9D840F622
:1027E0001C00805940F0011140F61C008151206B03
:1027F00070B1D6F8840840F00B01C6F8841840F692
:102800004400805940F00B0140F6440081510FE034
:1028100040F61400805942F22B01084340F614019F
:102820008851081F805940F00B014FF4016081511D
:10283000D6F8000820F4FE60C6F80008217C04F2F7
:10284000C442206804F01AFE2068406900F48050F9
:10285000216800E000E04861206805F0A5F900F477
:102860000050B0F5005F17D1206804F0D5FA206859
:1028700005F048F9E06000F073FB0090227B2068CF
:10288000009905F019FA204600F0FCF9206840692B
:1028900000F4005021684861206805F085F900F0D7
:1028A0000800082808D1204600F00BFA206840698B
:1028B00000F0080021684861206805F075F900F013
:1028C0008000802818D1DBF8180020F08000CBF8B9
:1028D000180001250DE005EBC50104F51F7000EBA4
:1028E0008100C078012803D1E9B22046FFF7C9FB77
:1028F0006D1C6068A842EED8206805F055F900F418
:102900008010B0F5801F2DD1012522E006F5106062
:1029100000EB4510D0F8009005EBC50104F13C0038
:1029200000EB81000079012812D109F00040B0F1DC
:10293000004F0DD1012105EBC50204F13C0000EB75
:102940008200C170E8B240F080012046FFF799FB99
:102950006D1C6068A842D9D82068406900F48010D6
:1029600021684861206805F01FF900F40010B0F5F7
:10297000001F44D1012538E006F5306000EB45101A
:10298000D0F8009005EBC50104F51F7000EB810045
:102990000079012828D109F00040B0F1004F23D17F
:1029A00009F4803094F8FC1401F0010188421BD135
:1029B000012105EBC50204F51F7000EB8200C17018
:1029C000DBF8180040F08000CBF81800DBF81400AA
:1029D00000F0800040B940F60400805940F40071D6
:1029E00040F60400815103E06D1C6068A842C3D822
:1029F00000BF2068406900F4001021684861206829
:102A000005F0D2F800F08040B0F1804F08D12046A8
:102A1000FFF709FB2068406900F0804021684861A9
:102A2000206805F0C1F800F0040004280FD12068E8
:102A3000D0F8049009F00400042802D12046FFF7E2
:102A400019FB2068406840EA09002168486000BF1F
:102A5000A9E470B504460D462946D4F8080503F0EC
:102A6000F7FC70BD70B504460D462946D4F808053C
:102A700003F012FD70BD70B58AB0044614B9012090
:102A80000AB070BD266894F8BD0428B9002084F807
:102A9000BC04204600F0A2F8032084F8BD04F06BCB
:102AA00000F4807008B900212161206804F0F0FB77
:102AB000282204F110016846FDF7CDFC94E80F00D0
:102AC00004F0BEF920B1022084F8BD040120D7E74C
:102AD0000021206805F09DF8002531E0012105EB7B
:102AE000C50204F13C0000EB8200417005EBC5011A
:102AF00004F13C0000F8215005EBC50100EB81001A
:102B00000581002105EBC50204F13C0000EB8200C9
:102B1000017105EBC50204F13C0000EB8200C160CD
:102B200005EBC50204F13C0000EB8200016105EBFE
:102B3000C50204F13C0000EB82008161681CC5B253
:102B40006068A842CAD800252AE0002105EBC5022A
:102B500004F51F7000EB8200417005EBC50104F520
:102B60001F7000F82150002105EBC50200EB820028
:102B7000017105EBC50204F51F7000EB8200C16016
:102B800005EBC50204F51F7000EB8200016105EB47
:102B9000C50204F51F7000EB82008161681CC5B29C
:102BA0006068A842D1D8282204F110016846FDF7D8
:102BB00052FC94E80F0004F07BFA20B1022084F864
:102BC000BD0401205CE7002084F83800012084F86F
:102BD000BD04206804F05AFA002051E710B586B011
:102BE0000446142101A8FDF78AFC2068B0F1A04F2B
:102BF00042D100BF002000902048006840F0010052
:102C00001E4908600846006800F00100009000BFFF
:102C100000BF4FF4E050019002200290002003908A
:102C2000032004900A20059001A91548FEF7C2FF71
:102C300000BF1248001D006840F080000F49091DC8
:102C4000086000BF002000900C481430006840F479
:102C500080400A49143108600846006800F480404A
:102C6000009000BF00BF00BF002205214320FFF7F6
:102C70005BF94320FFF748F906B010BD3038024039
:102C80000000024070B504460125E06808B900253F
:102C900006E0E068022801D1012501E0FEF756F8C0
:102CA0002946D4F8080503F0A0FCD4F8080503F081
:102CB00047FC70BD10B50446D4F8080503F076FC57
:102CC00010BD10B50446D4F8080503F07AFC10BD19
:102CD00070B504460D4600BF94F8BC04012801D12C
:102CE000022070BD012084F8BC0400BF84F8385075
:102CF0002946206804F0C1FF00BF002084F8BC040E
:102D000000BF00BFEDE710B5044604F2C441D4F89B
:102D1000080503F081FC10BD70B50446256800BFAE
:102D200094F8BC04012801D1022070BD012084F870
:102D3000BC0400BFA06A012806D1A069012803D005
:102D4000A86B40F48030A863206804F07DFE206802
:102D500004F08AF900BF002084F8BC0400BF00BF63
:102D6000E3E7000010B50446D4F8080503F0B1FC11
:102D70002068D0F8000E40F001002168C1F8000E74
:102D8000206A28B10348006840F006000149086045
:102D900010BD000010ED00E070B504460D460CB902
:102DA000012070BD5848006800F00700A84209D211
:102DB00055490D700846006800F00700A84201D090
:102DC0000120EEE7207800F0020002281DD12078D3
:102DD00000F00400042805D14C48006840F4E0509D
:102DE0004A490860207800F00800082805D14748C3
:102DF000006840F46040454908604448006820F09D
:102E0000F000A168084341490860207800F0010003
:102E1000A8B36068012807D13C4808380068C0F3AF
:102E20004040B8B90120BCE76068022802D0606861
:102E3000032807D1354808380068C0F3406048B916
:102E40000120AEE7314808380068C0F3400008B9F7
:102E50000120A6E72D48006820F0030061680843C0
:102E60002A490860FEF7A6FF064609E0FEF7A2FF22
:102E7000801B41F28831884202D9032091E707E0A4
:102E80002248006800F00C006168B0EB810FEDD1C2
:102E90001D48006800F00700A84209D91A490D70C2
:102EA0000846006800F00700A84201D0012078E73A
:102EB000207800F00400042807D11448006820F4AA
:102EC000E050E168084311490860207800F00800EC
:102ED000082808D10D48006820F46040216940EAC4
:102EE000C1000A49086000F061F808490968C1F3A7
:102EF0000311074A515CC84006490860064800684B
:102F0000FEF788FF00204CE7003C024008380240F2
:102F100060B20008B8000020B00000200F2202605C
:102F20000D4A126802F0030242600B4A126802F076
:102F3000F0028260084A126802F4E052C260064A57
:102F4000126802F46042D2080261044A126802F078
:102F500007020A607047000008380240003C024047
:102F60000148006870470000B800002000B5FFF776
:102F7000F7FF04490968C1F38221034A515CC84044
:102F800000BD00000838024070B2000800B5FFF72D
:102F9000E7FF04490968C1F34231034A515CC84064
:102FA00000BD00000838024070B200082DE9F0476B
:102FB000002400250026A1462548006800F00C00EA
:102FC00020B1042805D008283AD105E0DFF8849024
:102FD00039E0DFF8849036E01D48001F006800F0FB
:102FE0003F041B48001F006800F4800078B11A48B5
:102FF0001749091F0968C1F38811A0FB0170014638
:10300000224600233846FDF7AFF905460EE0114889
:103010000F49091F0968C1F38811A0FB017001461F
:10302000224600233846FDF79FF905460848001F51
:103030000068C0F30140401C4600B5FBF6F902E011
:10304000DFF8109000BF00BF4846BDE8F0870000E1
:10305000083802400024F400001BB700F8B504460D
:103060000CB90120F8BD207800F00100002874D0D0
:10307000F948006800F00C0004280DD0F6480068FC
:1030800000F00C00082813D1F348001F006800F47A
:103090008000B0F5800F0BD1EF4808380068C0F30E
:1030A0004040002859D06068002856D10120D9E757
:1030B00000BF6068B0F5803F08D1E7480838006875
:1030C00040F48030E449083908601EE06068B0F5DB
:1030D000A02F0DD1E0480838006840F48020DE4978
:1030E000083908600846006840F4803008600CE049
:1030F000D9480838006820F48030D749083908607A
:103100000846006820F48020086000BF606890B125
:10311000FEF750FE054606E0FEF74CFE401B642815
:1031200001D903209EE7CC4808380068C0F340402E
:103130000028F1D011E0FEF73DFE054606E0FEF75F
:1031400039FE401B642801D903208BE7C2480838A8
:103150000068C0F340400028F1D1207800F0020060
:1031600002285FD1BC48006800F00C0058B1BA4892
:10317000006800F00C0008281CD1B748001F006848
:1031800000F48000B0B9B44808380068C0F34000CB
:1031900020B1E068012801D0012063E7AE4808387B
:1031A000006820F0F800216940EAC100AA49083906
:1031B000086037E0E06800B30120A8490860FEF726
:1031C000F9FD054606E0FEF7F5FD401B022801D992
:1031D000032047E7A04808380068C0F340000028F3
:1031E000F1D09D480838006820F0F800216940EAD5
:1031F000C10099490839086014E000209749086027
:10320000FEF7D8FD054606E0FEF7D4FD401B022878
:1032100001D9032026E7904808380068C0F3400031
:103220000028F1D1207800F0080008282CD160692E
:10323000A8B101208A490860FEF7BCFD054606E0FA
:10324000FEF7B8FD401B022801D903200AE7824897
:103250006C300068C0F340000028F1D014E000207A
:103260007F490860FEF7A6FD054606E0FEF7A2FDD1
:10327000401B022801D90320F4E677486C3000682F
:10328000C0F340000028F1D1207800F004000428A9
:1032900070D1002770483830006800F0805090B935
:1032A00000BF002000906C483830006840F080502B
:1032B0006949383108600846006800F08050009085
:1032C00000BF00BF01276748006800F48070B0B9F4
:1032D0006448006840F4807062490860FEF76AFD47
:1032E000054606E0FEF766FD401B022801D90320D3
:1032F000B8E65C48006800F480700028F2D000BF97
:10330000A068012808D154486830006840F00100E6
:103310005149683108601DE0A06805280DD14E486C
:103320006830006840F004004B4968310860084686
:10333000006840F0010008600CE047486830006811
:1033400020F001004449683108600846006820F018
:103350000400086000BFA068A8B1FEF72BFD054679
:1033600009E0FEF727FD401B41F28831884202D96F
:10337000032077E626E0384868300068C0F3400054
:103380000028EED013E0FEF715FD054608E0FEF735
:1033900011FD401B41F28831884201D9032061E6CA
:1033A0002D4868300068C0F340000028EFD1012F9D
:1033B00007D129483830006820F08050264938313C
:1033C000086000BFA069002845D02348006800F0CD
:1033D0000C0008285DD0A069022845D100201F49B3
:1033E0000866FEF7E7FC054606E0FEF7E3FC401B37
:1033F000022801D9032035E6174808380068C0F3D1
:1034000040600028F1D1D4E907010843616A40EA2D
:1034100081110122A06AC2EB500041EA00412C2038
:10342000005D41EA00600C49091F086001200B495A
:103430000866FEF7BFFC054606E0FEF7BBFC401B36
:10344000022801D903200DE6034808380068C0F3BC
:1034500040600028F1D049E00838024000004742AF
:10346000800E474200700040002021490866FEF7A8
:10347000A1FC054606E0FEF79DFC401B022801D991
:103480000320EFE51B480068C0F340600028F2D13C
:103490002CE0A069012800D1E4E51648001D06686B
:1034A000A069012820D006F48001E06981421BD187
:1034B00006F03F01206A814216D147F6C0703040C5
:1034C000616AB0EB811F0FD106F440310122A06A7E
:1034D000C2EB5000B1EB004F06D106F070612C201A
:1034E000005DB1EB006F01D00120BBE50020B9E524
:1034F000000047420038024010B504460CB90120D4
:1035000010BD606A38B96068B0F5827F00D105E00F
:103510000021E16102E00021216161610021A162DD
:1035200094F8510028B9002084F85000204600F09B
:1035300047F8022084F851002068006820F040001D
:1035400021680860A08800F48270218901F4044198
:103550000843A18901F400610843217C01F00201C4
:103560000843217D01F001010843218B01F4007122
:103570000843217F01F0380108432021095D01F053
:1035800080010843218D01F400510843216808603F
:103590000421A06901EA104094F8241001F0100100
:1035A0000843216848602068C06920F400602168F1
:1035B000C86100206065012084F8510000209FE769
:1035C00010B586B00446142101A8FCF798FF4B49BA
:1035D000206888427ED100BF0020009048480068E3
:1035E00040F48050464908600846006800F4805066
:1035F000009000BF00BF00BF00200090404814387A
:10360000006840F002003E4914390860084600682E
:1036100000F00200009000BF00BF00BF002000903B
:103620000846006840F0010008600846006800F0A5
:103630000100009000BF00BF1820019002200290FE
:1036400001200390032004900520059001A92D4836
:10365000FEF7B0FA80200190022002900120039032
:10366000032004900520059001A92748FEF7A2FA3F
:103670002648274908604FF0C06048600021244870
:103680008160C1604FF4806101610021416181610D
:10369000C1614FF40031016200214162FEF7F0F98F
:1036A00008B1FDF753FB00BF1948E064846300BF15
:1036B00016484830174908604FF0C0604860402104
:1036C000144881600021C1604FF4806101610021D4
:1036D000416100E010E08161C1614FF4003101629D
:1036E00000214162FEF7CCF908B1FDF72FFB00BFC6
:1036F0000848A064846300BF06B010BD00300140DC
:1037000044380240000402400000024010640240BD
:10371000B0040020100500207047704710B5044623
:103720000CB9012010BD94F83D0028B9002084F8A0
:103730003C00204600F026F8022084F83D00211DC0
:10374000206801F001FB012084F8460000BF84F8E6
:103750003E0001213F2001554020015541200155E7
:1037600000BF00BF012084F84200432001554420DF
:1037700001554520015500BF012084F83D0000207F
:10378000D0E7000038B504460E492068884217D1BA
:1037900000BF002000900C48006840F400300A4947
:1037A00008600846006800F40030009000BF00BFC9
:1037B000002205211920FEF7B7FB1920FEF7A4FB14
:1037C00038BD00000044014044380240014691F8F1
:1037D0003D00012801D001207047022081F83D0002
:1037E0000868C06840F001000B68D8601A4B086890
:1037F00098421BD00868B0F1804F17D0174B08686B
:10380000984213D0164B086898420FD0154B0868A1
:1038100098420BD0144B0868984207D0134B0868A5
:10382000984203D0124B086898420CD1086880680F
:1038300000F00702062A0CD00868006840F001007A
:103840000B68186005E00868006840F001000B682C
:1038500018600020C0E700000000014000040040A4
:1038600000080040000C00400004014000400140FE
:1038700000180040704710B5044620680069C0F386
:103880004000D8B12068C068C0F34000B0B16FF00C
:10389000020021680861012020772068806900F01B
:1038A000030018B12046FFF7E5FF05E0204600F0D1
:1038B000DFF8204600F093F90020207720680069A7
:1038C000C0F38000D8B12068C068C0F38000B0B1F8
:1038D0006FF0040021680861022020772068806969
:1038E00000F4407018B12046FFF7C4FF05E0204601
:1038F00000F0BEF8204600F072F900202077206822
:103900000069C0F3C000D8B12068C068C0F3C0002F
:10391000B0B16FF0080021680861042020772068AA
:10392000C06900F0030018B12046FFF7A3FF05E0CF
:10393000204600F09DF8204600F051F90020207745
:1039400020680069C0F30010D8B12068C068C0F3D7
:103950000010B0B16FF010002168086108202077D6
:103960002068C06900F4407018B12046FFF782FF5C
:1039700005E0204600F07CF8204600F030F90020F9
:1039800020772068006900F0010058B12068C06805
:1039900000F0010030B16FF001002168086120469D
:1039A00000F01EF920680069C0F3C01058B120680B
:1039B000C068C0F3C01030B16FF0800021680861AA
:1039C0002046FFF7A9FE20680069C0F3801058B1B7
:1039D0002068C068C0F3801030B16FF040002168EB
:1039E0000861204600F008F920680069C0F3401023
:1039F00058B12068C068C0F3401030B16FF02000AB
:103A0000216808612046FFF788FE10BD10B586B01A
:103A10000446142101A8FCF772FD1249206888426F
:103A20001DD100BF002000900F48006840F020002A
:103A30000D4908600846006800F02000009000BFB3
:103A400000BF40200190022002900120039002203C
:103A500004900320059001A90448FEF7ABF806B0D6
:103A600010BD000000440140303802400014024004
:103A700070472DE9F04104460D461646002700BF69
:103A800094F83C00012802D10220BDE8F081012019
:103A900084F83C0000BF36B1042E1BD0082E31D074
:103AA0000C2E5ED145E02946206801F0B9F9206866
:103AB000806940F00800216888612068806920F0F2
:103AC00004002168886120688069296908432168A9
:103AD000886148E02946206801F0DAF920688069A9
:103AE00040F40060216888612068806920F480606B
:103AF0002168886120688069296940EA012021687D
:103B0000886130E02946206801F000FA2068C06929
:103B100040F008002168C8612068C06920F00400F6
:103B20002168C8612068C069296908432168C861A3
:103B300019E02946206801F025FA2068C06940F4A0
:103B400000602168C8612068C06920F48060216835
:103B5000C8612068C069296940EA01202168C861FC
:103B600001E0012700BF00BF00BF002084F83C0037
:103B700000BF384689E710B504460CB9012010BDD6
:103B800094F83D0028B9002084F83C00204600F05D
:103B900025F8022084F83D00211D206801F0D4F8AA
:103BA000012084F8460000BF84F83E0001213F2038
:103BB0000155402001554120015500BF00BF0120A3
:103BC00084F8420043200155442001554520015509
:103BD00000BF012084F83D000020D0E77047704707
:103BE00010B5044603492068884201D1FEF7E8F881
:103BF00010BD000000000140704770477047000092
:103C00002DE9F84F0446206805682068C6682068DA
:103C100047694FF00009CA4605F00F09B9F1000FD6
:103C20000AD105F0200038B106F0200020B120466E
:103C300001F044FABDE8F88FB9F1000F7CD007F02D
:103C4000010018B906F49070002875D005F0010045
:103C500030B106F4807018B1206C40F0010020648F
:103C600005F0040030B107F0010018B1206C40F0FD
:103C70000200206405F0020030B107F0010018B125
:103C8000206C40F00400206405F0080048B106F004
:103C9000200010B907F0010018B1206C40F00800B6
:103CA0002064206C002846D005F0200028B106F0E2
:103CB000200010B1204601F001FA20684069C0F3ED
:103CC000801A206C00F0080010B9BAF1000F2DD056
:103CD000204601F0ADF92068406900F0400040281E
:103CE00020D100BF00BF2168143151E8001F21F02E
:103CF00040002168143141E80002002AF3D100BFDE
:103D0000A06B50B17548A16B0865A06BFDF783FDF2
:103D100088B1A06B016D88470DE02046FFF76EFF6C
:103D200009E009E02046FFF769FF04E02046FFF7BD
:103D300065FF002020647DE7206B012876D105F027
:103D40001000002872D006F010000028FAD000BF42
:103D50000020009020680068009020684068009073
:103D600000BF00BF2068406900F0400040285ED1DD
:103D7000A06B006840681FFA80F8B8F1000F54D0BB
:103D8000A08D404551DDA4F82E80A06BC069B0F530
:103D9000807F43D000BF00BF21680C3151E8001F75
:103DA00021F4807021680C3141E80002002AF3D12F
:103DB00000BF00BF00BF2168143151E8001F21F08F
:103DC00001002168143141E80002002AF3D100BF4C
:103DD00000BF00BF2168143151E8001F21F04000EE
:103DE0002168143141E80002002AF3D100BF2020ED
:103DF00084F83E000020206300BF00BF21680C3122
:103E000051E8001F21F0100021680C3141E8000248
:103E1000002AF3D100BFA06BFDF7A7FCA08DE28DB7
:103E2000801A81B22046FFF7E8FE03E740E0A08D4C
:103E3000E18D401A1FFA80F8E08DC0B3B8F1000F91
:103E400035D000BF00BF21680C3151E8001F21F4BC
:103E5000907021680C3141E80002002AF3D100BFC4
:103E600000BF00BF2168143151E8001F21F001009C
:103E70002168143141E80002002AF3D100BF20205C
:103E800084F83E000020206300BF00BF21680C3191
:103E900051E8001F21F0100021680C3141E80002B8
:103EA000002AF3D100BF41462046FFF7A6FEC1E637
:103EB00005F0800030B106F0800018B1204601F016
:103EC0008FFAB7E605F0400030B106F0400018B1B7
:103ED000204601F0E3F8ADE600BFABE61D50000858
:103EE00010B504460CB9012010BDA06900B100E076
:103EF00000BF94F83D0028B9002084F83C0020461B
:103F000000F028F8242084F83D002068C06820F4E0
:103F100000502168C860204601F04CF92068006913
:103F200020F49040216808612068406920F02A0050
:103F3000216848612068C06840F400502168C8606A
:103F400000202064202084F83D0084F83E000020FA
:103F5000CAE7000010B586B00446142101A8FCF79A
:103F6000CEFA6F49206888425BD100BF00200090E4
:103F70006C48006840F480206A4908600846006880
:103F800000F48020009000BF00BF00BF0020009020
:103F900064481038006840F0040062491039086035
:103FA0000846006800F00400009000BF00BF4FF416
:103FB00040600190022002900020039003200490B2
:103FC0000720059001A95848FDF7F4FD57485849C6
:103FD00008604FF000604860002155488160C16072
:103FE0004FF4806101610021416181614FF4807172
:103FF000C1614FF44031016200214162FDF740FD93
:1040000008B1FCF7A3FE00BF4948A063846300BF6A
:10401000002205212720FDF787FF2720FDF774FFE9
:104020007CE044492068884278D100BF002000909D
:104030003C48001D006840F020003A49091D086016
:104040000846006800F02000009000BF00BF00BFDD
:104050000020009033481038006840F0400031499B
:10406000103908600846006800F04000009000BF6A
:1040700000BF4FF484400190022002900020039082
:10408000032004900820059001A92B48FDF792FD1C
:104090002A482B4908608005486000212848816033
:1040A000C1604FF4806101610021416181614FF481
:1040B0008071C161002101624162FDF7E1FC08B13C
:1040C000FCF744FE00BF1E48A063846300BF1B488A
:1040D00078301C4908604FF0206048604021194842
:1040E00081600021C1604FF4806101610021416164
:1040F0008161C16101624162FDF7C2FC08B1FCF758
:1041000025FE00BF0F486063846300BF00220521C5
:104110004720FDF709FF4720FDF7F6FE06B010BD6A
:104120000048004040380240000802402860024039
:10413000400600200014014000180240286402409C
:10414000A0060020000700207047704700BFFEE770
:1041500010B58EB0044605F061FCFCF76BFAFCF775
:104160008FFA05F08FFA1C220E4907A8FCF773F9A5
:10417000002107A804F029FF0B4908601C22094907
:104180001C316846FCF767F90021684604F01DFF02
:10419000064908600648006805F086FD05F068FCE1
:1041A0000EB010BD0CA400080C000020140000206C
:1041B0000400002030B50B46002100BF16E00A24A1
:1041C000B4EB107F05D9302404EB107403F81140D0
:1041D00005E0412404EB10740A3C03F8114000018F
:1041E00000254C00641C1D554C1CE1B29142E6DBDD
:1041F00030BD000010B50F480F490860032048602B
:1042000000210D488160C1604FF4102101614FF41D
:104210000011416100210176012141768176002162
:10422000C17601774177FDF7E6F808B1FCF78EFD1E
:1042300010BD0000006400400804002010B50F48C5
:104240000F4908600320486000210D488160C1606B
:104250004FF4102101614FF40011416100210176FA
:104260000121417681760021C17601774177FDF702
:10427000C2F808B1FCF76AFD10BD000000680040FC
:104280003004002008B500BF0020009022480068DC
:1042900040F48000204908600846006800F480006F
:1042A000009000BF00BF00BF0020009008460068DB
:1042B00040F4001008600846006800F40010009008
:1042C00000BF00BF002205210C20FDF72DFE0C20B1
:1042D000FDF71AFE002205213820FDF725FE3820C3
:1042E000FDF712FE002205213920FDF71DFE3920C1
:1042F000FDF70AFE002205213B20FDF715FE3B20BD
:10430000FDF702FE002205214520FDF70DFE4520A8
:10431000FDF7FAFD08BD00003038024000B58FB04F
:104320001C220C4908A8FCF796F8002108A804F004
:104330004CFE094908601C2206491C3101A8FCF703
:104340008AF8002101A804F040FE044908600FB07B
:1043500000BD0000D4A300080000002004000020DD
:1043600000B587B0142102A8FCF7C9F800BF0020EF
:1043700001905A48006840F0020058490860084619
:10438000006800F00200019000BF00BF00BF0020E5
:1043900001900846006840F0400008600846006848
:1043A00000F04000019000BF00BF00BF002001905E
:1043B0000846006840F0010008600846006800F008
:1043C0000100019000BF00BF00BF0020019008461F
:1043D000006840F0080008600846006800F0080027
:1043E000019000BF00BF00BF002001900846006898
:1043F00040F0040008600846006800F004000190E6
:1044000000BF00BF00BF002001900846006840F0D8
:10441000800008600846006800F08000019000BF3E
:1044200000BF00BF002001900846006840F0200057
:1044300008600846006800F02000019000BF00BF3F
:10444000012289152648FDF7AFFC012210212548DD
:10445000FDF7AAFC012211462348FDF7A5FC4FF405
:10446000807002900120039000200490059002A922
:104470001B48FDF79FFB1020029001200390049041
:104480000220059002A91748FDF794FB3020029006
:104490004FF4041003900120049002A91048FDF786
:1044A00089FB01200290039004900220059002A94C
:1044B0000D48FDF77FFB002205210A20FDF734FDA2
:1044C0000A20FDF721FD002205211720FDF72CFD14
:1044D0001720FDF719FD07B000BD0000303802407D
:1044E00000080240000002400004024010B50F48DE
:1044F0000F4908604FF48270486000210C488160C9
:10450000C1600221016101214161490281611021E3
:10451000C16100210162416281620A21C162FEF72C
:10452000EBFF08B1FCF712FC10BD000000300140A9
:104530005804002000B587B01C216846FBF7DFFF58
:1045400016481749086040F2473048600021144877
:10455000816040F2CF71C160002101618161FFF78C
:10456000DDF808B1FCF7F2FB0D48FFF704FB08B1DA
:10457000FCF7ECFB6020009000200190029004907A
:10458000002269460648FFF774FA08B1FCF7DEFB23
:104590000348FFF73BFA07B000BD000000440140AC
:1045A0007005002010B50B480B4908600B484860A7
:1045B000002109488160C1604FF4806101610C21D4
:1045C000416100218161C161FFF78AFC08B1FCF7FC
:1045D000BDFB10BD00480040B8050020A0860100CA
:1045E00010B50B480B4908604FF4E13048600021DA
:1045F00008488160C16001610C2141610021816135
:10460000C161FFF76DFC08B1FCF7A0FB10BD000015
:1046100000140140FC05002010B500220D490E4891
:1046200001F05FFD08B1FCF791FB0C490A4802F06C
:104630008DF808B1FCF78AFB0949074801F092F9A7
:1046400008B1FCF783FB044802F082F908B1FCF7DB
:104650007DFB10BD480000204011002034010020E7
:104660009800002000BFFEE700BFFEE710B502483B
:10467000FDF78AFE10BD00001C2600202DE9F04742
:1046800004460D4626683746D6F8408007F5306068
:1046900000EB4510D0F80890104880450BD909F47C
:1046A0000040B0F5004F06D14FF4004107F53060EF
:1046B00000EB451081602046FEF725FB074880454A
:1046C00008D92069012805D104F2C44201212068DB
:1046D00002F0D4FE0020BDE8F08700000A30544FFD
:1046E0002DE9F04705460C46D5F800904E46D9F81E
:1046F00040A006F5306000EB4410D0F8088028692F
:10470000012855D108F0080008280FD143488245F8
:104710000BD908F40040B0F5004F7BD14FF40041B5
:1047200006F5306000EB4410816073E008F0200073
:10473000202806D1202106F5306000EB441081606E
:1047400068E008F02800002864D1344882450CD97C
:1047500008F40040B0F5004F07D14FF4004106F5D2
:10476000306000EB4410816054E004EBC40105F5B7
:104770001F7000EB810706F5306000EB4410F9690B
:104780000069C0F31200081A386264B9B86930B918
:1047900005F2C4420121286802F070FE03E0396A84
:1047A000386908443861E1B22846FDF753FC31E02E
:1047B0001B4882451BD108F40040B0F5004F07D1DB
:1047C0004FF4004106F5306000EB4410816021E0B9
:1047D00008F02000202805D1202106F5306000EBEC
:1047E00044108160E1B22846FDF734FC12E06CB958
:1047F00004EBC40105F51F7000EB8100806928B946
:1048000005F2C4420021286802F038FEE1B22846D1
:10481000FDF720FC0020BDE8F08700000A30544F6F
:104820000A31544F2DE9F84F07460E46D7F800904D
:10483000C84606EBC60107F13C0000EB8104A16904
:10484000206A884202D90120BDE8F88F216AA06958
:10485000451AE068A84200D2E568E81C4FEA900AD1
:1048600017E0216AA069451AE068A84200D2E5680D
:10487000E81C4FEA900A387CABB2F2B2009048468E
:10488000216903F08DFA206928442061206A2844B8
:10489000206208F5106000EB4610806980B2504538
:1048A00006D3A169206A884202D2A0690028D8D123
:1048B000216AA06988420ED806F00F01012000FA93
:1048C00001FB40F6340050F8080020EA0B0040F6E7
:1048D000340141F808000020B6E710B52DED028B39
:1048E0000446B0EE408AF0EE608A18EE100AE060EE
:1048F000B4F8480000F4807010B1204604F066F966
:1049000018EE900AA061E06800EE100AA06900EEBF
:10491000900A30EE600A10EE100AE063E06B00EEE1
:10492000100A206C00EE900A30EE600A10EE100AB9
:104930002063E06B00EE100AB5EEC00AF1EE10FA4B
:1049400003DDE06B00EE100A04E0E06B00EE100AFD
:10495000B1EE400A206D00EE900AB4EEE00AF1EEEE
:1049600010FA7DDDE06B00EE100A206800EE900A80
:1049700020EE200A10EE100A2062E06900EE100A14
:10498000E06B00EE900A30EE200A10EE100AE061B3
:1049900094F8480000F0080018B1204604F078F8B8
:1049A0000AE0A06800EE100A206B00EE900A20EEEC
:1049B000200A10EE100AA06294F8480000F02000CF
:1049C00010B12046FBF726FF94F8480000F00200E3
:1049D00010B1204604F096F8606800EE100AE06915
:1049E00000EE900A20EE200A10EE100A606294F8A1
:1049F000480000F0100010B1204604F0C9F894F807
:104A0000480000F0800048B1A06A00EE100A04F1EE
:104A1000680004F03BF910EE100AA062206A00EE74
:104A2000100A606A00EE900A70EE200AA06A00EE9A
:104A3000100A30EE800A10EE100AE06294F8480086
:104A400000F0400048B1E06A00EE100A04F178007E
:104A500004F01CF910EE100AE06294F8480000E03F
:104A600006E000F0040030B1204604F06EF802E0E9
:104A7000204604F0D9FAA0696061E0682061206BEB
:104A80006063E06B2064E06A00EE100ABDEC028B0C
:104A900010BD70B52DED048B0446B0EE408AF0EEEB
:104AA000608AB0EE419A0D4690212046FBF705FD45
:104AB0000020C4F88C0018EE100A206018EE900A4E
:104AC000606019EE100AA060A564BDEC048B70BD97
:104AD00010291CD008DC09293DD2DFE801F00F3392
:104AE000103C1F3C3C3C1400202920D0402919D008
:104AF000802923D0B1F5807F2DD127E0704710EEBB
:104B0000102AC264FAE710EE102A4266F6E710EEA9
:104B1000102A426510EE902A8265EFE710EE102A07
:104B20004264EBE710EE102AC0F88420E6E710EEAE
:104B3000102AC26510EE902A0266DFE710EE102AF6
:104B40004267DBE710EE102A0265D7E710EE102A65
:104B5000C0F88820D2E700BFD0E7000010B5234B93
:104B60001B685B6943F04003204C246863611F4B62
:104B70001B68DB6843F010031C4C2468E3601C4B8B
:104B80001B681B6823F00103194C2468236007E0AD
:104B9000174B1B681B6823F00103154C2468236026
:104BA000134B1B681B6803F00103002BF0D1114B62
:104BB0000F4C2468A3600E4B1B68D8600C4B1B681D
:104BC00019610B4B1B685A60094B1B681B6843F447
:104BD0008023074C24682360054B1B681B6843F047
:104BE0000103034C2468236010BD0000B8050020B9
:104BF000400600200448004030B501460A461378BC
:104C0000521C147843EA042030BD000005F0B0FACD
:104C10000349086003E00121014804F0DBFFFAE7E3
:104C20001C000020FFF7F8FC00BF012004F0BCF9D5
:104C3000FBE7000010B500BF502080F31188BFF3E0
:104C40004F8FBFF36F8F00BF05F098FA18B14FF088
:104C500080500449086000BF002080F3118800BF25
:104C600010BD000004ED00E000B593B0302107A8AE
:104C7000FBF745FC142102A8FBF741FC00BF002014
:104C800001902448006840F080502249086008469E
:104C9000006800F08050019000BF00BF00BF0020FE
:104CA00001901D48006840F480401B490860084698
:104CB000006800F48040019000BF00BF0120079011
:104CC0000004089002200D9041050E9106210F91DD
:104CD000A8211091022111910721129107A8FEF736
:104CE000BDF908B1FCF732F80F20029002200390C2
:104CF000002004904FF4A05005904FF4805006908F
:104D0000052102A8FEF748F808B1FCF71FF813B018
:104D100000BD0000403802400070004003480068B9
:104D200040F47000014908607047000088ED00E021
:104D300010B50348FEF79FFD0248FEF79CFD10BD2D
:104D4000600700207005002010B50268294B9842CA
:104D50000ED0B0F1804F0BD0274B984208D0274B94
:104D6000984205D0264B984202D0264B984203D158
:104D700022F070024B681A431E4B984220D0B0F1CB
:104D8000804F1DD01C4B98421AD01C4B984217D014
:104D90001B4B984214D01B4B984211D01A4B98428F
:104DA0000ED01A4B98420BD0194B984208D0194B91
:104DB000984205D0184B984202D0184B984203D124
:104DC00022F44072CB681A4322F080034C6943EA14
:104DD000040202608B68C3620B688362054B9842D1
:104DE00002D0084B984201D10B6903630123436150
:104DF00010BD000000000140000400400008004019
:104E0000000C00400004014000400140004401400B
:104E10000048014000180040001C004000200040F5
:104E200030B5056A25F001050562026A43688469A8
:104E300024F0700424F003040D682C4322F00202D5
:104E40008D682A43104DA84200D103E00F4DA842BF
:104E500006D100BF22F00802CD682A4322F00402E6
:104E6000094DA84202D0094DA84207D123F480730E
:104E700023F400734D692B438D692B434360846198
:104E80004D684563026230BD0000014000040140EE
:104E900030B5056A25F010050562026A4368846929
:104EA00024F4E04424F440740D6844EA052422F01C
:104EB00020028D6842EA0512124DA84200D103E09B
:104EC000114DA84207D100BF22F08002CD6842EA0E
:104ED000051222F040020B4DA84202D00A4DA84212
:104EE00009D123F4806323F400634D6943EA850309
:104EF0008D6943EA8503436084614D68856302627E
:104F000030BD0000000001400004014030B5056ADA
:104F100025F480750562026A4368C46924F0700450
:104F200024F003040D682C4322F400728D6842EAD9
:104F30000522124DA84200D103E0114DA84207D12D
:104F400000BF22F40062CD6842EA052222F48062AA
:104F50000A4DA84202D00A4DA84209D123F4805339
:104F600023F400534D6943EA05138D6943EA0513A1
:104F70004360C4614D68C563026230BD00000140FA
:104F80000004014030B5056A25F480550562036AC6
:104F90004468C26922F4E04222F440720D6842EA99
:104FA000052223F400538D6843EA0533084DA842D7
:104FB00002D0084DA84204D124F480444D6944EA4B
:104FC00085144460C2614D680564036230BD000011
:104FD000000001400004014008B50F48FBF780FCC9
:104FE00018E005F0C5F8009004F018FD0A48FBF73A
:104FF0009BFD094CB4F94830B4F93820B4F92810B5
:10500000B4F9180002F0B2FF04F032FD0221684644
:1050100004F0E0FDE5E70000E007002070B505467C
:10502000AC6B0020E085E0842046FEF7E7FD70BD14
:1050300000BF00BF02680C3252E8002F22F49071CA
:1050400002680C3242E80013002BF3D100BF00BF0E
:1050500000BF0268143252E8002F22F001010268FA
:10506000143242E80013002BF3D100BF016B012979
:105070000ED100BF00BF02680C3252E8002F22F0B0
:10508000100102680C3242E80013002BF3D100BF7C
:10509000202180F83E1000210163704710B50446BE
:1050A0002068C06820F040002168C860202084F893
:1050B0003D002046FFF749F8002010BDF8B5044632
:1050C00094F83E00222873D1A068B0F5805F0CD11F
:1050D000206950B90025A66A20684068C0F308001E
:1050E0003080A06A801CA06215E0A56A0026A06836
:1050F000B0F5805F03D0A06828B9206918B920688E
:105100004068287004E02068406800F07F00287044
:10511000A06A401CA062E08D401E80B2E08500289D
:1051200044D12068C06820F020002168C860206851
:10513000C06820F480702168C8602068406920F051
:10514000010021684861202084F83E00206B01287E
:1051500026D10020206300BF00BF21680C3151E838
:10516000001F21F0100021680C3141E80002002AE4
:10517000F3D100BF2068006800F0100010280AD1A9
:1051800000BF002000902068006800902068406800
:10519000009000BF00BFA18D2046FEF72EFD02E06B
:1051A0002046FEF7D1FF0020F8BD01E00020FBE71C
:1051B0000220F9E72DE9F84F04462068006920F441
:1051C0004050E1680843216808612169A0680843EC
:1051D00061690843E169084300902068C06849F2AA
:1051E0000C618843009908432168C86020684069C1
:1051F00020F44070A169084321684861764920681D
:10520000884203D075492068884203D1FDF7BEFE6D
:10521000814602E0FDF7AAFE8146E069B0F5004F45
:105220006CD102206168A0FB015003461920A9FB44
:10523000007001462A463846FBF796F86421B0FB19
:10524000F1F04FEA001A02206168A0FB01510B4601
:105250001920A9FB00712A463846FBF785F88346DA
:1052600002206168A0FB015003461920A9FB0071D0
:105270002A463846FBF778F86421B0FBF1F000EBE2
:10528000C00101EB0010ABEB8000322101EBC0004C
:105290006421B0FBF1F000F0F8000AEB400A0220B4
:1052A0006168A0FB015003461920A9FB007001466C
:1052B0002A463846FBF758F8834602206168A0FB6F
:1052C000015003461920A9FB00712A463846FBF716
:1052D0004BF86421B0FBF1F000EBC00101EB0010D2
:1052E000ABEB8000322101EBC0006421B0FBF1F098
:1052F00000F007005044216888606AE0042061687B
:10530000A0FB015003461920A9FB007001462A4664
:105310003846FBF729F8824604206168A0FB01505B
:1053200003461920A9FB007001462A463846FBF7C0
:105330001BF86421B0FBF1F000EBC00101EB0010A1
:10534000AAEB8000322101EB00106421B0FBF1F0E8
:1053500000F0F00A04206168A0FB017003461920E8
:10536000A9FB00513A462846FAF7FEFF6421B0FB3C
:10537000F1F00AEB001A04206168A0FB01510B4612
:105380001920A9FB00712A463846FAF7EDFF83463B
:1053900004206168A0FB015003461920A9FB00709E
:1053A00001462A463846FAF7DFFF6421B0FBF1F0E8
:1053B00000EBC00101EB0010ABEB8000322101EBF0
:1053C00000106421B0FBF1F000F00F0050442168A0
:1053D0008860BDE8F88F0000001001400014014013
:1053E000014691F83D00212828D18868B0F5805FFA
:1053F0000BD1086948B90A6A1088C0F308000B6825
:105400005860086A801C086205E00B6A581C086234
:1054100018780B685860C88C401E80B2C88458B990
:105420000868C06820F080000B68D8600868C06811
:1054300040F040000B68D860002070470220FCE775
:1054400010B5034802F0CEFC0148FEF7D9FB10BDB1
:10545000B805002010B50248FEF7D2FB10BD0000D1
:10546000FC0500202DE9F04104460D46D4F8C87231
:1054700004F53070D4F8D41250F8210010B903208C
:10548000BDE8F08104F53070D4F8D41250F82160F2
:1054900005F00F0000EB800104F1140000EB810027
:1054A000406838B305F00F0000EB800104F11400F0
:1054B00000EB8100416805F00F0000EBC00207F12E
:1054C0003C0000EB8200C068B1FBF0F200FB121060
:1054D00080B9002105F00F0000EB800204F11400F8
:1054E00000EB8200416000231A462946204601F065
:1054F000FAF817E00020C6F8140204F53170D4F869
:10550000D41250F82100006960B1D6F8080204F501
:105510003171D4F8D42251F822102A460B6906F5CD
:10552000047198470020ABE770B504460E4604F5B9
:105530003070D4F8D41250F82150D4F8D41250F866
:10554000210008B9032070BD3146204600F027FF36
:10555000C5F80C02D5F8040204F53171D4F8D43240
:1055600051F82310CA6805F5037190470020EAE757
:1055700070B504460D4630480178204600F0E1FD44
:1055800000212D48007800F00F0000EB800204F1AC
:10559000140000EB8200018228480178204600F0C8
:1055A000D0FD00212548007800F00F0000EB8002BC
:1055B00004F5AA7000EB82000182214801782046A0
:1055C00000F0BFFD00211E48007800F00F0000EB46
:1055D000800204F1140000EB820001821848007878
:1055E00000F00F0000EB800204F1140000EB8200D9
:1055F000418204F53070D4F8D41250F82100C8B1BB
:1056000004F53171D4F8D42251F82210486880474B
:1056100004F53071D4F8D42251F8220001F08CFB4B
:10562000002104F53070D4F8D42240F82210002074
:10563000C4F8BC02002070BDAF010020B001002002
:10564000B101002070B5044604F53070D4F8D412CE
:1056500050F821500DB9032070BD04F53170D4F815
:10566000D41250F8210098B195F80002FF280FD00D
:1056700095F8012295F8000204F53171D4F8D4624E
:1056800051F826108B6829469847FF2085F80002BC
:105690000020E1E701460A20088001487047000029
:1056A000280100202DE9F041044682210D4800F038
:1056B0006EFC054601210B4800F069FC064681217D
:1056C000084800F064FC07460DB11020A8710EB127
:1056D0004020B0800FB14020B88043202080014896
:1056E000BDE8F0816C0100202DE9F04104468221E3
:1056F0000E4800F04CFC054601210C4800F047FC28
:1057000006468121094800F042FC07460DB11020F1
:10571000A87116B14FF40070B08017B14FF400704B
:10572000B880432020800148BDE8F0816C01002052
:105730002DE9F041044682210D4800F028FC054681
:1057400001210B4800F023FC06468121084800F0A7
:105750001EFC07460DB11020A8710EB14020B0808C
:105760000FB14020B880432020800148BDE8F0817F
:105770006C01002070B504460E464FF4077001F02E
:10578000DDFA054645B9002104F53070D4F8D4227D
:1057900040F82210022070BD4FF407712846FAF736
:1057A000AEFE04F53070D4F8D41240F82150D4F88D
:1057B000D41250F82100C4F8BC02207C98BB4FF4EE
:1057C0000073022250480178204600F089FE012132
:1057D0004D48007800F00F0000EB800204F1140047
:1057E00000EB820001824B020222484801782046E9
:1057F00000F076FE01214548007800F00F0000EB34
:10580000800204F5AA7000EB82000182102140485A
:10581000007800F00F0000EB800204F1140000EBB0
:105820008200418232E0FFE74023022236480178BD
:10583000204600F055FE01213348007800F00F00AB
:1058400000EB800204F1140000EB8200018240238F
:1058500002222E480178204600F042FE01212B480A
:10586000007800F00F0000EB800204F5AA7000EB56
:105870008200018210212648007800F00F0000EB22
:10588000800204F1140000EB82004182082303220D
:105890001F480178204600F023FE01211C480078B3
:1058A00000F00F0000EB800204F1140000EB820016
:1058B00001820020C5F8040204F53171D4F8D42225
:1058C00051F82210086880470020C5F81402C5F876
:1058D0001802D5F8040208B902205CE7207C48B918
:1058E0004FF40073094801782046D5F8042200F0EF
:1058F0000FFE07E04023054801782046D5F8042232
:1059000000F006FE002046E7AF010020B0010020B5
:10591000B101002070B5044604F53070D4F8D412FB
:1059200050F82150D4F8D41250F8210008B90320BF
:1059300070BD207C48B94FF40073094801782046B7
:10594000D5F8042200F0E4FD07E040230448017884
:105950002046D5F8042200F0DBFD0020E8E7000037
:10596000B0010020024609B90320704702F53170EA
:10597000D2F8D43240F823100020F6E710B50246E2
:1059800002F53070D2F8D44250F824300BB903201D
:1059900010BDC3F804120020FAE730B503460C46E8
:1059A00003F53070D3F8D45250F8251009B903200C
:1059B00030BDC1F80842C1F810220020F8E72DE9F7
:1059C000FC4105460C4605F53070D5F8D41250F868
:1059D0002160002001900090804616B90320BDE8A8
:1059E000FC81207800F0600000283DD020287CD188
:1059F000E08868B3207800F08000B8B1E288607871
:105A000005F53171D5F8D4C251F82C108B683146A8
:105A10009847E088072801D9072000E0E08807467A
:105A20003A463146284600F0E2F81CE0607886F8F5
:105A30000002E088402801D2E08800E0402086F89B
:105A4000010296F801223146284600F0AFF80AE03C
:105A5000607805F53171D5F8D42251F82210002272
:105A60008B682146984747E0607830B1012832D0F2
:105A70000A2813D00B282FD121E095F89C02032887
:105A800005D102226946284600F0B1F805E021461A
:105A9000284600F07FF84FF0030824E095F89C02B8
:105AA000032805D1012201A9284600F0A0F805E04D
:105AB0002146284600F06EF84FF0030813E095F8F1
:105AC0009C02032805D02146284600F063F84FF0D9
:105AD000030808E009E006E02146284600F05AF8ED
