:020000040800F2
:10000000E8BD00203103000881800008D5560008B3
:10001000757F00088716000809A500080000000089
:100020000000000000000000000000007102000855
:100030001127000800000000CD020008699A00089E
:100040004B0300084B0300084B0300084B03000858
:100050004B0300084B0300084B0300084B03000848
:100060004B0300084B030008992700084B030008C6
:10007000712300084B0300084B0300084B030008E2
:100080004B0300084B0300084B0300084B03000818
:100090008D1600084B0300084B030008A327000837
:1000A0004B030008659B00084B0300084B03000846
:1000B0004B0300084B0300084B0300084B030008E8
:1000C0004B0300084B0300084B0300084B030008D8
:1000D0004B0300084B0300084B030008E1A4000891
:1000E0004B0300084B0300084B0300084B030008B8
:1000F0004B0300084B0300084B0300084B030008A8
:100100004B0300084B0300084B0300084B03000897
:100110004B0300084B0300084B0300084B03000887
:1001200081230008912300084B030008A123000845
:100130004B0300084B0300084B0300084B03000867
:10014000D91600084B0300084B0300084B030008B6
:100150004B030008B12300084B030008F5A4000876
:100160004B0300084B0300084B0300084B03000837
:100170004B0300084B0300084B030008000000007D
:100180004B0300084B03000800F002F800F060F891
:100190000AA090E8000C82448344AAF10107DA45E2
:1001A00001D100F055F8AFF2090EBAE80F0013F0D4
:1001B000010F18BFFB1A43F00103184704FE0000AB
:1001C00024FE00000A444FF0000C10F8013B13F02D
:1001D000070408BF10F8014B1D1108BF10F8015BA0
:1001E000641E05D010F8016B641E01F8016BF9D193
:1001F00013F0080F1EBF10F8014BAD1C0C1B09D1EA
:100200006D1E58BF01F801CBFAD505E014F8016B5B
:1002100001F8016B6D1EF9D59142D6D370470000ED
:100220000023002400250026103A28BF78C1FBD8FF
:10023000520728BF30C148BF0B6070471FB50EF092
:1002400001F99DE8030000F045FA1FBD10B510BD8F
:1002500000F0D2FA1146FFF7F1FF0CF011FC00F0AC
:10026000F0FA03B4FFF7F2FF03BC00F021FB00003B
:100270002C4B19680868B0E8F04F80F30988BFF389
:100280006F8F4FF0000080F311887047000000006E
:1002900008480068006880F308884FF0000080F389
:1002A000148862B661B6BFF34F8FBFF36F8F00DF64
:1002B00000BF00BF08ED00E0DFF80C00016841F46A
:1002C00070010160704700BF88ED00E0EFF3098026
:1002D000BFF36F8F134B1A681EF0100F08BF20ED8D
:1002E000108A20E9F04F106009B44FF0500080F3FD
:1002F0001188BFF34F8FBFF36F8F0DF0C9FD4FF023
:10030000000080F3118809BC19680868B0E8F04F54
:100310001EF0100F08BFB0EC108A80F30988BFF3FD
:100320006F8F704730020020EFF3058070470000A8
:100330000948804709480047FEE7FEE7FEE7FEE779
:10034000FEE7FEE7FEE7FEE7FEE7FEE704480549B5
:10035000054A064B70470000519B000889010008C0
:10036000E87D0020E8BD0020E89D0020E89D0020F9
:1003700070B5064600F092F9056806F10B0020F012
:100380000704B4429CBF002070BD2B466A68BAB116
:100390001068A04210D304F1080188423CBF5068A5
:1003A000586007D35168101941601168091B01603A
:1003B00058601460101D70BD13465268002AE7D1C2
:1003C0002146284600F072F90028DED170BD53EABC
:1003D000020C00F069802DE9F04B4FF00006002B75
:1003E0001FBFB3FA83F503FA05F424FA05F65E405D
:1003F00012BF1643B2FA82F502FA05F4C5F12005E0
:100400001EBF22FA05FC44EA0C04203556EA044CCF
:100410004FEA144418BF641C4FF000084FF0000965
:10042000904271EB030C39D3002919BFB1FA81F75F
:1004300001FA07F6B0FA80F700FA07F6C7F12007CD
:100440001EBF20FA07FC46EA0C062037B6FBF4FC78
:10045000A7EB0507103F07F01F0BCBF120060CFAA6
:100460000BFB2CFA06F644BFB3460026202FA4BF90
:100470005E464FF0000B5BEA060C08BF4FF0010B25
:1004800019EB0B09ABFB027C48EB0608C01B06FB13
:1004900002CC0BFB03CC71EB0C01C1E70B4602460F
:1004A00041464846BDE8F08B13B54FF000004FF0D1
:1004B0000001AFF30080BDE81C40704740EA010333
:1004C00010B59B070FD1042A0DD310C808C9121FFD
:1004D0009C42F8D020BA19BA884201D9012010BD37
:1004E0004FF0FF3010BD1AB1D30703D0521C07E004
:1004F000002010BD10F8013B11F8014B1B1B07D168
:1005000010F8013B11F8014B1B1B01D1921EF1D1D8
:10051000184610BD032A40F2308010F0030C00F0A2
:10052000158011F8013BBCF1020F624498BF11F82D
:1005300001CB00F8013B38BF11F8013BA2F10402E6
:1005400098BF00F801CB38BF00F8013B11F003035E
:1005500000F02580083AC0F0088051F8043B083AC2
:1005600051F804CBA0E80810F5E7121D5CBF51F864
:10057000043B40F8043BAFF30080D20724BF11F8DE
:10058000013B11F801CB48BF11F8012B24BF00F843
:10059000013B00F801CB48BF00F8012B704710B5B4
:1005A000203AC0F00B80B1E81850203AA0E818506B
:1005B000B1E81850A0E81850BFF4F5AF5FEA027C2C
:1005C00024BFB1E81850A0E8185044BF18C918C09B
:1005D000BDE810405FEA827C24BF51F8043B40F83C
:1005E000043B08BF7047D20728BF31F8023B48BF21
:1005F00011F8012B28BF20F8023B48BF00F8012B5F
:1006000070474FF000020429C0F0128010F0030C74
:1006100000F01B80CCF1040CBCF1020F18BF00F8F5
:10062000012BA8BF20F8022BA1EB0C0100F00DB8A4
:100630005FEAC17C24BF00F8012B00F8012B48BF02
:1006400000F8012B70474FF0000200B513469446A6
:100650009646203922BFA0E80C50A0E80C50B1F11A
:100660002001BFF4F7AF090728BFA0E80C5048BF2E
:100670000CC05DF804EB890028BF40F8042B08BFCC
:10068000704748BF20F8022B11F0804F18BF00F8C8
:10069000012B704770477047704700000048704753
:1006A0008C7D0020704770477047704738B504460E
:1006B0000A4600206946AFF30080002808BF38BD15
:1006C00002460099204600F075F8012038BD01204F
:1006D00000F08AB8F8B5AFF30080054600200C465C
:1006E000102000BF0646A819A0420DD9324669461F
:1006F0000020AFF30080070008BF00F075F80098F5
:10070000A04218BF0546C419FFF7C8FF0560074699
:10071000F01D20F007004619284600F00AF8B44200
:1007200008BFF8BDA21B31463868BDE8F84000F0AC
:1007300041B800210160C0E90110704710207047E6
:1007400070B50446051FFFF7A9FF0068002C14BF11
:10075000446870BD002C18BFAC423CBF20466468A2
:10076000F8D301680A18AA4218BF456003D12A6865
:1007700005461144016028684119A1421CBF6C6004
:1007800070BD6168696021680844286070BD10B55B
:1007900000F00CF8006810BD10B5044600F006F833
:1007A000046010BD00487047847D002000487047F9
:1007B000847D0020034640688C46002818BF88428C
:1007C0003CBF03464068F8D318681844884207D0F5
:1007D0000CF1030020F00700001D411A521A0146D7
:1007E000081D0A60FFF7ACBF10B500F039F8BDE88E
:1007F000104000F02FB870477546FFF7D3FFAE46A4
:1008000005006946534620F00700854618B020B51C
:10081000FFF79CFDBDE820404FF000064FF00007B9
:100820004FF000084FF0000B21F00701AC46ACE898
:10083000C009ACE8C009ACE8C009ACE8C0098D4605
:10084000704710B50446AFF300802046BDE8104065
:10085000FFF707BD002801D000F02AB8704700005C
:1008600010B5012805D0002103A000F027F80120D1
:1008700010BD09A1F8E7000053494752544D454DBA
:100880003A204F7574206F662068656170206D6531
:100890006D6F7279000000003A2048656170206D2C
:1008A000656D6F727920636F727275707465640024
:1008B00001491820ABBEFEE72600020070B50546D0
:1008C0000C460A2000E06D1C00F011F835B12878C4
:1008D0000028F8D102E0641C00F009F814B1207877
:1008E0000028F8D1BDE870400A20AFF3008008B5B9
:1008F00069468DF800000320ABBE08BD9FED241AA9
:10090000B5EE002A4FF2BC730021B7EE004AC0F6E4
:10091000000320EE010A30EE020ABDEEC01AB5EE69
:10092000C00A11EE100AF1EE10FA9FED1A1AB8BFC4
:10093000013802EE100AB8EEC22A30EE420A9FEDEC
:10094000162A20EE010ABDEEC01A11EE100A30EE92
:10095000021A0246B1EB502F18BF002202EE102AF5
:1009600003EB8203B1EB502F18BFB0EE410AB8EE93
:10097000421A93ED002A93ED013A30EE410A34EE2B
:10098000401A20EE030A21EE021A31EE000A7047E7
:1009900083F9223E00000044000000C480B5B0F896
:1009A00000E00B889E4555D1B0F802C04B889C45AD
:1009B00050D113889E454DD153889C454AD15268E9
:1009C000496840680CFB0EFC0023B3EB9C0F2BD056
:1009D0004FEA9C035B4200BF91ED000A90ED001AC4
:1009E000013331EE000A82ED000A91ED010A90ED2B
:1009F000011A31EE000A82ED010A91ED020A90ED32
:100A0000021A31EE000A82ED020A91ED030A90ED1E
:100A1000031A01F1100100F1100031EE000A82ED1D
:100A2000030A02F11002D7D11CF0030310D05B427D
:100A300091ED000A90ED001A013301F1040100F17B
:100A4000040031EE000A82ED000A02F10402EFD147
:100A5000002000E0FD2040B280BD43604280018064
:100A6000704700002DE9F04F8BB0B0F802E0B0F80D
:100A700000B0F34540F052810B88FD229B4540F0C9
:100A80004E814F88BB4240F04A814768BBF1000F5E
:100A900000F02C814C686FF00300009700274FF0A6
:100AA0007E595E46CDF81CE000EB8B08204606948C
:100AB000BBEB060008D0B9002046FFF7C4FD0020BC
:100AC000013004348742FBD104F1040A751EC4F8D6
:100AD00000900FD0A8EB87015046FFF7B4FD01202E
:100AE000544600BF013004348642FBD10137002D4B
:100AF0002E46DDD1009FDDF81CE0BBF1000F00F0B9
:100B0000F580042039469FED8A0A07EB8E0C3B1DC9
:100B10004FEA8E05ABF101047746CDF814B000EB37
:100B20008E0089460190CEF100000890002000BFA1
:100B3000584580F0F880069A00FB0EF16646B0EE4C
:100B4000403A02EB810209EB810191ED001A099113
:100B500021460A92B0EE414A07E000BF96ED004AF6
:100B600072190139B0EE423A1646B5EEC04AF1EEBE
:100B700010FA09DDB4EEC34AB0EE442AF1EE10FAE1
:100B8000D8BFB0EE432A08E0B1EE442AB4EEC23A30
:100B9000F1EE10FA01DBB0EE432A0029DED1B5EE0A
:100BA000402AF1EE10FA00F0BE80B0EEC13AB4EE89
:100BB000423AF1EE10FA1CBFC14311EB0B0104D015
:100BC000002100BF01318C42FCD1B5EE401AF1EE9C
:100BD00010FA00F0A880CDE9034CAEEB000C4FF00A
:100BE0007E51099ABCF1010F11600AD001211A4609
:100BF00092ED002A01318F4282EE012AA2EC012AF5
:100C0000F6D108990A9A00BF92ED002A013182EECE
:100C1000012A82ED002A02F10402F5D10599DDF8DE
:100C200018A0ACF1010B4FF000084E46CDF808902B
:100C3000804505D10AEB8E0A06EB8C0638E000BF32
:100C4000099A96ED001ABBF1000F92ED002A21EEF1
:100C5000022A31EE422AA6EC012A16D001220024F3
:100C600003EB040906EB040E0132043499ED002A6B
:100C70009EED003A974221EE022A33EE422A8EED93
:100C8000002AEDD1DDF81CE02644089A0A9C00BF3A
:100C900094ED002A9AED003A013204F1040421EEA9
:100CA000022A33EE422A8AED002A0AF1040AEFD121
:100CB00006EB800608F101080139B9D1039CDDF883
:100CC00008900199DDF810C0DDF814B00130013F43
:100CD0000B448C44A4F1010409F104097FF428AF0A
:100CE000B5EE401A009FF1EE10FA1ED10EFB0BF18B
:100CF0000020002259B100BF97ED000AB5EE400A6E
:100D0000F1EE10FA03D1013204378A42F4D38A4259
:100D100008BF6FF004000BB0BDE8F08FFD2250B2A9
:100D20000BB0BDE8F08FFB22F9E70022F7E700BF28
:100D3000000000002DE9F04F89B046880B889E42E4
:100D400040F08E80058813889D4240F08980B1F87C
:100D500002E053889E4540F0838000234468526837
:100D60004968B7089FED410AA3EB9600089026F06A
:100D70000300029206F00302019104EB800B07FBD3
:100D80000EF001EB00104FEA8E01009050420790E8
:100D9000CDE903E6029806950593DDE900AC00EB8A
:100DA000830800BF002FB0EE401AE14620462FD046
:100DB000089D63462046B0EE401A00BF5E1893EDD2
:100DC000002A90ED003A90ED014A90ED025A90ED24
:100DD000036A1030013596ED007A06EB010323EE2D
:100DE000022A93ED003A0B4431EE021A93ED002AE9
:100DF00024EE074A0B4431EE041A25EE033A31EE95
:100E0000031A26EE022A31EE021AD7D1D1465846ED
:100E10006AB1079D99ED002A90ED003A89440135A9
:100E200000F1040023EE022A31EE021AF2D188ED1D
:100E3000001A0AF1040A0CF1040CBEF1010E08F1CB
:100E40000408AFD1049E069DDDF80CE0059B0BEB7A
:100E5000860B04EB86047344013D9BD1002000E027
:100E6000FD2040B209B0BDE8F08F00BF00000000D7
:100E700080B5B0F800E00B889E4555D1B0F802C0AF
:100E80004B889C4550D113889E454DD153889C4535
:100E90004AD15268496840680CFB0EFC0023B3EB52
:100EA0009C0F2BD04FEA9C035B4200BF91ED000AE0
:100EB00090ED001A013331EE400A82ED000A91ED07
:100EC000010A90ED011A31EE400A82ED010A91ED1E
:100ED000020A90ED021A31EE400A82ED020A91ED0B
:100EE000030A90ED031A01F1100100F1100031EE38
:100EF000400A82ED030A02F11002D7D11CF003036D
:100F000010D05B4291ED000A90ED001A013301F11F
:100F1000040100F1040031EE400A82ED000A02F102
:100F20000402EFD1002000E0FD2040B280BD0000AF
:100F30002DE9F04F82B0B0F800E04B889E454BD1D0
:100F400044880B889C4247D100234E6804F0030B71
:100F500040684FEA0E184FEA940AA3EB9401CBF1D4
:100F6000000901914FEA8E0132460096BAF1000F56
:100F70001CD0019F344600BF2546046801372C6011
:100F800044686C5005EB0104D0F808C044F801C077
:100F90000C44C26800F11000625004EB010202EB45
:100FA0000104E9D105EB080703E000BF009A02EB5A
:100FB0008307BBF1000F07D04D4600BF50F8042B4C
:100FC00001353A600F44F9D10436BEF1010E03F148
:100FD0000103CBD1002000E0FD2040B202B0BDE80B
:100FE000F08F00009FED221A4FF2BC730021B7EE84
:100FF000004AC0F6000320EE010ABDEEC01AB5EEAD
:10100000C00A11EE100AF1EE10FA9FED1A1AB8BFDD
:10101000013802EE100AB8EEC22A30EE420A9FED05
:10102000162A20EE010ABDEEC01A11EE100A30EEAB
:10103000021A0246B1EB502F18BF002202EE102A0E
:1010400003EB8203B1EB502F18BFB0EE410AB8EEAC
:10105000421A93ED002A93ED013A30EE410A34EE44
:10106000401A20EE030A21EE021A31EE000A704700
:1010700083F9223E00000044000000C470B505461C
:101080000C4600260DB1022C00D870BDA11E0648EA
:101090000288284601F0E0FC0646A01E2E54310AC4
:1010A000601E295400BFF0E71400002010B5012293
:1010B0001021024802F074FD10BD00000000024043
:1010C00010B500221021024802F06AFD10BD000098
:1010D0000000024010B501221146024802F060FDF6
:1010E00010BD00000004024010B50022012102489A
:1010F00002F056FD10BD0000000402401CB504467D
:10110000002000900190FFF7DBFF922000F0A2F991
:1011100006226946122000F07DF9FFF7C7FF9DF80F
:101120000100000200B29DF8001008438E490880BB
:101130000846B0F9000000EE100AB8EEC00A8B486D
:10114000D0ED000A20EE200AD4ED080A20EE200A95
:1011500084ED000A9DF80300000200B29DF8021021
:101160000843814908800846B0F9000000EE100AE3
:10117000B8EEC00A7D48D0ED000A20EE200AD4ED7A
:10118000080A20EE200A84ED010A9DF805000002FD
:1011900000B29DF804100843734908800846B0F96E
:1011A000000000EE100AB8EEC00A7048D0ED000A48
:1011B00020EE200AD4ED080A20EE200A84ED020A6F
:1011C000FFF792FF08226946002000F023F9FFF79D
:1011D00081FF9DF800000F284FD165480078E8B3E3
:1011E0009DF80300000200B29DF8021008435E491A
:1011F000088094ED090A0846B0F9000000EE900A54
:10120000F8EEE00A5B4890ED001A10EE810A84EDDA
:10121000030A9DF80500000200B29DF8041008437F
:101220005149088094ED0A0A0846B0F9000000EE22
:10123000900AF8EEE00A4F4890ED001A10EE810A8D
:1012400084ED040A9DF80700000200B29DF8061024
:1012500008434549088094ED0B0A00E00EE008467B
:10126000B0F9000000EE900AF8EEE00A414890ED77
:10127000001A10EE810A84ED050A44E09DF803008F
:10128000000200B29DF80210084337490880084662
:10129000B0F9000000EE100AB8EEC00A3548D0EDF3
:1012A000000A20EE200A84ED030A9DF805000002E2
:1012B00000B29DF8041008432B4908800846B0F995
:1012C000000000EE100AB8EEC00A2A48D0ED000A6D
:1012D00020EE200A84ED040A9DF80700000200B207
:1012E0009DF806100843204908800846B0F9000020
:1012F00000EE100AB8EEC00A1E48D0ED000A20EE3B
:10130000200A84ED050AFFF7DBFEA22000F0A2F818
:1013100002226946222000F07DF8FFF7C7FE9DF803
:101320000000C0009DF8011040EA61100E490880DD
:101330000846B0F90000B0F5806F05DB084600886C
:10134000A0F5006000B208800748B0F9000000EE88
:10135000100AF8EEC00AB4EE001AB3EE070A00EE67
:10136000810A84ED070A1CBDE6000020A8000020C9
:10137000B8000020AC00002070B504460D461C48A3
:10138000046000201B49087009F042FE19490978E1
:1013900008431849087009F0F1FE16490978084316
:1013A000144908701DB1144800F072FA1CE09FED5A
:1013B000130A114880ED090A9FED110A80ED0A0A0F
:1013C0009FED100A80ED0B0A9FED0F0A80ED0C0ACD
:1013D00090ED0C0ADFED0D0A80EE801A80ED081A00
:1013E0009FED0B0A80ED060A0248007870BD0000F0
:1013F000E8000020B2000020943300209A0AB03B9D
:1014000053F92EBBB0ECA9BAB3D61B41C3F51C41AE
:101410000000204270B506460C46154646F0800096
:1014200000F018F806E0552000F014F82070641C55
:10143000681EC5B2002DF6D170BD70B504460D46CC
:1014400044F0800000F006F8552000F003F8287002
:1014500070BD000001B582B04FF47A70012301AA7B
:1014600002A900900348006803F06CF99DF804009D
:101470000EBD0000E800002070B505460C46284669
:10148000FFF7E8FF2046FFF7E5FF70BD70B50446A3
:101490000D4661190F2204F58070FFF73BF80F210C
:1014A00004F5807009F032F801280ED104F5C070FF
:1014B000D4F80721C4F8C021B4F80B11A4F8C41162
:1014C00000214FF4E370015503E001214FF4E37074
:1014D000015570BD024691F82600042802DA91F801
:1014E000270008B900207047B1F92B00904205DAB7
:1014F000D1F82F00401CC1F82F000DE0B1F92B00EE
:101500004042904205DDD1F82F00401CC1F82F0069
:1015100002E00020C1F82F00D1F82F00B1F92D30E2
:10152000984201DD0120DEE70020DCE7D2ED020A6F
:1015300092ED021AB6EE000A00EEC10AD2ED030ADD
:1015400092ED031A00EEC10AD0ED000A20EE200A47
:10155000D2ED010A92ED021A60EE810A92ED001AB4
:10156000D2ED031A41EE610A90ED011A00EE810AF4
:10157000D2ED010A92ED031A60EE810A92ED001A93
:10158000D2ED021A41EE210A90ED021A00EE810A14
:10159000F0EE000A20EE200A81ED000A92ED010A29
:1015A000D2ED020A20EE200AD2ED000A92ED031AD3
:1015B00000EE810AD0ED000A60EE200A92ED011AD9
:1015C000D2ED011AB6EE000A01EE610AD2ED031A5D
:1015D00092ED032AB0EE401A01EEC21AD0ED011AC4
:1015E000B0EE600A01EE210AD2ED020A92ED031A72
:1015F00060EE810A92ED001AD2ED011A41EE610A05
:1016000090ED021A00EE810AF0EE000A20EE200AA8
:1016100081ED010A92ED010AD2ED030A20EE200AC3
:10162000D2ED000A92ED021A00EEC10AD0ED000AD6
:1016300020EE200AD2ED020A92ED031A60EE810A32
:1016400092ED001AD2ED011A41EE210A90ED011A35
:1016500000EE810A92ED011AD2ED011AF6EE000AAF
:1016600041EE610A92ED021AD2ED021A41EE610AD0
:1016700090ED021A00EE810AF0EE000A20EE200A38
:1016800081ED020A704700BFFEE7000010B5024876
:1016900001F03DFC10BD00000805002000B58BB036
:1016A000012009900020079001200890002001905F
:1016B0000290039004900690059001A9054801F05E
:1016C000BBFA044801F0CDFE0221024801F0F4F912
:1016D0000BB000BD0805002010B5024801F017FC52
:1016E00010BD00003005002000B58BB00020079031
:1016F00001200890002001900290039004900E2099
:1017000006900A90002005900120099001A9064842
:1017100001F092FA044801F0A4FE0221024801F00F
:10172000CBF90BB000BD000030050020F8B506462F
:101730000F4615460A2D00DBF8BD681E00EBC00100
:10174000C1EB80102C494418268404F11A00A783A9
:10175000A08B618B401A00B2E083A08B6083607E17
:1017600038B901206076208C6084B4F92000C4F878
:101770000500641CB4F81F20B4F82130D21A10B24E
:10178000B4F9231009F032FC009020680099084455
:1017900020606068009908446060B4F81F00A4F8F5
:1017A00021006068B4F928104843B4F9231090FB75
:1017B000F1F000EE100AB8EEC00A10EE100AA060B8
:1017C0002068B4F928104843B4F9231090FBF1F0D5
:1017D00000EE100AB8EEC00A10EE100A6061641E36
:1017E0002146009800B2FFF775FE84F8280000201B
:1017F000009000BFA0E70000A808002070B50446D4
:101800000D466119182204F58070FEF783FE182139
:1018100004F5807008F07AFE01280BD10F2204F243
:10182000071104F5EE70FEF775FE002140F2EB1093
:10183000015503E0012140F2EB10015570BD70B578
:1018400004460D466119132204F58070FEF762FE0E
:10185000132104F5807008F059FE012812D104F517
:10186000C070D4F80721C4F8EC21D4F80B21C4F8D7
:10187000F021B4F80F11A4F8F41100214FF4FB701B
:10188000015503E001214FF4FB70015570BD0000CC
:1018900070B52DED048B88B00446002006900790AB
:1018A00000F070FEFE4880ED000A00BF00F06AFE06
:1018B000FB48D0ED000A30EE600AF2EE040AB4EE06
:1018C000E00AF1EE10FA14DD9FEDF60A84ED090A44
:1018D0009FEDF50A84ED0A0A9FEDF40A84ED0B0AE8
:1018E0009FEDF30A84ED0C0A9FEDF20A84ED060ADF
:1018F00057E29FEDF10A00F001FE9FEDF00A84ED42
:101900000C0A9FEDEE0A84ED090A9FEDEC0A84EDC6
:101910000A0A9FEDEA0A84ED0B0A002673E1FFF73D
:10192000CFFB9220FFF796FD062206A91220FFF7B3
:1019300071FDFFF7BBFB9DF81900000200B29DF896
:10194000181040EA010500EE105AB8EEC00ADC4853
:10195000D0ED000A20EE200A84ED000A9DF81B005D
:10196000000200B29DF81A1040EA010500EE105A7C
:10197000B8EEC00AD248D0ED000A20EE200A84ED6D
:10198000010A9DF81D00000200B29DF81C1040EAFB
:10199000010500EE105AB8EEC00AC948D0ED000AA1
:1019A00020EE200A84ED020AD4ED000A60EEA00ABF
:1019B00094ED011AD4ED011A41EE210A94ED021AB8
:1019C000D4ED021A41EE210AB0EE600A09F066FA7F
:1019D000B0EE408A94ED0C0A30EE080A84ED0C0A51
:1019E000FFF782FB082206A90020FFF713FDFFF78F
:1019F00071FB9DF818000F2850D19DF81B000002C4
:101A000000B29DF81A1040EA010500EE105AB8EE37
:101A1000C00AAC48D0ED000A20EE200A84ED030A8B
:101A200094ED090AD4ED030A30EE200A84ED090A88
:101A30009DF81D00000200B29DF81C1040EA01054F
:101A400000EE105AB8EEC00A9E48D0ED000A20EE13
:101A5000200A84ED040A94ED0A0AD4ED040A30EE5B
:101A6000200A84ED0A0A9DF81F00000200B29DF8CA
:101A70001E1040EA010500EE105AB8EEC00A914867
:101A8000D0ED000A20EE200A84ED050A94ED0B0A41
:101A9000D4ED050A30EE200A84ED0B0A06BBF0EE09
:101AA000488AB0EE489A002017E004F10C0101EBDF
:101AB000800191ED000A03A901EB800181ED000A8C
:101AC00004F10C0101EB800191ED000A694601EB84
:101AD000800181ED000A411CC8B20328E5DB49E022
:101AE000B4EEE88AF1EE10FA01DDF0EE488AB4EEC9
:101AF000C98AF1EE10FA01D2B0EE489A002037E020
:101B000004F10C0101EB800191ED000A03A901EB46
:101B10008001D1ED000AB4EEE00AF1EE10FA0ADD20
:101B200004F10C0101EB800191ED000A03A901EB26
:101B3000800181ED000A04F10C0101EB800191EDBF
:101B4000000A694601EB8001D1ED000AB4EEE00A1B
:101B5000F1EE10FA0AD204F10C0101EB800191EDD3
:101B6000000A694601EB800181ED000A411CC8B200
:101B70000328C5DB38EEC90A534880ED000A00206F
:101B800012E003A901EB800191ED000A694601EB27
:101B90008001D1ED000A30EE600A4C4901EB800172
:101BA00081ED000A411CC8B20328EADB464890EDEB
:101BB000000AF6EE000AB4EEE00AF1EE10FA1BDCC1
:101BC000424890ED000ADFED420AB4EEE00AF1EE81
:101BD00010FA11DC90ED010ADFED3D0AB4EEE00AE7
:101BE000F1EE10FA08DC90ED020ADFED390AB4EEEE
:101BF000E00AF1EE10FA00DD0AE09FED360A00F08F
:101C00007DFC701C86B2344800888642FFF687AEA1
:101C100000BFD4ED0C0A3048008800EE100AB8EE80
:101C2000400A80EE801A84ED0C1A002015E004F1C1
:101C3000240101EB8001D1ED000A2749098800EE5B
:101C4000101AB8EE400A80EE801A04F1240101EB6C
:101C5000800181ED001A411CC8B20328E7DBFFF7C1
:101C60002FFAA220FFF7F6FB022206A92220FFF797
:101C7000D1FBFFF71BFA9DF81800C0009DF8191062
:101C800040EA6115B5F5806F02DBA5F5006005B28D
:101C900000EE105AF8EEC00AB4EE001A1EE0000082
:101CA000E00000209A0AB03B53F92EBBB0ECA9BA71
:101CB000B3D61B41000020420AD7A33B000000001E
:101CC000A8000020AC000020B400002088330020D1
:101CD0009A99193E6F12033AE4000020B3EE070A06
:101CE00000EE810A84ED060A34480088401C00B2E8
:101CF00032490880324890ED000AF6EE000AB4EE50
:101D0000E00AF1EE10FA3FF7D1AD94ED0C0ADFEDE9
:101D10002D0A30EE600AB0EEC00AF6EE000AB4EE0C
:101D2000E00AF1EE10FAEEDC274890ED000A5FEDD4
:101D3000180AB4EEE00AF1EE10FAE4DC90ED010AC4
:101D40005FED1D0AB4EEE00AF1EE10FADBDC90ED77
:101D5000020A5FED210AB4EEE00AF1EE10FAD2DCDD
:101D600094ED090AB0EEC00ADFED180AB4EEE00AFD
:101D7000F1EE10FAC7DC94ED0A0AB0EEC00ADFED0E
:101D8000130AB4EEE00AF1EE10FABCDC94ED0B0A93
:101D9000B0EEC00ADFED0D0AB4EEE00AF1EE10FA83
:101DA000B1DC00BF94ED0C0ADFED090A80EE801A69
:101DB00084ED081A08B0BDEC048B70BDBA00002099
:101DC000B4000020CDCC1C41883300200AD7233C2E
:101DD000C3F51C41C16B00EE101AB5EEC00AF1EE5E
:101DE00010FA03DDC16B00EE101A04E0C16B00EEC7
:101DF000101AB1EE400A016E00EE901AB4EEE00A3D
:101E0000F1EE10FA00D87047C16B00EE101AB5EE73
:101E1000C00AF1EE10FA03DDC16B00EE101A04E007
:101E2000C16B00EE101AB1EE400AC16D00EE901ABF
:101E3000B4EEE00AF1EE10FA05DD9FED180A10EE9F
:101E4000101AC16127E0C16D00EE901AC16B00EE5F
:101E5000101AB5EEC00AF1EE10FA03DDC16B00EE08
:101E6000101A04E0C16B00EE101AB1EE400A30EE19
:101E7000C01AC16D00EE101A016E00EE901A30EE1D
:101E8000600AC1EE000AC16900EE101A20EE800A55
:101E900010EE101AC16100BFB5E70000000000009D
:101EA00010B5044642F2D8012046FEF7CCFB06F0FE
:101EB000C9FA206000200AF075FD206101200AF0B7
:101EC00071FD206202200AF06DFD206303200AF0FC
:101ED00069FD20640AF078FDA0600AF071FDC4F885
:101EE000440700F0E5FDC4F84C070AF065FDC4F8AE
:101EF00050070121002000F007FD2065022100208D
:101F000000F002FD60650321002000F0FDFCA065EB
:101F10000421002000F0F8FCE0650521012000F01C
:101F2000F3FCE0604421B6EE001ADFEDD30AB0EE18
:101F3000080A04F1600006F09EF94421B6EE001A8A
:101F4000DFEDCD0AB0EE080A04F1F00006F093F9D7
:101F50004421B6EE001ADFEDC80AB0EE080A04F517
:101F6000C07006F088F94421B6EE001ADFEDC20A0F
:101F7000B0EE080A04F5047006F07DF9DFEDBE0A44
:101F80009FEDBE0A042104F1600006F093F9DFED35
:101F9000BA0A9FEDBA0A042104F1F00006F08AF9AA
:101FA000DFEDB50A9FEDB50A042104F5C07006F017
:101FB00081F9DFEDB10A9FEDB10A042104F5047047
:101FC00006F078F9DFEDAC0A9FEDAD0A402104F18F
:101FD000600006F06FF9DFEDA80A9FEDA90A402125
:101FE00004F1F00006F066F9DFEDA30A9FEDA40A04
:101FF000402104F5C07006F05DF9DFED9F0A9FED0A
:10200000A00A402104F5047006F054F900219FED68
:102010009A1ADFED990A9FED9B0A04F5287006F0E5
:102020002AF900219FED941ADFED930A9FED950A9E
:1020300004F54C7006F01FF900219FED8F1ADFEDBB
:102040008E0A9FED900A04F5707006F014F90021D5
:102050009FED891ADFED880A9FED8A0A04F58A60F0
:1020600006F009F94FF4A0719FED871ADFED820A9F
:10207000B2EE000A04F59C6006F0FDF84FF4A07182
:102080009FED811ADFED7C0AB2EE000A04F5AE6026
:1020900006F0F1F8DFED780AB0EE080A4FF480712F
:1020A00004F59C6006F006F9DFED730AB0EE080A4D
:1020B0004FF4807104F5AE6006F0FCF8DFED6E0AB7
:1020C0009FED720A402104F59C6006F0F3F8DFED05
:1020D0006A0A9FED6E0A402104F5AE6006F0EAF848
:1020E00001219FED651ADFED640AB7EE000A04F5E1
:1020F000C06006F0C0F8DFED600AB0EE080A01210A
:1021000004F5C06006F0D6F82321B7EE001ADFED23
:102110005A0A9FED5F0A04F5D26006F0ACF8DFEDD5
:10212000560AB0EE080A012104F5D26006F0C2F8A2
:10213000F6EE000A9FED570A202104F5D26006F062
:10214000B9F8DFED4D0A9FED540A022104F5D26083
:1021500006F0B0F804219FED481ADFED470A9FED25
:102160004F0A04F5EB6000F5C35006F084F84421F3
:102170009FED411ADFED400A9FED480A04F5EB6040
:1021800041F6F002104406F076F8DFED3B0AB7EEB8
:10219000000A042104F5EB6000F5C35006F08AF84C
:1021A000DFED350AB7EE000A042104F5EB6041F6D5
:1021B000F002104406F07EF8DFED2F0AB7EE000AB9
:1021C000402104F5EB6041F6F002104406F072F88D
:1021D0009FED330A04F5E4600AF03EFB9FED300A00
:1021E00004F5E6600AF038FBB7EE000A04F68870E2
:1021F0000AF032FBB7EE000A04F698700AF02CFBE6
:10220000B7EE000A04F6A8700AF026FBB7EE000A43
:1022100004F6B8700AF020FB04F5F2600BF012FB34
:1022200004F68C300BF00EFB04F6C8700BF00AFBC2
:1022300004F6C87000F57F700BF004FB04F5BE5087
:102240000BF000FB04F6C87000F6F4300BF0FAFA5D
:1022500001202071B7EE000A04F5806080EDD20AFB
:102260009FED050A80EDD60A9FED030A04F5EB60A9
:1022700080ED010A10BD00000000000000606A4609
:102280009A99993ECDCC4C3DCDCC2C419EEF273D2B
:10229000000048420000344300007A443333B33E28
:1022A0006666663F10B50446204609F0BFFC20462E
:1022B00009F006F9204609F09DFA204609F000FBD6
:1022C000204609F089FE204609F0F6FE204609F076
:1022D00063FE204609F04BFF204609F035FD10BD96
:1022E00070B504460D4661190F2204F58070FEF7A3
:1022F00011F90F2104F5807008F008F901280ED1BA
:1023000004F5C070D4F80721C4F8CC21B4F80B113F
:10231000A4F8D01100214FF4E970015503E0012128
:102320004FF4E970015570BD70B504460D46611952
:1023300004F580700A68C4F800214A68C4F80421D2
:102340000989A4F808110A2108F0E0F8012809D148
:1023500040F20711095D84F87211002140F27310F8
:10236000015503E0012140F27310015570BD0000DA
:1023700010B5024801F016F910BD0000400700201A
:1023800010B5024801F00EF910BD0000B0050020A4
:1023900010B5024801F006F910BD0000A0070020AA
:1023A00010B5024801F0FEF810BD00001006002034
:1023B00010B5024801F0F6F810BD0000000800203A
:1023C0000146087810381823B0FBF3F20848805C07
:1023D000C865032A05D908686FF30900001D8865E0
:1023E00003E008686FF309008865886D7047000096
:1023F000D0F60008014600208A6A8B69CBB932B159
:10240000012A0DD0022A03D0032A10D10EE000BF0A
:10241000CB6A03F08073B3F1807F00D1012007E025
:10242000CB6AB3F1C07F00D1012001E000E000BF22
:1024300034E08B69B3F5005F1AD132B1012A07D0BD
:10244000022A03D0032A11D10AE000BF01200EE0C6
:10245000CB6A03F08073B3F1807F00D1012006E0E6
:10246000CB6AB3F1C07F00D1012000E000BF15E0CE
:1024700032B1012A05D0022A04D0032A0CD103E08C
:1024800000BF00BF012008E0CB6A03F08073B3F106
:10249000807F00D1012000E000BF00BF704730B551
:1024A0000468246824F4802405682C600468636050
:1024B0008468402C04D10468A2600468E16003E0F1
:1024C0000468A1600468E26030BD000008B50848F7
:1024D00040680090074900980968884204D206487D
:1024E0000068401C0449086002490098086008BD63
:1024F000001000E008010020040100200C49486899
:10250000F0EE400A00BF0A494968091A01EE101AA4
:10251000F8EE411A074991ED001AB8EE411A20EE83
:10252000811AF4EEC11AF1EE10FAECD370470000F4
:10253000001000E0F800002010B52DED028B82B0F5
:1025400004460E484068019020680199081A00EE80
:10255000100AF8EE400A0A4890ED000AB8EE400A68
:1025600080EE801AB0EE418A01982060FFF7AEFF3E
:10257000B0EE480A02B0BDEC028B10BD001000E0C6
:10258000F800002010B52DED028B00F059F80F482F
:1025900090ED000AB8EE400A808800EE900AF8EE4E
:1025A000600A9FED0B1A00EE810A0848C08800EE11
:1025B000900AF8EE600A9FED071A00EE810AB0EE6D
:1025C000408AB0EE480ABDEC028B10BDF00000203E
:1025D0006F12833ABD3786351249096841F0807120
:1025E000104A11600021104A51601146096841F0FB
:1025F000010111600D4941430D4A116011460968FE
:102600004FF47A72B1FBF2F10A4A11600849096885
:10261000064AB1FBF2F1084A11600021074A116035
:1026200070470000FCED00E0001000E040420F00A9
:10263000F8000020FC000020000100200401002020
:1026400038B5294840680090FFF740FF27480068E8
:102650004FF0FF31A0FB01310098181841F1000143
:10266000234A03C2234800232149026803C9FDF716
:10267000AEFE214A03C220480CC81E480068002450
:10268000A2FB001503FB005002FB04021848D0E92E
:102690000030591A60EB0200184AC2E900101648CF
:1026A000006817490860174800231449026803C9E5
:1026B000FDF78DFE12498880084680881149096817
:1026C00041430E48D0E90030591A60F100000E4A2B
:1026D000C2E900100D4800230B49026803C9FDF749
:1026E00076FE0749C88038BD001000E004010020D4
:1026F00010010020F8000020180100202001002017
:10270000F0000020FC000020280100200001002033
:102710007047000000B52423034AA2F124010348B6
:1027200005F094FE00BD00000A0B0020B806002052
:1027300010B5024805F0CEFE10BD0000B80600201E
:1027400000B5FF23034AA2F5807103480AF002FF97
:1027500000BD00002E0C0020FC06002070B50446D1
:102760000D4661190D2204F58070FDF7D3FE0D2191
:1027700004F5807007F0CAFE012808D1D4F80711CB
:10278000C4F86311002140F26910015503E00121F2
:1027900040F26910015570BD10B5102001F0F8F835
:1027A00010BD10B5202001F0F3F810BDD2ED020AE3
:1027B00092ED021AB6EE000A00EEC10AD2ED030A4B
:1027C00092ED031A00EEC10AD0ED000A20EE200AB5
:1027D000D2ED010A92ED021A60EE810A92ED001A22
:1027E000D2ED031A41EE210A90ED011A00EE810AA2
:1027F000D2ED010A92ED031A60EE810A92ED001A01
:10280000D2ED021A41EE610A90ED021A00EE810A41
:10281000F0EE000A20EE200A81ED000A92ED010A96
:10282000D2ED020A20EE200AD2ED000A92ED031A40
:1028300000EEC10AD0ED000A60EE200A92ED011A06
:10284000D2ED011AB6EE000A01EE610AD2ED031ACA
:1028500092ED032AB0EE401A01EEC21AD0ED011A31
:10286000B0EE600A01EE210AD2ED020A92ED031ADF
:1028700060EE810A92ED001AD2ED011A41EE210AB2
:1028800090ED021A00EE810AF0EE000A20EE200A16
:1028900081ED010A92ED010AD2ED030A20EE200A31
:1028A000D2ED000A92ED021A00EE810AD0ED000A84
:1028B00020EE200AD2ED020A92ED031A60EE810AA0
:1028C00092ED001AD2ED011A41EE610A90ED011A63
:1028D00000EE810A92ED011AD2ED011AF6EE000A1D
:1028E00041EE610A92ED021AD2ED021A41EE610A3E
:1028F00090ED021A00EE810AF0EE000A20EE200AA6
:1029000081ED020A7047000070B506460D460A2D9B
:1029100001DB002070BD681E00EBC001C1EB801020
:1029200019494418204600F031F8257084F82660D3
:10293000002084F8280084F8270026B1012E10D04A
:10294000022E1CD114E04FF40050A0841320A4F8F0
:1029500029000A20A4F82B004FF48070A4F82D0061
:102960000EE04FF40050A0840120A4F8290007E0F5
:102970004FF40050A0842420A4F8290000E000BFF8
:1029800000BF2046C6E70000A808002010B5044696
:1029900037212046FDF735FE10BD72B600BFFEE7B9
:1029A00070B504460D46611904F580700A68C4F8D4
:1029B00000214A68C4F804210989A4F808110A21F1
:1029C00007F0A4FD012816D140F21111D4F8072117
:1029D0004FF4A570C4F84021D4F80B21C4F8442169
:1029E000B4F80F21A4F84821095D0155002140F2F7
:1029F0004110015503E0012140F24110015570BD25
:102A000070B504460D466119142204F58070FDF777
:102A100081FD142104F5807007F078FD012815D19F
:102A200040F21111D4F80721C4F83421D4F80B2155
:102A3000C4F83821B4F80F21A4F83C21095D84F8CA
:102A40003E11002140F23F10015503E0012140F208
:102A50003F10015570BD000030B5034613B94FF665
:102A6000FF7030BD09E013F8014B82EA0400C0B2E8
:102A7000054D35F8100080EA2222081EA1F101015F
:102A8000F1D11046EDE700008AE5000830B50346B5
:102A900005E013F8010B80EA02040448025D081EF9
:102AA000A1F10101F5D1104630BD000089E4000814
:102AB000004870472E0E002010B5024692F82030D4
:102AC000012B01D0022B06D110684069084314681D
:102AD0006061002010BD506A40F4802050620120E7
:102AE000F8E7F0B504460D461E4694F820702068BD
:102AF0008368A86800B900E000BF012F01D0022F51
:102B00007CD103F0806030B903F0006018B903F0A5
:102B10008050002873D0C3F30161022905D9606A8F
:102B200040F4000060620120F0BD01208840306068
:102B3000A86860B9B5F800C0E86840EA4C5C206855
:102B400000F5C07000EB0110C0F800C00FE0D5E93F
:102B500001C040EACC00D5F80CC040EA0C00D4F823
:102B600000C00CF5C07C0CEB011CCCF80000D5F8C3
:102B700010C0206800F5C07000EB0110C0F804C060
:102B8000287D01280ED1206800F5C07000EB0110EF
:102B9000406840F4807C206800F5C07000EB0110B4
:102BA000C0F804C0D079000692F806C040EA0C4094
:102BB00092F805C040EA0C2C10794CEA000C206811
:102BC00000F5C07000EB0110C0F80CC0D078000612
:102BD00092F802C040EA0C4092F801C040EA0C2092
:102BE00092F800C040EA0C00D4F800C00CF5C07C9C
:102BF0000CEB011CCCF80800206801E016E00FE0A7
:102C000000F5C07000EB0110006840F0010C206876
:102C100000F5C07000EB0110C0F800C0002083E791
:102C2000606A40F40010606201207DE7606A40F451
:102C300080206062012077E7F0B504460A462168EB
:102C400094F82050012D01D0022D7ED1424901F58A
:102C50000071086840F001000860086820F47C50AA
:102C600008600868566A40EA06200860107D00F097
:102C70001F06012000FA06F3C8699843C861A1F550
:102C80000071D069C8B9D1F80C029843C1F80C02A0
:102C9000908880B2968940EA064601F5107057691F
:102CA00040F83760108880B2168940EA064601F580
:102CB0001070576900EBC7004660D069012819D130
:102CC000D1F80C021843C1F80C02908880B2168823
:102CD00040EA064601F51070576940F83760908960
:102CE00080B2168940EA064601F51070576900EB7C
:102CF000C7004660906928B9D1F804029843C1F82A
:102D0000040204E0D1F804021843C1F80402106977
:102D100028B9D1F814029843C1F8140204E0D1F89C
:102D200014021843C1F81402106A012804D1D1F822
:102D30001C021843C1F81C02D1F8000220F0010067
:102D4000C1F800020020F0BDFFE7606A40F4802077
:102D500060620120F7E7000000640040704770B532
:102D6000044694F82050012D01D0022D7DD151B997
:102D70002068C06800F0030080B9606A40F4001069
:102D80006062012070BD2068006900F0030028B96E
:102D9000606A40F4001060620120F3E7206800F5EB
:102DA000D87000EB0110006800F00400906090689B
:102DB00040B9206800F5D87000EB01100068400DA4
:102DC000106007E0206800F5D87000EB0110006883
:102DD000C0085060206800F5D87000EB0110006852
:102DE00000F00200D060206800F5D87000EB011000
:102DF000406800F00F001061206800F5D87000EB0B
:102E00000110406800F47F40000A9061206800F5DE
:102E1000D87000EB01104068000C5061206800F58C
:102E2000D87000EB011080681870206800F5D87029
:102E300000EB0110806800F47F40000A58702068A1
:102E400000F5D87000EB0110806800F47F00000CE2
:102E50009870206800F5D87000EB01108068000EB3
:102E6000D870206800F5D87000E02FE000EB01106A
:102E7000C0681871206800F5D87000EB0110C068B8
:102E800000F47F40000A5871206800F5D87000EB0C
:102E90000110C06800F47F00000C9871206800F5F4
:102EA000D87000EB0110C068000ED87131B92068ED
:102EB000C06840F020002668F06005E020680069E6
:102EC00040F020002668306100205BE7606A40F433
:102ED00080206062012055E70146002091F8202003
:102EE000012A01D0022A11D10B689B6803F080638C
:102EF00003B1401C0B689B6803F0006303B1401CE6
:102F00000B689B6803F0805303B1401C70472DE9A8
:102F1000F05F04460025206846692068D0F80490D8
:102F2000206887682068D0F80CA02068D0F810B01E
:102F30002068D0F8188006F00100002855D007F06E
:102F40000100C0B101202168886007F0020018B1BB
:102F5000204600F0B6FA0EE007F0040010B145F488
:102F6000006508E007F0080010B145F4805502E064
:102F7000204600F0A5FA07F48070C8B14FF48070C5
:102F80002168886007F4007018B1204600F09BFAB1
:102F90000EE007F4806010B145F4005508E007F436
:102FA000006010B145F4804502E0204600F08AFA46
:102FB00007F48030C8B14FF480302168886007F48E
:102FC000003018B1204600F080FA0EE007F48020AF
:102FD00010B145F4004508E007F4002010B145F4B5
:102FE000803502E0204600F06FFA06F0080038B1A4
:102FF0000AF0100020B145F4007510202168C86067
:1030000006F0040040B10AF0080028B10820216849
:10301000C860204600F00CFA06F0020038B12068C3
:10302000C06800F0030010B1204600F003FA06F07B
:10303000400038B10BF0100020B145F4806510203D
:103040002168086106F0200040B10BF0080028B1AB
:10305000082021680861204600F000FA06F0100000
:1030600038B12068006900F0030010B1204600F07C
:10307000F6F906F4003040B109F0100028B1102034
:1030800021684860204600F0EBF906F4803040B13A
:1030900009F0080028B1082021684860204600F0A7
:1030A00015FA06F4004088B309F0040078B306F47A
:1030B000807020B108F0010008B145F0010506F468
:1030C000007020B108F0020008B145F0020506F4D6
:1030D000806020B108F0040008B145F0040506F452
:1030E0000060A0B108F0700088B108F070004028BE
:1030F00017D006DC10280BD020280CD0302819D18E
:103100000CE0502810D0602814D110E01DE019E028
:1031100045F008050FE045F010050CE045F02005EE
:1031200009E045F0400506E045F0800503E045F480
:10313000807500E000BF00BF2068806920F070004B
:10314000216888610420216848602DB1606A2843A5
:1031500060622046FFF702FEBDE8F09F70B50446AE
:103160000CB9012070BD94F8200010B9204600F081
:10317000AFF82068006840F001002168086000F0A6
:1031800015FD05460DE000F011FD401B0A2808D989
:10319000606A40F400306062052084F8200001205D
:1031A000E0E72068406800F001000028EBD02068CC
:1031B000006820F002002168086000F0F7FC054676
:1031C0000DE000F0F3FC401B0A2808D9606A40F4C7
:1031D00000306062052084F820000120C2E72068EA
:1031E000406800F002000028EBD1207E012806D1C3
:1031F0002068006840F080002168086005E02068D1
:10320000006820F0800021680860607E012806D1F7
:103210002068006840F040002168086005E02068F0
:10322000006820F0400021680860A07E012806D1D7
:103230002068006840F020002168086005E02068F0
:10324000006820F0200021680860E07E012806D197
:103250002068006820F010002168086005E0206800
:10326000006840F0100021680860207F012806D126
:103270002068006840F008002168086005E02068C8
:10328000006820F0080021680860607F012806D1EE
:103290002068006840F004002168086005E02068AC
:1032A000006820F0040021680860D4E902010843A6
:1032B00021690843616908436168491E0843216820
:1032C000C86100206062012084F82000002049E7E6
:1032D00010B586B00446142101A8FDF7B4F94E4993
:1032E0002068884241D14D480068401C4B49086025
:1032F0000846006801280FD100BF00200090484810
:10330000006840F00070464908600846006800F018
:103310000070009000BF00BF00BF00200090404838
:103320001038006840F008003D4910390860084630
:10333000006800F00800009000BF00BF032001906B
:1033400002200290002003900320049009200590A1
:1033500001A9344800F02AFB00220521142000F0C6
:10336000DFFC142000F0CCFC54E02F492068884298
:1033700050D100BF002000902948006840F08060D4
:10338000274908600846006800F08060009000BF90
:1033900000BF22480068401C2049086008460068B9
:1033A00001280FD100BF002000901D48006840F0A8
:1033B00000701B4908600846006800F0007000902B
:1033C00000BF00BF00BF0020009015481038006803
:1033D00040F002001249103908600846006800F009
:1033E0000200009000BF00BF602001900220029008
:1033F00000200390032004900920059001A90B48A8
:1034000000F0D4FA00220521402000F089FC402081
:1034100000F076FC06B010BD0064004008000020FB
:1034200040380240000C02400068004000040240A6
:103430007047000010B504460648844202D1204679
:1034400008F0E0FA0448844202D1204608F0B2FBBA
:1034500010BD0000080500203005002070477047AF
:10346000704770B5044694F82000012822D102204C
:1034700084F820002068006820F0010021680860BE
:1034800000F094FB05460DE000F090FB401B0A287D
:1034900008D9606A40F400306062052084F820009A
:1034A000012070BD2068406800F001000028EBD1C9
:1034B0006062F6E7606A40F4002060620120F0E795
:1034C000704770477047704770477047704770B5D6
:1034D0000446A56D00F06AFB064694F83500022804
:1034E00008D08020606500BF002084F8340000BF51
:1034F000012070BD2068006820F016002168086077
:103500002068406920F0800021684861206C08B97B
:10351000A06C28B12068006820F0080021680860CD
:103520002068006820F001002168086010E000F0C9
:103530003DFB801B05280BD920206065032084F803
:10354000350000BF002084F8340000BF0320D0E71E
:103550002068006800F001000028E8D194F85C10B1
:103560003F208840A860012084F8350000BF00207B
:1035700084F8340000BF00BFBBE7014691F8350076
:10358000022803D08020486501207047052081F87B
:1035900035000868006820F001000A68106000200B
:1035A000F3E70000F8B50446002000908C4800685E
:1035B0004FF41651B0FBF1F7A56D2E6894F85C102E
:1035C00008208840304098B12068006800F004006E
:1035D00070B12068006820F004002168086094F849
:1035E0005C1008208840A860606D40F001006065B4
:1035F00094F85C1001208840304068B12068406930
:1036000000F0800040B194F85C1001208840A86070
:10361000606D40F00200606594F85C100420884002
:10362000304068B12068006800F0020040B194F8B2
:103630005C1004208840A860606D40F00400606564
:1036400094F85C1010208840304078B320680068FF
:1036500000F0080050B394F85C1010208840A86077
:103660002068006800F4802080B12068006800F4C1
:10367000002028B9206CC8B12046216C884715E08D
:10368000A06C98B12046A16C88470FE020680068C4
:1036900000F4807028B92068006820F008002168D4
:1036A0000860206C10B12046216C884794F85C10AB
:1036B000202088403040002865D02068006800F055
:1036C000100000285FD094F85C1020208840A8608B
:1036D00094F83500052828D12068006820F01600ED
:1036E000216808602068406920F0800021684861F6
:1036F000206C08B9A06C28B12068006820F0080090
:103700002168086094F85C103F208840A860012080
:1037100084F8350000BF002084F8340000BF206D1D
:1037200010B12046216D8847F8BD2068006800F47C
:10373000802080B12068006800F4002028B9606C07
:1037400010B12046616C88471DE0E06BD8B120467F
:10375000E16B884717E02068006800F4807068B962
:103760002068006820F0100021680860012084F8BB
:10377000350000BF002084F8340000BFE06B10B1BA
:103780002046E16B8847606D38B3606D00F0010042
:10379000F0B1052084F835002068006820F00100B1
:1037A0002168086000BF0098401C0090B84200D912
:1037B00005E02068006800F001000028F3D100BF98
:1037C000012084F8350000BF002084F8340000BFD9
:1037D000E06C10B12046E16C884700BFA4E7000010
:1037E0002C0200202DE9F0410446002500F0DEF90E
:1037F000074614B90120BDE8F081606A00B100BF3E
:10380000022084F8350000BF002084F8340000BF97
:103810002068006820F00100216808600AE000F0DC
:10382000C5F9C01B052805D920206065032084F850
:103830003500E0E72068006800F001000028EED1C4
:103840002068056821480540D4E901010843E16882
:1038500008432169084361690843A1690843E16994
:103860000843216A08430543606A042803D1D4E968
:103870000B0108430543206805602068456925F071
:103880000705606A0543606A04280DD1A06A0543F4
:10389000E06A48B12046FEF7ADFD28B140206065E2
:1038A000012084F83500A6E7206845612046FEF730
:1038B00087FD064694F85C103F208840B0600020E9
:1038C0006065012084F83500002094E73F8010F007
:1038D0002DE9F04704460D4616461F464FF00008F6
:1038E000D4F8589000BF94F83400012802D1022087
:1038F000BDE8F087012084F8340000BF94F835005B
:10390000012825D1022084F83500002060653B465F
:10391000324629462046FEF7C2FD94F85C103F204F
:103920008840C9F808002068006840F01600216847
:103930000860206C28B12068006840F00800216809
:1039400008602068006840F001002168086006E017
:1039500000BF002084F8340000BF4FF0020840464A
:10396000C6E7000070B5044600F020F9064625467B
:10397000681C10B104480078054400BF00F016F937
:10398000801BA842FAD370BD2802002070470000B7
:1039900010B5044604480068204020B10248046085
:1039A0002046FFF7F3FF10BD143C0140F8B5024676
:1039B0000B460025002400200021D6E0012606FA4F
:1039C00001F51E6806EA0504AC4274D11E7906F0C2
:1039D0000306012E04D01E7906F00306022E13D131
:1039E00090684F000326BE40B0434F00DE68BE40E3
:1039F00030439060506801268E40B0431E79C6F374
:103A000000168E40304350601E7906F00306032EE8
:103A100009D0D0684F000326BE40B0434F009E68D7
:103A2000BE403043D0601E7906F00306022E13D14B
:103A3000CF0802F1200656F827004E07F70E0F2692
:103A4000BE40B0434F07FF0E1E69BE403043CF0853
:103A500002F1200646F8270010684F000326BE40FA
:103A6000B0431E7906F003064F00BE40304310609D
:103A70005E6806F44036002E76D000BF0026009621
:103A80003C4E366846F480463A4F3E603E463668C5
:103A900006F48046009600BF00BF374E8F0856F8E8
:103AA00027008E07370F0F26BE40B043334EB24279
:103AB00002D1002624E057E0314EB24201D1012666
:103AC0001EE0304EB24201D1022619E02E4EB24223
:103AD00001D1032614E02D4EB24201D104260FE09D
:103AE0002B4EB24201D105260AE02A4EB24201D144
:103AF000062605E0284EB24201D1072600E008263E
:103B00008F073F0FBE4030431B4E8F0846F82700FB
:103B1000224E3068A0435E6806F4801606B120434A
:103B20001E4E3060361D3068A0435E6806F40016F5
:103B300006B12043194E361D3060184E361F3068CE
:103B4000A0435E6806F4003606B12043134E361FCC
:103B50003060361F3068A0435E6806F4803606B1D8
:103B600020430E4E083E3060491C1029FFF426AF5A
:103B7000F8BD00004438024008380140000002400F
:103B80000004024000080240000C02400010024005
:103B90000014024000180240001C0240083C014092
:103BA0000AB1816101E00B0483617047014800683C
:103BB000704700002002002003480068034909788C
:103BC00008440149086070472002002028020020B4
:103BD00010B50D48006840F400700B4908600846B5
:103BE000006840F4806008600846006840F4807017
:103BF0000860032000F0D2F8052000F007F800F07C
:103C000055F8002010BD0000003C0240F0B587B020
:103C100004460026002700BF002000901E480068D0
:103C200040F001001C4908600846006800F00100EF
:103C3000009000BF00BF01A902A800F085F900F0C4
:103C4000BBF946001548B6FBF0F0471E144815496D
:103C5000086040F2E7311348C1604760002101610C
:103C60008160816100F085FE054695B90D4800F040
:103C7000D7FE05466DB9192000F042F8102C07D286
:103C800000222146192000F04BF80748046000E0AC
:103C90000125284607B0F0BD4438024040420F00DD
:103CA00000000140600800202402002008B500BF89
:103CB000002000901148006840F480400F490860DF
:103CC0000846006800F48040009000BF00BF00BFBD
:103CD00000200090081F006840F08050091F086015
:103CE0000846006800F08050009000BF00BF00222E
:103CF0000F21901E00F014F808BD00004438024067
:103D000001460846002809DB00F01F0301229A4003
:103D100043099B0003F1E023C3F8002100BF704773
:103D20002DE9F05F80460D461646002706F022FE7C
:103D3000074639462A46334601F00700C0F1070A14
:103D4000BAF1040F02D94FF0040A01E0C0F1070AEA
:103D5000D14600F1040ABAF1070F02D24FF0000A6F
:103D600001E0A0F1030AD4464FF0010A0AFA09FA69
:103D7000AAF1010A0AEA020A0AFA0CFA4FF0010B48
:103D80000BFA0CFBABF1010B0BEA030B4AEA0B0439
:103D90002146404606F0F6FDBDE8F09F00BF00F06A
:103DA0000702064B19684FF6FF031940044B0B43FB
:103DB00043EA0221014B196000BF70470CED00E09F
:103DC0000000FA0570B504460D460CB9012070BD1F
:103DD0005848006800F00700A84209D255490D7004
:103DE0000846006800F00700A84201D00120EEE775
:103DF000207800F0020002281DD1207800F0040095
:103E0000042805D14C48006840F4E0504A49086055
:103E1000207800F00800082805D14748006840F4E1
:103E20006040454908604448006820F0F000A168FF
:103E3000084341490860207800F00100A8B3606899
:103E4000012807D13C4808380068C0F34040B8B9A1
:103E50000120BCE76068022802D06068032807D10F
:103E6000354808380068C0F3406048B90120AEE723
:103E7000314808380068C0F3400008B90120A6E7BF
:103E80002D48006820F00300616808432A49086053
:103E9000FFF78CFE064609E0FFF788FE801B41F223
:103EA0008831884202D9032091E707E02248006860
:103EB00000F00C006168B0EB810FEDD11D48006887
:103EC00000F00700A84209D91A490D700846006899
:103ED00000F00700A84201D0012078E7207800F028
:103EE0000400042807D11448006820F4E050E16879
:103EF000084311490860207800F00800082808D11C
:103F00000D48006820F46040216940EAC1000A4978
:103F1000086000F061F808490968C1F30311074A15
:103F2000515CC8400649086006480068FFF76EFE0D
:103F300000204CE7003C024008380240D8F6000858
:103F40002C020020240200200F2202600D4A126879
:103F500002F0030242600B4A126802F0F002826033
:103F6000084A126802F4E052C260064A126802F47B
:103F70006042D2080261044A126802F007020A6035
:103F80007047000008380240003C024001480068C9
:103F9000704700002C02002000B5FFF7F7FF04492E
:103FA0000968C1F38221034A515CC84000BD00008A
:103FB00008380240E8F6000800B5FFF7E7FF0449BB
:103FC0000968C1F34231034A515CC84000BD00009A
:103FD00008380240E8F600082DE9F04700240025E3
:103FE0000026A1462548006800F00C0020B10428F6
:103FF00005D008283AD105E0DFF8849039E0DFF8F1
:10400000849036E01D48001F006800F03F041B4804
:10401000001F006800F4800078B11A481749091F92
:104020000968C1F38811A0FB0170014622460023F4
:104030003846FCF7CCF905460EE011480F49091F38
:104040000968C1F38811A0FB0170014622460023D4
:104050003846FCF7BCF905460848001F0068C0F365
:104060000140401C4600B5FBF6F902E0DFF8109075
:1040700000BF00BF4846BDE8F08700000838024096
:104080000024F400001BB700F8B504460CB9012069
:10409000F8BD207800F00100002874D0F9480068CD
:1040A00000F00C0004280DD0F648006800F00C0069
:1040B000082813D1F348001F006800F48000B0F511
:1040C000800F0BD1EF4808380068C0F3404000284B
:1040D00059D06068002856D10120D9E700BF606838
:1040E000B0F5803F08D1E7480838006840F48030D8
:1040F000E449083908601EE06068B0F5A02F0DD1D2
:10410000E0480838006840F48020DE49083908603B
:104110000846006840F4803008600CE0D948083850
:10412000006820F48030D7490839086008460068E4
:1041300020F48020086000BF606890B1FFF736FD72
:10414000054606E0FFF732FD401B642801D9032035
:104150009EE7CC4808380068C0F340400028F1D002
:1041600011E0FFF723FD054606E0FFF71FFD401BAA
:10417000642801D903208BE7C24808380068C0F3DF
:1041800040400028F1D1207800F0020002285FD1E1
:10419000BC48006800F00C0058B1BA48006800F054
:1041A0000C0008281CD1B748001F006800F48000EC
:1041B000B0B9B44808380068C0F3400020B1E068E6
:1041C000012801D0012063E7AE480838006820F0DC
:1041D000F800216940EAC100AA490839086037E0BF
:1041E000E06800B30120A8490860FFF7DFFC05463E
:1041F00006E0FFF7DBFC401B022801D9032047E75C
:10420000A04808380068C0F340000028F1D09D485D
:104210000838006820F0F800216940EAC100994997
:104220000839086014E0002097490860FFF7BEFCD9
:10423000054606E0FFF7BAFC401B022801D903201F
:1042400026E7904808380068C0F340000028F1D104
:10425000207800F0080008282CD16069A8B101205E
:104260008A490860FFF7A2FC054606E0FFF79EFCBE
:10427000401B022801D903200AE782486C300068FD
:10428000C0F340000028F1D014E000207F4908600E
:10429000FFF78CFC054606E0FFF788FC401B022870
:1042A00001D90320F4E677486C300068C0F3400081
:1042B0000028F1D1207800F00400042870D10027F4
:1042C00070483830006800F0805090B900BF00207E
:1042D00000906C483830006840F0805069493831AF
:1042E00008600846006800F08050009000BF00BFE2
:1042F00001276748006800F48070B0B9644800681E
:1043000040F4807062490860FFF750FC054606E003
:10431000FFF74CFC401B022801D90320B8E65C489B
:10432000006800F480700028F2D000BFA068012867
:1043300008D154486830006840F0010051496831A4
:1043400008601DE0A06805280DD14E48683000685F
:1043500040F004004B49683108600846006840F0AE
:10436000010008600CE047486830006820F0010058
:104370004449683108600846006820F0040008607D
:1043800000BFA068A8B1FFF711FC054609E0FFF7E0
:104390000DFC401B41F28831884202D9032077E6A8
:1043A00026E0384868300068C0F340000028EED0AE
:1043B00013E0FFF7FBFB054608E0FFF7F7FB401BA8
:1043C00041F28831884201D9032061E62D486830E6
:1043D0000068C0F340000028EFD1012F07D1294821
:1043E0003830006820F0805026493831086000BF1E
:1043F000A069002845D02348006800F00C00082878
:104400005DD0A069022845D100201F490866FFF74A
:10441000CDFB054606E0FFF7C9FB401B022801D98A
:10442000032035E6174808380068C0F340600028CC
:10443000F1D1D4E907010843616A40EA8111012200
:10444000A06AC2EB500041EA00412C20005D41EA25
:1044500000600C49091F086001200B490866FFF73E
:10446000A5FB054606E0FFF7A1FB401B022801D98A
:1044700003200DE6034808380068C0F340600028B8
:10448000F1D049E00838024000004742800E474220
:1044900000700040002021490866FFF787FB0546B1
:1044A00006E0FFF783FB401B022801D90320EFE55C
:1044B0001B480068C0F340600028F2D12CE0A069DE
:1044C000012800D1E4E51648001D0668A06901280E
:1044D00020D006F48001E06981421BD106F03F0143
:1044E000206A814216D147F6C0703040616AB0EB55
:1044F000811F0FD106F440310122A06AC2EB5000A7
:10450000B1EB004F06D106F070612C20005DB1EBDD
:10451000006F01D00120BBE50020B9E50000474253
:104520000038024010B504460CB9012010BD606A85
:1045300038B96068B0F5827F00D105E00021E16103
:1045400002E00021216161610021A16294F8510023
:1045500028B9002084F85000204600F047F80220D7
:1045600084F851002068006820F04000216808604D
:10457000A08800F48270218901F404410843A189D4
:1045800001F400610843217C01F002010843217D10
:1045900001F001010843218B01F400710843217FE0
:1045A00001F0380108432021095D01F08001084332
:1045B000218D01F400510843216808600421A0699D
:1045C00001EA104094F8241001F01001084321681A
:1045D00048602068C06920F400602168C86100203C
:1045E0006065012084F8510000209FE710B586B077
:1045F0000446142101A8FCF726F84B49206888429C
:104600007ED100BF002000904848006840F48050F0
:10461000464908600846006800F48050009000BFDA
:1046200000BF00BF0020009040481438006840F0F0
:1046300002003E49143908600846006800F0020094
:10464000009000BF00BF00BF002000900846006837
:1046500040F0010008600846006800F0010000908A
:1046600000BF00BF1820019002200290012003909B
:10467000032004900520059001A92D48FFF796F925
:1046800080200190022002900120039003200490DA
:104690000520059001A92748FFF788F926482749F2
:1046A00008604FF0C0604860002124488160C1600C
:1046B0004FF480610161002141618161C1614FF46A
:1046C0000031016200214162FFF78CF808B1FEF76A
:1046D00064F900BF1948E064846300BF164848309D
:1046E000174908604FF0C06048604021144881605D
:1046F0000021C1604FF4806101610021416100E04F
:1047000010E08161C1614FF400310162002141621A
:10471000FFF768F808B1FEF740F900BF0848A06449
:10472000846300BF06B010BD003001404438024031
:10473000000402400000024010640240B005002066
:10474000100600202DE9FF5F0446884691461D466D
:104750000E9E012002900020019000BF94F85000AE
:10476000012803D1022004B0BDE8F09F012084F8A5
:10477000500000BFFFF71AFA074694F851B060687E
:104780000390AA46BBF1010F0BD00398B0F5827FCE
:1047900004D1A06810B9BBF1040F02D0022001902F
:1047A000DBE0B8F1000F03D0B9F1000F00D015B96C
:1047B00001200190D1E094F85100042802D0052096
:1047C00084F8510000206065C4F83890E587A5871B
:1047D000C4F83080E586A58620646064206800689F
:1047E00000F04000402805D02068006840F04000FC
:1047F00021680860E068B0F5006F4AD1606810B1C8
:10480000BAF1010F09D1206B00882168C860206BC4
:10481000801C2063E08E401EE08633E020688068C4
:1048200000F00200022810D1E08E70B10298012839
:104830000BD1206B00882168C860206B801C20632E
:10484000E08E401EE086002002902068806800F024
:10485000010068B1E08F58B12068C068A16B088082
:10486000A06B801CA063E08F401EE08701200290B7
:10487000FFF79CF9C01BB04204D3701C10B1032099
:1048800001906AE0E08E0028C8D1E08F0028C5D1F1
:104890004AE0606810B1BAF1010F09D1206B0078CD
:1048A00021680873206B401C2063E08E401EE08668
:1048B00034E02068806800F00200022810D1E08E09
:1048C00070B1029801280BD1206B00782168087321
:1048D000206B401C2063E08E401EE086002002908A
:1048E0002068806800F0010068B1E08F58B120684E
:1048F000C068A16B0870A06B401CA063E08F401ED5
:10490000E08701200290FFF751F9C01BB04201D3AC
:10491000701C00B916B9032001901EE0E08E00283B
:10492000C7D1E08F0028C4D13A463146204604F072
:10493000D1FE20B101200190202060650DE0A0682B
:1049400050B900BF002000902068C0680090206827
:104950008068009000BF00BF00BF012084F85100B4
:1049600000BF002084F8500000BF0198FBE67047AC
:10497000704710B504460CB9012010BD94F83D00F5
:1049800028B9002084F83C00204600F025F80220D9
:1049900084F83D00211D206805F0F0F8012084F81E
:1049A000460000BF84F83E0001213F200155402011
:1049B00001554120015500BF00BF012084F842008D
:1049C00043200155442001554520015500BF0120D9
:1049D00084F83D000020D0E738B504460E49206831
:1049E000884217D100BF002000900C48006840F4B6
:1049F00000300A4908600846006800F40030009062
:104A000000BF00BF002205211920FFF789F91920F6
:104A1000FFF776F938BD00000044014044380240F9
:104A2000014691F83D00012801D001207047022085
:104A300081F83D000868C06840F001000B68D8604C
:104A40001A4B086898421BD00868B0F1804F17D005
:104A5000174B0868984213D0164B086898420FD03D
:104A6000154B086898420BD0144B0868984207D041
:104A7000134B0868984203D0124B086898420CD137
:104A80000868806800F00702062A0CD008680068F1
:104A900040F001000B68186005E00868006840F00D
:104AA00001000B6818600020C0E700000000014012
:104AB0000004004000080040000C004000040140D9
:104AC0000040014000180040704710B504462068BF
:104AD0000069C0F34000D8B12068C068C0F340004E
:104AE000B0B16FF0020021680861012020772068D2
:104AF000806900F0030018B12046FFF7E5FF05E0EC
:104B0000204600F0DFF8204600F093F900202077DF
:104B100020680069C0F38000D8B12068C068C0F385
:104B20008000B0B16FF00400216808610220207796
:104B30002068806900F4407018B12046FFF7C4FF78
:104B400005E0204600F0BEF8204600F072F9002093
:104B5000207720680069C0F3C000D8B12068C06821
:104B6000C0F3C000B0B16FF00800216808610420F4
:104B700020772068C06900F0030018B12046FFF7D5
:104B8000A3FF05E0204600F09DF8204600F051F913
:104B90000020207720680069C0F30010D8B1206899
:104BA000C068C0F30010B0B16FF010002168086158
:104BB000082020772068C06900F4407018B12046B2
:104BC000FFF782FF05E0204600F07CF8204600F069
:104BD00030F9002020772068006900F0010058B10A
:104BE0002068C06800F0010030B16FF0010021685A
:104BF0000861204600F0A4F920680069C0F3C010E5
:104C000058B12068C068C0F3C01030B16FF08000A8
:104C1000216808612046FFF7AAFE20680069C0F3FA
:104C2000801058B12068C068C0F3801030B16FF0B8
:104C3000400021680861204600F08EF92068006974
:104C4000C0F3401058B12068C068C0F3401030B1C4
:104C50006FF02000216808612046FFF789FE10BD33
:104C600010B586B00446142101A8FBF7ECFC1249EC
:104C7000206888421DD100BF002000900F480068C6
:104C800040F020000D4908600846006800F0200050
:104C9000009000BF00BF4020019002200290012040
:104CA0000390022004900320059001A90448FEF718
:104CB0007DFE06B010BD00000044014030380240C7
:104CC0000014024070472DE9F04104460D46164697
:104CD000002700BF94F83C00012802D10220BDE863
:104CE000F081012084F83C0000BF36B1042E1BD0B7
:104CF000082E31D00C2E5ED145E02946206804F004
:104D0000BBFF2068806940F0080021688861206846
:104D1000806920F004002168886120688069296921
:104D200008432168886148E02946206804F0DCFFD8
:104D30002068806940F4006021688861206880698B
:104D400020F480602168886120688069296940EAD0
:104D500001202168886130E02946206805F002F8CA
:104D60002068C06940F008002168C8612068C069F7
:104D700020F004002168C8612068C06929690843DF
:104D80002168C86119E02946206805F027F82068E5
:104D9000C06940F400602168C8612068C06920F4DF
:104DA00080602168C8612068C069296940EA0120E3
:104DB0002168C86101E0012700BF00BF00BF0020DB
:104DC00084F83C0000BF384689E710B504460CB9AA
:104DD000012010BD94F83D0028B9002084F83C0063
:104DE000204600F025F8022084F83D00211D2068AF
:104DF00004F0C4FE012084F8460000BF84F83E00A1
:104E000001213F200155402001554120015500BF9F
:104E100000BF012084F84200432001554420015581
:104E20004520015500BF012084F83D000020D0E757
:104E30007047704770B504460D4615B994F83E00AA
:104E40000BE0042D02D13F20005D06E0082D02D1C9
:104E50004020005D01E04120005D012801D00120DB
:104E600070BD1DB9022084F83E000EE0042D03D170
:104E700002213F20015508E0082D03D102214020E6
:104E8000015502E0022141200155012229462068F6
:104E900004F0E0FE23492068884203D022492068BC
:104EA000884201D1012000E0002028B12068406C38
:104EB00040F40040216848641A49206888421BD0A9
:104EC0002068B0F1804F17D018492068884213D06D
:104ED0001749206888420FD01649206888420BD0B5
:104EE00011492068884207D013492068884203D0BE
:104EF0001249206888420CD12068806800F00706BB
:104F0000062E0CD02068006840F00100216808607F
:104F100005E02068006840F001002168086000207A
:104F20009EE7000000000140000401400004004032
:104F300000080040000C0040004001400018004004
:104F400010B5044603492068884201D1FEF734FEBB
:104F500010BD00000000014070477047704700001E
:104F60002DE9F84F0446206805682068C668206867
:104F700047694FF00009CA4605F00F09B9F1000F63
:104F80000AD105F0200038B106F0200020B12046FB
:104F900005F05CF8BDE8F88FB9F1000F7CD007F0A0
:104FA000010018B906F49070002875D005F00100D2
:104FB00030B106F4807018B1206C40F0010020641C
:104FC00005F0040030B107F0010018B1206C40F08A
:104FD0000200206405F0020030B107F0010018B1B2
:104FE000206C40F00400206405F0080048B106F091
:104FF000200010B907F0010018B1206C40F0080043
:105000002064206C002846D005F0200028B106F06E
:10501000200010B1204605F019F820684069C0F35F
:10502000801A206C00F0080010B9BAF1000F2DD0E2
:10503000204604F0B2FF2068406900F0400040289C
:1050400020D100BF00BF2168143151E8001F21F0BA
:1050500040002168143141E80002002AF3D100BF6A
:10506000A06B50B17548A16B0865A06BFEF785FA7F
:1050700088B1A06B016D88470DE02046FFF76EFFF9
:1050800009E009E02046FFF769FF04E02046FFF74A
:1050900065FF002020647DE7206B012876D105F0B4
:1050A0001000002872D006F010000028FAD000BFCF
:1050B0000020009020680068009020684068009000
:1050C00000BF00BF2068406900F0400040285ED16A
:1050D000A06B006840681FFA80F8B8F1000F54D048
:1050E000A08D404551DDA4F82E80A06BC069B0F5BD
:1050F000807F43D000BF00BF21680C3151E8001F02
:1051000021F4807021680C3141E80002002AF3D1BB
:1051100000BF00BF00BF2168143151E8001F21F01B
:1051200001002168143141E80002002AF3D100BFD8
:1051300000BF00BF2168143151E8001F21F040007A
:105140002168143141E80002002AF3D100BF202079
:1051500084F83E000020206300BF00BF21680C31AE
:1051600051E8001F21F0100021680C3141E80002D5
:10517000002AF3D100BFA06BFEF7A9F9A08DE28D44
:10518000801A81B22046FFF7E8FE03E740E0A08DD9
:10519000E18D401A1FFA80F8E08DC0B3B8F1000F1E
:1051A00035D000BF00BF21680C3151E8001F21F449
:1051B000907021680C3141E80002002AF3D100BF51
:1051C00000BF00BF2168143151E8001F21F0010029
:1051D0002168143141E80002002AF3D100BF2020E9
:1051E00084F83E000020206300BF00BF21680C311E
:1051F00051E8001F21F0100021680C3141E8000245
:10520000002AF3D100BF41462046FFF7A6FEC1E6C3
:1052100005F0800030B106F0800018B1204605F09E
:10522000A7F8B7E605F0400030B106F0400018B12D
:10523000204604F0E8FEADE600BFABE6D19E0008D4
:1052400010B504460CB9012010BDA06900B100E002
:1052500000BF94F83D0028B9002084F83C002046A7
:1052600000F028F8242084F83D002068C06820F46D
:1052700000502168C860204604F064FF206800697F
:1052800020F49040216808612068406920F02A00DD
:10529000216848612068C06840F400502168C860F7
:1052A00000202064202084F83D0084F83E00002087
:1052B000CAE7000010B586B00446142101A8FBF728
:1052C000C2F96F49206888425BD100BF002000907E
:1052D0006C48006840F480206A490860084600680D
:1052E00000F48020009000BF00BF00BF00200090AD
:1052F00064481038006840F00400624910390860C2
:105300000846006800F00400009000BF00BF4FF4A2
:10531000406001900220029000200390032004903E
:105320000720059001A95848FEF740FB5748584907
:1053300008604FF000604860002155488160C160FE
:105340004FF4806101610021416181614FF48071FE
:10535000C1614FF44031016200214162FEF742FA1F
:1053600008B1FDF71AFB00BF4948A063846300BF82
:10537000002205212720FEF7D3FC2720FEF7C0FCE2
:105380007CE044492068884278D100BF002000902A
:105390003C48001D006840F020003A49091D0860A3
:1053A0000846006800F02000009000BF00BF00BF6A
:1053B0000020009033481038006840F04000314928
:1053C000103908600846006800F04000009000BFF7
:1053D00000BF4FF48440019002200290002003900F
:1053E000032004900820059001A92B48FEF7DEFA5F
:1053F0002A482B49086080054860002128488160C0
:10540000C1604FF4806101610021416181614FF40D
:105410008071C161002101624162FEF7E3F908B1C8
:10542000FDF7BBFA00BF1E48A063846300BF1B48A2
:1054300078301C4908604FF02060486040211948CE
:1054400081600021C1604FF48061016100214161F0
:105450008161C16101624162FEF7C4F908B1FDF7E3
:105460009CFA00BF0F486063846300BF00220521DF
:105470004720FEF755FC4720FEF742FC06B010BD62
:1054800000480040403802400008024028600240C6
:105490004007002000140140001802402864024028
:1054A000A00700200008002070470000F7B5044660
:1054B000154694F83D00202846D1019800B10DB959
:1054C0000120FEBD00BF94F83C00012801D102205C
:1054D000F7E7012084F83C0000BF01982062A58412
:1054E000E58400202064212084F83D001748616B8A
:1054F000C8631748616B08641648616BC864002074
:10550000616B086501AE23681A1D31682B46606B1C
:10551000FEF7DEF96FF040002168086000BF002050
:1055200084F83C0000BF00BF00BF2168143151E87F
:10553000001F41F080002168143141E80002002A78
:10554000F3D100BF0020BCE70220BAE7359F000876
:105550008D9F0008E59E00087047704770B50446AF
:105560000D46611904F580700A68C4F800214A6884
:10557000C4F804210989A4F808110A2104F0C6FF1F
:10558000012809D140F20711095D84F8B611002104
:1055900040F2B710015503E0012140F2B710015568
:1055A00070BD000070B5044600202074A37B484DF8
:1055B0002D8803FB05F26168D4F8F400FAF7EFFFD9
:1055C000A27B434B1B8802FB03F16068FBF73BF8AF
:1055D000A27B3F4B1B885A43A37B02FB03F1D4F809
:1055E0001801FBF730F8227B394B1B885A43A37B09
:1055F00002FB03F1D4F80C01FBF725F8002031E0A1
:10560000D4F8F41001EB800191ED000AB5EEC00A68
:10561000F1EE10FA24D0D4F8F41001EB800191EDF2
:10562000000A227CD4F8F41001EB820181ED000A1B
:10563000227C616A8854A16901EB800191ED000A26
:105640006169095C227B237C12FB0311491ED4F89B
:105650000C2102EB810181ED000A217C491C21749F
:10566000411CC8B2A17B8142CADC002011E0626A01
:10567000125CE16901EB820191ED000A227C00FBE2
:105680000202D4F8181101EB820181ED000A411CDD
:10569000C8B2217C8142EADC207CA4F87800217B1E
:1056A0007A200153207BA4F88000217C82200153C2
:1056B000207CA4F89000217C92200153207BA4F848
:1056C0009800217C9A200153207CA4F8480070BDEA
:1056D0003001002000BFFEE770B52DED088B86B0CD
:1056E00004460D46164694ED040ACA48D0ED000A59
:1056F00030EE600AB0EEC00ADFEDC70AB4EEE00A91
:10570000F1EE10FA22DC94ED050AC448D0ED000A4F
:1057100030EE600AB0EEC00ADFEDBF0AB4EEE00A78
:10572000F1EE10FA12DC94ED060ABD48D0ED000A45
:1057300030EE600AB0EEC00ADFEDB70AB4EEE00A60
:10574000F1EE10FA02DC207800287DD094ED040AF6
:10575000DFEDB40A80EE201AB0EE41BAB0EE4B0A8B
:10576000FBF7CCF8F0EE408A94ED050ADFEDAD0AC8
:1057700080EE201AB0EE41BAB0EE4B0AFBF7BEF84D
:10578000F0EE40AA94ED060ADFEDA60A80EE201A9C
:10579000B0EE41BAB0EE4B0AFBF7B0F8B0EE409A6B
:1057A00094ED040ADFED9F0A80EE201AB0EE41BAB4
:1057B000B0EE4B0AFBF716FCB0EE40AA94ED050ADA
:1057C000DFED980A80EE201AB0EE41BAB0EE4B0A37
:1057D000FBF708FCF0EE409A94ED060ADFED910A23
:1057E00080EE201AB0EE41BAB0EE4B0AFBF7FAFB9E
:1057F000B0EE408A68EE890A2AEE291AB0EE480A0D
:1058000041EE000A8848C0ED000A2AEE8A0A87485D
:1058100080ED000AB0EE480A28EE800A69EE0A0A16
:1058200000EEE90A824880ED000A68EEA90AB0EEAF
:10583000480A20EE800A09EE4A0A7E4880ED000AF6
:1058400028EEAA0A7C4800E021E080ED000AF1EE93
:105850004A0AB0EE480A20EE800A68EE890A00EE95
:10586000E90A764880ED000AF1EE6A0AB0EE480ACD
:1058700020EE800A724880ED000A7248C0ED009A5E
:105880002AEE890A704880ED000A0020207000206E
:1058900011E005EB800191ED000A211D01EB800173
:1058A000D1ED000A20EE200A03A901EB800181ED71
:1058B000000A411CC8B20328EBDB9DED030A5A48DD
:1058C000D0ED000A20EE200ADDED040A574890EDE5
:1058D000001A01EE200ADDED050A554890ED001A88
:1058E00001EE200A85ED000A9DED030A5148D0ED36
:1058F000000A20EE200ADDED040A4F4890ED001A60
:1059000001EE200ADDED050A4C4890ED001A01EE8B
:10591000200A85ED010A9DED030A4948D0ED000AF1
:1059200020EE200ADDED040A464890ED001A01EE53
:10593000200ADDED050A444890ED001A01EE200A28
:1059400085ED020A00200AE006EB800191ED000AD5
:10595000694601EB800181ED000A411CC8B20328B1
:10596000F2DB9DED000A3048D0ED000A20EE200A5F
:10597000DDED010A2D4890ED001A01EE200ADDED63
:10598000020A2B4890ED001A01EE200A86ED000A6B
:105990009DED000A2748D0ED000A20EE200ADDED3B
:1059A000010A254890ED001A01EE200ADDED020AF9
:1059B000224890ED001A01EE200A86ED010A9DEDC5
:1059C000000A1F48D0ED000A20EE200ADDED010A92
:1059D0001C4890ED001A01EE200ADDED020A1A487B
:1059E00090ED001A01EE200A86ED020A94ED040AF9
:1059F000084880ED000A94ED050A084880ED000A89
:105A000094ED060A064880ED000A06B0BDEC088B4E
:105A100070BD0000540000206F12833A580000202F
:105A20005C000020E12E6542600000206400002040
:105A3000680000206C00002070000020740000202E
:105A4000780000207C0000208000002010B52DEDA3
:105A5000068BF0EE408AB0EE609AB0EE41AAB0EE4E
:105A6000618AF0EE429A0120374908700846C0ED7D
:105A70006C8A80ED6D9A80ED6EAA9FED340A80ED00
:105A8000710A002081F8380100212F4AC2F8401124
:105A9000C2F84411C2F84811C2F84C11B7EE000A1E
:105AA000B4EEC08AF1EE10FA03DDB7EE000AB0EEF4
:105AB000408A254880ED728AC0ED649A0323002253
:105AC0000621001D01F056FAB7EE000A1E48D0F874
:105AD000EC0080ED000A9FED1E0A1B48D0F8EC0098
