:020000040800F2
:10000000F09C0020E9020008C53B0008C736000844
:10001000C13B000807070008655C000800000000FD
:10002000000000000000000000000000290200089D
:10003000470E00080000000085020008CD530008AC
:100040000303000803030008030300080303000878
:100050000303000803030008030300080303000868
:100060000303000803030008CD0E00080303000883
:10007000190D000803030008030300080303000828
:100080000303000803030008030300080303000838
:100090000D0700080303000803030008D70E00083B
:1000A00003030008C9540008030300080303000801
:1000B0000303000803030008030300080303000808
:1000C00003030008030300080303000803030008F8
:1000D0000303000803030008030300083D5C000855
:1000E00003030008030300080303000803030008D8
:1000F00003030008030300080303000803030008C8
:1001000003030008030300080303000803030008B7
:1001100003030008030300080303000803030008A7
:10012000290D0008390D000803030008490D0008D7
:100130000303000803030008030300080303000887
:10014000590700080303000803030008030300081D
:1001500003030008590D000803030008515C000860
:100160000303000803030008030300080303000857
:100170000303000803030008030300080000000055
:10018000030300080303000800F002F800F03CF845
:100190000AA090E8000C82448344AAF10107DA45E2
:1001A00001D100F031F8AFF2090EBAE80F0013F0F8
:1001B000010F18BFFB1A43F001031847749A00009F
:1001C000949A0000103A24BF78C878C1FAD8520730
:1001D00024BF30C830C144BF04680C6070470000C1
:1001E0000023002400250026103A28BF78C1FBD840
:1001F000520728BF30C148BF0B6070471FB508F0D9
:10020000E1FB1FBD10B510BD00F0F4F91146FFF77A
:10021000F5FF07F023F800F012FA03B4FFF7F2FF3E
:1002200003BC00F019FA00002C4B19680868B0E80C
:10023000F04F80F30988BFF36F8F4FF0000080F319
:10024000118870470000000008480068006880F3CB
:1002500008884FF0000080F3148862B661B6BFF3DF
:100260004F8FBFF36F8F00DF00BF00BF08ED00E0CE
:10027000DFF80C00016841F470010160704700BFB5
:1002800088ED00E0EFF30980BFF36F8F134B1A681E
:100290001EF0100F08BF20ED108A20E9F04F10600B
:1002A00009B44FF0500080F31188BFF34F8FBFF3B4
:1002B0006F8F08F0ADF84FF0000080F3118809BC93
:1002C00019680868B0E8F04F1EF0100F08BFB0ECD6
:1002D000108A80F30988BFF36F8F70476000002099
:1002E000EFF3058070470000094880470948004740
:1002F000FEE7FEE7FEE7FEE7FEE7FEE7FEE7FEE7D6
:10030000FEE7FEE704480549054A064B7047000032
:10031000B554000889010008F05C0020F09C002022
:10032000F07C0020F07C002053EA020C00F0698091
:100330002DE9F04B4FF00006002B1FBFB3FA83F5F9
:1003400003FA05F424FA05F65E4012BF1643B2FA2A
:1003500082F502FA05F4C5F120051EBF22FA05FC5C
:1003600044EA0C04203556EA044C4FEA144418BF02
:10037000641C4FF000084FF00009904271EB030C31
:1003800039D3002919BFB1FA81F701FA07F6B0FA9B
:1003900080F700FA07F6C7F120071EBF20FA07FC16
:1003A00046EA0C062037B6FBF4FCA7EB0507103F26
:1003B00007F01F0BCBF120060CFA0BFB2CFA06F60C
:1003C00044BFB3460026202FA4BF5E464FF0000B6B
:1003D0005BEA060C08BF4FF0010B19EB0B09ABFBF6
:1003E000027C48EB0608C01B06FB02CC0BFB03CCCF
:1003F00071EB0C01C1E70B46024641464846BDE899
:10040000F08B13B54FF000004FF00001AFF3008008
:10041000BDE81C40704740EA010310B59B070FD1AF
:10042000042A0DD310C808C9121F9C42F8D020BA64
:1004300019BA884201D9012010BD4FF0FF3010BD1C
:100440001AB1D30703D0521C07E0002010BD10F8EA
:10045000013B11F8014B1B1B07D110F8013B11F8B0
:10046000014B1B1B01D1921EF1D1184610BD032A6E
:1004700040F2308010F0030C00F0158011F8013BC1
:10048000BCF1020F624498BF11F801CB00F8013BA8
:1004900038BF11F8013BA2F1040298BF00F801CB6C
:1004A00038BF00F8013B11F0030300F02580083A43
:1004B000C0F0088051F8043B083A51F804CBA0E89A
:1004C0000810F5E7121D5CBF51F8043B40F8043BEF
:1004D000AFF30080D20724BF11F8013B11F801CB24
:1004E00048BF11F8012B24BF00F8013B00F801CBF5
:1004F00048BF00F8012B704710B5203AC0F00B80C0
:10050000B1E81850203AA0E81850B1E81850A0E817
:100510001850BFF4F5AF5FEA027C24BFB1E8185071
:10052000A0E8185044BF18C918C0BDE810405FEAE1
:10053000827C24BF51F8043B40F8043B08BF70475D
:10054000D20728BF31F8023B48BF11F8012B28BF62
:1005500020F8023B48BF00F8012B70474FF0000223
:100560000429C0F0128010F0030C00F01B80CCF1C5
:10057000040CBCF1020F18BF00F8012BA8BF20F833
:10058000022BA1EB0C0100F00DB85FEAC17C24BF87
:1005900000F8012B00F8012B48BF00F8012B704731
:1005A0004FF0000200B5134694469646203922BF0C
:1005B000A0E80C50A0E80C50B1F12001BFF4F7AF57
:1005C000090728BFA0E80C5048BF0CC05DF804EB39
:1005D000890028BF40F8042B08BF704748BF20F8A7
:1005E000022B11F0804F18BF00F8012B70477047A5
:1005F00070477047754600F02BF8AE460500694617
:10060000534620F00700854618B020B5FFF77AFE64
:10061000BDE820404FF000064FF000074FF0000803
:100620004FF0000B21F00701AC46ACE8C009ACE884
:10063000C009ACE8C009ACE8C0098D46704710B5E8
:100640000446AFF300802046BDE81040FFF7E5BD4B
:1006500000487047905C002001491820ABBEFEE7BF
:1006600026000200704770B504460D4661190F223E
:1006700004F58070FFF7FBFE0F2104F5807005F094
:10068000F3FA01280ED104F5C070D4F80721C4F89C
:10069000C021B4F80B11A4F8C41100214FF4E37089
:1006A000015503E001214FF4E370015570BD02468E
:1006B00091F82500032802DA91F8260008B90020F5
:1006C0007047B1F92A00904205DAD1F82E00401C9B
:1006D000C1F82E000DE0B1F92A004042904205DD3C
:1006E000D1F82E00401CC1F82E0002E00020C1F815
:1006F0002E00D1F82E00B1F92C30984201DD0120F6
:10070000DEE70020DCE700BFFEE7000010B502488E
:1007100000F0DEFE10BD00003803002000B58BB0F5
:1007200001200990002007900120089000200190EE
:100730000290039004900690059001A9054800F0EE
:1007400077FD044801F06FF90221024800F0B0FC87
:100750000BB000BD3803002010B5024800F0B8FE11
:1007600010BD00006003002000B58BB00020079092
:1007700001200890002001900290039004900E2028
:1007800006900A90002005900120099001A90648D2
:1007900000F04EFD044801F046F90221024800F045
:1007A00087FC0BB000BD000060030020F8B50646D2
:1007B0000F4615460A2D00DBF8BD681E00EBC00091
:1007C00000EB40002F4901EB4004A4F81F6004F146
:1007D0001900A4F81B70B4F81B00B4F81910401AE3
:1007E00000B2A4F81D00B4F81B00A4F81900207E84
:1007F00040B901202076B4F81F00A4F82100B4F914
:100800001F006060B4F81F20B4F82130D21A10B273
:10081000B4F9231005F0D8FC009020680099084432
:1008200020606068009908446060B4F81F00A4F874
:1008300021006068B4F928104843B4F9231090FBF4
:10084000F1F000EE100AB8EEC00A10EE100AA06037
:100850002068B4F928104843B4F9231090FBF1F054
:1008600000EE100AB8EEC00A10EE100A60612146D0
:10087000009800B2FFF71BFF84F8270000200090CB
:1008800000BF99E7D806002070B504460D466119EF
:10089000182204F58070FFF7EAFD182104F5807036
:1008A00005F0E2F901280BD10F2204F2071104F53B
:1008B000EE70FFF7DCFD002140F2EB10015503E084
:1008C000012140F2EB10015570BD70B504460D4694
:1008D0006119132204F58070FFF7C9FD132104F597
:1008E000807005F0C1F9012812D104F5C070D4F868
:1008F0000721C4F8EC21D4F80B21C4F8F021B4F896
:100900000F11A4F8F41100214FF4FB70015503E01E
:1009100001214FF4FB70015570BD0000C16B00EE6A
:10092000101AB5EEC00AF1EE10FA03DDC16B00EE4D
:10093000101A04E0C16B00EE101AB1EE400A016E0D
:1009400000EE901AB4EEE00AF1EE10FA00D870470B
:10095000C16B00EE101AB5EEC00AF1EE10FA03DD1D
:10096000C16B00EE101A04E0C16B00EE101AB1EE7C
:10097000400AC16D00EE901AB4EEE00AF1EE10FAF2
:1009800005DD9FED180A10EE101AC16127E0C16D58
:1009900000EE901AC16B00EE101AB5EEC00AF1EE2F
:1009A00010FA03DDC16B00EE101A04E0C16B00EE1B
:1009B000101AB1EE400A30EEC01AC16D00EE101AE6
:1009C000016E00EE901A30EE600AC1EE000AC169B5
:1009D00000EE101A20EE800A10EE101AC16100BF5E
:1009E000B5E700000000000010B504464FF4D461E4
:1009F0002046FFF7D5FD03F0CBFA2060002006F07B
:100A0000EBFB2061012006F0E7FB2062022006F0EC
:100A1000E3FB2063032006F0DFFB206406F0EAFB23
:100A2000A06006F0E3FBC4F8940600F03DFBC4F8B8
:100A30009C060121002000F067FA206502210020B9
:100A400000F062FA60650321002000F05DFAA06505
:100A50000421002000F058FAE0650521012000F093
:100A600053FAE0600421B6EE001ADFED730AB2EE2D
:100A7000020A04F1600003F0A4F90421B6EE001AA2
:100A8000DFED6D0AB2EE020A04F1F00003F099F90D
:100A90000421B6EE001ADFED680AB2EE020A04F590
:100AA000C07003F08EF90421B6EE001ADFED620A81
:100AB000B2EE020A04F5047003F083F9DFED5E0A7A
:100AC0009FED5E0A042104F1600003F099F9DFED67
:100AD0005A0A9FED5A0A042104F1F00003F090F93C
:100AE000DFED550A9FED550A042104F5C07003F0AF
:100AF00087F9DFED510A9FED510A042104F50470D6
:100B000003F07EF900219FED4C1ADFED4B0A9FEDBB
:100B10004C0A04F5287003F054F900219FED461AA1
:100B2000DFED450A9FED460A04F54C7003F049F9E4
:100B300000219FED411ADFED400A9FED410A04F5C7
:100B4000707003F03EF900219FED3B1ADFED3A0A89
:100B50009FED3B0A04F58A6003F033F94FF4A0716E
:100B60009FED381ADFED340AB2EE000A04F59C60FE
:100B700003F027F94FF4A0719FED321ADFED2E0A32
:100B8000B2EE000A04F5AE6003F01BF9DFED2A0AAD
:100B9000B0EE080A4FF4807104F59C6003F030F960
:100BA000DFED250AB0EE080A4FF4807104F5AE605F
:100BB00003F026F9DFED200A9FED230A402104F51A
:100BC0009C6003F01DF9DFED1C0A9FED1F0A402118
:100BD00004F5AE6003F014F92321B7EE001ADFED3F
:100BE000160A9FED1A0A04F5C06003F0EAF8DFED7B
:100BF000120A9FED110A012104F5C06003F000F90B
:100C0000F6EE000A9FED120A202104F5C06003F001
:100C1000F7F8DFED090A9FED0F0A022104F5C06025
:100C200003F0EEF801202071B7EE000A04F58060B1
:100C300080EDA60A10BD00000000000000606A46BA
:100C4000CDCC4C3DCDCC2C419EEF273D0000C84281
:100C50000000344300007A4410B50446204605F0F5
:100C60009FFD204605F098FB204605F0E3FB20465B
:100C700005F04CFF204605F083FF204606F007F8FC
:100C8000204605F01BFE10BD70B504460D466119E7
:100C90000F2204F58070FFF7EAFB0F2104F5807046
:100CA00004F0E2FF01280ED104F5C070D4F807214A
:100CB000C4F8CC21B4F80B11A4F8D01100214FF4E2
:100CC000E970015503E001214FF4E970015570BD51
:100CD00070B504460D46611904F580700A68C4F8C1
:100CE00000214A68C4F804210989A4F808110A21DE
:100CF00004F0BAFF012809D140F20711095D84F818
:100D00007211002140F27310015503E0012140F2FD
:100D10007310015570BD000010B5024800F024FFAB
:100D200010BD00007005002010B5024800F01CFF47
:100D300010BD0000E003002010B5024800F014FFD1
:100D400010BD0000D005002010B5024800F00CFFD7
:100D500010BD00004004002010B5024800F004FF60
:100D600010BD000030060020014608781038182316
:100D7000B0FBF3F20848805CC865032A05D908680F
:100D80006FF30900001D886503E008686FF3090030
:100D90008865886D70470000589B00080146002058
:100DA0008A6A8B69CBB932B1012A0DD0022A03D0ED
:100DB000032A10D10EE000BFCB6A03F08073B3F1B9
:100DC000807F00D1012007E0CB6AB3F1C07F00D162
:100DD000012001E000E000BF34E08B69B3F5005F63
:100DE0001AD132B1012A07D0022A03D0032A11D125
:100DF0000AE000BF01200EE0CB6A03F08073B3F17C
:100E0000807F00D1012006E0CB6AB3F1C07F00D122
:100E1000012000E000BF15E032B1012A05D0022A0E
:100E200004D0032A0CD103E000BF00BF012008E07A
:100E3000CB6A03F08073B3F1807F00D1012000E022
:100E400000BF00BF7047704700B52423034AA2F1DA
:100E50002401034803F0A0F800BD00003009002081
:100E6000E804002010B5024803F0DAF810BD0000D5
:100E7000E804002000B5FF23034AA2F5807103486F
:100E800006F0B6FE00BD0000540A00202C0500202C
:100E900070B504460D4661190D2204F58070FFF708
:100EA000E6FA0D2104F5807004F0DEFE012808D179
:100EB000D4F80711C4F86311002140F269100155FC
:100EC00003E0012140F26910015570BD10B51020FA
:100ED00000F0E2FF10BD10B5202000F0DDFF10BDD6
:100EE0000021016041609FED070A10EE101A816039
:100EF0009FED040A10EE101A4161002180F82710BE
:100F0000017670470000000070B505460E460A2EB7
:100F100001DB002070BD701E00EBC00000EB400044
:100F2000174901EB4004204600F02CF804F8255F37
:100F30000020A0706070253C25B1012D0ED0022D3F
:100F40001AD112E04FF40050A4F82300132020859A
:100F50000A2060854FF48070A0850EE04FF40050A9
:100F6000A4F823000120208507E04FF40050A4F8E6
:100F700023002420208500E000BF00BF2046C9E7F1
:100F8000D806002010B5044636212046FFF7E6FAC1
:100F900010BD72B600BFFEE770B504460D4661197C
:100FA00004F580700A68C4F800214A68C4F8042176
:100FB0000989A4F808110A2104F056FE012816D167
:100FC00040F21111D4F807214FF4A570C4F8402164
:100FD000D4F80B21C4F84421B4F80F21A4F8482117
:100FE000095D0155002140F24110015503E0012146
:100FF00040F24110015570BD70B504460D466119AF
:10100000142204F58070FFF732FA142104F5807081
:1010100004F02AFE012815D140F21111D4F807215D
:10102000C4F83421D4F80B21C4F83821B4F80F21C6
:10103000A4F83C21095D84F83E11002140F23F10E4
:10104000015503E0012140F23F10015570BD000041
:1010500030B5034613B94FF6FF7030BD09E013F801
:10106000014B82EA0400C0B2054D35F8100080EA59
:101070002222081EA1F10101F1D11046EDE7000086
:101080000A8B000830B5034605E013F8010B80EA2F
:1010900002040448025D081EA1F10101F5D11046C9
:1010A00030BD0000098A000800487047540C002039
:1010B00010B5024692F82030012B01D0022B06D148
:1010C00010684069084314686061002010BD506AD0
:1010D00040F4802050620120F8E7F0B504460D4648
:1010E0001E4694F8207020688368A86800B900E064
:1010F00000BF012F01D0022F7CD103F0806030B9F6
:1011000003F0006018B903F08050002873D0C3F3D7
:101110000161022905D9606A40F400006062012083
:10112000F0BD012088403060A86860B9B5F800C003
:10113000E86840EA4C5C206800F5C07000EB0110E4
:10114000C0F800C00FE0D5E901C040EACC00D5F8F6
:101150000CC040EA0C00D4F800C00CF5C07C0CEBCD
:10116000011CCCF80000D5F810C0206800F5C07054
:1011700000EB0110C0F804C0287D01280ED12068C2
:1011800000F5C07000EB0110406840F4807C2068DE
:1011900000F5C07000EB0110C0F804C0D079000663
:1011A00092F806C040EA0C4092F805C040EA0C2CC8
:1011B00010794CEA000C206800F5C07000EB0110BB
:1011C000C0F80CC0D078000692F802C040EA0C408B
:1011D00092F801C040EA0C2092F800C040EA0C00EE
:1011E000D4F800C00CF5C07C0CEB011CCCF8080056
:1011F000206801E016E00FE000F5C07000EB011080
:10120000006840F0010C206800F5C07000EB011090
:10121000C0F800C0002083E7606A40F400106062FC
:1012200001207DE7606A40F480206062012077E75A
:10123000F0B504460A46216894F82050012D01D0EB
:10124000022D7ED1424901F50071086840F001008D
:101250000860086820F47C5008600868566A40EA14
:1012600006200860107D00F01F06012000FA06F33A
:10127000C8699843C861A1F50071D069C8B9D1F8AF
:101280000C029843C1F80C02908880B2968940EA1B
:10129000064601F51070576940F83760108880B233
:1012A000168940EA064601F51070576900EBC70041
:1012B0004660D069012819D1D1F80C021843C1F851
:1012C0000C02908880B2168840EA064601F510703C
:1012D000576940F83760908980B2168940EA06461F
:1012E00001F51070576900EBC7004660906928B996
:1012F000D1F804029843C1F8040204E0D1F80402D2
:101300001843C1F80402106928B9D1F814029843AF
:10131000C1F8140204E0D1F814021843C1F8140211
:10132000106A012804D1D1F81C021843C1F81C022C
:10133000D1F8000220F00100C1F800020020F0BD49
:10134000FFE7606A40F4802060620120F7E7000058
:1013500000640040704770B5044694F82050012D99
:1013600001D0022D7DD151B92068C06800F0030082
:1013700080B9606A40F400106062012070BD20688E
:10138000006900F0030028B9606A40F40010606250
:101390000120F3E7206800F5D87000EB0110006829
:1013A00000F004009060906840B9206800F5D870A3
:1013B00000EB01100068400D106007E0206800F5A8
:1013C000D87000EB01100068C0085060206800F57C
:1013D000D87000EB0110006800F00200D0602068B7
:1013E00000F5D87000EB0110406800F00F001061AC
:1013F000206800F5D87000EB0110406800F47F40D1
:10140000000A9061206800F5D87000EB0110406878
:10141000000C5061206800F5D87000EB0110806866
:101420001870206800F5D87000EB0110806800F497
:101430007F40000A5870206800F5D87000EB01105A
:10144000806800F47F00000C9870206800F5D87068
:1014500000EB01108068000ED870206800F5D8708D
:1014600000E02FE000EB0110C0681871206800F563
:10147000D87000EB0110C06800F47F40000A58717A
:10148000206800F5D87000EB0110C06800F47F0000
:10149000000C9871206800F5D87000EB0110C0684E
:1014A000000ED87131B92068C06840F0200026686D
:1014B000F06005E02068006940F020002668306197
:1014C00000205BE7606A40F480206062012055E7FD
:1014D0002DE9F05F04460025206846692068D0F8B1
:1014E0000490206887682068D0F80CA02068D0F8A5
:1014F00010B02068D0F8188006F00100002855D000
:1015000007F00100C0B101202168886007F00200E7
:1015100018B1204600F0B7FA0EE007F0040010B151
:1015200045F4006508E007F0080010B145F4805567
:1015300002E0204600F0A6FA07F48070C8B14FF42C
:1015400080702168886007F4007018B1204600F0B0
:101550009CFA0EE007F4806010B145F4005508E0F5
:1015600007F4006010B145F4804502E0204600F029
:101570008BFA07F48030C8B14FF48030216888605E
:1015800007F4003018B1204600F081FA0EE007F4AD
:10159000802010B145F4004508E007F4002010B1A8
:1015A00045F4803502E0204600F070FA06F00800AD
:1015B00038B10AF0100020B145F400751020216800
:1015C000C86006F0040040B10AF0080028B1082005
:1015D0002168C860204600F00DFA06F0020038B11C
:1015E0002068C06800F0030010B1204600F004FA43
:1015F00006F0400038B10BF0100020B145F48065D2
:1016000010202168086106F0200040B10BF00800AE
:1016100028B1082021680861204600F001FA06F090
:10162000100038B12068006900F0030010B12046B6
:1016300000F0F7F906F4003040B109F0100028B1CD
:10164000102021684860204600F0ECF906F4803054
:1016500040B109F0080028B1082021684860204600
:1016600000F016FA06F4004088B309F0040078B3DD
:1016700006F4807020B108F0010008B145F00105C2
:1016800006F4007020B108F0020008B145F0020530
:1016900006F4806020B108F0040008B145F00405AC
:1016A00006F40060A0B108F0700088B108F0700086
:1016B000402817D006DC10280BD020280CD030286A
:1016C00019D10CE0502810D0602814D110E01DE092
:1016D00019E045F008050FE045F010050CE045F075
:1016E000200509E045F0400506E045F0800503E0EF
:1016F00045F4807500E000BF00BF2068806920F0DD
:101700007000216888610420216848602DB1606AFA
:10171000284360622046FFF71DFEBDE8F09F70B5CC
:1017200004460CB9012070BD94F8200010B9204681
:1017300000F0B0F82068006840F0010021680860FF
:1017400000F0B8FC05460DE000F0B4FC401B0A2890
:1017500008D9606A40F400306062052084F82000F7
:101760000120E0E72068406800F001000028EBD08D
:101770002068006820F002002168086000F09AFCF0
:1017800005460DE000F096FC401B0A2808D9606A67
:1017900040F400306062052084F820000120C2E798
:1017A0002068406800F002000028EBD1207E01286C
:1017B00006D12068006840F080002168086005E0DC
:1017C0002068006820F0800021680860607E0128A1
:1017D00006D12068006840F040002168086005E0FC
:1017E0002068006820F0400021680860A07E012881
:1017F00006D12068006840F020002168086005E0FC
:101800002068006820F0200021680860E07E012840
:1018100006D12068006820F010002168086005E00B
:101820002068006840F0100021680860207F0128CF
:1018300006D12068006840F008002168086005E0D3
:101840002068006820F0080021680860607F012897
:1018500006D12068006840F004002168086005E0B7
:101860002068006820F0040021680860D4E90201C3
:10187000084321690843616908436168491E0843B8
:101880002168C86100206062012084F820000020E7
:1018900049E7000010B586B00446142101A8FEF700
:1018A0007FFE4E492068884241D14D480068401C67
:1018B0004B4908600846006801280FD100BF00208E
:1018C00000904848006840F00070464908600846AB
:1018D000006800F00070009000BF00BF00BF002053
:1018E000009040481038006840F008003D49103929
:1018F00008600846006800F00800009000BF00BFC4
:101900000320019002200290002003900320049005
:101910000920059001A9344800F0CCFA00220521E5
:10192000142000F081FC142000F06EFC54E02F49DC
:101930002068884250D100BF0020009029480068EC
:1019400040F08060274908600846006800F0806029
:10195000009000BF00BF22480068401C204908607A
:101960000846006801280FD100BF002000901D48E4
:10197000006840F000701B4908600846006800F0ED
:101980000070009000BF00BF00BF0020009015480D
:101990001038006840F0020012491039086008460B
:1019A000006800F00200009000BF00BF60200190BE
:1019B000022002900020039003200490092005904B
:1019C00001A90B4800F076FA00220521402000F022
:1019D0002BFC402000F018FC06B010BD0064004055
:1019E0000800002040380240000C0240006800401F
:1019F000000402407047000010B5044606488442C7
:101A000002D1204604F0B8FD0448844202D12046A9
:101A100004F08AFE10BD000038030020600300209F
:101A200070477047704770B5044694F8200001284D
:101A300022D1022084F820002068006820F00100F4
:101A40002168086000F036FB05460DE000F032FB2F
:101A5000401B0A2808D9606A40F400306062052003
:101A600084F82000012070BD2068406800F001006B
:101A70000028EBD16062F6E7606A40F40020606203
:101A80000120F0E770477047704770477047704714
:101A9000704770B50446A56D00F00CFB064694F83F
:101AA0003500022808D08020606500BF002084F83F
:101AB000340000BF012070BD2068006820F01600CF
:101AC000216808602068406920F080002168486132
:101AD000206C08B9A06C28B12068006820F00800CC
:101AE000216808602068006820F001002168086013
:101AF00010E000F0DFFA801B05280BD9202060657C
:101B0000032084F8350000BF002084F8340000BFB3
:101B10000320D0E72068006800F001000028E8D129
:101B200094F85C103F208840A860012084F83500BC
:101B300000BF002084F8340000BF00BFBBE70146AF
:101B400091F83500022803D08020486501207047B5
:101B5000052081F835000868006820F001000A6857
:101B600010600020F3E70000F8B504460020009064
:101B70008C4800684FF41651B0FBF1F7A56D2E6844
:101B800094F85C1008208840304098B120680068C4
:101B900000F0040070B12068006820F004002168A3
:101BA000086094F85C1008208840A860606D40F0E0
:101BB0000100606594F85C1001208840304068B1F5
:101BC0002068406900F0800040B194F85C1001206A
:101BD0008840A860606D40F00200606594F85C1079
:101BE00004208840304068B12068006800F002009E
:101BF00040B194F85C1004208840A860606D40F00B
:101C00000400606594F85C1010208840304078B380
:101C10002068006800F0080050B394F85C101020B1
:101C20008840A8602068006800F4802080B12068A7
:101C3000006800F4002028B9206CC8B12046216C4F
:101C4000884715E0A06C98B12046A16C88470FE04A
:101C50002068006800F4807028B92068006820F0CF
:101C6000080021680860206C10B12046216C88476C
:101C700094F85C10202088403040002865D020680F
:101C8000006800F0100000285FD094F85C1020205D
:101C90008840A86094F83500052828D1206800689D
:101CA00020F01600216808602068406920F080005C
:101CB00021684861206C08B9A06C28B120680068D0
:101CC00020F008002168086094F85C103F208840EC
:101CD000A860012084F8350000BF002084F834009B
:101CE00000BF206D10B12046216D8847F8BD2068E7
:101CF000006800F4802080B12068006800F40020B3
:101D000028B9606C10B12046616C88471DE0E06B1B
:101D1000D8B12046E16B884717E02068006800F4DE
:101D2000807068B92068006820F0100021680860A1
:101D3000012084F8350000BF002084F8340000BF83
:101D4000E06B10B12046E16B8847606D38B3606D81
:101D500000F00100F0B1052084F83500206800682B
:101D600020F001002168086000BF0098401C00902E
:101D7000B84200D905E02068006800F001000028A2
:101D8000F3D100BF012084F8350000BF002084F8A3
:101D9000340000BFE06C10B12046E16C884700BF02
:101DA000A4E700005C0000202DE9F0410446002576
:101DB00000F080F9074614B90120BDE8F081606A9F
:101DC00000B100BF022084F8350000BF002084F875
:101DD000340000BF2068006820F00100216808601E
:101DE0000AE000F067F9C01B052805D920206065CE
:101DF000032084F83500E0E72068006800F0010067
:101E00000028EED12068056821480540D4E9010189
:101E10000843E16808432169084361690843A169EF
:101E20000843E1690843216A08430543606A0428BE
:101E300003D1D4E90B0108430543206805602068FD
:101E4000456925F00705606A0543606A04280DD1DD
:101E5000A06A0543E06A48B12046FEF79FFF28B11B
:101E600040206065012084F83500A6E720684561C0
:101E70002046FEF779FF064694F85C103F20884024
:101E8000B06000206065012084F83500002094E7F0
:101E90003F8010F07047000010B504460448006809
:101EA000204020B1024804602046FFF7F3FF10BD38
:101EB000143C0140F8B502460B46002500240020E2
:101EC0000021D6E0012606FA01F51E6806EA05049F
:101ED000AC4274D11E7906F00306012E04D01E799F
:101EE00006F00306022E13D190684F000326BE4071
:101EF000B0434F00DE68BE4030439060506801261A
:101F00008E40B0431E79C6F300168E4030435060B9
:101F10001E7906F00306032E09D0D0684F00032671
:101F2000BE40B0434F009E68BE403043D0601E7933
:101F300006F00306022E13D1CF0802F1200656F850
:101F400027004E07F70E0F26BE40B0434F07FF0E87
:101F50001E69BE403043CF0802F1200646F8270034
:101F600010684F000326BE40B0431E7906F00306FA
:101F70004F00BE40304310605E6806F44036002ECD
:101F800076D000BF002600963C4E366846F4804668
:101F90003A4F3E603E46366806F48046009600BFE3
:101FA00000BF374E8F0856F827008E07370F0F26D1
:101FB000BE40B043334EB24202D1002624E057E087
:101FC000314EB24201D101261EE0304EB24201D163
:101FD000022619E02E4EB24201D1032614E02D4E06
:101FE000B24201D104260FE02B4EB24201D10526A8
:101FF0000AE02A4EB24201D1062605E0284EB2423E
:1020000001D1072600E008268F073F0FBE4030436E
:102010001B4E8F0846F82700224E3068A0435E68AA
:1020200006F4801606B120431E4E3060361D30681F
:10203000A0435E6806F4001606B12043194E361D13
:102040003060184E361F3068A0435E6806F40036D4
:1020500006B12043134E361F3060361F3068A04350
:102060005E6806F4803606B120430E4E083E3060AE
:10207000491C1029FFF426AFF8BD00004438024087
:1020800008380140000002400004024000080240FD
:10209000000C0240001002400014024000180240F0
:1020A000001C0240083C01400AB1816101E00B04C0
:1020B00083617047014800687047000050000020AD
:1020C00003480068034909780844014908607047DB
:1020D000500000205800002010B50D48006840F462
:1020E00000700B4908600846006840F48060086092
:1020F0000846006840F480700860032000F0D2F8C1
:10210000052000F007F800F055F8002010BD000091
:10211000003C0240F0B587B004460026002700BF0F
:10212000002000901E48006840F001001C49086033
:102130000846006800F00100009000BF00BF01A940
:1021400002A800F085F900F0BBF946001548B6FB7F
:10215000F0F0471E14481549086040F2E731134873
:10216000C1604760002101618160816100F070FD04
:10217000054695B90D4800F0C3FD05466DB9192017
:1021800000F042F8102C07D200222146192000F05E
:102190004BF80748046000E00125284607B0F0BD71
:1021A0004438024040420F000000014090060020E9
:1021B0005400002008B500BF0020009011480068BE
:1021C00040F480400F4908600846006800F48040F1
:1021D000009000BF00BF00BF00200090081F0068F3
:1021E00040F08050091F08600846006800F08050E9
:1021F000009000BF00BF00220F21901E00F014F8D5
:1022000008BD00004438024001460846002809DBAA
:1022100000F01F0301229A4043099B0003F1E023D1
:10222000C3F8002100BF70472DE9F05F80460D46DE
:102230001646002703F038FF074639462A4633463C
:1022400001F00700C0F1070ABAF1040F02D94FF0FC
:10225000040A01E0C0F1070AD14600F1040ABAF10C
:10226000070F02D24FF0000A01E0A0F1030AD446A2
:102270004FF0010A0AFA09FAAAF1010A0AEA020A67
:102280000AFA0CFA4FF0010B0BFA0CFBABF1010B45
:102290000BEA030B4AEA0B042146404603F00CFF0D
:1022A000BDE8F09F00BF00F00702064B19684FF62B
:1022B000FF031940044B0B4343EA0221014B196011
:1022C00000BF70470CED00E00000FA0570B5044651
:1022D0000D460CB9012070BD5848006800F0070099
:1022E000A84209D255490D700846006800F0070061
:1022F000A84201D00120EEE7207800F00200022879
:102300001DD1207800F00400042805D14C48006855
:1023100040F4E0504A490860207800F0080008289E
:1023200005D14748006840F460404549086044488A
:10233000006820F0F000A168084341490860207857
:1023400000F00100A8B36068012807D13C480838B4
:102350000068C0F34040B8B90120BCE760680228BB
:1023600002D06068032807D1354808380068C0F3F8
:10237000406048B90120AEE7314808380068C0F332
:10238000400008B90120A6E72D48006820F00300AE
:10239000616808432A490860FFF78CFE064609E099
:1023A000FFF788FE801B41F28831884202D9032062
:1023B00091E707E02248006800F00C006168B0EB8C
:1023C000810FEDD11D48006800F00700A84209D92F
:1023D0001A490D700846006800F00700A84201D0B5
:1023E000012078E7207800F00400042807D1144881
:1023F000006820F4E050E168084311490860207843
:1024000000F00800082808D10D48006820F460405A
:10241000216940EAC1000A49086000F061F80849F2
:102420000968C1F30311074A515CC84006490860B6
:1024300006480068FFF76EFE00204CE7003C0240B3
:1024400008380240609B00085C0000205400002017
:102450000F2202600D4A126802F0030242600B4A2A
:10246000126802F0F0028260084A126802F4E05238
:10247000C260064A126802F46042D2080261044A4D
:10248000126802F007020A60704700000838024034
:10249000003C024001480068704700005C000020DA
:1024A00000B5FFF7F7FF04490968C1F38221034A29
:1024B000515CC84000BD000008380240709B000815
:1024C00000B5FFF7E7FF04490968C1F34231034A49
:1024D000515CC84000BD000008380240709B0008F5
:1024E0002DE9F047002400250026A1462548006874
:1024F00000F00C0020B1042805D008283AD105E0EE
:10250000DFF8849039E0DFF8849036E01D48001F42
:10251000006800F03F041B48001F006800F48000C2
:1025200078B11A481749091F0968C1F38811A0FB3F
:1025300001700146224600233846FDF7F5FE0546A8
:102540000EE011480F49091F0968C1F38811A0FB6B
:1025500001700146224600233846FDF7E5FE054698
:102560000848001F0068C0F30140401C4600B5FB4E
:10257000F6F902E0DFF8109000BF00BF4846BDE862
:10258000F0870000083802400024F400001BB70068
:10259000F8B504460CB90120F8BD207800F0010020
:1025A000002874D0F948006800F00C0004280DD011
:1025B000F648006800F00C00082813D1F348001F0B
:1025C000006800F48000B0F5800F0BD1EF480838A8
:1025D0000068C0F34040002859D06068002856D1F8
:1025E0000120D9E700BF6068B0F5803F08D1E74817
:1025F0000838006840F48030E449083908601EE07B
:102600006068B0F5A02F0DD1E0480838006840F4AC
:102610008020DE49083908600846006840F48030B0
:1026200008600CE0D9480838006820F48030D749A9
:10263000083908600846006820F48020086000BF60
:10264000606890B1FFF736FD054606E0FFF732FD02
:10265000401B642801D903209EE7CC480838006855
:10266000C0F340400028F1D011E0FFF723FD0546FC
:1026700006E0FFF71FFD401B642801D903208BE70C
:10268000C24808380068C0F340400028F1D12078E3
:1026900000F0020002285FD1BC48006800F00C0086
:1026A00058B1BA48006800F00C0008281CD1B7489F
:1026B000001F006800F48000B0B9B4480838006812
:1026C000C0F3400020B1E068012801D0012063E799
:1026D000AE480838006820F0F800216940EAC100DF
:1026E000AA490839086037E0E06800B30120A8492A
:1026F0000860FFF7DFFC054606E0FFF7DBFC401B48
:10270000022801D9032047E7A04808380068C0F331
:1027100040000028F1D09D480838006820F0F800FB
:10272000216940EAC10099490839086014E0002095
:1027300097490860FFF7BEFC054606E0FFF7BAFCC4
:10274000401B022801D9032026E79048083800687A
:10275000C0F340000028F1D1207800F008000828DC
:102760002CD16069A8B101208A490860FFF7A2FC5A
:10277000054606E0FFF79EFC401B022801D9032016
:102780000AE782486C300068C0F340000028F1D0AE
:1027900014E000207F490860FFF78CFC054606E046
:1027A000FFF788FC401B022801D90320F4E6774894
:1027B0006C300068C0F340000028F1D1207800F0B0
:1027C0000400042870D1002770483830006800F0F9
:1027D000805090B900BF002000906C4838300068ED
:1027E00040F080506949383108600846006800F0C0
:1027F0008050009000BF00BF01276748006800F4C8
:102800008070B0B96448006840F480706249086024
:10281000FFF750FC054606E0FFF74CFC401B022882
:1028200001D90320B8E65C48006800F480700028F5
:10283000F2D000BFA068012808D154486830006871
:1028400040F001005149683108601DE0A06805288A
:102850000DD14E486830006840F004004B496831A3
:1028600008600846006840F0010008600CE0474836
:102870006830006820F0010044496831086008466B
:10288000006820F00400086000BFA068A8B1FFF74E
:1028900011FC054609E0FFF70DFC401B41F28831B1
:1028A000884202D9032077E626E03848683000687D
:1028B000C0F340000028EED013E0FFF7FBFB054615
:1028C00008E0FFF7F7FB401B41F28831884201D94D
:1028D000032061E62D4868300068C0F340000028FE
:1028E000EFD1012F07D129483830006820F08050FF
:1028F00026493831086000BFA069002845D0234828
:10290000006800F00C0008285DD0A069022845D1BD
:1029100000201F490866FFF7CDFB054606E0FFF7DC
:10292000C9FB401B022801D9032035E617480838A7
:102930000068C0F340600028F1D1D4E907010843E2
:10294000616A40EA81110122A06AC2EB500041EAAB
:1029500000412C20005D41EA00600C49091F08601D
:1029600001200B490866FFF7A5FB054606E0FFF7C7
:10297000A1FB401B022801D903200DE603480838BB
:102980000068C0F340600028F1D049E008380240F8
:1029900000004742800E474200700040002021495D
:1029A0000866FFF787FB054606E0FFF783FB401B41
:1029B000022801D90320EFE51B480068C0F34060FE
:1029C0000028F2D12CE0A069012800D1E4E51648E6
:1029D000001D0668A069012820D006F48001E06986
:1029E00081421BD106F03F01206A814216D147F691
:1029F000C0703040616AB0EB811F0FD106F44031E6
:102A00000122A06AC2EB5000B1EB004F06D106F0E4
:102A100070612C20005DB1EB006F01D00120BBE59F
:102A20000020B9E5000047420038024010B50446D6
:102A30000CB9012010BD606A38B96068B0F5827FBA
:102A400000D105E00021E16102E000212161616126
:102A50000021A16294F8510028B9002084F85000A8
:102A6000204600F047F8022084F8510020680068F2
:102A700020F0400021680860A08800F4827021895D
:102A800001F404410843A18901F400610843217C59
:102A900001F002010843217D01F001010843218B6F
:102AA00001F400710843217F01F03801084320211F
:102AB000095D01F080010843218D01F400510843B4
:102AC000216808600421A06901EA104094F82410EC
:102AD00001F010010843216848602068C06920F4B3
:102AE00000602168C86100206065012084F8510001
:102AF00000209FE710B586B00446142101A8FDF719
:102B00004FFD4B49206888427ED100BF00200090D5
:102B10004848006840F4805046490860084600680C
:102B200000F48050009000BF00BF00BF0020009064
:102B300040481438006840F002003E4914390860EB
:102B40000846006800F00200009000BF00BF00BF10
:102B5000002000900846006840F001000860084628
:102B6000006800F00100009000BF00BF1820019035
:102B7000022002900120039003200490052005907C
:102B800001A92D48FFF796F98020019002200290BC
:102B900001200390032004900520059001A92748F7
:102BA000FFF788F92648274908604FF0C060486061
:102BB000002124488160C1604FF4806101610021DF
:102BC00041618161C1614FF40031016200214162C4
:102BD000FFF7EAF808B1FEF7DCF900BF1948E06436
:102BE000846300BF16484830174908604FF0C06042
:102BF00048604021144881600021C1604FF4806129
:102C000001610021416100E010E08161C1614FF488
:102C10000031016200214162FFF7C6F808B1FEF7FA
:102C2000B8F900BF0848A064846300BF06B010BDB7
:102C300000300140443802400004024000000240DD
:102C400010640240E00300204004002070477047F9
:102C500010B504460CB9012010BD94F83D0028B908
:102C6000002084F83C00204600F026F8022084F87A
:102C70003D00211D206802F033FC012084F846004D
:102C800000BF84F83E0001213F200155402001553E
:102C90004120015500BF00BF012084F842004320BD
:102CA0000155442001554520015500BF012084F8FD
:102CB0003D000020D0E7000038B504460E492068EA
:102CC000884217D100BF002000900C48006840F4F3
:102CD00000300A4908600846006800F4003000909F
:102CE00000BF00BF002205211920FFF79DFA19201F
:102CF000FFF78AFA38BD0000004401404438024022
:102D0000014691F83D00012801D0012070470220C2
:102D100081F83D000868C06840F001000B68D86089
:102D20001A4B086898421BD00868B0F1804F17D042
:102D3000174B0868984213D0164B086898420FD07A
:102D4000154B086898420BD0144B0868984207D07E
:102D5000134B0868984203D0124B086898420CD174
:102D60000868806800F00702062A0CD0086800682E
:102D700040F001000B68186005E00868006840F04A
:102D800001000B6818600020C0E70000000001404F
:102D90000004004000080040000C00400004014016
:102DA0000040014000180040704710B504462068FC
:102DB0000069C0F34000D8B12068C068C0F340008B
:102DC000B0B16FF00200216808610120207720680F
:102DD000806900F0030018B12046FFF7E5FF05E029
:102DE000204600F0DFF8204600F093F9002020771D
:102DF00020680069C0F38000D8B12068C068C0F3C3
:102E00008000B0B16FF004002168086102202077D3
:102E10002068806900F4407018B12046FFF7C4FFB5
:102E200005E0204600F0BEF8204600F072F90020D0
:102E3000207720680069C0F3C000D8B12068C0685E
:102E4000C0F3C000B0B16FF0080021680861042031
:102E500020772068C06900F0030018B12046FFF712
:102E6000A3FF05E0204600F09DF8204600F051F950
:102E70000020207720680069C0F30010D8B12068D6
:102E8000C068C0F30010B0B16FF010002168086195
:102E9000082020772068C06900F4407018B12046EF
:102EA000FFF782FF05E0204600F07CF8204600F0A6
:102EB00030F9002020772068006900F0010058B147
:102EC0002068C06800F0010030B16FF00100216897
:102ED0000861204600F01EF920680069C0F3C010A8
:102EE00058B12068C068C0F3C01030B16FF08000E6
:102EF000216808612046FFF7A9FE20680069C0F339
:102F0000801058B12068C068C0F3801030B16FF0F5
:102F1000400021680861204600F008F92068006937
:102F2000C0F3401058B12068C068C0F3401030B101
:102F30006FF02000216808612046FFF788FE10BD71
:102F400010B586B00446142101A8FDF729FB1249EB
:102F5000206888421DD100BF002000900F48006803
:102F600040F020000D4908600846006800F020008D
:102F7000009000BF00BF402001900220029001207D
:102F80000390022004900320059001A90448FEF755
:102F900091FF06B010BD00000044014030380240EF
:102FA0000014024070472DE9F04104460D461646D4
:102FB000002700BF94F83C00012802D10220BDE8A0
:102FC000F081012084F83C0000BF36B1042E1BD0F4
:102FD000082E31D00C2E5ED145E02946206802F043
:102FE000EBFA2068806940F0080021688861206859
:102FF000806920F00400216888612068806929695F
:1030000008432168886148E02946206802F00CFBEB
:103010002068806940F400602168886120688069C8
:1030200020F480602168886120688069296940EA0D
:1030300001202168886130E02946206802F032FBD7
:103040002068C06940F008002168C8612068C06934
:1030500020F004002168C8612068C069296908431C
:103060002168C86119E02946206802F057FB2068F2
:10307000C06940F400602168C8612068C06920F41C
:1030800080602168C8612068C069296940EA012020
:103090002168C86101E0012700BF00BF00BF002018
:1030A00084F83C0000BF384689E710B504460CB9E7
:1030B000012010BD94F83D0028B9002084F83C00A0
:1030C000204600F025F8022084F83D00211D2068EC
:1030D00002F006FA012084F8460000BF84F83E00A2
:1030E00001213F200155402001554120015500BFDD
:1030F00000BF012084F842004320015544200155BF
:103100004520015500BF012084F83D000020D0E794
:103110007047704710B5044603492068884201D1C2
:10312000FEF7CEFF10BD0000000001407047704761
:10313000704700002DE9F84F0446206805682068B4
:10314000C668206847694FF00009CA4605F00F09B4
:10315000B9F1000F0AD105F0200038B106F02000C7
:1031600020B1204602F080FBBDE8F88FB9F1000FD6
:103170007CD007F0010018B906F49070002875D0D3
:1031800005F0010030B106F4807018B1206C40F0F9
:103190000100206405F0040030B107F0010018B10F
:1031A000206C40F00200206405F0020030B107F00E
:1031B000010018B1206C40F00400206405F0080004
:1031C00048B106F0200010B907F0010018B1206CDA
:1031D00040F008002064206C002846D005F0200054
:1031E00028B106F0200010B1204602F03DFB206817
:1031F0004069C0F3801A206C00F0080010B9BAF1E1
:10320000000F2DD0204602F0E9FA2068406900F056
:103210004000402820D100BF00BF2168143151E890
:10322000001F21F040002168143141E80002002A0B
:10323000F3D100BFA06B50B17548A16B0865A06BBE
:10324000FEF77DFC88B1A06B016D88470DE020463C
:10325000FFF76EFF09E009E02046FFF769FF04E091
:103260002046FFF765FF002020647DE7206B0128E2
:1032700076D105F01000002872D006F0100000286A
:10328000FAD000BF002000902068006800902068FD
:103290004068009000BF00BF2068406900F0400017
:1032A00040285ED1A06B006840681FFA80F8B8F132
:1032B000000F54D0A08D404551DDA4F82E80A06BA6
:1032C000C069B0F5807F43D000BF00BF21680C31DA
:1032D00051E8001F21F4807021680C3141E80002A0
:1032E000002AF3D100BF00BF00BF2168143151E8AC
:1032F000001F21F001002168143141E80002002A7A
:10330000F3D100BF00BF00BF2168143151E8001F96
:1033100021F040002168143141E80002002AF3D175
:1033200000BF202084F83E000020206300BF00BFC3
:1033300021680C3151E8001F21F0100021680C3188
:1033400041E80002002AF3D100BFA06BFEF7A1FB09
:10335000A08DE28D801A81B22046FFF7E8FE03E7D8
:1033600040E0A08DE18D401A1FFA80F8E08DC0B3D7
:10337000B8F1000F35D000BF00BF21680C3151E813
:10338000001F21F4907021680C3141E80002002AEE
:10339000F3D100BF00BF00BF2168143151E8001F06
:1033A00021F001002168143141E80002002AF3D124
:1033B00000BF202084F83E000020206300BF00BF33
:1033C00021680C3151E8001F21F0100021680C31F8
:1033D00041E80002002AF3D100BF41462046FFF732
:1033E000A6FEC1E605F0800030B106F0800018B1FD
:1033F000204602F0CBFBB7E605F0400030B106F006
:10340000400018B1204602F01FFAADE600BFABE65F
:10341000C957000810B504460CB9012010BDA069B9
:1034200000B100E000BF94F83D0028B9002084F806
:103430003C00204600F028F8242084F83D00206855
:10344000C06820F400502168C860204602F088FA65
:103450002068006920F49040216808612068406974
:1034600020F02A00216848612068C06840F40050BC
:103470002168C86000202064202084F83D0084F882
:103480003E000020CAE7000010B586B004461421B3
:1034900001A8FDF785F86F49206888425BD100BF1D
:1034A000002000906C48006840F480206A49086061
:1034B0000846006800F48020009000BF00BF00BFF5
:1034C0000020009064481038006840F00400624911
:1034D000103908600846006800F00400009000BF42
:1034E00000BF4FF440600190022002900020039042
:1034F000032004900720059001A95848FEF7DAFC44
:103500005748584908604FF000604860002155480E
:103510008160C1604FF4806101610021416181617E
:103520004FF48071C1614FF440310162002141626A
:10353000FEF73AFC08B1FDF72CFD00BF4948A06337
:10354000846300BF002205212720FEF76DFE27209F
:10355000FEF75AFE7CE044492068884278D100BFDB
:10356000002000903C48001D006840F020003A49CF
:10357000091D08600846006800F02000009000BFA8
:1035800000BF00BF0020009033481038006840F0B2
:1035900040003149103908600846006800F04000DA
:1035A000009000BF00BF4FF48440019002200290C1
:1035B00000200390032004900820059001A92B48C7
:1035C000FEF778FC2A482B490860800548600021F6
:1035D00028488160C1604FF4806101610021416130
:1035E00081614FF48071C161002101624162FEF787
:1035F000DBFB08B1FDF7CDFC00BF1E48A063846370
:1036000000BF1B4878301C4908604FF020604860BC
:103610004021194881600021C1604FF4806101613F
:10362000002141618161C16101624162FEF7BCFB21
:1036300008B1FDF7AEFC00BF0F486063846300BFB4
:10364000002205214720FEF7EFFD4720FEF7DCFDB5
:1036500006B010BD0048004040380240000802405B
:10366000286002407005002000140140001802404C
:1036700028640240D00500203006002070477047C3
:1036800070B504460D46611904F580700A68C4F8E7
:1036900000214A68C4F804210989A4F808110A2104
:1036A00002F0E2FA012809D140F20711095D84F81D
:1036B000B611002140F2B710015503E0012140F29C
:1036C000B710015570BD00BFFEE770B504460D464A
:1036D0006119272204F58070FCF7C9FE272104F543
:1036E000807002F0C1FA01280BD11E2204F20711EA
:1036F00004F2D310FCF7BBFE002140F2D9100155B3
:1037000003E0012140F2D910015570BD10B58EB013
:10371000044604F0F3FBFDF701F8FDF725F8FDF78B
:1037200093FBFDF7A7FB1C22104907A8FCF7E4FE5A
:10373000002107A803F0E3FE0D4908601C220B4995
:103740001C316846FCF7D8FE0021684603F0D7FE1E
:10375000084908600848006804F05AFD07480068F6
:1037600004F056FD04F0F4FB0EB010BD0C8D000803
:10377000200000202800002004000020000000207D
:1037800010B50F480F4908600320486000210D481C
:103790008160C1604FF4102101614FF4001141615B
:1037A000002101760121417681760021C1760177E1
:1037B0004177FDF7B4FF08B1FDF7EBFB10BD00004A
:1037C000006400403803002010B50F480F4908601E
:1037D0000320486000210D488160C1604FF4102132
:1037E00001614FF400114161002101760121417610
:1037F00081760021C17601774177FDF790FF08B10E
:10380000FDF7C7FB10BD000000680040600300200A
:1038100008B500BF002000902248006840F48000F6
:10382000204908600846006800F48000009000BF4E
:1038300000BF00BF002000900846006840F4001060
:1038400008600846006800F40010009000BF00BF48
:10385000002205210C20FEF7E7FC0C20FEF7D4FC2B
:10386000002205213820FEF7DFFC3820FEF7CCFCD3
:10387000002205213920FEF7D7FC3920FEF7C4FCD1
:10388000002205213B20FEF7CFFC3B20FEF7BCFCCD
:10389000002205214520FEF7C7FC4520FEF7B4FCB9
:1038A00008BD00003038024000B58FB01C220C4922
:1038B00008A8FCF721FE002108A803F020FE094912
:1038C00008601C2206491C3101A8FCF715FE0021E6
:1038D00001A803F014FE044908600FB000BD000009
:1038E000D0890008000000200400002000B587B047
:1038F000142102A8FCF754FE00BF0020019061488B
:10390000006840F002005F4908600846006800F067
:103910000200019000BF00BF00BF002001900846D8
:10392000006840F0400008600846006800F0400071
:10393000019000BF00BF00BF002001900846006852
:1039400040F0010008600846006800F001000190A6
:1039500000BF00BF00BF002001900846006840F093
:10396000080008600846006800F00800019000BFE9
:1039700000BF00BF002001900846006840F004002E
:1039800008600846006800F00400019000BF00BF16
:1039900000BF002001900846006840F080000860E9
:1039A0000846006800F08000019000BF00BF00BF23
:1039B000002001900846006840F02000086008469A
:1039C000006800F02000019000BF00BF01228915AF
:1039D0002D48FEF769FB012210212C48FEF764FBFD
:1039E000012211462A48FEF75FFB4FF4E050029097
:1039F0000220039000200490032005900A200690E6
:103A000002A92248FEF756FA4FF480700290012076
:103A1000039000200490059002A91B48FEF74AFA83
:103A2000102002900120039004900220059002A92A
:103A30001648FEF73FFA302002904FF4041003902E
:103A40000120049002A91048FEF734FA01200290E8
:103A5000039004900220059002A90D48FEF72AFA6F
:103A6000002205210A20FEF7DFFB0A20FEF7CCFB2F
:103A7000002205211720FEF7D7FB1720FEF7C4FB15
:103A800007B000BD3038024000080240000002408C
:103A90000004024010B50F480F4908604FF48270CF
:103AA000486000210C488160C16002210161012150
:103AB0004161490281611021C161002101624162BD
:103AC00081620A21C162FEF7B1FF08B1FDF761FA18
:103AD00010BD0000003001408803002000B587B011
:103AE0001C216846FCF75CFD16481749086040F247
:103AF0004730486000211448816040F2CF71C160B6
:103B0000002101618161FFF7A3F808B1FDF741FAD7
:103B10000D48FFF7CAFA08B1FDF73BFA60200090A4
:103B20000020019002900490002269460648FFF7A9
:103B30003AFA08B1FDF72DFA0348FFF701FA07B08A
:103B400000BD000000440140A004002010B50B4857
:103B50000B4908600B484860002109488160C1603A
:103B60004FF4806101610C21416100218161C161DB
:103B7000FFF750FC08B1FDF70CFA10BD00480040FB
:103B8000E8040020A086010010B50B480B4908602E
:103B90004FF4E1304860002108488160C160016154
:103BA0000C21416100218161C161FFF733FC08B143
:103BB000FDF7EFF910BD0000001401402C050020B6
:103BC00000BFFEE700BFFEE770B504460D46611971
:103BD000192204F58070FCF74AFC192104F5807065
:103BE00002F042F801280BD1102204F2071104F56B
:103BF000C870FCF73CFC00214FF4D070015503E085
:103C000001214FF4D070015570BD10B52DED028B20
:103C10000446B0EE408AF0EE608A18EE100AE060CA
:103C2000B4F8480000F4807010B1204603F04CFA5C
:103C300018EE900AA061E06800EE100AA06900EE9C
:103C4000900A30EE600A10EE100AE063E06B00EEBE
:103C5000100A206C00EE900A30EE600A10EE100A96
:103C60002063E06B00EE100AB5EEC00AF1EE10FA28
:103C700003DDE06B00EE100A04E0E06B00EE100ADA
:103C8000B1EE400A206D00EE900AB4EEE00AF1EECB
:103C900010FA7DDDE06B00EE100A206800EE900A5D
:103CA00020EE200A10EE100A2062E06900EE100AF1
:103CB000E06B00EE900A30EE200A10EE100AE06190
:103CC00094F8480000F0080018B1204603F05EF9AF
:103CD0000AE0A06800EE100A206B00EE900A20EEC9
:103CE000200A10EE100AA06294F8480000F02000AC
:103CF00010B12046FCF712FE94F8480000F00200D4
:103D000010B1204603F07CF9606800EE100AE0690B
:103D100000EE900A20EE200A10EE100A606294F87D
:103D2000480000F0100010B1204603F0AFF994F8FD
:103D3000480000F0800048B1A06A00EE100A04F1CB
:103D4000680003F027FA10EE100AA062206A00EE65
:103D5000100A606A00EE900A70EE200AA06A00EE77
:103D6000100A30EE800A10EE100AE06294F8480063
:103D700000F0400048B1E06A00EE100A04F178005B
:103D800003F008FA10EE100AE06294F8480000E030
:103D900006E000F0040030B1204603F054F902E0E0
:103DA000204603F0DBFBA0696061E0682061206BC6
:103DB0006063E06B2064E06A00EE100ABDEC028BE9
:103DC00010BD70B52DED048B0446B0EE408AF0EEC8
:103DD000608AB0EE419A0D4690212046FCF7BEFB6A
:103DE0000020C4F88C0018EE100A206018EE900A2B
:103DF000606019EE100AA060A564BDEC048B70BD74
:103E000010291CD008DC09293DD2DFE801F00F336E
:103E1000103C1F3C3C3C1400202920D0402919D0E4
:103E2000802923D0B1F5807F2DD127E0704710EE97
:103E3000102AC264FAE710EE102A4266F6E710EE86
:103E4000102A426510EE902A8265EFE710EE102AE4
:103E50004264EBE710EE102AC0F88420E6E710EE8B
:103E6000102AC26510EE902A0266DFE710EE102AD3
:103E70004267DBE710EE102A0265D7E710EE102A42
:103E8000C0F88820D2E700BFD0E770B505460C46E1
:103E900003F0A4FE2878697840EA0120C0F30A0004
:103EA00020806878C010A97840EA4110C0F30A0069
:103EB0006080A8788011E97840EA8100297940EA99
:103EC0008120C0F30A00A08028794010697940EA77
:103ED000C110C0F30A00E080687900118008A07268
:103EE0006879C0F30110E072A879E97940EA01200D
:103EF00000B2A081287A697A40EA012001B2E1810A
:103F0000A87AE97A40EA012001B22182297BA174D2
:103F1000697BE174A87BE97B40EA0120A082287CD0
:103F2000697C40EA012000B220812088A0F58060F1
:103F300000B220806088A0F5806000B26080A08818
:103F4000A0F5806000B2A080E088A0F5806000B29B
:103F5000E0802089A0F5806000B22081B4F90000E3
:103F6000052103F031FE2080B4F90200052103F0A1
:103F70002BFE6080B4F90400052103F025FEA0802B
:103F8000B4F90600052103F01FFEE080002070BD9B
:103F900000487047F408002030B50468646944F0B4
:103FA000400405686C610468E46844F01004056826
:103FB000EC60846B2468246824F00104856B2D6810
:103FC0002C6007E0846B2468246824F00104856B6E
:103FD0002D682C60846B2468246804F00104002C94
:103FE000F0D10468241D856B2D68AC60846B246857
:103FF000E160846B24682261846B24686360846B55
:104000002468246844F48024856B2D682C60846BBC
:104010002468246844F00104856B2D682C6030BD51
:1040200038B504462068006800F0200050B100BF99
:104030000020009020680068009020684068009090
:1040400000BF6EE02068006800F01000002868D013
:1040500000BF002000902068006800902068406841
:10406000009000BF00BFA06B0068006800F4002053
:1040700058BBA06B0068006820F00100A16B0968C4
:104080000860A06B00684068C0F1240025490880E2
:104090002420A16B09684860A06B0068006840F4A8
:1040A0000020A16B09680860A06B0068006840F000
:1040B0000100A16B096808601A480088122830D1F5
:1040C00019491A48FFF7E1FE2BE0A06B0068006871
:1040D00020F00100A16B09680860A06B00684068CF
:1040E000C0F124000F4908802420A16B09684860B2
:1040F000A06B0068006820F40020A16B09680860CC
:10410000A06B0068006840F00100A16B09680860BE
:1041100004480088122804D1034904482430FFF7DA
:10412000B4FE38BD10000020F40800200C09002067
:1041300038B504462068006800F0200050B100BF88
:10414000002000902068006800902068406800907F
:1041500000BF88E02068006800F010000028F8D058
:1041600000BF002000902068006800902068406830
:10417000009000BF00BFA06B0068006800F4002042
:10418000C0BBA06B0068006820F00100A16B09684B
:104190000860A06B00684068C0F5807032490880F4
:1041A0004FF48070A16B09684860A06B00680068DC
:1041B00040F40020A16B09680860A06B00680068EB
:1041C00040F00100A16B096808602748008800B230
:1041D0002649A1F82D01002004E02549095C234A65
:1041E0001154401C204909888842F6DB1F4800F022
:1041F00018F938E0FFE7A06B0068006820F00100C4
:10420000A16B09680860A06B00684068C0F5807009
:10421000154908804FF48070A16B09684860A06B55
:104220000068006820F40020A16B09680860A06B9A
:104230000068006840F00100A16B096808600A4846
:10424000008800B20949A1F82D01002004E00949C5
:10425000095C064A1154401C034909888842F6DB70
:10426000024800F0DEF838BD12000020540C002097
:1042700054090020540A002070B504460D46611907
:104280004FF485700A68C4F800214A68C4F8042114
:104290000A89A4F80821897A01550B2104F5807058
:1042A00001F0E2FC01280AD104F58070B4F807118E
:1042B000A4F86F11002140F27110015503E00121B3
:1042C00040F27110015570BD70B504460D4661197C
:1042D0000D2204F58070FCF7CAF80D2104F58070FA
:1042E00001F0C2FC012808D1D4F80711C4F8C711A5
:1042F000002140F2CB10015503E0012140F2CB1028
:10430000015570BD70B504460D46611904F5807005
:104310000A68C4F800214A68C4F804210989A4F88D
:1043200008110A2101F0A0FC012809D140F207116F
:10433000095D84F8B211002140F2B310015503E089
:10434000012140F2B310015570BD70B504460D4611
:104350006119292204F58070FCF789F8292104F5F8
:10436000807001F081FC012815D140F21111D4F8C0
:1043700007214FF4A670C4F84221D4F80B21C4F8E9
:104380004621B4F80F21A4F84A21095D0155002106
:1043900084F8621102E0012184F8621170BD70B5E9
:1043A00004460D466119192204F58070FCF75FF888
:1043B000192104F5807001F057FC01280BD110225F
:1043C00004F2071104F2A110FCF751F8002140F2A9
:1043D000B110015503E0012140F2B110015570BD4B
:1043E00070B504460D466119242204F58070FCF76F
:1043F0003EF8242104F5807001F036FC01280BD131
:104400001B2204F2071104F5BA70FCF730F8002102
:1044100040F28F10015503E0012140F28F10015549
:1044200070BD70B50546002405E1285DA52873D14F
:104430000521284601F038FC0128F8D1601C295CD0
:10444000A01C285C41EA002000B2A5F82F01601DE5
:10445000295CA01D285C41EA002000B2A5F83101CA
:10446000B5F93101B0F5017F6FD01CDCB0F5827F6A
:104470005BD00DDC03283FD004DC01282BD00228C0
:1044800074D130E0A0F20110A8B30128F8D144E0C3
:10449000A0F20510002850D0FC2857D0FD285DD090
:1044A000FE28EDD163E040F20A22811A904276D0D4
:1044B00008DCA0F20520052858D2DFE800F0687477
:1044C0007C848C00F8296BD0F9296AD0FA2969D04C
:1044D000FB29D5D1A3E021462846FCF78DFD04F148
:1044E0001C00C4B2A4E021462846FCF755FD04F1A7
:1044F0000900C4B29CE007E021462846FFF725FFEB
:1045000004F12800C4B293E021462846FCF7C0FC21
:1045100004F10C00C4B28BE08BE02146284600F089
:104520002CFE04F10C00C4B282E021462846FFF7BD
:10453000A3FE04F10A00C4B27AE021462846FCF743
:10454000C7FB04F10900C4B272E018E02146284616
:10455000FFF746FF04F12300C4B269E02146284674
:10456000FFF732FB04F11800C4B261E05FE02146BE
:104570002846FFF714FF04F11800C4B258E02146A2
:104580002846FFF7BFFE04F10900C4B250E02146FF
:10459000284601F02BFB04F10A00C4B248E022E0F7
:1045A00029E030E037E021462846FFF769F804F1BA
:1045B0000900C4B23CE02146284600F0B7FD04F1F2
:1045C0000F00C4B234E021462846FCF74CF804F151
:1045D0000E00C4B22CE021462846FFF775FE04F118
:1045E0000C00C4B224E021462846FCF74DFB04F140
:1045F0000E00C4B21CE021462846FFF766F804F11D
:104600002600C4B214E021462846FCF73DF904F127
:104610001700C4B20CE004F11400C4B208E0214653
:104620002846FCF752F904F11200C4B200E000BFC2
:1046300000BF601CC4B2B5F92D01A0423FF7F5AE32
:1046400070BD00002DE9F04706460F46904699469A
:10465000DFF8B0A000BF9AF8000008B901F03CFBF9
:1046600000BFEFF311810846202181F3118800BFBC
:1046700000BF244D002400BF04EB440205F11801E3
:1046800001EBC201496801B903E0641C2969A14238
:10469000F2DC00BF2969A1422ADD04EB440205F1E6
:1046A000180141F8326004EB440201EBC2014F6093
:1046B00004EB440205F1180101EBC201C1F80880C6
:1046C000002204EB440305F1180101EBC3010A6168
:1046D00004EB440305F1180101EBC301CA6004EBCC
:1046E000440205F1180101EBC201C1F8149001E088
:1046F0004FF0FF34C1B281F3118800BF00BF2046E4
:10470000BDE8F0872C5200202DE9F05F05460F46EA
:1047100090469946DFF860B000BF9BF8000008B9EA
:1047200001F0DAFA00BFDFF850A0032D1FD2EFF33B
:1047300011810846202181F3118800BF00BF05EBDD
:1047400045020AF1600101EBC2043DB12760C4F8E3
:104750000480C4F8089000212161E1600A99616138
:10476000C1B281F3118800BF00BF002601E04FF005
:10477000FF363046BDE8F09F2C5200202DE9F74F60
:1047800082B0834617462648009000BF0098007804
:1047900008B901F0A1FA00BF0BEB4B0120486030D3
:1047A00000EBC106DDF80C903569D6F80CA04FF08F
:1047B0000008554517D9B068441BBC4201D22046B9
:1047C00000E0384604467068284401902246484676
:1047D0000199FBF74CFEA044A1443F1B2544B0685F
:1047E000A84200D10025AAEB0504BC4201D2204614
:1047F00000E0384604465CB17068284401902246C7
:1048000048460199FBF733FEA044A1443F1B2544D1
:10481000B8F1000F00D03561404605B0BDE8F08F1B
:104820002C5200202DE9F74F82B08346154603989D
:1048300001900BEB4B01204800EBC104D4F8109021
:10484000E668B14530D8A068801B471EAF420ED342
:1048500000BF606800EB060A2A4650460199FBF744
:1048600006FE7019E060012005B0BDE8F08F4F44EE
:10487000AF421FD3A068A0EB0608606800EB060AF1
:10488000424650460199FBF7F2FDA5EB080545B1FC
:10489000D4F804A0019800EB08012A465046FBF723
:1048A000E6FDE5600120DFE7A9EB0600471EAF4209
:1048B00000D3CEE70020D7E74452002010B5064BC6
:1048C000064A07480168006800F06AF84FF0805017
:1048D00000F03EFB10BD000021610008A49B000811
:1048E0005C00002070B5EFF311800646202080F3B5
:1048F000118800BF00BF284801F09EFA05462C46EB
:104900002046264A516805E0CAB242F0800200F80B
:10491000012BC9097F29F7D800F8011B044620465E
:104920001E4A916805E0CAB242F0800200F8012BED
:10493000C9097F29F7D800F8011B04462046174A09
:10494000116905E0CAB242F0800200F8012BC909E2
:104950007F29F7D800F8011B04462046002105E016
:10496000CAB242F0800200F8012BC9097F29F7D8AA
:1049700000F8011B044618222146284601F060FA7F
:10498000F0B280F3118800BF00BF0448406A10B144
:104990000249486A804770BD0C5B0020E45A002041
:1049A000F8B504460D4616461F4600234FF48062B4
:1049B0000F4910A0FFF746FE10494870084640789E
:1049C000087600200090087E08230D4A09A1FFF711
:1049D0009BFE0020094908610A484068C8600846F3
:1049E000066244608560476200200870F8BD0000E0
:1049F000E45600205379735669657700E45A002025
:104A0000D0000020001000E070B5EFF311800446E4
:104A1000202080F3118800BF00BF074801F00CFA86
:104A2000054611222946284601F00AFAE0B280F331
:104A3000118800BF00BF70BD0C5B00202DE9F04164
:104A40000446EFF311800746202080F3118800BF51
:104A500000BF114801F0F0F905462E460F480069E5
:104A6000241A3046214605E0CAB242F0800200F81E
:104A7000012BC9097F29F7D800F8011B0646082237
:104A80003146284601F0DCF9F8B280F3118800BF06
:104A900000BFBDE8F08100000C5B0020E45A00205C
:104AA0002DE9F0410446EFF311800746202080F302
:104AB000118800BF00BF114801F0BEF905462E461F
:104AC0000F480069241A3046214605E0CAB242F078
:104AD000800200F8012BC9097F29F7D800F8011BD3
:104AE000064604223146284601F0AAF9F8B280F3BE
:104AF000118800BF00BFBDE8F08100000C5B002002
:104B0000E45A00202DE9F0410446EFF311800746F6
:104B1000202080F3118800BF00BF114801F08CF9FC
:104B200005462E460F480069241A3046214605E006
:104B3000CAB242F0800200F8012BC9097F29F7D8D8
:104B400000F8011B064606223146284601F078F996
:104B5000F8B280F3118800BF00BFBDE8F08100000B
:104B60000C5B0020E45A002070B50C48006A78B154
:104B70000A48006A006858B10849096A086880470D
:104B800004460D462A4621460D2000F039F804E07F
:104B9000034841680C2000F005F870BDE45A00207D
:104BA000001000E02DE9F04105460E46EFF31180BC
:104BB0008046202080F3118800BF00BF0F4801F01D
:104BC0003BF9044627463846314605E0CAB242F072
:104BD000800200F8012BC9097F29F7D800F8011BD2
:104BE00007462A463946204601F02AF908F0FF0018
:104BF00080F3118800BF00BFBDE8F0810C5B00208E
:104C00002DE9F04706460F469046EFF311808146A6
:104C1000202080F3118800BF00BF174801F00CF975
:104C200005462C462046394605E0CAB242F08002CD
:104C300000F8012BC9097F29F7D800F8011B0446A9
:104C40002046414605E0CAB242F0800200F8012B3E
:104C5000C9097F29F7D800F8011B044632462146CE
:104C6000284601F0EDF809F0FF0080F3118800BF3D
:104C700000BFBDE8F08700000C5B002070B5044663
:104C8000EFF311800546202080F3118800BF00BF9C
:104C9000074801F0D1F8064622463146304601F079
:104CA000CFF8E8B280F3118800BF00BF70BD0000EC
:104CB0000C5B00202DE9F0470646274800680028D5
:104CC00047D025480468002703E0246904B902E0BE
:104CD0007F1CB742F9D300BF002C3AD0EFF311800C
:104CE0008146202080F3118800BF00BF1B4801F0DF
:104CF000A3F8804645462846314605E0CAB242F050
:104D0000800200F8012BC9097F29F7D800F8011BA0
:104D100005462846A16805E0CAB242F0800200F8C4
:104D2000012BC9097F29F7D800F8011B054680220D
:104D30002846216801F008F8054616222946404613
:104D400001F07EF809F0FF0080F3118800BF00BF7A
:104D500000BFBDE8F0870000D80000200C5B0020F9
:104D600010B50748006848B10548046800BFE0680E
:104D700008B1E06880472469002CF8D110BD00001C
:104D8000D800002070B5EFF311800646202080F394
:104D9000118800BF00BF0F4801F04EF804462546B9
:104DA00028460D4A117805E0CAB242F0800200F8A8
:104DB000012BC9097F29F7D800F8011B05461B22E2
:104DC0002946204601F03CF8F0B280F3118800BF7C
:104DD00000BF70BD0C5B0020DC0000202DE9F0411D
:104DE0000446EFF311800546202080F3118800BFB0
:104DF00000BF0B4801F020F80746802221463846C4
:104E000000F0A2FF06460E223146384601F018F89F
:104E1000E8B280F3118800BF00BFBDE8F081000058
:104E20000C5B00202DE9F0410546EFF311800746A9
:104E3000202080F3118800BF00BF3B4800F0FCFF3A
:104E4000064634462046394B2A681B69D11A05E0CC
:104E5000CAB242F0800200F8012BC9097F29F7D8B5
:104E600000F8011B04462046A96805E0CAB242F0DA
:104E7000800200F8012BC9097F29F7D800F8011B2F
:104E8000044620222046696800F05EFF044609229D
:104E90002146304600F0D4FF34462046234B2A6892
:104EA0001B69D11A05E0CAB242F0800200F8012B5A
:104EB000C9097F29F7D800F8011B04462046E96894
:104EC00005E0CAB242F0800200F8012BC9097F292F
:104ED000F7D800F8011B04462046296905E0CAB24C
:104EE00042F0800200F8012BC9097F29F7D800F8A9
:104EF000011B04462046002105E0CAB242F08002B0
:104F000000F8012BC9097F29F7D800F8011B0446D6
:104F100015222146304600F093FFF8B280F3118845
:104F200000BF00BFBDE8F0810C5B0020E45A002008
:104F300010B50648006A38B10448006A406818B1E4
:104F40000249096A4868804710BD0000E45A002001
:104F50000149086170470000E45A002001460248F8
:104F60000069081A70470000E45A002070B501205B
:104F70003A490870EFF311800446202080F311882D
:104F800000BF00BF48780A223549FFF74BFCE0B26A
:104F900080F3118800BF00BF0A20FFF76FFEEFF318
:104FA00011800646202080F3118800BF00BF2D48E5
:104FB00000F042FF05462C462046284A516805E08D
:104FC000CAB242F0800200F8012BC9097F29F7D844
:104FD00000F8011B04462046204A916805E0CAB249
:104FE00042F0800200F8012BC9097F29F7D800F8A8
:104FF000011B04462046194A116905E0CAB242F075
:10500000800200F8012BC9097F29F7D800F8011B9D
:1050100004462046002105E0CAB242F0800200F8B2
:10502000012BC9097F29F7D800F8011B0446182273
:105030002146284600F004FFF0B280F3118800BF3B
:1050400000BF0648406A10B10449486A8047FFF72C
:105050008BFDFFF76DFFFFF795FE70BDE45A002052
:10506000899B00080C5B002070B5EFF311800546AA
:10507000202080F3118800BF00BF0A4800F0DCFE4A
:1050800004460948007838B10B222146204600F03A
:10509000D7FE002004490870E8B280F3118800BFF1
:1050A00000BF70BD0C5B0020E45A00202DE9F041E8
:1050B0000546EFF311800646202080F3118800BFDB
:1050C00000BF194800F0B8FE07468022294638463E
:1050D00000F03AFE04462046012105E0CAB242F043
:1050E000800200F8012BC9097F29F7D800F8011BBD
:1050F00004462046002105E0CAB242F0800200F8D2
:10510000012BC9097F29F7D800F8011B04461A2290
:105110002146384600F094FEF0B280F3118800BFBB
:1051200000BFBDE8F08100000C5B002070B50446B4
:105130000D466119102204F58070FBF798F91021D3
:1051400004F5807000F090FD012811D140F20D119E
:10515000D4F80721C4F8B821B4F80B21A4F8BC2175
:10516000095D84F8BE11002140F2BF10015503E033
:10517000012140F2BF10015570BD70B504460D46C7
:1051800061190D2204F58070FBF771F90D2104F50A
:10519000807000F069FD012808D1D4F80711C4F827
:1051A0006A1100214FF4B770015503E001214FF45B
:1051B000B770015570BD00002DE9F84305460C4657
:1051C00016461F46DDF82080052221A12046FBF768
:1051D00022F908B9BDE8F8831F480068082803D3FE
:1051E0001E48FFF763FFF5E71B48006800EB8000EF
:1051F0001B4941F820501848006800EB800001EB83
:10520000800044601448006800EB800001EB8000DF
:1052100086601148006800EB800001EB8000C760E9
:105220000D48006800EB800001EB8000C0F81080A2
:1052300009480068401C084908603B463246214640
:105240002846CDF8008000F095F800BFC2E70000C6
:1052500049444C4500000000E0000020E09B0008AD
:10526000F05B002070B505464048006800B970BD8D
:10527000002408E004EB84003D4951F82000A842D6
:1052800000D104E0641C394800688442F2D300BFB6
:1052900036480068401EA0420DD104EB8401344A18
:1052A00002EB81001421FBF77BF930480068401EB7
:1052B0002E49086057E02D480068844253D22B489D
:1052C0000068401E00EB8000294951F8200004EBE3
:1052D0008401274A42F8210024480068401E00EB60
:1052E0008000114601EB8000406804EB840102EB72
:1052F000810148601D480068401E00EB8000114697
:1053000001EB8000806804EB840102EB810188607E
:1053100016480068401E00EB8000114601EB80003B
:10532000C06804EB840102EB8101C8600F4800688B
:10533000401E00EB8000114601EB8000006904EB89
:10534000840102EB8101086108490968491E01EBEB
:10535000810102EB81001421FBF722F90348006868
:10536000401E0249086000BF81E70000E000002005
:10537000F05B00202DE9F04186B004460D4616464C
:105380001F46DDF83080142101A8FBF709F90194CC
:10539000029503960497CDF8148001A8FFF742FD0B
:1053A00006B0BDE8F081000003F0CEF903490860C3
:1053B00003E00121014802F0BDFEFAE730000020C1
:1053C00000BF012002F08AF8FBE7000010B500BF23
:1053D000502080F31188BFF34F8FBFF36F8F00BF52
:1053E00003F0C2F918B14FF080500449086000BFC3
:1053F000002080F3118800BF10BD000004ED00E024
:1054000000B593B0302107A8FBF7CAF8142102A811
:10541000FBF7C6F800BF002001902448006840F068
:105420008050224908600846006800F080500190D2
:1054300000BF00BF00BF002001901D48006840F47D
:1054400080401B4908600846006800F480400190D5
:1054500000BF00BF012007900004089002200D90BB
:1054600041050E9106210F91A82110910221119161
:105470000721129107A8FDF78BF808B1FBF789FD0A
:105480000F20029002200390002004904FF4A050BF
:1054900005904FF480500690052102A8FCF716FFF6
:1054A00008B1FBF776FD13B000BD000040380240A4
:1054B000007000400348006840F470000149086033
:1054C0007047000088ED00E010B50348FDF76DFC63
:1054D0000248FDF76AFC10BD90060020A0040020E1
:1054E00010B50268294B98420ED0B0F1804F0BD016
:1054F000274B984208D0274B984205D0264B98421C
:1055000002D0264B984203D122F070024B681A4316
:105510001E4B984220D0B0F1804F1DD01C4B9842BA
:105520001AD01C4B984217D01B4B984214D01B4BDF
:10553000984211D01A4B98420ED01A4B98420BD079
:10554000194B984208D0194B984205D0184B9842F5
:1055500002D0184B984203D122F44072CB681A4310
:1055600022F080034C6943EA040202608B68C36244
:105570000B688362054B984202D0084B984201D1D8
:105580000B6903630123436110BD0000000001406B
:105590000004004000080040000C004000040140EE
:1055A0000040014000440140004801400018004014
:1055B000001C00400020004030B5056A25F00105C0
:1055C0000562026A4368846924F0700424F00304CD
:1055D0000D682C4322F002028D682A43104DA84228
:1055E00000D103E00F4DA84206D100BF22F008020F
:1055F000CD682A4322F00402094DA84202D0094D89
:10560000A84207D123F4807323F400734D692B4320
:105610008D692B43436084614D684563026230BDF0
:10562000000001400004014030B5056A25F0100576
:105630000562026A4368846924F4E04424F44074F7
:105640000D6844EA052422F020028D6842EA051222
:10565000124DA84200D103E0114DA84207D100BF6E
:1056600022F08002CD6842EA051222F040020B4D82
:10567000A84202D00A4DA84209D123F4806323F442
:1056800000634D6943EA85038D6943EA85034360FE
:1056900084614D688563026230BD000000000140F6
:1056A0000004014030B5056A25F480750562026A80
:1056B0004368C46924F0700424F003040D682C438B
:1056C00022F400728D6842EA0522124DA84200D1F0
:1056D00003E0114DA84207D100BF22F40062CD685B
:1056E00042EA052222F480620A4DA84202D00A4D05
:1056F000A84209D123F4805323F400534D6943EAAF
:1057000005138D6943EA05134360C4614D68C563A1
:10571000026230BD000001400004014030B5056A5E
:1057200025F480550562036A4468C26922F4E042A8
:1057300022F440720D6842EA052223F400538D687A
:1057400043EA0533084DA84202D0084DA84204D1CF
:1057500024F480444D6944EA85144460C2614D6874
:105760000564036230BD00000000014000040140F8
:105770001448FBF739F9052002F0AAFC20E002F0FA
:10578000BDFB1049D1F89C0600F0D0FD0D48FBF799
:1057900063FA0C49086800F077FD0A4CB4F94C3004
:1057A000B4F93C20B4F92C10B4F91C0000F03CFD15
:1057B000322000F01BFD02F0CBFB012002F088FC40
:1057C000DDE700009C0E002070B50546AC6B0020A4
:1057D000E085E0842046FDF7ABFC70BD00BF00BF54
:1057E00002680C3252E8002F22F4907102680C32E9
:1057F00042E80013002BF3D100BF00BF00BF0268D6
:10580000143252E8002F22F001010268143242E8FB
:105810000013002BF3D100BF016B01290ED100BF93
:1058200000BF02680C3252E8002F22F0100102681B
:105830000C3242E80013002BF3D100BF202180F886
:105840003E1000210163704710B504462068C0680F
:1058500020F040002168C860202084F83D002046E8
:10586000FDF70DFF002010BDF8B5044694F83E008A
:10587000222873D1A068B0F5805F0CD1206950B99F
:105880000025A66A20684068C0F308003080A06A3E
:10589000801CA06215E0A56A0026A068B0F5805FB4
:1058A00003D0A06828B9206918B92068406828701A
:1058B00004E02068406800F07F002870A06A401C67
:1058C000A062E08D401E80B2E085002844D12068AF
:1058D000C06820F020002168C8602068C06820F4FB
:1058E00080702168C8602068406920F0010021684C
:1058F0004861202084F83E00206B012826D100203A
:10590000206300BF00BF21680C3151E8001F21F067
:10591000100021680C3141E80002002AF3D100BFD9
:105920002068006800F0100010280AD100BF002095
:10593000009020680068009020684068009000BFD8
:1059400000BFA18D2046FDF7F2FB02E02046FDF7E7
:1059500095FE0020F8BD01E00020FBE70220F9E7FA
:105960002DE9F84F04462068006920F44050E168B2
:105970000843216808612169A068084361690843F8
:10598000E169084300902068C06849F20C618843CF
:10599000009908432168C8602068406920F440707D
:1059A000A16908432168486176492068884203D08C
:1059B00075492068884203D1FCF782FD814602E0E8
:1059C000FCF76EFD8146E069B0F5004F6CD1022016
:1059D0006168A0FB015003461920A9FB0070014635
:1059E0002A463846FAF7A0FC6421B0FBF1F04FEAF2
:1059F000001A02206168A0FB01510B461920A9FB87
:105A000000712A463846FAF78FFC83460220616807
:105A1000A0FB015003461920A9FB00712A46384615
:105A2000FAF782FC6421B0FBF1F000EBC00101EB5E
:105A30000010ABEB8000322101EBC0006421B0FB11
:105A4000F1F000F0F8000AEB400A02206168A0FBC8
:105A5000015003461920A9FB007001462A4638462A
:105A6000FAF762FC834602206168A0FB01500346FE
:105A70001920A9FB00712A463846FAF755FC642123
:105A8000B0FBF1F000EBC00101EB0010ABEB8000CC
:105A9000322101EBC0006421B0FBF1F000F00700FF
:105AA0005044216888606AE004206168A0FB0150CE
:105AB00003461920A9FB007001462A463846FAF72A
:105AC00033FC824604206168A0FB01500346192084
:105AD000A9FB007001462A463846FAF725FC6421E6
